:100000000C94B40B0C94DC0B0C94DC0B0C94DC0BFC
:100010000C94DC0B0C94DC0B0C94DC0B0C94DC0BC4
:100020000C94DC0B0C94DC0B0C94DC0B0C94DC0BB4
:100030000C94DC0B0C94DC0B0C94DC0B0C94DC0BA4
:100040000C9480200C94DC0B0C94DC0B0C94DC0BDB
:100050000C94DC0B0C94DC0B0C94DC0B0C94DC0B84
:100060000C94CA200C94DC0B82AAA62E81D129D92B
:10007000C595B50000000000000000000000000071
:10008000003E5B4F5B3E3E6B4F6B3E1C3E7C3E1C1E
:10009000183C7E3C181C577D571C1C5E7F5E1C0064
:1000A000183C1800FFE7C3E7FF0018241800FFE71B
:1000B000DBE7FF30483A060E2629792926407F05DE
:1000C0000507407F05253F5A3CE73C5A7F3E1C1CF4
:1000D00008081C1C3E7F14227F22145F5F005F5FB4
:1000E00006097F017F006689956A606060606094A0
:1000F000A2FFA29408047E040810207E20100808A5
:100100002A1C08081C2A08081E101010100C1E0CAF
:100110001E0C30383E3830060E3E0E060000000041
:100120000000005F00000007000700147F147F1428
:10013000242A7F2A1223130864623649562050006D
:1001400008070300001C2241000041221C002A1C59
:100150007F1C2A08083E0808008070300008080844
:100160000808000060600020100804023E51494564
:100170003E00427F400072494949462141494D3382
:100180001814127F1027454545393C4A49493141E9
:10019000211109073649494936464949291E0000B7
:1001A000140000004034000000081422411414140C
:1001B0001414004122140802015909063E415D59F8
:1001C0004E7C1211127C7F494949363E4141412201
:1001D0007F4141413E7F494949417F090909013E2B
:1001E000414151737F0808087F00417F4100204052
:1001F000413F017F081422417F404040407F021C64
:10020000027F7F0408107F3E4141413E7F0909097A
:10021000063E4151215E7F09192946264949493246
:1002200003017F01033F4040403F1F2040201F3F0C
:100230004038403F63140814630304780403615991
:10024000494D43007F4141410204081020004141D3
:10025000417F04020102044040404040000307087F
:100260000020545478407F2844443838444444287B
:10027000384444287F385454541800087E09021822
:10028000A4A49C787F0804047800447D40002040AA
:10029000403D007F1028440000417F40007C0478EE
:1002A00004787C080404783844444438FC18242436
:1002B0001818242418FC7C080404084854545424B6
:1002C00004043F44243C4040207C1C2040201C3C33
:1002D0004030403C44281028444C9090907C44642A
:1002E000544C4400083641000000770000004136BD
:1002F000080002010204023C2623263C1EA1A16143
:10030000123A4040207A3854545559215555794174
:100310002254547842215554784020545579400C49
:100320001E5272123955555559395454545939552C
:100330005454580000457C410002457D420001456F
:100340007C407D1211127DF0282528F07C54554503
:10035000002054547C547C0A097F4932494949326F
:100360003A4444443A324A4848303A4141217A3A80
:1003700042402078009DA0A07D3D4242423D3D404C
:1003800040403D3C24FF2424487E4943662B2FFCFB
:100390002F2BFF0929F620C0887E090320545479A9
:1003A000410000447D413048484A32384040227A7A
:1003B000007A0A0A727D0D19317D2629292F2826F7
:1003C0002929292630484D402038080808080808FF
:1003D0000808382F10C8ACBA2F102834FA00007B58
:1003E000000008142A142222142A1408550055006B
:1003F00055AA55AA55AAFF55FF55FF000000FF005A
:10040000101010FF00141414FF001010FF00FF1054
:1004100010F010F0141414FC001414F700FF000086
:10042000FF00FF1414F404FC141417101F10101F05
:10043000101F1414141F00101010F0000000001FF3
:10044000101010101F10101010F010000000FF10FE
:100450001010101010101010FF10000000FF1400FA
:1004600000FF00FF00001F10170000FC04F414142C
:100470001710171414F404F40000FF00F7141414F8
:1004800014141414F700F7141414171410101F1078
:100490001F141414F4141010F010F000001F101F9B
:1004A0000000001F14000000FC140000F010F01009
:1004B00010FF10FF141414FF141010101F00000080
:1004C00000F010FFFFFFFFFFF0F0F0F0F0FFFFFF84
:1004D0000000000000FFFF0F0F0F0F0F38444438DB
:1004E00044FC4A4A4A347E02020606027E027E022A
:1004F00063554941633844443C04407E201E200635
:10050000027E020299A5E7A5991C2A492A1C4C7271
:1005100001724C304A4D4D303048784830BC625AF8
:10052000463D3E494949007E0101017E2A2A2A2A88
:100530002A44445F444440514A444040444A514064
:100540000000FF0103E080FF000008086B6B083625
:1005500012362436060F090F060000181800000096
:100560001010003040FF0101001F01011E00191D85
:100570001712003C3C3C3C00000000000001030757
:100580000F1F3F7F0080C0E0F0F8FCFE000000007D
:1005900023002600290000000008000201000003DB
:1005A000040700000000000000000000000024001C
:1005B00027002A00DB40A4A62EAF2000A1C8D3004C
:1005C000408DAED580A801020408102040800102B1
:1005D000040810200102040810200000000025007B
:1005E00028002B0004040404040404040202020290
:1005F0000202030303030303000060000000000085
:10060000000000000000000000E00000000000000A
:100610000000000000000001E000000000000000F9
:1006200000000000000001F00000000000000000D9
:10063000000000000003F0000000000000000000C7
:100640000000000007F000000000000000000000B3
:1006500000000007F800000000000000000000009B
:1006600000000FF800000003C0007E000001E00061
:100670007F0FF800000003C000FE000001E000FF53
:10068000EFF800000003C000FE000001E000FFFFE3
:10069000F800000003C000F00000000F007FFE7FA4
:1006A000C0000003C000F00000000F003FFE7FF814
:1006B0003FF1FBCFFCFEF3BC3DEFE01FFE7FFF7F71
:1006C000FBFFDFFEFEFFBC3DEFE01FC6FFFF7FFB31
:1006D000FFDFFEFEFFBC3DEFE00FE3C7FE787BC30C
:1006E000DE1EF0FFBC3DEF0007FF87FC787BC3DE1A
:1006F0001EF0F83C3DEF0001FFFFF0007BC3C01E81
:10070000F0F03C3DEF0001F37FE03FFBC3CFFEF094
:10071000F03C3DEF0003E33F807FFBC3DFFEF0F0E2
:100720003C3DEF0007E73C00787BC3DE1EF0F03C69
:100730003DEF0007FFBE00787BC3DE1EF0F03C3DBE
:10074000EF0007FFFE00787BC3DE1EF0F03C3DEFBC
:10075000000FFFFE007FFBFFDFFEF0F03FFDEFE04C
:100760000FFFFF007FFBFFDFFEF0F03FFDEFE00F2C
:10077000F9FF003E79F9CF9EF0F01F3DE7E01FF151
:10078000FF0000000000000000000000001F80FFCC
:10079000007FFFFFFFFFFFFFFFFFFFE01C007F0068
:1007A0007FFFFFFFFEB46D888D18E000001F007F03
:1007B000FFFFFFFE95AD7DB577E000000F007FFFE6
:1007C000FFFFFEA5AD9D8D19E0000006007FFFFF35
:1007D000FFFEB5ADEDB57EE0000000000001800039
:1007E0000000000000000000038000000000000086
:1007F00000000007C000000000000000000007C06B
:100800000000000000000000000FC0000000000019
:10081000000000001FE00000000000000000001FBA
:10082000E00000000000000000003FE000000000C9
:1008300000000000003FF000000000000000000089
:100840007FF0000000000000001FF87FF0000000B3
:10085000000000003FFE7FF0000000000000003FAD
:10086000FF7FF0000000000000001FFFFBE0000021
:1008700000000000000FFFF9FFC0000000000000B2
:100880000FFFF9FFF800000000000007FFF1FFFF75
:1008900000000000000003FC73FFFF800000000068
:1008A0000001FE3FFFFF80000000000000FF1E0F60
:1008B000FF000000000000007FFE1FFC00000000A1
:1008C0000000003FFFFFF8000000000000000FDF05
:1008D000FFE0000000000000001F19FFC000000042
:1008E000000000003F3CFF00000000000000007E10
:1008F0007CF800000000000000007FFE7C0000008B
:100900000000000000FFFFFC0000000000000000ED
:10091000FFFFFE0000000000000000FFFFFE0000DF
:10092000000000000001FFEFFE00000000000000DA
:1009300001FFCFFE0000000000000003FF07FE00E3
:1009400000000000000003FC07FE000000000000A3
:100950000003F003FE00000000000000018000FE24
:10096000000000000000000000007E000000000009
:1009700000000000003E0000000000000000000039
:100980000C000000000000078000FC000003C00015
:100990000000078001FC000003C000000007800188
:1009A000FC000003C0000000078001E00000001E02
:1009B000000000078001E00000001E007FE3F79FB9
:1009C000F9FDE7787BDFC0FFF7FFBFFDFDFF787B18
:1009D000DFC0FFF7FFBFFDFDFF787BDFC0F0F787CB
:1009E000BC3DE1FF787BDE00F0F787BC3DE1F078AD
:1009F0007BDE0000F787803DE1E0787BDE007FF75B
:100A0000879FFDE1E0787BDE00FFF787BFFDE1E037
:100A1000787BDE00F0F787BC3DE1E0787BDE00F01C
:100A2000F787BC3DE1E0787BDE00F0F787BC3DE175
:100A3000E0787BDE00FFF7FFBFFDE1E07FFBDFC07A
:100A4000FFF7FFBFFDE1E07FFBDFC07CF3F39F3DDD
:100A5000E1E03E7BCFC0000000000000000000008D
:100A600000FFFFFFFFFFFFFFFFFFFFC0FFFFFFFFD4
:100A7000FD68DB111A31C0FFFFFFFFFD2B5AFB6A37
:100A8000EFC0FFFFFFFFFD4B5B3B1A33C0FFFFFFD3
:100A9000FFFD6B5BDB6AFDC003FFFFFFFFFFFFFF96
:100AA000000600000000000001800C0000000000B3
:100AB0000000C018000000000000006030000000CE
:100AC0000000000030600000000000000018C000BE
:100AD0000000000000000C80000000000000000486
:100AE0008000000000000000048000000000000002
:100AF00000048000411083C1E00004800063108482
:100B00002210000480007710881210000480005D1D
:100B10001084021000048000491083C21000048079
:100B2000004110802210000480004110801210004B
:100B300004800041108812100004800041108422BB
:100B40001000048000410F03C1A00004E000000079
:100B5000000000001C200000000000000010200029
:100B60000000000000001020000000000000001045
:100B70002000000000000000102000000000000025
:100B80000010200000000000000010E00000000045
:100B90000000001C80007F0F042210000480000869
:100BA0001084421000048000081084821000048029
:100BB0000008108502100004800008108602100052
:100BC00004800008108602100004800008108502CE
:100BD00010000480000810848210000480000810B7
:100BE00084421000048000080F0421E0000480000B
:100BF000000000000000048000000000000000046D
:100C0000800000000000000004C0000000000000A0
:100C1000000C600000000000000018300000000020
:100C2000000000301800000000000000600C000010
:100C30000000000000C0060000000000000180036A
:100C4000FFFFFFFFFFFFFF001415161718191A1BEF
:100C50001C1D1E1F202122232425262728292A2B5C
:100C60002C2D2E2F303132333435363738393A3B4C
:100C70003C3D3E3F404142434445464748494A4B3C
:100C80004C4D4E4F505152535455565758595A5B2C
:100C90005C5D5E5F606162636465666768696A6B1C
:100CA0006C6D6E6F707172737475767778797A7B0C
:100CB0007C7D7E7F808182838485868788898A8BFC
:100CC0008C8D8E8F909192939495969798999A9BEC
:100CD0009C9D9E9FA0C8A8681898D838780484C4A2
:100CE000A4E4945434B4F48CCCACEC1C5CDCBC7C3C
:100CF0000282C22262E2925232B2F20A4ACAAA6A5C
:100D00001A9ADA3A7AFA864626A6E61656D6B676BB
:100D10000E8ECE2E6EEE9E5E3EBEFE8141C1A16164
:100D20001191D13171F1894929A9E91959D9B979B3
:100D30000585C52565E5955535B5F50D4DCDAD6DEB
:100D40001D9DDD3D7DFD834323A3E3139353D333E7
:100D5000B373F38B4BCB2BAB6BEB9B5BDB7BFB075F
:100D600087C700000001C000000000000000000074
:100D7000000000000003E000003FFCF00000000065
:100D8000000000000003F000003FFCF00000000045
:100D9000000000000003F800003FFC00000000001D
:100DA000000000000001FC000003C0F3DE700F83B0
:100DB000DC0000000000FE000003C0F3FFF83FE38A
:100DC000FC00000000007F000003C0F3FFFC3FE3D5
:100DD000F800000000003F800003C0F3CF3C78F330
:100DE000E00000007F801FC00003C0F3CF3C7FF312
:100DF000C0000003FFF01FE00003C0F3CF3C7FF30F
:100E0000C000000FFFFC3FF00003C0F3CF3C7803AD
:100E1000C000003FFFFF7FF80003C0F3CF3C7CF32E
:100E2000C000007FFFFFFFFC0003C0F3CF3C3FE3A7
:100E3000C00000FF847FFCFE0003C0F3CF3C3FE313
:100E4000C00003FE041FF87F0003C0F3CF3C0F83F4
:100E5000C00003F80407F83F000000000000000095
:100E6000000007F00001F81F000000000000000073
:100E700000000FC00000FC0E000000000000000099
:100E800000001FC000007E00000000000000000005
:100E900000001FA00000FE00000000000000000095
:100EA00000003F1000013F000000000000000000B3
:100EB00000003E0800001F000000000000000000CD
:100EC00000007E0400001F80000000000000000001
:100ED00000007C0000000F80000000000000000007
:100EE00000007C0000000F800000000000000000F7
:100EF00000007C0000000F800000000000000000E7
:100F00000000FC00000007C000000000000000001E
:100F10000000F800000007C0000000000000000012
:100F20000000F8003C0027C00000000000000000A6
:100F30000000F8003C0037C0000000000000000086
:100F40000000FF003FFFFFE0000000000000000085
:100F50000000F8003C0037C0000000000000000066
:100F60000000F8003C0027C0000000000000000066
:100F70000000F800000007C00000000000000000B2
:100F80000000F800000007C00000000000000000A2
:100F900000007C0000000F80000000000000000046
:100FA00000007C0000000F80000000000000000036
:100FB00000007C0000000F80000000000000000026
:100FC00000007E0000001F80000000000000000004
:100FD00000003E0000021F000000000000000000B2
:100FE00000003F0800013F0000000000000000007A
:100FF00000001F900000FE00000000000000000044
:1010000000001FA000007E000000000000000000A3
:1010100000000FC00000FC003000000000000000D5
:10102000000007F00001F800380001FFF0000000A8
:10103000000007F80407F8003E0001FFF000000080
:10104000000003FE041FF0003F0001FFF000E00776
:10105000038001FF847FE0003FC001FFF001F00F3B
:1010600087C0007FFFFFC0003FE001FFF003B81D15
:10107000CEE0003FFFFF00003FF001FFF003BB9D0B
:10108000CEE0000FFFFE00003FF801FFF003BB9D24
:10109000CEE00003FFF800003FFC01FFF003BB9D22
:1010A000CEE00000FFC000003FFC01FFF003B81DD0
:1010B000CEE00000000000003FF801FFF003BB9D00
:1010C000CEE00000000000003FF001FFF001F38FD0
:1010D00087C00000000000003FE001FFF001F38F37
:1010E00087C00000000000003F8001FFF000E00723
:1010F00003800000000000003F0001FFF00000003E
:1011000000000000000000003E00000000000000A1
:101110000000000000000000380000000000000097
:10112000000001FFC00000000000000000000000FF
:1011300001FFC0000000000000000000000001FFEF
:10114000C0000000000000000000000001FFC0001F
:101150000000000000000000000001FFC0000000CF
:10116000000000000000000001FFC00000000000BF
:101170000000000000007FFFFF00000000000000F2
:10118000000000007FFFFF000000000000000000E2
:1011900000007FFFFF00000F0000000000000000C3
:1011A0007FFFFF00001F00000000000000007FFF25
:1011B000FF00003F00000000000000007C001F0056
:1011C000007E00000000000000007C001F0000FC0A
:1011D00000000000000000007C001F0001F800E09B
:1011E00038F0C00000007C001F0003F000F038F36E
:1011F000C00000007C001F0007E000F83803C000BA
:1012000000007C001F000FE000F838F7F3DC7C00E2
:101210007C001F001FC000FC38F7F3FCFF007C00BF
:101220001F003F8000FE38F7F3F9FF007C001F002D
:101230007F0000FF38F3C3E3EF807C001F00FFFF57
:1012400000F738F3C3C3C7807C001F01FFFF00F322
:10125000B8F3C3C3C7807C001F01FFFF00F1F8F3A0
:10126000C3C3C7807C001F01FFFE00F0F8F3C3C3B7
:10127000EF807C001F00FFFC00F0F8F3F3C1FF00DB
:101280007C001F0001FC00F078F3F3C0FE007C003E
:101290001F0003F800F038F1F3C07C007C001F0051
:1012A00003F000000000000000007C001F0007E0C9
:1012B00000000000000000007C001F000FC00000C4
:1012C0000000000000007C001F001FC000000000A4
:1012D000000000007C001F023F80000000000000B2
:1012E00000007C001F037F000000000000000000E1
:1012F0007C001F03FE0000000000000000007C00D6
:101300001F03FC0000000000000000007C001F0321
:10131000FC0000000000000000007C001F03F8003B
:1013200000000000000000007FFFFF03F800000045
:101330000000000000007FFFFF03FC000000000031
:10134000000000007FFFFF03FE000000000000001F
:1013500000007FFFFF000000000000000000000010
:101360007FFFFF0000000000000000000000000000
:101370007FFFFFFFC0000000000000000000000031
:10138000FFFFFFFFE0000000000000000000000180
:10139000FFFFFFFFF0000000F8633E7C000000014B
:1013A000FFFFFFFFF0000001FC633E7E0000000332
:1013B000FFFFFFFFF80000038E63306600000003AC
:1013C000E0000000F800000306363E66000000075B
:1013D000E0000000FC00000306363E7E000000072F
:1013E000C00000007E0000030636307C0000000FC5
:1013F000C00000007E0000038E1C306C0000001F47
:10140000800000003F000001FC1C3E660000001F41
:10141000800000003F000000F81C3E660000003F16
:10142000000000001F800000000000000000003FDE
:10143000000000000F800000000000000000007E9F
:10144000000000000FC00000000000000000007C51
:101450000000000007C003C333E3E3E61BF000FC19
:101460000000000007E007F333F3F3E71BF000F898
:101470000000000003E00E233333330798C001F867
:101480000000000003F00C03333333E798C001F091
:101490000000000001F00C0333F3F3E6D8C003F0C2
:1014A0000000000001F80C0333E3E30678C003E01A
:1014B000F0FF8703F0F80E233363630678C007E07C
:1014C000F8FF9F83F8FC07F3F33333E638C007C314
:1014D000FCFFBFC3F87E03C1E33333E618C00FC37C
:1014E0009E1839C39C7E00000000000000001F838E
:1014F0009E1879E39C3F00000000000000001F835D
:101500009E1879E39C3F00000000000000003F03AC
:10151000801879E39C1F80000000000000003F035A
:10152000801879E39C0F80000000000000007E011D
:10153000801879E39C0FC0000007000000007C01C8
:10154000F01879E3FC07C000000F80000000FC00E9
:10155000FC1879E3F807E000000F80000000F800B5
:10156000FC1879E3F003E000000F80000000FC00AD
:101570001E1879E38007E000000F800000007C0067
:101580001E1879E38007C000000F800000007E0075
:101590001E1879E3800FC000000F800000003E039A
:1015A0001E1879E3800F8000000F800000003F03C9
:1015B0001E1839E3801F8000000F800000001F8389
:1015C0009E183DC3801F0000000F800000001F8197
:1015D000FC183FC3803F0000000F800000000FC0D8
:1015E000FC181F83807E0000000F800000000FC0E9
:1015F00000000000007E0000000F8000000007E0F7
:101600000000000000FC0000000F8000000003E06C
:101610000000000000FC0000000F8000000003F04C
:101620000000000001F80000000F8000000001F041
:101630000000000001F00000000F8000000001F831
:101640000000000003F00000000F8000000000F820
:101650000000000003E00000000F8000000000FC1C
:101660000000000007E00000000F80000000007C88
:101670000000000007C00000000F80000000007E96
:10168000000000000FC00000000F80000000003FBD
:10169000000000000F800000000700000000003F75
:1016A000000000001F800000000000000000001F7C
:1016B000800000003F000000000000000000001F4C
:1016C000800000003F000000000000000000000F4C
:1016D000C00000007E0000000007000000000007BE
:1016E000C00000007E000000000F80000000000726
:1016F000E0000000FC000000001FC000000000032C
:10170000E0000000F8000000001FC000000000031F
:10171000FFFFFFFFF8000000000F80000000000145
:10172000FFFFFFFFF00000000007000000000001C5
:10173000FFFFFFFFF00000000000000000000000BD
:10174000FFFFFFFFE00000000000000000000000BD
:101750007FFFFFFFC000000000000000000022002B
:10176000FF2100009623223011241FBECFEFD8E0C6
:10177000DEBFCDBF11E0A0E0B1E0EEE2FCE602C0CA
:1017800005900D92A43EB107D9F723E0A4EEB1E095
:1017900001C01D92AE35B207E1F71BE0C3EBDBE001
:1017A00004C02197FE010E94EC31C23BD107C9F76A
:1017B0000E94D0230C940A360C94000008950895DA
:1017C0000895AF92BF92CF92DF92EF92FF920F9364
:1017D0001F93CF93DF936C017B018B01040F151FC7
:1017E000EB015E01AE18BF08C017D10759F069912F
:1017F000D601ED91FC910190F081E02DC601099593
:10180000892B79F7C501DF91CF911F910F91FF903F
:10181000EF90DF90CF90BF90AF900895833081F02C
:1018200028F4813099F08230A9F008958730A9F02A
:101830008830C9F08430B1F4809180008F7D03C07E
:10184000809180008F7780938000089584B58F7792
:1018500084BD089584B58F7DFBCF8091B0008F77D4
:101860008093B00008958091B0008F7DF9CFCF9321
:10187000DF93282F30E0F901EA56FA4F8491F901FD
:10188000EA53FA4FD491F901EC51FA4FC491CC23A9
:10189000A1F081110E940E0CEC2FF0E0EE0FFF1F63
:1018A000E457FA4FA591B491EC91ED2381E090E0DB
:1018B00009F480E0DF91CF91089580E090E0FACFC5
:1018C0001F93CF93DF93282F30E0F901EA56FA4FA8
:1018D0008491F901EA53FA4FD491F901EC51FA4F8E
:1018E000C491CC23A9F0162F81110E940E0CEC2F6D
:1018F000F0E0EE0FFF1FE652FA4FA591B4918FB7BB
:10190000F894EC91111108C0D095DE23DC938FBFC1
:10191000DF91CF911F910895DE2BF8CFCF93DF9306
:1019200090E0FC01EA53FA4F24918C519A4FFC014C
:1019300084918823D1F090E0880F991FFC01E6552F
:10194000FA4FA591B491FC01E652FA4FC591D4919A
:1019500061110EC09FB7F8948C91E22FE0958E2311
:101960008C932881E223E8839FBFDF91CF91089574
:101970008FB7F894EC91E22BEC938FBFF6CF8E30BB
:1019800008F08E508770806480937C0080917A008C
:10199000806480937A0080917A0086FDFCCF8091EC
:1019A00078009091790008953FB7F894809199025A
:1019B00090919A02A0919B02B0919C0226B5A89B9F
:1019C00005C02F3F19F00196A11DB11D3FBFBA2FD1
:1019D000A92F982F8827BC01CD01620F711D811D91
:1019E000911D42E0660F771F881F991F4A95D1F716
:1019F00008958F929F92AF92BF92CF92DF92EF9213
:101A0000FF924B015C010E94D40C6B017C010E948F
:101A1000D40C6C197D098E099F09683E73408105BD
:101A20009105A8F321E0821A9108A108B10888EE77
:101A3000C80E83E0D81EE11CF11C81149104A1049E
:101A4000B10429F7FF90EF90DF90CF90BF90AF9057
:101A50009F908F9008952FB7F894609195027091A0
:101A6000960280919702909198022FBF0895EF926D
:101A7000FF920F931F93CF93DF93EC01EC80FD80D7
:101A80006E157F050CF070C057FF04C0240F351F82
:101A900050E040E08E819F81FA01E20FF31F8E1724
:101AA0009F071CF49C01241B350B121613060CF027
:101AB0005BC0922F842F8695869586958E9DD0014A
:101AC0008F9DB00D11246A0F7B1FAF8DB8A1A60F9B
:101AD000B71F477049F188E0841B482F682F70E0DA
:101AE000FB01EC57FA4FE491281708F063C0621B22
:101AF00071092FEF30E002C0359527956A95E2F71E
:101B0000E2230130110539F0B0F10230110561F521
:101B10008C91E82702C08C91E82BEC93941720F16C
:101B20002C813D81A20FB31FE92FE41BE83078F030
:101B30000230110521F58E2F9C9190959C932C815C
:101B40003D81A20FB31F88508830B0F7E770EE23B5
:101B500059F0F0E0E458FA4FE49101301105F9F042
:101B600010F10230110519F1DF91CF911F910F9102
:101B7000FF90EF900895E0958C91E823CECF81E01F
:101B80000115110509F480E081959E2F8C932C811D
:101B90003D81A20FB31F98509830C0F7D7CF8C91DA
:101BA000E82BEC93E1CFE0958C91E823FACF8C9170
:101BB000E827F7CF0130110509F4ADCFE0F202308C
:101BC000110509F4A5CFAE0DBF1DAECF0F931F9326
:101BD000CF93DF9377FF04C0260F371F70E060E0DC
:101BE000DC011496CD91DC91FB01E20FF31FCE17BF
:101BF000DF071CF49E01261B370B121613064CF54B
:101C0000FA0157FD3796A3E0F595E795AA95E1F718
:101C1000EC9FD001ED9FB00DFC9FB00D11246A0F19
:101C20007B1FDC015F96ED91FC91E60FF71F47707B
:101C3000552781E090E001C0880F4A95EAF7482FC8
:101C40000130110559F0A8F02E0F3F1F0230110589
:101C5000E1F0DF91CF911F910F9108952E0F3F1F5B
:101C6000E217F307B1F38191DF011197842B8C9375
:101C7000F7CF80952E0F3F1FE217F30751F3919195
:101C8000DF01119798239C93F7CFE217F30709F32D
:101C90008191DF01119784278C93F7CF0F931F93C6
:101CA000FA01DC0156964C9156974230E9F04330E8
:101CB000A1F1413061F514964D915C91DA01AE1BB2
:101CC000BF0BFD01E21BF30B77FD0BC0DC01169689
:101CD0004D915C916417750724F4AB01BF010E941C
:101CE000E60D1F910F91089514964D915C91DA01C4
:101CF000A61BB70BBD0161507109DC0116964D9111
:101D00005C91DA01AE1BBF0BFD01E21BF30B77FD0B
:101D1000E8CFAF010E94370DE4CF16964D915C914C
:101D2000DA01A61BB70BBD0161507109CDCF0F932E
:101D30001F93FA01DC0156964C9156974230A9F058
:101D4000433091F1413019F514964D915C91DA01CF
:101D5000AE1BBF0BFD013197F7FD04C0AB01BF0106
:101D60000E94370D1F910F91089514964D915C912B
:101D7000DA01A61BB70BBD01DC0116964D915C91F3
:101D8000DA01AE1BBF0BFD013197621B730BF7FD30
:101D9000E9CFDC0116964D915C91E417F50714F735
:101DA000AF010E94E60DDECF16964D915C91DA01EF
:101DB000A61BB70BBD01621B730BCECFFC0177FDD9
:101DC00064C080859185681779070CF05EC057FD67
:101DD0005CC082859385481759070CF056C08689E8
:101DE0008230B1F0833029F1813041F484819581D2
:101DF000841B950BAB01BC01615071092130310589
:101E000009F108F443C02230310509F463C0089594
:101E100084819581DC01A61BB70BBD01615071095E
:101E200086819781DC01A41BB50BAD01415051099E
:101E3000E5CF86819781861B970BBA01AC01415093
:101E40005109DCCFCA0157FD0796A3E09595879508
:101E5000AA95E1F7A481B5818A9F90018B9F300DEF
:101E60009A9F300D1124620F731F078CF0A1E02D93
:101E7000E60FF71F4770552721E030E001C0220F21
:101E80004A95EAF78081822B80830895CA0157FD25
:101E9000079633E0959587953A95E1F7A481B5814A
:101EA0008A9F90018B9F300D9A9F300D1124620FF5
:101EB000731F078CF0A1E02DE60FF71F4770552721
:101EC00081E090E001C0880F4A95EAF78095908103
:101ED0008923DACFCA0157FD079623E095958795A8
:101EE0002A95E1F7A481B5818A9F90018B9F300DDF
:101EF0009A9F300D1124620F731F078CF0A1E02D03
:101F0000E60FF71F4770552721E030E001C0220F90
:101F10004A95EAF780818227B7CF08958EBD0000E9
:101F20000DB407FEFDCF8EB508958CBD9DBD0895FF
:101F30000895FC016370668B8481958126813781C9
:101F4000613039F0633029F09187808733872287A9
:101F50000895318720879387828708952F923F9233
:101F60004F925F926F927F928F929F92AF92BF92A9
:101F7000CF92DF92EF92FF920F931F93CF93DF9355
:101F8000CDB7DEB76A970FB6F894DEBF0FBECDBFF0
:101F90009A8F898F7A8369834A01D22E18870F839B
:101FA0003701BC2CDC0159962D913C915A97211593
:101FB000310509F015C118968D919C9119976817F4
:101FC00079070CF0D7C11A968D919C914817590743
:101FD0000CF0D0C14C2C512CB6E0CB9E600D711D85
:101FE00011247C876B87161617060CF0C3C1EA2DE7
:101FF000F0E0FA87E98793E0EE0FFF1F9A95E1F78B
:10200000F88BEF87CF01840F951F181619060CF077
:10201000B1C1A98DBA8D58968C91811104C0BFEAC7
:10202000BD1508F4D394A98DBA8DED91FC9111974B
:102030000284F385E02DCD010995B5E0DB9EC0015A
:102040001124E981FA81FC83EB83312C212C9C0142
:1020500024583F4F388F2F8B4A2D50E05E8B4D8B8D
:10206000EF89F88DE20DF31D44919E828D82D12C73
:10207000C12C69817A81620D731D7A8B698B842FE3
:1020800090E09C8B8B8BE98DFA8DA081B18140FF14
:1020900082C0F1E0BF126FC0AF126DC01C96ED910F
:1020A000FC912F813885A4014C0D5D1D69897A89C9
:1020B000898D9A8D0995EB89FC89F595E7954E2FC9
:1020C0005FEFC51AD50A6D817E818D899E89680F63
:1020D000791F7E836D8398E0C916D10481F6AFEF36
:1020E0002A1A3A0AEB81FC81E40DF51DFC83EB838F
:1020F000F5E02F16310409F0B3CF2F81388526156E
:102100003705B9F0A98DBA8DED91FC91B1E0BB1204
:1021100057C0AB1255C069817A816B5F7F4F0088D1
:10212000F189E02D830128E030E0A401898D9A8DAA
:102130000995A98DBA8DED91FC9111970688F789C3
:10214000E02DCD016A960FB6F894DEBF0FBECDBF6D
:10215000DF91CF911F910F91FF90EF90DF90CF9083
:10216000BF90AF909F908F907F906F905F904F90B7
:102170003F902F9009941E96ED91FC91EF80F8848A
:1021800009851A8592014D815E816B817C81898DE3
:102190009A8D099590CF2F8138852615370509F43A
:1021A0008ACF31E0B31207C0A31205C01C96ED918F
:1021B000FC91930178CF1E96ED91FC917301E0CFD5
:1021C0006B857C85641975090684F785E02D73019C
:1021D0000F8518899201A401898D9A8D0995A9CF3F
:1021E000F90134969491329745915491D91AB7E0F8
:1021F000DB9E400D511D1124F901259134913C8B3A
:102200002B8BFA0125903490FA0132967490319616
:102210003491398B329664903196449041E04C155C
:1022200018F04A1508F07FC0662D062C000C770BBD
:102230007C836B83842D042C000C990B9E838D83EF
:10224000A98DBA8DED91FC9111970284F385E02D53
:10225000CD010995512CD12CC12CEA2DF0E0FA8743
:10226000E9872B2D30E03C872B87A401440D511DBD
:1022700047FC5A95588F4F8B69817A81660D711D85
:1022800067FC7A957E876D877989C71608F051CFEC
:102290002C2D30E04D815E81420F531FA985BA85F8
:1022A0004A9FC0014B9F900D5A9F900D1124FC0135
:1022B000E80DF91DF88BEF87852D612C4F89588D1E
:1022C000420F531F5E8B4D8B671408F050C044249F
:1022D0004394480E877041F4C1010196EB89FC8953
:1022E000E20DF31DD4901C01D7FE19C0A98DBA8D43
:1022F000ED91FC91662D70E0B1E0BB1219C0AB12FC
:1023000017C02D853E85620F731F0484F585E02D6F
:102310002F8138854D895E89898D9A8D0995DD0CCF
:102320006394842DD1CF1E821D821C821B8288CF94
:102330004B815C81640F751FAB85BC856A9FC001B2
:102340006B9F900D7A9F900D112469817A81680F9F
:10235000791F0684F785E02DEF80F88409851A85BA
:102360009D014F855889898D9A8D0995D8CF570C35
:10237000C3948ACF6A960FB6F894DEBF0FBECDBF66
:10238000DF91CF911F910F91FF90EF90DF90CF9051
:10239000BF90AF909F908F907F906F905F904F9085
:1023A0003F902F9008958F929F92AF92CF92EF928D
:1023B000FF920F931F93CF93DF93EC01262F898D0C
:1023C0009A8D0097B1F56A30D1F41D861C868D89EF
:1023D00098E0899F900111248E859F85820F931F1D
:1023E0009F878E8781E090E0DF91CF911F910F91C1
:1023F000FF90EF90CF90AF909F908F9008956D30A9
:1024000089F3EA88FB88088919894E855F856C8580
:102410007D85AD88CC88CE010E94AE0F2C898C853D
:102420009D8536E0239F800D911D11249D878C870B
:10243000D9CF6A3069F41D861C86FC013896E49178
:102440002D898E859F85E29F800D911D1124C8CF17
:102450006D3041F2FC0134963491631708F4C2CF19
:102460003296E491E61708F4BDCFFC0132968590D0
:102470009490862F831B97E0899F800C911C1124D8
:10248000F401329684913196E491882391F0EE2301
:1024900081F0F4013596E491EA88FB88088919896E
:1024A0004E855F856C857D85AD88CC88CE010E9488
:1024B000AE0FF4013496E4912C898C859D85E29FC2
:1024C000800D911D1124B2CF6F927F928F929F92B7
:1024D000AF92BF92CF92DF92EF92FF920F931F9332
:1024E000CF93DF93EC016B015A0139014801E88178
:1024F000F9810284F385E02D0995E881F98102884C
:10250000F389E02D87019301A501B601CE0109955C
:10251000A501480D591D41505109E881F9810288F2
:10252000F389E02D9301B601CE010995E881F98187
:102530000088F189E02D9401A501B601CE0109952D
:10254000C60CD71CB60161507109E881F981008879
:10255000F189E02D9401A501CE010995E881F98169
:102560000688F789E02DCE01DF91CF911F910F9161
:10257000FF90EF90DF90CF90BF90AF909F908F90A3
:102580007F906F9009946F927F928F929F92AF92FB
:10259000BF92CF92DF92EF92FF920F931F93CF9350
:1025A000DF935C01EB016A01490138018701DC011D
:1025B000ED91FC916217730719F5641675062CF0FE
:1025C000962D872D3A01C92ED82E96012619370946
:1025D0002F5F3F4F048CF58DE02DA301BE01C50197
:1025E0000995DF91CF911F910F91FF90EF90DF90B0
:1025F000CF90BF90AF909F908F907F906F900895F5
:102600004615570591F42617370724F0892D4B01FD
:10261000C22FD82F9E01281939092F5F3F4F068CF2
:10262000F78DE02DA601B401DACF0284F385E02D09
:102630000995D501ED91FC910488F589E02D830180
:102640009401A601BE01C5010995D501ED91FC914A
:102650000688F789E02DC501DF91CF911F910F9179
:10266000FF90EF90DF90CF90BF90AF909F908F90B2
:102670007F906F900994EF92FF920F931F93DC016C
:102680001A960D911C911B9718962D913C911997B4
:10269000ED91FC9100A0F1A1E02D7B0150E040E024
:1026A00070E060E009951F910F91FF90EF90089501
:1026B0004F925F926F927F928F929F92AF92BF9252
:1026C000CF92DF92EF92FF920F931F93CF93DF93FE
:1026D0006C012B015A0139014801DC01ED91FC919B
:1026E0000284F385E02D0995E201640C751CD60186
:1026F000ED91FC91C615D7055CF40088F189E02DB9
:1027000087019401A501BE01C60109952196EFCF6D
:102710000688F789E02DC601DF91CF911F910F91B7
:10272000FF90EF90DF90CF90BF90AF909F908F90F1
:102730007F906F905F904F9009948F929F92AF928D
:10274000BF92CF92DF92EF92FF920F931F93CF939E
:10275000DF93EC015B014A016901E881F9810284A0
:10276000F385E02D099595012C0D3D1D2150310972
:10277000E881F9810488F589E02D78018401A401BC
:10278000B501CE010995E881F9810688F789E02D28
:10279000CE01DF91CF911F910F91FF90EF90DF90CD
:1027A000CF90BF90AF909F908F9009948F929F92FF
:1027B000AF92BF92CF92DF92EF92FF920F931F934F
:1027C000CF93DF93EC015B014A0169017801E88155
:1027D000F9810284F385E02D0995C80CD91C860186
:1027E00001501109E881F9810488F589E02D9501EE
:1027F000A401B501CE010995E881F9810688F78920
:10280000E02DCE01DF91CF911F910F91FF90EF90BE
:10281000DF90CF90BF90AF909F908F900994EF92F0
:10282000FF920F931F93DC01ED91FC9100A0F1A1A9
:10283000E02D09951F910F91FF90EF9008950F9350
:102840001F93DC01ED91FC91068CF78DE02D09952D
:102850001F910F9108950F931F93DC01ED91FC914F
:10286000048CF58DE02D09951F910F9108952F92FD
:102870003F924F925F926F927F928F929F92AF9210
:10288000BF92CF92DF92EF92FF920F931F93CF935D
:10289000DF9300D000D0CDB7DEB76C0101E010E0CF
:1028A00029E030E043E350E0BC018AE193E00E947C
:1028B0002B1454E0452E512C22242394312CF12C3E
:1028C000E12C84E090E09C838B8388EF9FEF9A83D8
:1028D00089837DEF672E77247A949FEFE91AF90AAE
:1028E00082E0280E311C620C731C8B819C818E153A
:1028F0009F050CF457C04C01880C991C9FEF891A56
:10290000990A01E010E0940147E3A42EB12C8B81D9
:102910009C81A81AB90AA501B7016C0D7D1D8AE139
:1029200093E00E942B149401A501B6016E197F0952
:102930008AE193E00E942B148B819C81841595057C
:10294000F9F0B601640D751D01E010E0410192E05F
:10295000891A9108940188E3A82EB12CAE18BF08FB
:10296000A5018AE193E00E942B14B6016419750950
:102970009401A5018AE193E00E942B144B805C80B6
:102980008B819C81E816F90694F477FCA6CF019719
:102990009C838B8389819A8102969A838983680EAE
:1029A000791E9BCF8B819C818415950551F60F90E4
:1029B0000F900F900F90DF91CF911F910F91FF908B
:1029C000EF90DF90CF90BF90AF909F908F907F90CF
:1029D0006F905F904F903F902F900895DC01ED91A4
:1029E000FC910084F185E02D09943F924F925F9213
:1029F0006F927F928F929F92AF92BF92CF92DF920F
:102A0000EF92FF920F931F93CF93DF9300D000D0EC
:102A1000CDB7DEB75C013B016A014901280187E0BF
:102A2000480E511C93E0559447949A95E1F7CA01DA
:102A30008E0D9F1D9A838983F12CE12C312C1C82F1
:102A40001B828B819C8187709927330C892B61F4C1
:102A5000EB81FC8183E0F595E7958A95E1F7EE0D32
:102A6000FF1DE80DF91D349037FE0AC021E030E06B
:102A7000A6016B817C81660D771DC5010E94EE1455
:102A80008B819C8101969C838B8308171907C9F65B
:102A90009FEFC91AD90AE40CF51C89819A81C816DE
:102AA000D90669F60F900F900F900F90DF91CF919C
:102AB0001F910F91FF90EF90DF90CF90BF90AF905C
:102AC0009F908F907F906F905F904F903F90089570
:102AD0002F923F924F925F926F927F928F929F922E
:102AE000AF92BF92CF92DF92EF92FF920F931F931C
:102AF000CF93DF937C016B01EA0181E090E05C0100
:102B0000A41AB50A66247724641A750A660C771C21
:102B100010E000E088248394912C822F8470582E3A
:102B2000822F8270482E822F8870382E2170222E9C
:102B30000C171D070CF079C0B7FC06C0219782E086
:102B4000680E711CA60CB71C0F5F1F4F82E0880E29
:102B5000911CA80CB91C5520C1F021E030E0AE0159
:102B60004C0D5D1DB701600F711F8AE193E00E945B
:102B7000EE1421E030E0A601400F511FBE016E0DA2
:102B80007F1D8AE193E00E94EE144420C1F021E011
:102B900030E0A6014C1B5D0BB701600F711F8AE18D
:102BA00093E00E94EE1421E030E0A601401B510B9F
:102BB000BE016E0D7F1D8AE193E00E94EE1433206A
:102BC000C1F021E030E0A601400F511FB7016C1B9E
:102BD0007D0B8AE193E00E94EE1421E030E0AE012B
:102BE0004C0D5D1DB701601B710B8AE193E00E94E3
:102BF000EE14222009F49CCF21E030E0A601401B16
:102C0000510BB7016C1B7D0B8AE193E00E94EE141F
:102C100021E030E0A6014C1B5D0BB701601B710B7E
:102C20008AE193E00E94EE1483CFDF91CF911F9150
:102C30000F91FF90EF90DF90CF90BF90AF909F905B
:102C40008F907F906F905F904F903F902F9008955E
:102C50002F923F924F925F926F927F928F929F92AC
:102C6000AF92BF92CF92DF92EF92FF920F931F939A
:102C7000CF93DF9300D000D0CDB7DEB72C013B015E
:102C80001A0179011C830B835801AA0CBB1C4A0151
:102C90008A189B086801C40CD51C01E010E094015F
:102CA000AB01B6018AE193E00E941F14C701860DB3
:102CB000971D9A838983AC01415051099401B60153
:102CC0008AE193E00E941F14EA18FB088B819C8123
:102CD000680E791E9701A301B2018AE193E00E9478
:102CE0002B14420C531CB201615071099701A301CE
:102CF0008AE193E00E942B1421E04B815C81B301B7
:102D0000C6010E9468158B819C81481A590A91E07E
:102D1000491A510822E04B815C81B301C2010E9433
:102D20006815E980FA808B819C81E81AF90A91E0A4
:102D3000E91AF10824E04B815C81B701C2010E94CD
:102D4000681528E04B815C81B701C6010F900F9098
:102D50000F900F90DF91CF911F910F91FF90EF9007
:102D6000DF90CF90BF90AF909F908F907F906F90AB
:102D70005F904F903F902F900C9468152F923F9248
:102D80004F925F926F927F928F929F92AF92BF927B
:102D9000CF92DF92EF92FF920F931F93CF93DF9327
:102DA00000D000D000D0CDB7DEB73C016A013E8331
:102DB0002D83FC82EB825801A41AB50AB7FE03C02A
:102DC000B194A194B1088D809E80861A970A97FECF
:102DD00003C09194819491088A149B045CF0902F15
:102DE000812F0D811E819D838E839C2D8D2D6B01E6
:102DF000692F782F0C151D055CF09D818E817E83D7
:102E00006D83692F782F902F812F8601C92ED82EA0
:102E10001601201A310A2B012D813E81421A530AD4
:102E200057FE03C0519441945108710137FE03C00D
:102E30003FEFE31AF30AF594E7948D819E8186179C
:102E400097075CF5A1E0B0E0BA83A983C016D1066C
:102E50004CF1D301ED91FC910484F585E02D2B819B
:102E60003C81A8016D817E818A149B041CF04D81F8
:102E70005E81B801C3010995E418F508F7FE0AC0A0
:102E80002D813E8189819A81280F391F3E832D83B0
:102E9000E20CF31C0F5F1F4FD9CF2FEF3FEF3A83A8
:102EA0002983D4CF26960FB6F894DEBF0FBECDBFD0
:102EB000DF91CF911F910F91FF90EF90DF90CF9016
:102EC000BF90AF909F908F907F906F905F904F904A
:102ED0003F902F900895089520914A02260F33279E
:102EE000331F21323105ECF420916E02FC0190E099
:102EF00080E0243069F082E00895A0914A02219197
:102F0000AC01465D5D4FA40FB52FB11D2C9301960A
:102F1000861798F380914A02680F60934A0280E016
:102F2000089581E0089510926E0281E0809370020E
:102F300010926F0261E082E10E94600C61E083E127
:102F40000E94600CE9EBF0E080818E7F80838081BD
:102F50008D7F808388E48093B80085E48093BC00F3
:102F60000895CF93DF9391E0909329028823B9F0DD
:102F7000C091B800D091BA008091BC008A7B809348
:102F8000BC0060E082E10E94600C60E083E10E948E
:102F9000600C0E949317D093BA00C093B800DF91E1
:102FA000CF910895E091A3028091A202E81730F436
:102FB000F0E0EC5FFD4F808190E008958FEF9FEF90
:102FC00008959091A3028091A2022FEF3FEF9817EE
:102FD00048F4E92FF0E0EC5FFD4F208130E09F5F87
:102FE0009093A302C90108958091A2029091A30237
:102FF000891B990B0895CF92DF92EF92FF920F9366
:103000001F93CF93DF937C01CB018A012091190399
:10301000222389F0EB016B01C40ED51ECC15DD0512
:1030200069F06991D701ED91FC910190F081E02D5B
:10303000C7010995F3CF642F0E946C17C801DF9177
:10304000CF911F910F91FF90EF90DF90CF90089557
:10305000CF93DF931F92CDB7DEB769832091190319
:103060002223F9F020911603203258F021E030E0BD
:10307000FC013383228390E080E00F90DF91CF91B9
:10308000089580911703E82FF0E0EC51FE4F9981ED
:1030900090838F5F809317038093160381E090E005
:1030A000ECCF61E0CE0101960E946C17F7CFCF9272
:1030B000DF92EF92FF920F931F93CF93DF93D09104
:1030C000160381E0D13208F09CC0C09118030E9421
:1030D000D40C6B017C0180916E0281116CC082E086
:1030E00080936E0281E0809370028FEF80936D0277
:1030F00010929202D0939102A4EEB1E0E1E7F2E0E7
:1031000080E0D8138DC01092930280919302CC0F6F
:10311000C82BC093930280916F02813009F084C064
:1031200010926F020E94D40C6B017C01809193027B
:103130008093BB008091250290912602A0912702E6
:10314000B0912802892B8A2B8B2BA1F00E94D40CE2
:103150000091250210912602209127023091280229
:103160006C197D098E099F0906171707280739076B
:1031700008F442C08091BC0083FDD8CF85EC8093D9
:10318000BC000E94D40C6B017C0180916E028230E5
:1031900009F44CC080916D028F3F09F469C08091A1
:1031A0006D02803209F466C080916D02803309F4AB
:1031B00063C084E026C08091250290912602A091F0
:1031C0002702B0912802892B8A2B8B2B09F483CFFD
:1031D0000E94D40C00912502109126022091270212
:1031E000309128026C197D098E099F09061717076F
:1031F0002807390708F06FCF809124020E94B11789
:1032000085E0109217031092160310921903DF91B4
:10321000CF911F910F91FF90EF90DF90CF90089585
:103220009D9191938F5F6DCF85EEA9CF80912502FF
:1032300090912602A0912702B0912802892B8A2B17
:103240008B2B09F4A2CF0E94D40C0091250210917F
:10325000260220912702309128026C197D098E09DF
:103260009F09061717072807390708F08ECFC4CF24
:1032700080E0C7CF82E0C5CF83E0C3CFEF92FF925B
:103280000F931F93CF93DF937C01C62F8091370359
:1032900090913803009709F459C020913B0331E025
:1032A00030931903209318031092170310921603FA
:1032B000DC01ED91FC910190F081E02D60E0099539
:1032C0008701EE24E394F12CD1E0C15080913703C3
:1032D00090913803CF3F91F1B0E2EB16F104D8F0B2
:1032E0000E945718809137039091380320913B0337
:1032F000D09319032093180310921703109216030A
:10330000DC01ED91FC910190F081E02D60E00995E8
:10331000EE24E394F12C8091370390913803F80167
:103320006491DC01ED91FC910190F081E02D099513
:10333000BFEFEB1AFB0A0F5F1F4FC7CFDF91CF9193
:103340001F910F91FF90EF900C945718E091470355
:10335000F0914803908180914D038095892380836B
:103360008701C15008F438C0F801849120913503D9
:1033700030913603232B29F00E948E0F0F5F1F4FD1
:10338000F0CF28E030E040E8E0914303F0914403BF
:1033900090914B03582F5423D9F05081952B908353
:1033A000E0914503F0914603908150914C03952B99
:1033B0009083E0914503F0914603508190914C0336
:1033C000909595239083469521503109E9F6D6CF03
:1033D000508190959523E3CFDF91CF911F910F916D
:1033E000FF90EF9008951F93CF93DF93EC018D8DA5
:1033F0009E8D009721F1162F29A131E030931903FA
:10340000209318031092170310921603DC01ED911C
:10341000FC910190F081E02D60E009958D8D9E8DED
:10342000DC01ED91FC910190F081E02D612F099577
:103430008D8D9E8DDF91CF911F910C945718ADA566
:10344000BEA59C918BA9809589238C938B8D9C8D97
:10345000892B31F0862FDF91CF911F910C948E0F25
:1034600028E030E080E8A9A5BAA599A9462F48230D
:10347000C1F04C91942B9C93ABA5BCA59C914AA9FF
:10348000942B9C93ABA5BCA54C919AA990959423A1
:103490009C9386952150310931F7DF91CF911F918F
:1034A00008954C9190959423E6CFDF92EF92FF928E
:1034B0000F931F93CF93DF9380913703909138033D
:1034C000892B09F498C020914F033091500340910B
:1034D00051035091520360E074E284EF90E00E9447
:1034E0008C3120513109410951095695479537953D
:1034F00027952093B80065E08EE597E10E943E197C
:1035000060911E0361508AE193E00E94F3192091BB
:10351000200330912103C901079697FD079633E0F8
:10352000959587953A95E1F720911E0330911F03F9
:10353000829F8001839F100D929F100D1124C091D6
:103540003903D0913A0380913703909138030C0FDF
:103550001D1F009709F48FC020913B0331E0309389
:103560001903209318031092170310921603DC011D
:10357000ED91FC910190F081E02D60E40995EE243D
:10358000E394F12CDD24D394809137039091380398
:103590000C171D0709F446C0B0E2EB16F104D8F091
:1035A0000E945718809137039091380320913B0374
:1035B000D092190320931803109217031092160348
:1035C000DC01ED91FC910190F081E02D60E4099522
:1035D000EE24E394F12C80913703909138036991A4
:1035E000DC01ED91FC910190F081E02D0995BFEF98
:1035F000EB1AFB0AC9CF8091350390913603892BD2
:1036000031F080915803909159030E94950FE091F9
:103610004903F0914A03908180914E03809589235C
:10362000808369CF0E9457188091370390913803A7
:10363000892B09F461C020915303309154034091C8
:1036400055035091560360E074E284EF90E00E94CD
:103650008C312051310941095109569547953795CB
:1036600027952093B800DF91CF911F910F91FF9084
:10367000EF90DF900895E0914703F0914803808137
:1036800090914D03892B80830C171D0769F2899156
:103690002091350330913603232B19F00E948E0FB1
:1036A000F3CF28E030E040E8E0914303F091440399
:1036B00090914B03582F5423D9F05081952B908330
:1036C000E0914503F0914603908150914C03952B76
:1036D0009083E0914503F0914603508190914C0313
:1036E000909595239083469521503109E9F6CCCFEA
:1036F000508190959523E3CFE0914903F0914A03DF
:10370000808190914E03892B8083ADCF1F93CF93FF
:10371000DF93EC01162F8D8D9E8D892BB1F12DA994
:103720003EA94FA958AD60E074E284EF90E00E949A
:103730008C312051310941095109569547953795EA
:1037400027952093B80066EA111167EACE010E941E
:10375000F3198D8D9E8D892B41F129AD3AAD4BAD7D
:103760005CAD60E074E284EF90E00E948C31205107
:103770003109410951095695479537952795209369
:10378000B800DF91CF911F9108958B8D9C8D892B6F
:1037900021F08EAD9FAD0E94950FEFA5F8A9908105
:1037A0008CA9809589238083CECFEFA5F8A980814D
:1037B0009CA9892B8083E5CF90E080E00895EF926B
:1037C000FF920F931F93CF93DF937B01880F991F75
:1037D000880F991FEC01259710E000E061E086E07A
:1037E0000E94600CCE010197F1F760E086E00E9434
:1037F000600CCE010197F1F70F5F1F4FE016F10645
:1038000069F7DF91CF911F910F91FF90EF9008958D
:103810001F93CF93DF93182F0E94BF0CEC01812FD1
:103820000E94BF0C8C0F9D1F96958795DF91CF91BD
:103830001F9108953F924F925F926F927F928F9265
:103840009F92AF92BF92CF92DF92EF92FF920F932F
:103850001F93CF93DF933B014A012901E7013C2CE1
:103860000E94370CF30191838083F4012081318120
:10387000892B09F059C0C0900703D0900803E0904D
:103880000903F0900A032130310531F511821082CD
:10389000F20180819181A281B381B701A601481B09
:1038A000590B6A0B7B0BC801110FAA0BBB0B4817F6
:1038B00059076A077B0780F039832883F501C082A6
:1038C000D182E282F382F1E03F121CC06DE470E02D
:1038D00088EC90E00E94DF1BF50180819181A2813C
:1038E000B381A7019601281B390B4A0B5B0BDA0148
:1038F000C9018C329140A105B10520F083E090E030
:1039000099838883DF91CF911F910F91FF90EF9062
:10391000DF90CF90BF90AF909F908F907F906F90EF
:103920005F904F903F900895232B61F781E090E0E6
:10393000918380838091070390910803A0910903EC
:10394000B0910A03F20180839183A283B3838881BB
:103950009981892BB9F282E090E0D2CFFC010190ED
:103960000020E9F73197AF01481B590BBC018AE1F0
:1039700093E00C94E10B8F929F92AF92BF920F93C2
:103980001F93CF93DF93CDB7DEB7A1970FB6F8940F
:10399000DEBF0FBECDBF19A2423008F44AE08E014F
:1039A0000F5D1F4F842E912CB12CA12CA5019401E9
:1039B0000E948C31E62FB901CA01EA30F4F4E05DCF
:1039C000D801EE938D01232B242B252B79F790E042
:1039D00080E0109719F0CD010E94AE1CA1960FB6A1
:1039E000F894DEBF0FBECDBFDF91CF911F910F9135
:1039F000BF90AF909F908F900895E95CE1CFCF92F8
:103A0000DF92EF92FF92CF93DF936B017C016DE227
:103A10008AE193E00E94D311EC0166277727CB015E
:103A20006C197D098E099F094AE00E94BB1C8C0F0E
:103A30009D1FDF91CF91FF90EF90DF90CF90089581
:103A40000C94AE1C0F931F9381114BC08091DB022D
:103A5000811147C02330C9F081E080932E03809309
:103A60002F03243049F087E390E0223039F48EE3CD
:103A700090E00436110514F082E090E09093270363
:103A80008093260389E390E00CC020932E032093BB
:103A90002F0382E090E090932703809326038AE02F
:103AA00090E09093290380932803CA01613049F084
:103AB00010922D0310922C0310922B0310922A03C4
:103AC0000AC021E030E030932D0320932C03309383
:103AD0002B0320932A030E94201D1F910F910C9409
:103AE000551A1F910F9108952091200330912103C1
:103AF000C901079697FD079623E0959587952A9526
:103B0000E1F720911E0330911F03829FA001839F44
:103B1000500D929F500D112470E060E080913903A8
:103B200090913A030C942B33EF92FF920F931F93D3
:103B300060E08FE00E94600C0E94741D8FE3E82E0D
:103B4000F12C0CE710E02EE633E150E040E070E0AD
:103B500060E08AE193E00E94F5140E94551A64E641
:103B600070E088EC90E00E94DF1B62E370E080E090
:103B700090E00E94F90C64E670E088EC90E00E940E
:103B8000DF1B62E370E080E090E00E94F90C64E6E5
:103B900070E088EC90E00E94DF1B6CED75E080E047
:103BA00090E00E94F90C809111038630B0F082E021
:103BB0000E94370C892B31F08091140390911503EA
:103BC000019759F4109211031092130310921203EB
:103BD0001092150310921403EACF0E94741D1F91D6
:103BE0000F91FF90EF900C94551A8F929F92AF9285
:103BF000BF92CF92DF92EF92FF920F931F93CF93DA
:103C0000DF93CDB7DEB728970FB6F894DEBF0FBEAF
:103C1000CDBFB82E6B014A010E94741D81E0B8121D
:103C200086C012E010932E0310932F0381E090E0E2
:103C300090932D0380932C0390932B0380932A035E
:103C400063E2A62EB12CB0922703A092260385E052
:103C500090E0909329038093280381E591E00E94EE
:103C6000201DB0922703A09226038AE190E0909352
:103C700029038093280387E591E00E94201DB092DC
:103C80002703A09226038FE290E09093290380936C
:103C900028038DE591E00E94201D92E0C916D10411
:103CA00071F1E3E0CE16D104B1F1CA94CD2891F4BC
:103CB00083E080930C03EE24E394F12C05E110E003
:103CC00026E430E041E050E06DE170E08AE193E00D
:103CD0000E9464120E94551A28960FB6F894DEBF0F
:103CE0000FBECDBFDF91CF911F910F91FF90EF904D
:103CF000DF90CF90BF90AF909F908F9008951093DA
:103D00000C03EE24E394F12C05E110E026E430E00E
:103D100046E150E0D9CF10920C03EE24E394F12C4D
:103D200005E110E026E430E04BE250E0CDCF82E048
:103D3000B812B1C00E94741D2AE2E22EF12C09E6ED
:103D400010E022E231E144E050E064E070E08AE11A
:103D500093E00E94F514B0922E03B0922F0387E3F4
:103D600090E090932703809326038DE290E0909358
:103D700029038093280391E0C916D10409F455C0A2
:103D8000E2E0CE16D10409F0A5CFF401B082EE2412
:103D9000E394F12C03E110E02DE030E046E150E047
:103DA0006AE070E08AE193E00E94581301E010E0BD
:103DB00010932D0300932C0310932B0300932A03DD
:103DC0008AE691E00E94201D10932D0300932C039E
:103DD00010932B0300932A0386E691E00E94201D96
:103DE00005E010E027E130E048E250E068E270E0F2
:103DF00088E590E00E94281610922D0310922C0363
:103E000010922B0310922A038BE090E090932703EB
:103E10008093260388E190E0909329038093280300
:103E20008EE691E00E94201D55CF81E0F401808351
:103E3000F12CE12C03E110E02DE030E044E150E012
:103E40006AE070E08AE193E00E945813D0922D035B
:103E5000C0922C03D0922B03C0922A0382E691E0F9
:103E60000E94201DD0922D03C0922C03D0922B03D0
:103E7000C0922A0385E691E00E94201D05E010E033
:103E800027E130E040E250E068E270E082E390E059
:103E90000E9428161FCFF3E0BF121CCF0E94741D92
:103EA0008CE3E82EF12C0BE710E022E63DE050E039
:103EB00040E070E060E08AE193E00E94F51482E067
:103EC000C816D10409F45EC093E0C916D10409F400
:103ED00068C0CA94CD2889F410920B0381E08093C6
:103EE000160105E010E027E130E048E150E068E22B
:103EF00070E08BE290E00E94281686E0EDE1F1E0B0
:103F00008E010F5F1F4FD80101900D928A95E1F746
:103F100018861F82809110038F9380910F038F93D7
:103F200080910E038F9380910D038F9380E791E032
:103F30009F938F931F930F930E94323383E080935C
:103F40002E0380932F0381E090E090932D038093C4
:103F50002C0390932B0380932A0385E390E09093A6
:103F600027038093260381E190E0909329038093B7
:103F70002803C8010E94201D0FB6F894DEBF0FBEB3
:103F8000CDBFA8CE10920B031092160105E010E0F1
:103F900027E130E049E150E068E270E081E490E040
:103FA000AACF81E080930B038093160105E010E017
:103FB00027E130E045E250E068E270E08AE590E019
:103FC0009ACFCF92DF92EF92FF920F931F93CF93EE
:103FD000DF93CDB7DEB728970FB6F894DEBF0FBEDC
:103FE000CDBF2091DB02211142C07F936F939F933D
:103FF0008F938AE791E09F938F93CE0101966C0196
:104000009F938F930E943233F12CE12C07E010E054
:1040100020E230E049E350E06FE570E08AE193E0B0
:104020000E94581381E080932E0380932F0381E038
:1040300090E090932D0380932C0390932B03809317
:104040002A038FE590E0909327038093260389E36A
:1040500090E09093290380932803C6010E94201DBD
:104060000E94551A0FB6F894DEBF0FBECDBF28963A
:104070000FB6F894DEBF0FBECDBFDF91CF911F9179
:104080000F91FF90EF90DF90CF9008950E9426331C
:1040900085ED8093BC008091250290912602A0912D
:1040A0002702B09128020796A11DB11D23E0B69505
:1040B000A795979587952A95D1F72091BC0024FD67
:1040C00003C010926E02089540912502509126027D
:1040D0006091270270912802452B462B472B69F3EC
:1040E0000097A105B10541F02AE22A95F1F700C039
:1040F0000197A109B109E1CF809124020C94B11775
:104100001F920F920FB60F9211242F933F938F930C
:104110009F93AF93BF938091950290919602A09147
:104120009702B09198023091940223E0230F2D372B
:1041300058F50196A11DB11D20939402809395021C
:1041400090939602A0939702B0939802809199025F
:1041500090919A02A0919B02B0919C020196A11DA0
:10416000B11D8093990290939A02A0939B02B09301
:104170009C02BF91AF919F918F913F912F910F9092
:104180000FBE0F901F90189526E8230F0296A11DD1
:10419000B11DD2CF1F920F920FB60F9211242F9301
:1041A0003F934F935F936F937F938F939F93AF93BF
:1041B000BF93EF93FF938091B900887F803609F415
:1041C0004AC0F0F5883209F4A7C018F5803109F427
:1041D0009BC0B8F4882309F4F9C0883009F494C06E
:1041E000FF91EF91BF91AF919F918F917F916F91CF
:1041F0005F914F913F912F910F900FBE0F901F90A5
:104200001895883109F488C0803251F780936D0287
:1042100014C0803409F49DC040F48033B9F388336E
:10422000F9F680936D0285ECB0C0803509F485C045
:10423000883509F496C0883499F60E944820D0CF7A
:10424000883909F48CC038F5883729F050F488365D
:1042500011F0803729F683E080936E0210926C0291
:1042600057C0883809F47BC0803919F0803809F0CC
:10427000B7CF80916C02803208F071C0E0916C027F
:1042800081E08E0F80936C028091BB00F0E0E45BD4
:10429000FD4F80833DC0803B39F0E0F4803A09F463
:1042A00079C0883A09F09CCF84E080936E02109226
:1042B0004B0210924A02E091A002F091A1020995EE
:1042C00080914A0281110FC081E080934A021092CE
:1042D0002A0209C0803C09F4A6CF883C09F4A3CF88
:1042E000883B09F07DCFE0914B0281E08E0F8093F7
:1042F0004B02F0E0E65DFD4F80818093BB00909122
:104300004B0280914A0229C0809193028093BB00A6
:1043100085EC8093BC0064CF9091920280919102D1
:10432000981758F5E091920281E08E0F80939202E7
:10433000F0E0EF58FD4F8081E9CFE091920281E0FB
:104340008E0F809392028091BB00F0E0EF58FD4FFA
:10435000808390919202809191029817C8F285E82B
:10436000D8CFE091920281E08E0F809392028091EB
:10437000BB00F0E0EF58FD4F808380917002811107
:104380005CCF81E080936F0284EA8093BC0010923E
:104390006E0226CF85EC8093BC0010926E02809155
:1043A0006C02803230F4E0916C02F0E0E45BFD4F8F
:1043B000108260916C0270E0E0919E02F0919F0289
:1043C0008CE492E0099510926C020ACF10926D0273
:1043D00034CF71E03D9A3C980000000000000E943C
:1043E00091233D980E949123A894000000000000B2
:1043F000359B0E947923D2F0889434990894771FD2
:1044000048F73D9A803019F03C980C9408223C9A69
:104410000000000000000E9491233D98A894000035
:104420000000359B0E9479230E9491230000000028
:104430003D9A872F9927089580E208950894881F50
:104440000C942322880FF1F03D9A00000000000038
:1044500020F400003C980C9430223C9A0C943022BA
:104460000E9491233D98A894000000000000359B15
:104470000E9479231AF488270C9455220E949123D4
:104480000C9422223D9A000000003C980E94912347
:10449000992788273D98A8940000359B0E9479238E
:1044A00052F3349B81E00E949123000000003D9A6A
:1044B000089581E008953D9A3C9A0E9491233D9889
:1044C0000E949123359B0E9479233C980E9491235E
:1044D000789408958F93F1E0E4EF8F918F93F8949F
:1044E000359B0E9479233C9A0E9491230E941E22B0
:1044F000882331F40E945B22319711F00C946D22D5
:1045000099270F9008950895F8943D9A0E94912359
:104510003C980E9491233D980E949123359B0E94D4
:1045200079233C9A0E9491230E941E22089581E0E3
:104530000895F894359B0E9479233C9A0E94912318
:104540000E941E22089581E00895DF92EF92FF926B
:104550000F931F93CF93DF93D82E0E945B2261E0CD
:1045600070E080E090E00E94F90C0E945B2261E024
:1045700070E080E090E00E94F90C8AE0E82EF12CD7
:1045800001E010E080EC0E949922C1E0D0E08111AE
:1045900004C010E000E0D0E0C0E084E40E941E22ED
:1045A000811104C010E000E0D0E0C0E08D2D0E9439
:1045B0001E22811102C0D0E0C0E00E945B2261E0B7
:1045C00070E080E090E00E94F90CCD2B21F481E0B6
:1045D000E81AF108B9F6012B41F1DF91CF911F9153
:1045E0000F91FF90EF90DF90089501501109A9F30A
:1045F00080EC0E949922C82F84E40E941E2281111F
:1046000001C0C0E0D0E08D2D0E941E22811102C0A9
:10461000D0E0C0E00E945B2261E070E080E090E0CA
:104620000E94F90CCD2B09F3D8CF0AE010E0E0CFBF
:10463000EF92FF920F931F93CF93DF93813009F492
:1046400043C0EB016233710564F40091F5021091EF
:10465000F60224E047E551E061E0809106030E9404
:10466000221D8CEA0E94A52261E08FE00E94600C6E
:1046700061E470E080E090E00E94F90C08E610E050
:104680008CE7E82E80E0F82EF80184910E94A522A4
:104690000F5F1F4FE016F106B9F7E091F702F091B6
:1046A000F802EB52F34F84910E94A522E29764F442
:1046B0000091F5021091F60224E047E551E062E036
:1046C000809106030E94221DDF91CF911F910F91CF
:1046D000FF90EF9008953C983D984498459888271E
:1046E0009927349B0895359B089581E0089581E0D2
:1046F0000895B0E0A4E000240E9489233AF40A94CB
:10470000D9F71197C1F728940C949023A8940C948E
:104710009023A89435990C948E2328940000089532
:1047200008959BE69A95F1F708950895EAE1F3E07C
:104730001382128220E830E03583248380E490E005
:10474000978386833187208793878287168A158689
:1047500014861786168681E0858B848B2FEF3FEFBA
:10476000338B228B318B208B878B108E128E118E88
:1047700089E291E091838083148E138E168E158EBC
:1047800010A2178E8BE084A38DE085A38CE086A316
:104790008AE087A388E080A780E586AF17AE0895FA
:1047A000CF93DF93CDB7DEB728970FB6F894DEBF6F
:1047B0000FBECDBF789484B5826084BD84B581601E
:1047C00084BD85B5826085BD85B5816085BD8091DC
:1047D0006E00816080936E00109281008091810054
:1047E000826080938100809181008160809381004C
:1047F000809180008160809380008091B10084600E
:104800008093B1008091B00081608093B00080916E
:104810007A00846080937A0080917A00826080932D
:104820007A0080917A00816080937A0080917A008A
:10483000806880937A001092C10061E089E00E9454
:104840008E0C8091390390913A03892B39F10E94A3
:10485000741D809120039091210360911E0370913B
:104860001F03813291050CF00DC1AC01405251097A
:1048700057FF02C04F5F5F4F5595479563577109CA
:1048800077FF02C06F5F7F4F75956795F0E2EF2E5F
:10489000F12C03E710E028EF35E00CC12091200354
:1048A00030912103C901079697FD079623E095955E
:1048B00087952A95E1F720911E0330911F038C0103
:1048C000029FC001039F900D129F900D11240E9422
:1048D000013290933A0380933903892B09F0B7CFC3
:1048E0000E946B231092060361E089E00E948E0C07
:1048F00060E08EE00E948E0C60E080E10E948E0CF1
:1049000060E081E10E948E0C60E084E00E948E0CE9
:1049100060E083E00E948E0C61E086E00E948E0CD5
:1049200060E082E00E948E0C60E085E10E948E0CC7
:1049300060E084E10E948E0C61E08FE00E948E0CAA
:1049400061E087E00E948E0C60E085E00E948E0CA2
:1049500060E087E00E94600C81E08093F10260E0FB
:1049600086E00E94600C61E082E00E94600C0E9480
:10497000741D00E3E02EF12C06E410E028E93AE093
:104980004AE050E06DE170E08AE193E00E94F514A6
:104990000E94551A60ED77E080E090E00E94F90CEB
:1049A00008E010E0C12CD12C76018EE00E94BF0CF3
:1049B000092E000CAA0BBB0BC80ED91EEA1EFB1E4B
:1049C0000150110991F7A701960113E055954795FC
:1049D000379527951A95D1F7A8E8B3E10E94CD3114
:1049E0002FEF33E040E050E00E94AE3105E010E0F0
:1049F000A5E0B0E00E94CD316C357444810591058D
:104A00000CF044C20E94741D82E080932E038093B8
:104A10002F0381E090E090932D0380932C039093DB
:104A20002B0380932A0383E290E0909327038093E3
:104A30002603109329030093280384E891E00E9441
:104A4000201D8DE290E090932703809326038AE156
:104A500090E090932903809328038AE891E00E94D4
:104A6000201D10932703009326038FE290E090937C
:104A70002903809328038EE891E00E94201D0E9464
:104A8000551AFFCFAC014054510957FF02C04F5F88
:104A90005F4F559547956255710977FF02C06F5F6B
:104AA0007F4F7595679510E4E12EF12C02E510E03B
:104AB00028ED37E08AE193E00E94F51482E08093CC
:104AC0003C038091370390913803892B09F4E8C0A7
:104AD0008091200390912103809709F0DFC08CE33F
:104AE00080933B031092A3021092A202109217032C
:104AF000109216030E9493178FED9BE09093A102F2
:104B00008093A00280EE9BE090939F0280939E0290
:104B10008091420387FD1EC061E00E948E0C61E01F
:104B2000809142030E94600C61E070E080E090E0C0
:104B30000E94F90C60E0809142030E94600C6AE0E0
:104B400070E080E090E00E94F90C61E08091420307
:104B50000E94600C8091370390913803892B09F4EF
:104B60005EC120914F033091500340915103509109
:104B7000520360E074E284EF90E00E948C31205197
:104B80003109410951095695479537952795209345
:104B9000B80064E082EC95E00E943E196091200329
:104BA00061508AE193E00E94F31964E08EEB95E096
:104BB0000E943E1980913C0360E1813009F064E17C
:104BC0008AE193E00E94F31964E08AEB95E00E9489
:104BD0003E198FE88093570380911E0390911F0325
:104BE0008038910509F034C1809120039091210310
:104BF0008034910509F03CC180913C03813009F07B
:104C000025C18FE98093570312E16AED8AE193E0B1
:104C10000E94F319612F8AE193E00E94F31961E881
:104C20008AE193E00E94F319609157038AE193E0CF
:104C30000E94F31969ED8AE193E00E94F3198091D3
:104C40003C0362E2813009F061EF8AE193E00E9467
:104C5000F31966E084EB95E00E943E1980913703DA
:104C600090913803892B09F407C1209153033091A7
:104C70005403409155035091560360E074E284EF71
:104C800090E00E948C31205131094109510956951B
:104C90004795379527952093B80022CE8DE320CFF6
:104CA00061E0809140030E948E0C61E0809141039D
:104CB0000E948E0C80914003082E000C990BFC0181
:104CC000EC51FA4FE491F0E0EE0FFF1FE652FA4F7D
:104CD000259134913093480320934703FC01EA5314
:104CE000FA4FE491E0934D0380914103082E000CAC
:104CF000990BFC01EC51FA4FE491F0E0EE0FFF1F2D
:104D0000E652FA4FA591B491B0934A03A093490398
:104D1000FC01EA53FA4FE491E0934E038C91E82BA7
:104D2000EC938091350390913603892B09F434C0BC
:104D30001FB7F89480919D02811127C0EEEEF5E037
:104D40008491E0EDF5E09491E82FF0E0EE0FFF1F85
:104D5000E655FA4FA591B491EC91E92321F461E075
:104D60008AE00E94600C61E08AE00E948E0C8CB5A3
:104D700080618CBD8CB580648CBD61E08DE00E944B
:104D80008E0C61E08BE00E948E0C80919D028F5F03
:104D900080939D021FBFBCCE61E080913E030E94C4
:104DA0008E0C61E080913F030E948E0C80913E0347
:104DB000082E000C990BFC01EC51FA4FE491F0E045
:104DC000EE0FFF1FE652FA4F2591349130934403C2
:104DD00020934303FC01EA53FA4FE491E0934B0321
:104DE00080913F03082E000C990BFC01EC51FA4F07
:104DF000E491F0E0EE0FFF1FE652FA4FA591B49157
:104E0000B0934603A0934503FC01EA53FA4FE491A3
:104E1000E0934C038C91E095E823EC9379CE80915C
:104E2000350390913603892B31F08091580390918E
:104E300059030E94950FE0914903F0914A03908134
:104E400080914E03809589238083A3CE8FECDACEA8
:104E50008036910569F48091200390912103409759
:104E600039F480913C03813029F480E18093570329
:104E700012E0CBCE8FEAFACFE0914903F0914A03DA
:104E8000808190914E03892B80832ACD0E94741DCE
:104E900087E080932E0380932F0381E090E090932E
:104EA0002D0380932C0390932B0380932A0381E29C
:104EB00090E00E9431308A3D09F450C06AE090E0F1
:104EC00080E00E94393064E181E090E00E94393056
:104ED00068E282E090E00E94393062E383E090E093
:104EE0000E9439306BE084E090E00E94393065E147
:104EF00085E090E00E94393069E286E090E00E940F
:104F0000393063E387E090E00E9439306CE088E05C
:104F100090E00E94393066E189E090E00E943930EB
:104F20006AE28AE090E00E94393064E38BE090E02E
:104F30000E94393061E080E290E00E94393061E007
:104F400085E290E00E94393060E089E190E00E94C3
:104F500039306AED81E290E00E94393090E080E0E3
:104F60000E943130182F8093DC0281E090E00E9493
:104F700031308093DD0282E090E00E9431308093F6
:104F8000DE0283E090E00E9431308093DF0284E013
:104F900090E00E9431308093E00285E090E00E9432
:104FA00031308093E10286E090E00E9431308093BE
:104FB000E20287E090E00E9431308093E30288E0D3
:104FC00090E00E9431308093E40289E090E00E94FA
:104FD00031308093E5028AE090E00E943130809386
:104FE000E6028BE090E00E9431308093E70280E29D
:104FF00090E00E9431308093F20285E290E00E94BE
:1050000031308093F002812F90E09093F8028093EA
:10501000F7020E942B0D6093CA027093CB0280931B
:10502000CC029093CD026093C2027093C30280932E
:10503000C4029093C50260930203709303038093AC
:105040000403909305036093F9027093FA0280932E
:10505000FB029093FC0288248394912CDD24D3944A
:105060000E942B0DAB01BC01409307035093080332
:105070006093090370930A0380910603811173C042
:105080008091020390910303A0910403B091050362
:105090008A019B01081B190B2A0B3B0BD901C80184
:1050A00020911601213009F012C3813117E29107D6
:1050B000A105B10508F457C00091FE021091FF024E
:1050C0002091000330910103800F911FA21FB31F95
:1050D0008093FE029093FF02A0930003B09301031C
:1050E00040930203509303036093040370930503FA
:1050F000BC01CD0128EE33E040E050E00E948C314D
:1051000029013A0121E942162EE752066104710491
:1051100030F0A0E94A2EAEE75A2E612C712CC30163
:10512000B20120E13EE040E050E00E948C31790184
:1051300030930E0320930D03C301B2012CE330E042
:1051400040E050E00E948C31CA01B9012CE330E00C
:1051500040E050E00E948C317093100360930F0385
:10516000C7010E94E11F8091070390910803A0915D
:105170000903B0910A034091F9025091FA0260913B
:10518000FB027091FC02841B950BA60BB70B8138B8
:105190009E4EA643B10508F48CC00E94741D0E9467
:1051A000551A10E000E023E049E951E061E0809108
:1051B00006030E94221D60ED77E080E090E00E94EF
:1051C000F90C0E94741D0E94551A84E00E94370C4D
:1051D0008C010E942B0D609307037093080380934A
:1051E000090390930A03112784E00E94370C7C0185
:1051F00080E10E94370CCC24C394892B21F00E153A
:105200001F0509F4C12C82E00E94370C892B11F490
:10521000CC24C39481E10E94370C892B11F0CC205F
:1052200019F30E94741D0E94551A10E000E023E05B
:1052300041EA51E061E0809106030E94221D64E68C
:1052400070E088EC90E00E94DF1B68EE73E080E085
:1052500090E00E94F90C0E94741D0E94551A80E192
:105260000E94370C019709F062C282E00E94370C5D
:10527000019709F05CC281E10E94370C019709F0A7
:1052800056C20E94741D0E94551A0E942B0D6093F5
:105290000703709308038093090390930A036093B4
:1052A000F9027093FA028093FB029093FC02D09271
:1052B000150180911501813009F096C010921501F9
:1052C0000091F7021091F802F801EB52F34F84912C
:1052D0000E94A522F801E85BF34F6491462E512C01
:1052E0005092F6024092F50270E090E080E00E9459
:1052F0007D3026E636E646EA50E40E94E3300E941E
:1053000047307093F4026093F30287E080932E039A
:1053100080932F0390922D0380922C0390922B0365
:1053200080922A030E94741DC2016AE070E00E940C
:1053300078317B0126EF26038001279F100D112471
:10534000040D151D54E6451651040CF4FBC183E50C
:1053500090E00E943714F9E56F2E712C109227030C
:10536000109226031092290310922803B701FF0C14
:10537000880B990B4AE00E94BB1C70922703609235
:1053800026031092290310922803B801012E000C65
:10539000880B990B17FFDEC10E94FF1C85EC91E082
:1053A0000E94AE1C0E94551A8091F202813009F4CD
:1053B000D5C18091F102813009F0D0C10091F50290
:1053C0001091F60224E047E551E061E08091060388
:1053D0000E94221D60910F037091100380910D03B4
:1053E00090910E030E94E11F8091EE029091EF02D6
:1053F000019709F048C08091070390910803A0919C
:105400000903B0910A034091EA025091EB026091C6
:10541000EC027091ED02841B950BA60BB70B803D3F
:105420009740A105B10578F18091E8029091E902D9
:105430006091F702FC01E452FD4F608390E00E940E
:1054400039301092EF021092EE020091F5021091A5
:10545000F60221E048EC51E061E0809106030E94F1
:10546000221D6CE271E080E090E00E94F90C009156
:10547000F5021091F60221E048EC51E062E08091E3
:1054800006030E94221D8091DB02882309F423C2B7
:10549000109215010E94741D73E0F72EF0922E03F6
:1054A000F0922F0390922D0380922C0390922B0365
:1054B00080922A030AE010E020E430E040E850E067
:1054C00070E060E090E080E00E9428168091DB02AE
:1054D000813009F04EC181E290E0909327038093E0
:1054E000260388E090E090932903809328038CECB6
:1054F00091E00E94201D8BE290E09093270380931F
:10550000260383E290E0909329038093280381EDA2
:1055100091E00E94201D0E94551A809107039091EE
:105520000803A0910903B0910A034091D70250915A
:10553000D8026091D9027091DA02841B950BA60BF8
:10554000B70B85389340A105B10520F01092DB021E
:10555000D09215016091D5027091D602623071052A
:1055600009F051C08091DB0281114DC01092D6022A
:105570001092D5028091D3029091D402892B09F028
:10558000CAC11092EF021092EE028091070390912F
:105590000803A0910903B0910A038093F902909344
:1055A000FA02A093FB02B093FC0280911203909147
:1055B0001303892B09F0A8C1809113019091140164
:1055C000019709F0A1C18091E8029091E90201964A
:1055D0000E9478318C019093E9028093E802892B34
:1055E00009F08AC160E087E00E94600CD092F1026D
:1055F000F801E452FD4F808190E09093F80280938F
:10560000F702D09215018091D5029091D6020397AE
:1056100009F095C19092D4028092D30200911101B9
:10562000109112010130110541F5109212011092F2
:10563000110167E370E088EC90E00E94DF1B6FE0EF
:1056400070E080E090E00E94F90C67E370E088EC85
:1056500090E00E94DF1B8091140390911503019745
:1056600009F05EC1109215031092140310921303F7
:105670001092120382E08093DB028091CF0290911E
:10568000D002029709F06DC11092D0021092CF02A1
:105690008091DB0281112FC4809107039091080350
:1056A000A0910903B0910A038093F9029093FA0242
:1056B000A093FB02B093FC0280910603811144C1C8
:1056C000D0920603D092CE0210921501C1C3893E3A
:1056D0009340A105B10508F446CD409302035093D1
:1056E000030360930403709305038091FD028130EE
:1056F00059F41092FD0260910F0370911003809194
:105700000D0390910E032DCDD092FD02F12CE12CD2
:1057100007E010E020E230E049E350E06FE570E0A0
:105720008AE193E00E9458130E94551A1CCD06E9A5
:1057300010E021E040EB51E061E0809106030E941F
:10574000221D8DCD89E290E00E943714E5E36E2E94
:10575000712C04CE4AE00E94BB1C20CE8091F00246
:10576000813009F437CE8091F102823009F032CED7
:1057700025CE8230F9F481E290E090932703809364
:10578000260388E090E090932903809328038CEC13
:1057900091E00E94201D84E290E090932703809383
:1057A000260383E290E0909329038093280384EDFD
:1057B00091E0AFCE833009F049C08AE190E0909348
:1057C00027038093260325E030E0309329032093BC
:1057D000280388ED91E00E94201D86E0EDE1F1E0D4
:1057E000DE01119601900D928A95E1F718861F82CD
:1057F000809110038F9380910F038F9380910E03FC
:105800008F9380910D038F9380E791E09F938F9307
:1058100041E050E04C0F5D1F5F934F930E94323385
:105820008CE190E0909327038093260383E290E03D
:105830009093290380932803CE0101960E94201D96
:105840000FB6F894DEBF0FBECDBF65CE843009F031
:1058500062CE2CE130E0309327032093260345E00D
:1058600050E050932903409328038EED91E00E946D
:10587000201D86E0EDE1F1E0DE01119601900D9230
:105880008A95E1F718861F82809110038F9380918B
:105890000F038F9380910E038F9380910D038F934D
:1058A00080E791E09F938F9381E090E08C0F9D1FA4
:1058B0009F938F930E943233F0922E03F0922F0326
:1058C00090922D0380922C0390922B0380922A03B6
:1058D00089E190E0A7CF8091070390910803A09100
:1058E0000903B0910A038093D7029093D802A09342
:1058F000D902B093DA022ECE61E087E00E94600CFC
:1059000082E08093F10274CE62ED70E084EF91E06A
:105910000E94DF1B78CE1092D4021092D30273CE75
:1059200010931503009314031093130300931203B1
:10593000D092DB021093D2020093D1029ECE9092BD
:1059400012018092110199CE813009F09AC2909192
:105950000C03923009F46EC208F062C2992309F474
:1059600089C28091CF029091D002039709F0C3C2FF
:1059700080910D0190910E01019731F510920E0169
:1059800010920D01109206031092CE02D0921501D2
:1059900067E370E088EC90E00E94DF1B6FE070E04E
:1059A00080E090E00E94F90C67E370E088EC90E002
:1059B0000E94DF1B80911601813009F098C210927D
:1059C000160184E08093DB0270900603711016C00C
:1059D00056ECA52E52E0B52ECC24C39465EDE62EF0
:1059E00062E0F62E04E610E02AEC32E049E051E0F5
:1059F0006BE071E080E190E00E941A1C9CEBA92E04
:105A000092E0B92EC12C20ECE22E22E0F22E08EC1E
:105A100010E022EC32E047E051E063E171E082E027
:105A200090E00E941A1C34EBA32E32E0B32ECC245B
:105A3000C3944FECE42E42E0F42E28EB32E043E036
:105A400051E065E071E081E190E00E941A1C0E9443
:105A50002B0D1B012C01209207033092080340926A
:105A6000090350920A0384E00E94370C7C016624EB
:105A70006394892B09F4612C6092B3028091B20285
:105A8000882309F476C0E114F10409F072C0209271
:105A9000F9023092FA024092FB025092FC0283E03B
:105AA0000E94370C892B09F02BC28FEF9FEF909348
:105AB000B1028093B0020091B0021091B1028091C6
:105AC00001019091020108171907B9F08091AC0209
:105AD0009091AD02A091AE02B091AF02A2019101EE
