:100000000C94AF0B0C94D70B0C94D70B0C94D70B10
:100010000C94D70B0C94D70B0C94D70B0C94D70BD8
:100020000C94D70B0C94D70B0C94D70B0C94D70BC8
:100030000C94D70B0C94D70B0C94D70B0C94D70BB8
:100040000C94A3210C94D70B0C9413220C94ED2147
:100050000C94D70B0C94D70B0C94D70B0C94D70B98
:100060000C9445220C94D70B82AAA62E81D129D9B3
:10007000C595B500000000003E5B4F5B3E3E6B4FF8
:100080006B3E1C3E7C3E1C183C7E3C181C577D572A
:100090001C1C5E7F5E1C00183C1800FFE7C3E7FFD6
:1000A0000018241800FFE7DBE7FF30483A060E2669
:1000B00029792926407F050507407F05253F5A3CC1
:1000C000E73C5A7F3E1C1C08081C1C3E7F14227F04
:1000D00022145F5F005F5F06097F017F00668995DC
:1000E0006A606060606094A2FFA29408047E0408C5
:1000F00010207E201008082A1C08081C2A08081E48
:10010000101010100C1E0C1E0C30383E3830060E2D
:100110003E0E06000000000000005F000000070027
:100120000700147F147F14242A7F2A1223130864E3
:100130006236495620500008070300001C22410087
:100140000041221C002A1C7F1C2A08083E080800C7
:100150008070300008080808080000606000201067
:100160000804023E5149453E00427F400072494921
:1001700049462141494D331814127F102745454502
:10018000393C4A4949314121110907364949493623
:10019000464949291E0000140000004034000000B8
:1001A00008142241141414141400412214080201EA
:1001B0005909063E415D594E7C1211127C7F494916
:1001C00049363E414141227F4141413E7F494949B3
:1001D000417F090909013E414151737F0808087FA9
:1001E00000417F41002040413F017F081422417FB0
:1001F000404040407F021C027F7F0408107F3E4148
:1002000041413E7F090909063E4151215E7F09199E
:100210002946264949493203017F01033F404040B6
:100220003F1F2040201F3F4038403F6314081463A5
:1002300003047804036159494D43007F4141410261
:1002400004081020004141417F04020102044040A3
:10025000404040000307080020545478407F284461
:1002600044383844444428384444287F385454544B
:100270001800087E090218A4A49C787F080404785A
:1002800000447D40002040403D007F102844000095
:10029000417F40007C047804787C0804047838446A
:1002A000444438FC1824241818242418FC7C08041E
:1002B0000408485454542404043F44243C4040203F
:1002C0007C1C2040201C3C4030403C4428102844EA
:1002D0004C9090907C4464544C440008364100009B
:1002E00000770000004136080002010204023C26AB
:1002F00023263C1EA1A161123A4040207A38545472
:1003000055592155557941225454784221555478F4
:100310004020545579400C1E52721239555555598A
:10032000395454545939555454580000457C4100AF
:1003300002457D420001457C407D1211127DF0286E
:100340002528F07C545545002054547C547C0A09DF
:100350007F4932494949323A4444443A324A48484A
:10036000303A4141217A3A42402078009DA0A07D58
:100370003D4242423D3D4040403D3C24FF24244814
:100380007E4943662B2FFC2F2BFF0929F620C088BE
:100390007E090320545479410000447D413048488F
:1003A0004A32384040227A007A0A0A727D0D1931A9
:1003B0007D2629292F28262929292630484D402005
:1003C000380808080808080808382F10C8ACBA2FE1
:1003D000102834FA00007B000008142A142222148A
:1003E0002A14085500550055AA55AA55AAFF55FFCD
:1003F00055FF000000FF00101010FF00141414FF40
:10040000001010FF00FF1010F010F0141414FC0086
:100410001414F700FF0000FF00FF1414F404FC1490
:100420001417101F10101F101F1414141F00101089
:1004300010F0000000001F101010101F10101010FE
:10044000F010000000FF101010101010101010FF1E
:1004500010000000FF140000FF00FF00001F101735
:100460000000FC04F414141710171414F404F4001E
:1004700000FF00F714141414141414F700F71414E4
:1004800014171410101F101F141414F4141010F06B
:1004900010F000001F101F0000001F14000000FCDF
:1004A000140000F010F01010FF10FF141414FF14CB
:1004B0001010101F00000000F010FFFFFFFFFFF002
:1004C000F0F0F0F0FFFFFF0000000000FFFF0F0F53
:1004D0000F0F0F3844443844FC4A4A4A347E020223
:1004E0000606027E027E0263554941633844443C5D
:1004F00004407E201E2006027E020299A5E7A599EF
:100500001C2A492A1C4C7201724C304A4D4D303025
:1005100048784830BC625A463D3E494949007E0110
:1005200001017E2A2A2A2A2A44445F444440514A2F
:10053000444040444A51400000FF0103E080FF0076
:100540000008086B6B083612362436060F090F06B2
:10055000000018180000001010003040FF010100DA
:100560001F01011E00191D1712003C3C3C3C0000FD
:10057000000000000103070F1F3F7F0080C0E0F074
:10058000F8FCFEDB40A4A62EAF2000A1C8D300409B
:100590008DAED580A80000600000000000000000C3
:1005A000000000000000E00000000000000000006B
:1005B0000000000001E0000000000000000000005A
:1005C00000000001F000000000000000000000003A
:1005D000000003F000000000000000000000000028
:1005E0000007F00000000000000000000000000014
:1005F00007F8000000000000000000000000000FED
:10060000F800000003C0007E000001E0007F0FF84A
:1006100000000003C000FE000001E000FFEFF80052
:10062000000003C000FE000001E000FFFFF8000032
:100630000003C000F00000000F007FFE7FC000003C
:1006400003C000F00000000F003FFE7FF83FF1FB09
:10065000CFFCFEF3BC3DEFE01FFE7FFF7FFBFFDF23
:10066000FEFEFFBC3DEFE01FC6FFFF7FFBFFDFFE8E
:10067000FEFFBC3DEFE00FE3C7FE787BC3DE1EF05C
:10068000FFBC3DEF0007FF87FC787BC3DE1EF0F860
:100690003C3DEF0001FFFFF0007BC3C01EF0F03CCB
:1006A0003DEF0001F37FE03FFBC3CFFEF0F03C3DA8
:1006B000EF0003E33F807FFBC3DFFEF0F03C3DEF44
:1006C0000007E73C00787BC3DE1EF0F03C3DEF0006
:1006D00007FFBE00787BC3DE1EF0F03C3DEF000755
:1006E000FFFE00787BC3DE1EF0F03C3DEF000FFF05
:1006F000FE007FFBFFDFFEF0F03FFDEFE00FFFFFAE
:10070000007FFBFFDFFEF0F03FFDEFE00FF9FF00A1
:100710003E79F9CF9EF0F01F3DE7E01FF1FF0000AA
:10072000000000000000000000001F80FF007FFFAD
:10073000FFFFFFFFFFFFFFFFE01C007F007FFFFFC9
:10074000FFFEB46D888D18E000001F007FFFFFFFE3
:10075000FE95AD7DB577E000000F007FFFFFFFFE47
:10076000A5AD9D8D19E0000006007FFFFFFFFEB5DF
:10077000ADEDB57EE000000000000180000000004B
:1007800000000000000380000000000000000000E6
:1007900007C000000000000000000007C0000000CB
:1007A0000000000000000FC000000000000000007A
:1007B000001FE00000000000000000001FE000003B
:1007C000000000000000003FE0000000000000000A
:1007D00000003FF00000000000000000007FF0007B
:1007E0000000000000001FF87FF000000000000083
:1007F000003FFE7FF0000000000000003FFF7FF0A0
:10080000000000000000001FFFFBE00000000000EF
:1008100000000FFFF9FFC00000000000000FFFF90B
:10082000FFF800000000000007FFF1FFFF000000DC
:1008300000000003FC73FFFF80000000000001FEC9
:100840003FFFFF80000000000000FF1E0FFF0000C0
:1008500000000000007FFE1FFC0000000000000000
:100860003FFFFFF8000000000000000FDFFFE00086
:100870000000000000001F19FFC000000000000081
:10088000003F3CFF00000000000000007E7CF800FC
:10089000000000000000007FFE7C0000000000005F
:1008A0000000FFFFFC0000000000000000FFFFFE52
:1008B0000000000000000000FFFFFE00000000003C
:1008C000000001FFEFFE0000000000000001FFCF6C
:1008D000FE0000000000000003FF07FE0000000013
:1008E00000000003FC07FE0000000000000003F011
:1008F00003FE00000000000000018000FE00000078
:10090000000000000000007E000000000000000069
:1009100000003E000000000000000000000C00008D
:1009200000000000078000FC000003C0000000077A
:100930008001FC000003C0000000078001FC0000F3
:1009400003C0000000078001E00000001E0000005E
:10095000078001E00000001E007FE3F79FF9FDE73C
:10096000787BDFC0FFF7FFBFFDFDFF787BDFC0FFB7
:10097000F7FFBFFDFDFF787BDFC0F0F787BC3DE1EF
:10098000FF787BDE00F0F787BC3DE1F0787BDE008E
:1009900000F787803DE1E0787BDE007FF7879FFDF1
:1009A000E1E0787BDE00FFF787BFFDE1E0787BDEEA
:1009B00000F0F787BC3DE1E0787BDE00F0F787BC14
:1009C0003DE1E0787BDE00F0F787BC3DE1E0787B3D
:1009D000DE00FFF7FFBFFDE1E07FFBDFC0FFF7FFB9
:1009E000BFFDE1E07FFBDFC07CF3F39F3DE1E03E34
:1009F0007BCFC00000000000000000000000FFFFEF
:100A0000FFFFFFFFFFFFFFFFC0FFFFFFFFFD68DBF2
:100A1000111A31C0FFFFFFFFFD2B5AFB6AEFC0FF29
:100A2000FFFFFFFD4B5B3B1A33C0FFFFFFFFFD6B7A
:100A30005BDB6AFDC003FFFFFFFFFFFFFF00060057
:100A4000000000000001800C00000000000000C059
:100A500018000000000000006030000000000000EE
:100A60000030600000000000000018C0000000001E
:100A70000000000C80000000000000000480000066
:100A8000000000000004800000000000000004805E
:100A900000411083C1E00004800063108422100034
:100AA0000480007710881210000480005D1084021A
:100AB0001000048000491083C2100004800041101F
:100AC0008022100004800041108012100004800079
:100AD000411088121000048000411084221000048C
:100AE0008000410F03C1A00004E0000000000000EE
:100AF000001C20000000000000001020000000008A
:100B00000000001020000000000000001020000085
:100B10000000000000102000000000000000102075
:100B20000000000000000010E000000000000000D5
:100B30001C80007F0F0422100004800008108442F3
:100B40001000048000081084821000048000081047
:100B50008502100004800008108602100004800046
:100B6000081086021000048000081085021000049E
:100B70008000081084821000048000081084421055
:100B800000048000080F0421E00004800000000041
:100B9000000000048000000000000000048000004D
:100BA000000000000004C0000000000000000C6015
:100BB00000000000000000183000000000000000ED
:100BC000301800000000000000600C000000000071
:100BD0000000C006000000000000018003FFFFFFCE
:100BE000FFFFFFFF001415161718191A1B1C1D1EF6
:100BF0001F202122232425262728292A2B2C2D2E8D
:100C00002F303132333435363738393A3B3C3D3E7C
:100C10003F404142434445464748494A4B4C4D4E6C
:100C20004F505152535455565758595A5B5C5D5E5C
:100C30005F606162636465666768696A6B6C6D6E4C
:100C40006F707172737475767778797A7B7C7D7E3C
:100C50007F808182838485868788898A8B8C8D8E2C
:100C60008F909192939495969798999A9B9C9D9E1C
:100C70009FA0C8A8681898D838780484C4A4E494BD
:100C80005434B4F48CCCACEC1C5CDCBC7C0282C272
:100C90002262E2925232B2F20A4ACAAA6A1A9ADA74
:100CA0003A7AFA864626A6E61656D6B6760E8ECE40
:100CB0002E6EEE9E5E3EBEFE8141C1A1611191D1BC
:100CC0003171F1894929A9E91959D9B9790585C538
:100CD0002565E5955535B5F50D4DCDAD6D1D9DDD04
:100CE0003D7DFD834323A3E3139353D333B373F3C6
:100CF0008B4BCB2BAB6BEB9B5BDB7BFB0787C7008B
:100D0000000000240027002A000000000025002821
:100D1000002B00000000002300260029000404042A
:100D20000404040404020202020202030303030394
:100D30000301020408102040800102040810200171
:100D40000204081020000000080002010000030453
:100D500007000000000000000000000001C00000CB
:100D600000000000000000000000000003E00000A0
:100D70003FFCF000000000000000000003F0000055
:100D80003FFCF000000000000000000003F800003D
:100D90003FFC0000000000000000000001FC00001B
:100DA00003C0F3DE700F83DC0000000000FE0000D3
:100DB00003C0F3FFF83FE3FC00000000007F0000E9
:100DC00003C0F3FFFC3FE3F800000000003F800099
:100DD00003C0F3CF3C78F3E00000007F801FC00029
:100DE00003C0F3CF3C7FF3C0000003FFF01FE0001F
:100DF00003C0F3CF3C7FF3C000000FFFFC3FF000C7
:100E000003C0F3CF3C7803C000003FFFFF7FF80032
:100E100003C0F3CF3C7CF3C000007FFFFFFFFC006A
:100E200003C0F3CF3C3FE3C00000FF847FFCFE0023
:100E300003C0F3CF3C3FE3C00003FE041FF87F0074
:100E400003C0F3CF3C0F83C00003F80407F83F0052
:100E500000000000000000000007F00001F81F0083
:100E60000000000000000000000FC00000FC0E00A9
:100E70000000000000000000001FC000007E000015
:100E80000000000000000000001FA00000FE0000A5
:100E90000000000000000000003F1000013F0000C3
:100EA0000000000000000000003E0800001F0000DD
:100EB0000000000000000000007E0400001F800011
:100EC0000000000000000000007C0000000F800017
:100ED0000000000000000000007C0000000F800007
:100EE0000000000000000000007C0000000F8000F7
:100EF000000000000000000000FC00000007C0002F
:100F0000000000000000000000F800000007C00022
:100F1000000000000000000000F8003C0027C000B6
:100F2000000000000000000000F8003C0037C00096
:100F3000000000000000000000FF003FFFFFE00095
:100F4000000000000000000000F8003C0037C00076
:100F5000000000000000000000F8003C0027C00076
:100F6000000000000000000000F800000007C000C2
:100F7000000000000000000000F800000007C000B2
:100F80000000000000000000007C0000000F800056
:100F90000000000000000000007C0000000F800046
:100FA0000000000000000000007C0000000F800036
:100FB0000000000000000000007E0000001F800014
:100FC0000000000000000000003E0000021F0000C2
:100FD0000000000000000000003F0800013F00008A
:100FE0000000000000000000001F900000FE000054
:100FF0000000000000000000001FA000007E0000B4
:101000000000000000000000000FC00000FC0030E5
:1010100000000000000000000007F00001F80038A8
:101020000001FFF0000000000007F80407F8003E90
:101030000001FFF0000000000003FE041FF0003F6D
:101040000001FFF000E007038001FF847FE0003F24
:10105000C001FFF001F00F87C0007FFFFFC0003F1D
:10106000E001FFF003B81DCEE0003FFFFF00003FAE
:10107000F001FFF003BB9DCEE0000FFFFE00003F3C
:10108000F801FFF003BB9DCEE00003FFF800003F36
:10109000FC01FFF003BB9DCEE00000FFC000003F5D
:1010A000FC01FFF003B81DCEE00000000000003F8F
:1010B000F801FFF003BB9DCEE00000000000003F00
:1010C000F001FFF001F38F87C00000000000003F37
:1010D000E001FFF001F38F87C00000000000003F37
:1010E0008001FFF000E00703800000000000003FE7
:1010F0000001FFF000000000000000000000003EC2
:1011000000000000000000000000000000000038A7
:1011100000000000000000000001FFC0000000000F
:101120000000000000000001FFC0000000000000FF
:10113000000000000001FFC00000000000000000EF
:1011400000000001FFC000000000000000000000DF
:101150000001FFC0000000000000000000000001CE
:10116000FFC000000000000000000000007FFFFF43
:1011700000000000000000000000007FFFFF0000F2
:101180000000000000000000007FFFFF00000F00D3
:10119000000000000000007FFFFF00001F000000B3
:1011A00000000000007FFFFF00003F000000000083
:1011B0000000007C001F00007E0000000000000016
:1011C000007C001F0000FC00000000000000007C0C
:1011D000001F0001F800E038F0C00000007C001F94
:1011E0000003F000F038F3C00000007C001F00078F
:1011F000E000F83803C00000007C001F000FE00092
:10120000F838F7F3DC7C007C001F001FC000FC38BE
:10121000F7F3FCFF007C001F003F8000FE38F7F36F
:10122000F9FF007C001F007F0000FF38F3C3E3EFED
:10123000807C001F00FFFF00F738F3C3C3C7807C2A
:10124000001F01FFFF00F3B8F3C3C3C7807C001F7A
:1012500001FFFF00F1F8F3C3C3C7807C001F01FF4B
:10126000FE00F0F8F3C3C3EF807C001F00FFFC001A
:10127000F0F8F3F3C1FF007C001F0001FC00F078E0
:10128000F3F3C0FE007C001F0003F800F038F1F318
:10129000C07C007C001F0003F00000000000000084
:1012A000007C001F0007E000000000000000007C40
:1012B000001F000FC000000000000000007C001FA5
:1012C000001FC000000000000000007C001F023F63
:1012D0008000000000000000007C001F037F000071
:1012E000000000000000007C001F03FE0000000062
:1012F00000000000007C001F03FC00000000000054
:101300000000007C001F03FC000000000000000043
:10131000007C001F03F80000000000000000007FB8
:10132000FFFF03F80000000000000000007FFFFF47
:1013300003FC0000000000000000007FFFFF03FE30
:101340000000000000000000007FFFFF0000000020
:10135000000000000000007FFFFF00000000000010
:10136000000000000000007FFFFFFFC00000000041
:1013700000000000000000FFFFFFFFE00000000091
:1013800000000000000001FFFFFFFFF0000000F878
:10139000633E7C00000001FFFFFFFFF0000001FC46
:1013A000633E7E00000003FFFFFFFFF80000038E96
:1013B00063306600000003E0000000F80000030650
:1013C000363E6600000007E0000000FC0000030657
:1013D000363E7E00000007C00000007E00000306CD
:1013E00036307C0000000FC00000007E0000038E3D
:1013F0001C306C0000001F800000003F000001FC5A
:101400001C3E660000001F800000003F000000F846
:101410001C3E660000003F000000001F800000002E
:101420000000000000003F000000000F80000000EE
:101430000000000000007E000000000FC00000005F
:101440000000000000007C0000000007C003C33360
:10145000E3E3E61BF000FC0000000007E007F333C5
:10146000F3F3E71BF000F80000000003E00E233365
:1014700033330798C001F80000000003F00C033379
:101480003333E798C001F00000000001F00C033393
:10149000F3F3E6D8C003F00000000001F80C0333BA
:1014A000E3E30678C003E0F0FF8703F0F80E233390
:1014B00063630678C007E0F8FF9F83F8FC07F3F347
:1014C0003333E638C007C3FCFFBFC3F87E03C1E374
:1014D0003333E618C00FC39E1839C39C7E0000004A
:1014E00000000000001F839E1879E39C3F0000006D
:1014F00000000000001F839E1879E39C3F0000005D
:1015000000000000003F03801879E39C1F8000006A
:1015100000000000003F03801879E39C0F8000006A
:1015200000000000007E01801879E39C0FC00000DD
:1015300007000000007C01F01879E3FC07C0000000
:101540000F80000000FC00FC1879E3F807E00000C1
:101550000F80000000F800FC1879E3F003E00000C1
:101560000F80000000FC001E1879E38007E00000F7
:101570000F800000007C001E1879E38007C0000087
:101580000F800000007E001E1879E3800FC000006D
:101590000F800000003E031E1879E3800F800000DA
:1015A0000F800000003F031E1839E3801F800000F9
:1015B0000F800000001F839E183DC3801F000000A5
:1015C0000F800000001F81FC183FC3803F00000017
:1015D0000F800000000FC0FC181F83807E000000F9
:1015E0000F800000000FC000000000007E0000001F
:1015F0000F8000000007E00000000000FC00000079
:101600000F8000000003E00000000000FC0000006C
:101610000F8000000003F00000000001F80000004F
:101620000F8000000001F00000000001F000000049
:101630000F8000000001F80000000003F00000002F
:101640000F8000000000F80000000003E000000030
:101650000F8000000000FC0000000007E000000018
:101660000F80000000007C0000000007C0000000A8
:101670000F80000000007E000000000FC00000008E
:101680000F80000000003F000000000F80000000FD
:101690000700000000003F000000001F8000000065
:1016A0000000000000001F800000003F000000005C
:1016B0000000000000001F800000003F000000004C
:1016C0000000000000000FC00000007E00000000CD
:1016D00007000000000007C00000007E00000000BE
:1016E0000F800000000007E0000000FC0000000088
:1016F0001FC00000000003E0000000F80000000030
:101700001FC00000000003FFFFFFFFF80000000003
:101710000F800000000001FFFFFFFFF0000000004D
:1017200007000000000001FFFFFFFFF000000000C5
:1017300000000000000000FFFFFFFFE000000000CD
:10174000000000000000007FFFFFFFC0000000005D
:1017500000000000002200FF210017250A3211249A
:101760001FBECFEFD8E0DEBFCDBF12E0A0E0B1E0FA
:10177000ECE9FDE602C005900D92A433B107D9F75C
:1017800024E0A4E3B2E001C01D92A934B207E1F75E
:101790001BE0CEEADBE004C02197FE010E94A332E9
:1017A000CD3AD107C9F70E947D250C94C1360C941F
:1017B00000000895FC01538D448D252F30E0842FC7
:1017C00090E0821B930B541710F0CF960895019769
:1017D0000895FC01918D828D981761F0A28DAE0F56
:1017E000BF2FB11D5D968C91928D9F5F9F73928FDD
:1017F00090E008958FEF9FEF0895FC01918D828D09
:10180000981731F0828DE80FF11D858D90E00895D5
:101810008FEF9FEF0895FC01918D228D892F90E02D
:10182000805C9F4F821B91098F7399270895FC015B
:10183000A48DA80FB92FB11DA35ABF4F2C91848D31
:1018400090E001968F739927848FA689B7892C938E
:10185000A089B1898C91837080648C93938D848DE1
:10186000981306C00288F389E02D80818F7D8083E4
:101870000895EF92FF920F931F93CF93DF93EC01A4
:1018800081E0888F9B8D8C8D98131AC0E889F98927
:10189000808185FF15C09FB7F894EE89FF8960832A
:1018A000E889F98980818370806480839FBF81E0AB
:1018B00090E0DF91CF911F910F91FF90EF900895ED
:1018C000F62E0B8D10E00F5F1F4F0F731127E02EC8
:1018D0008C8D8E110CC00FB607FCFACFE889F98900
:1018E000808185FFF5CFCE010E94170CF1CFEB8DE3
:1018F000EC0FFD2FF11DE35AFF4FF0829FB7F894D4
:101900000B8FEA89FB8980818062CFCFCF93DF93F1
:10191000EC01888D8823B9F0AA89BB89E889F98907
:101920008C9185FD03C0808186FD0DC00FB607FC3C
:10193000F7CF8C9185FFF2CF808185FFEDCFCE016F
:101940000E94170CE9CFDF91CF91089588E693E0CC
:101950000E940B0C21E0892B09F420E0822F0895CE
:1019600080E090E0892B29F00E94A60C81110C9454
:1019700000000895833081F028F4813099F082309E
:10198000A9F008958730A9F08830C9F08430B1F407
:10199000809180008F7D03C0809180008F7780933D
:1019A0008000089584B58F7784BD089584B58F7DB8
:1019B000FBCF8091B0008F778093B0000895809125
:1019C000B0008F7DF9CFCF93DF93282F30E0F9015E
:1019D000EB5BF24F8491F901EF5CF24FD491F90186
:1019E000E35EF24FC491CC23A1F081110E94BA0CA6
:1019F000EC2FF0E0EE0FFF1FED5EF24FA591B491DA
:101A0000EC91ED2381E090E009F480E0DF91CF914B
:101A1000089580E090E0FACF1F93CF93DF93282FB3
:101A200030E0F901EB5BF24F8491F901EF5CF24F8A
:101A3000D491F901E35EF24FC491CC23A9F0162FA3
:101A400081110E94BA0CEC2FF0E0EE0FFF1FE75F50
:101A5000F24FA591B4918FB7F894EC91111108C091
:101A6000D095DE23DC938FBFDF91CF911F91089536
:101A7000DE2BF8CFCF93DF9390E0FC01EF5CF24FC9
:101A80002491835E924FFC0184918823D1F090E0F1
:101A9000880F991FFC01E150F34FA591B491FC010F
:101AA000E75FF24FC591D49161110EC09FB7F894D2
:101AB0008C91E22FE0958E238C932881E223E8839A
:101AC0009FBFDF91CF9108958FB7F894EC91E22BEF
:101AD000EC938FBFF6CF8E3008F08E508770806405
:101AE00080937C0080917A00806480937A0080915A
:101AF0007A0086FDFCCF809178009091790008955E
:101B00003FB7F8948091550390915603A0915703E5
:101B1000B091580326B5A89B05C02F3F19F0019638
:101B2000A11DB11D3FBFBA2FA92F982F8827BC0137
:101B3000CD01620F711D811D911D42E0660F771F5F
:101B4000881F991F4A95D1F708958F929F92AF925F
:101B5000BF92CF92DF92EF92FF924B015C010E9405
:101B6000800D6B017C010E94800D6C197D098E092E
:101B70009F09683E734081059105A8F321E0821A10
:101B80009108A108B10888EEC80E83E0D81EE11CB8
:101B9000F11C81149104A104B10429F7FF90EF9086
:101BA000DF90CF90BF90AF909F908F9008952FB708
:101BB000F894609151037091520380915303909176
:101BC00054032FBF089508950895AF92BF92CF9206
:101BD000DF92EF92FF920F931F93CF93DF936C01ED
:101BE0007B018B01040F151FEB015E01AE18BF08CE
:101BF000C017D10759F06991D601ED91FC91019080
:101C0000F081E02DC6010995892B79F7C501DF9197
:101C1000CF911F910F91FF90EF90DF90CF90BF90E9
:101C2000AF900895EF92FF920F931F93CF93DF939E
:101C3000EC01EC80FD806E157F050CF070C057FF45
:101C400004C0240F351F50E040E08E819F81FA01CF
:101C5000E20FF31F8E179F071CF49C01241B350B0A
:101C6000121613060CF05BC0922F842F8695869572
:101C700086958E9DD0018F9DB00D11246A0F7B1F1C
:101C8000AF8DB8A1A60FB71F477049F188E0841B3C
:101C9000482F682F70E0FB01E558FA4FE4912817B0
:101CA00008F063C0621B71092FEF30E002C0359568
:101CB00027956A95E2F7E2230130110539F0B0F17A
:101CC0000230110561F58C91E82702C08C91E82B58
:101CD000EC93941720F12C813D81A20FB31FE92FC3
:101CE000E41BE83078F00230110521F58E2F9C912D
:101CF00090959C932C813D81A20FB31F8850883012
:101D0000B0F7E770EE2359F0F0E0ED58FA4FE491A8
:101D100001301105F9F010F10230110519F1DF91D0
:101D2000CF911F910F91FF90EF900895E0958C91C6
:101D3000E823CECF81E00115110509F480E08195FB
:101D40009E2F8C932C813D81A20FB31F9850983009
:101D5000C0F7D7CF8C91E82BEC93E1CFE0958C9135
:101D6000E823FACF8C91E827F7CF0130110509F469
:101D7000ADCFE0F20230110509F4A5CFAE0DBF1DC5
:101D8000AECF0F931F93CF93DF9377FF04C0260F3F
:101D9000371F70E060E0DC011496CD91DC91FB010F
:101DA000E20FF31FCE17DF071CF49E01261B370B33
:101DB000121613064CF5FA0157FD3796A3E0F59578
:101DC000E795AA95E1F7EC9FD001ED9FB00DFC9F40
:101DD000B00D11246A0F7B1FDC015F96ED91FC9121
:101DE000E60FF71F4770552781E090E001C0880F8C
:101DF0004A95EAF7482F0130110559F0A8F02E0F47
:101E00003F1F02301105E1F0DF91CF911F910F913B
:101E100008952E0F3F1FE217F307B1F38191DF0101
:101E20001197842B8C93F7CF80952E0F3F1FE217CD
:101E3000F30751F39191DF01119798239C93F7CF0A
:101E4000E217F30709F38191DF01119784278C933F
:101E5000F7CF0F931F93FA01DC0156964C915697DA
:101E60004230E9F04330A1F1413061F514964D91D3
:101E70005C91DA01AE1BBF0BFD01E21BF30B77FD9A
:101E80000BC0DC0116964D915C916417750724F424
:101E9000AB01BF010E94C10E1F910F9108951496CE
:101EA0004D915C91DA01A61BB70BBD016150710920
:101EB000DC0116964D915C91DA01AE1BBF0BFD0162
:101EC000E21BF30B77FDE8CFAF010E94120EE4CFC7
:101ED00016964D915C91DA01A61BB70BBD016150BE
:101EE0007109CDCF0F931F93FA01DC0156964C91E7
:101EF00056974230A9F0433091F1413019F51496CC
:101F00004D915C91DA01AE1BBF0BFD013197F7FDDE
:101F100004C0AB01BF010E94120E1F910F910895E2
:101F200014964D915C91DA01A61BB70BBD01DC0143
:101F300016964D915C91DA01AE1BBF0BFD013197F6
:101F4000621B730BF7FDE9CFDC0116964D915C9196
:101F5000E417F50714F7AF010E94C10EDECF169605
:101F60004D915C91DA01A61BB70BBD01621B730B8F
:101F7000CECFFC0177FD64C0808591856817790715
:101F80000CF05EC057FD5CC08285938548175907E9
:101F90000CF056C086898230B1F0833029F181304F
:101FA00041F484819581841B950BAB01BC01615088
:101FB00071092130310509F108F443C0223031059F
:101FC00009F463C0089584819581DC01A61BB70BD9
:101FD000BD016150710986819781DC01A41BB50B9D
:101FE000AD0141505109E5CF86819781861B970B42
:101FF000BA01AC0141505109DCCFCA0157FD079627
:10200000A3E095958795AA95E1F7A481B5818A9F6C
:1020100090018B9F300D9A9F300D1124620F731F1A
:10202000078CF0A1E02DE60FF71F4770552721E040
:1020300030E001C0220F4A95EAF78081822B80832D
:102040000895CA0157FD079633E0959587953A950F
:10205000E1F7A481B5818A9F90018B9F300D9A9FF3
:10206000300D1124620F731F078CF0A1E02DE60FD5
:10207000F71F4770552781E090E001C0880F4A950F
:10208000EAF7809590818923DACFCA0157FD079638
:1020900023E0959587952A95E1F7A481B5818A9FDC
:1020A00090018B9F300D9A9F300D1124620F731F8A
:1020B000078CF0A1E02DE60FF71F4770552721E0B0
:1020C00030E001C0220F4A95EAF780818227B7CF1E
:1020D00008958EBD00000DB407FEFDCF8EB50895A6
:1020E0008CBD9DBD08950895FC016370668B84814D
:1020F000958126813781613039F0633029F09187ED
:102100008087338722870895318720879387828746
:1021100008952F923F924F925F926F927F928F928B
:102120009F92AF92BF92CF92DF92EF92FF920F9366
:102130001F93CF93DF93CDB7DEB76A970FB6F894AE
:10214000DEBF0FBECDBF9A8F898F7A8369834A0124
:10215000D22E18870F833701BC2CDC0159962D91A4
:102160003C915A972115310509F015C118968D91AA
:102170009C911997681779070CF0D7C11A968D9121
:102180009C91481759070CF0D0C14C2C512CB6E04B
:10219000CB9E600D711D11247C876B871616170668
:1021A0000CF0C3C1EA2DF0E0FA87E98793E0EE0F67
:1021B000FF1F9A95E1F7F88BEF87CF01840F951FEA
:1021C000181619060CF0B1C1A98DBA8D58968C91CC
:1021D000811104C0BFEABD1508F4D394A98DBA8D4E
:1021E000ED91FC9111970284F385E02DCD010995C5
:1021F000B5E0DB9EC0011124E981FA81FC83EB8309
:10220000312C212C9C012D583F4F388F2F8B4A2D7C
:1022100050E05E8B4D8BEF89F88DE20DF31D4491FC
:102220009E828D82D12CC12C69817A81620D731DB1
:102230007A8B698B842F90E09C8B8B8BE98DFA8D48
:10224000A081B18140FF82C0F1E0BF126FC0AF1228
:102250006DC01C96ED91FC912F813885A4014C0D29
:102260005D1D69897A89898D9A8D0995EB89FC892B
:10227000F595E7954E2F5FEFC51AD50A6D817E81E2
:102280008D899E89680F791F7E836D8398E0C916BA
:10229000D10481F6AFEF2A1A3A0AEB81FC81E40DF2
:1022A000F51DFC83EB83F5E02F16310409F0B3CF65
:1022B0002F81388526153705B9F0A98DBA8DED9196
:1022C000FC91B1E0BB1257C0AB1255C069817A8155
:1022D0006B5F7F4F0088F189E02D830128E030E0BB
:1022E000A401898D9A8D0995A98DBA8DED91FC91E6
:1022F00011970688F789E02DCD016A960FB6F894FC
:10230000DEBF0FBECDBFDF91CF911F910F91FF9028
:10231000EF90DF90CF90BF90AF909F908F907F9085
:102320006F905F904F903F902F9009941E96ED9183
:10233000FC91EF80F88409851A8592014D815E81B8
:102340006B817C81898D9A8D099590CF2F813885FD
:102350002615370509F48ACF31E0B31207C0A3125E
:1023600005C01C96ED91FC91930178CF1E96ED91DE
:10237000FC917301E0CF6B857C8564197509068437
:10238000F785E02D73010F8518899201A401898DCD
:102390009A8D0995A9CFF901349694913297459178
:1023A0005491D91AB7E0DB9E400D511D1124F9015B
:1023B000259134913C8B2B8BFA0125903490FA01B6
:1023C0003296749031963491398B3296649031966E
:1023D000449041E04C1518F04A1508F07FC0662D76
:1023E000062C000C770B7C836B83842D042C000C53
:1023F000990B9E838D83A98DBA8DED91FC911197D8
:102400000284F385E02DCD010995512CD12CC12CEE
:10241000EA2DF0E0FA87E9872B2D30E03C872B8707
:10242000A401440D511D47FC5A95588F4F8B69816B
:102430007A81660D711D67FC7A957E876D87798933
:10244000C71608F051CF2C2D30E04D815E81420F30
:10245000531FA985BA854A9FC0014B9F900D5A9F73
:10246000900D1124FC01E80DF91DF88BEF87852DE7
:10247000612C4F89588D420F531F5E8B4D8B671413
:1024800008F050C044244394480E877041F4C101C1
:102490000196EB89FC89E20DF31DD4901C01D7FE57
:1024A00019C0A98DBA8DED91FC91662D70E0B1E057
:1024B000BB1219C0AB1217C02D853E85620F731F6A
:1024C0000484F585E02D2F8138854D895E89898DBD
:1024D0009A8D0995DD0C6394842DD1CF1E821D82C7
:1024E0001C821B8288CF4B815C81640F751FAB857A
:1024F000BC856A9FC0016B9F900D7A9F900D11243F
:1025000069817A81680F791F0684F785E02DEF8055
:10251000F88409851A859D014F855889898D9A8D82
:102520000995D8CF570CC3948ACF6A960FB6F89402
:10253000DEBF0FBECDBFDF91CF911F910F91FF90F6
:10254000EF90DF90CF90BF90AF909F908F907F9053
:102550006F905F904F903F902F9008958F929F9231
:10256000AF92CF92EF92FF920F931F93CF93DF938F
:10257000EC01262F898D9A8D0097B1F56A30D1F440
:102580001D861C868D8998E0899F900111248E8577
:102590009F85820F931F9F878E8781E090E0DF9158
:1025A000CF911F910F91FF90EF90CF90AF909F90A0
:1025B0008F9008956D3089F3EA88FB88088919891E
:1025C0004E855F856C857D85AD88CC88CE010E9467
:1025D00089102C898C859D8536E0239F800D911D67
:1025E00011249D878C87D9CF6A3069F41D861C869B
:1025F000FC013896E4912D898E859F85E29F800DA0
:10260000911D1124C8CF6D3041F2FC0134963491F4
:10261000631708F4C2CF3296E491E61708F4BDCFF1
:10262000FC01329685909490862F831B97E0899FBA
:10263000800C911C1124F401329684913196E4911E
:10264000882391F0EE2381F0F4013596E491EA8835
:10265000FB88088919894E855F856C857D85AD88E5
:10266000CC88CE010E948910F4013496E4912C8923
:102670008C859D85E29F800D911D1124B2CF6F92B4
:102680007F928F929F92AF92BF92CF92DF92EF9202
:10269000FF920F931F93CF93DF93EC016B015A01CD
:1026A00039014801E881F9810284F385E02D09951B
:1026B000E881F9810288F389E02D87019301A50162
:1026C000B601CE010995A501480D591D415051098A
:1026D000E881F9810288F389E02D9301B601CE01EA
:1026E0000995E881F9810088F189E02D9401A5011F
:1026F000B601CE010995C60CD71CB601615071090F
:10270000E881F9810088F189E02D9401A501CE01CD
:102710000995E881F9810688F789E02DCE01DF91DE
:10272000CF911F910F91FF90EF90DF90CF90BF90CE
:10273000AF909F908F907F906F9009946F927F924F
:102740008F929F92AF92BF92CF92DF92EF92FF92C1
:102750000F931F93CF93DF935C01EB016A01490153
:1027600038018701DC01ED91FC916217730719F5BF
:10277000641675062CF0962D872D3A01C92ED82E99
:102780009601261937092F5F3F4F048CF58DE02DF8
:10279000A301BE01C5010995DF91CF911F910F9152
:1027A000FF90EF90DF90CF90BF90AF909F908F9071
:1027B0007F906F9008954615570591F426173707B7
:1027C00024F0892D4B01C22FD82F9E0128193909D9
:1027D0002F5F3F4F068CF78DE02DA601B401DACFB5
:1027E0000284F385E02D0995D501ED91FC910488D3
:1027F000F589E02D83019401A601BE01C50109956B
:10280000D501ED91FC910688F789E02DC501DF9196
:10281000CF911F910F91FF90EF90DF90CF90BF90DD
:10282000AF909F908F907F906F900994EF92FF925E
:102830000F931F93DC011A960D911C911B9718960C
:102840002D913C911997ED91FC9100A0F1A1E02D03
:102850007B0150E040E070E060E009951F910F912E
:10286000FF90EF9008954F925F926F927F928F92B8
:102870009F92AF92BF92CF92DF92EF92FF920F930F
:102880001F93CF93DF936C012B015A01390148014B
:10289000DC01ED91FC910284F385E02D0995E201C4
:1028A000640C751CD601ED91FC91C615D7055CF43E
:1028B0000088F189E02D87019401A501BE01C601C0
:1028C00009952196EFCF0688F789E02DC601DF91A3
:1028D000CF911F910F91FF90EF90DF90CF90BF901D
:1028E000AF909F908F907F906F905F904F900994E2
:1028F0008F929F92AF92BF92CF92DF92EF92FF9210
:102900000F931F93CF93DF93EC015B014A016901A1
:10291000E881F9810284F385E02D099595012C0D5C
:102920003D1D21503109E881F9810488F589E02DA8
:1029300078018401A401B501CE010995E881F981EE
:102940000688F789E02DCE01DF91CF911F910F917D
:10295000FF90EF90DF90CF90BF90AF909F908F90BF
:1029600009948F929F92AF92BF92CF92DF92EF9293
:10297000FF920F931F93CF93DF93EC015B014A010A
:1029800069017801E881F9810284F385E02D0995D8
:10299000C80CD91C860101501109E881F98104880D
:1029A000F589E02D9501A401B501CE010995E881D5
:1029B000F9810688F789E02DCE01DF91CF911F9133
:1029C0000F91FF90EF90DF90CF90BF90AF909F90CE
:1029D0008F900994EF92FF920F931F93DC01ED917A
:1029E000FC9100A0F1A1E02D09951F910F91FF909E
:1029F000EF9008950F931F93DC01ED91FC91068CED
:102A0000F78DE02D09951F910F9108950F931F9356
:102A1000DC01ED91FC91048CF58DE02D09951F9161
:102A20000F9108952F923F924F925F926F927F92F3
:102A30008F929F92AF92BF92CF92DF92EF92FF92CE
:102A40000F931F93CF93DF9300D000D0CDB7DEB7A5
:102A50006C0101E010E029E030E043E350E0BC010C
:102A600085E094E00E94061554E0452E512C222466
:102A70002394312CF12CE12C84E090E09C838B8317
:102A800088EF9FEF9A8389837DEF672E77247A946E
:102A90009FEFE91AF90A82E0280E311C620C731CC0
:102AA0008B819C818E159F050CF457C04C01880CBE
:102AB000991C9FEF891A990A01E010E0940147E3FD
:102AC000A42EB12C8B819C81A81AB90AA501B7014B
:102AD0006C0D7D1D85E094E00E9406159401A50112
:102AE000B6016E197F0985E094E00E9406158B817E
:102AF0009C8184159505F9F0B601640D751D01E002
:102B000010E0410192E0891A9108940188E3A82E0F
:102B1000B12CAE18BF08A50185E094E00E9406150F
:102B2000B601641975099401A50185E094E00E943D
:102B300006154B805C808B819C81E816F90694F425
:102B400077FCA6CF01979C838B8389819A8102961B
:102B50009A838983680E791E9BCF8B819C81841513
:102B6000950551F60F900F900F900F90DF91CF9138
:102B70001F910F91FF90EF90DF90CF90BF90AF909B
:102B80009F908F907F906F905F904F903F902F908D
:102B90000895DC01ED91FC910084F185E02D09940C
:102BA0003F924F925F926F927F928F929F92AF92DD
:102BB000BF92CF92DF92EF92FF920F931F93CF932A
:102BC000DF9300D000D0CDB7DEB75C013B016A01D6
:102BD0004901280187E0480E511C93E05594479421
:102BE0009A95E1F7CA018E0D9F1D9A838983F12C76
:102BF000E12C312C1C821B828B819C818770992750
:102C0000330C892B61F4EB81FC8183E0F595E7952A
:102C10008A95E1F7EE0DFF1DE80DF91D349037FEA2
:102C20000AC021E030E0A6016B817C81660D771D32
:102C3000C5010E94C9158B819C8101969C838B8361
:102C400008171907C9F69FEFC91AD90AE40CF51C31
:102C500089819A81C816D90669F60F900F900F9056
:102C60000F90DF91CF911F910F91FF90EF90DF9028
:102C7000CF90BF90AF909F908F907F906F905F901C
:102C80004F903F9008952F923F924F925F926F9294
:102C90007F928F929F92AF92BF92CF92DF92EF92EC
:102CA000FF920F931F93CF93DF937C016B01EA0197
:102CB00081E090E05C01A41AB50A66247724641AC6
:102CC000750A660C771C10E000E088248394912C30
:102CD000822F8470582E822F8270482E822F887007
:102CE000382E2170222E0C171D070CF079C0B7FC6E
:102CF00006C0219782E0680E711CA60CB71C0F5FFE
:102D00001F4F82E0880E911CA80CB91C5520C1F001
:102D100021E030E0AE014C0D5D1DB701600F711F69
:102D200085E094E00E94C91521E030E0A601400F43
:102D3000511FBE016E0D7F1D85E094E00E94C915F4
:102D40004420C1F021E030E0A6014C1B5D0BB7012F
:102D5000600F711F85E094E00E94C91521E030E00A
:102D6000A601401B510BBE016E0D7F1D85E094E056
:102D70000E94C9153320C1F021E030E0A601400FC8
:102D8000511FB7016C1B7D0B85E094E00E94C915B3
:102D900021E030E0AE014C0D5D1DB701601B710BF1
:102DA00085E094E00E94C915222009F49CCF21E01F
:102DB00030E0A601401B510BB7016C1B7D0B85E079
:102DC00094E00E94C91521E030E0A6014C1B5D0B88
:102DD000B701601B710B85E094E00E94C91583CF99
:102DE000DF91CF911F910F91FF90EF90DF90CF90E7
:102DF000BF90AF909F908F907F906F905F904F901B
:102E00003F902F9008952F923F924F925F926F9232
:102E10007F928F929F92AF92BF92CF92DF92EF926A
:102E2000FF920F931F93CF93DF9300D000D0CDB7C5
:102E3000DEB72C013B011A0179011C830B83580179
:102E4000AA0CBB1C4A018A189B086801C40CD51C3B
:102E500001E010E09401AB01B60185E094E00E942E
:102E6000FA14C701860D971D9A838983AC014150DE
:102E700051099401B60185E094E00E94FA14EA1821
:102E8000FB088B819C81680E791E9701A301B2011A
:102E900085E094E00E940615420C531CB20161507B
:102EA00071099701A30185E094E00E94061521E0D5
:102EB0004B815C81B301C6010E9443168B819C81CA
:102EC000481A590A91E0491A510822E04B815C8165
:102ED000B301C2010E944316E980FA808B819C8174
:102EE000E81AF90A91E0E91AF10824E04B815C81C3
:102EF000B701C2010E94431628E04B815C81B701F3
:102F0000C6010F900F900F900F90DF91CF911F91FE
:102F10000F91FF90EF90DF90CF90BF90AF909F9078
:102F20008F907F906F905F904F903F902F900C9478
:102F300043162F923F924F925F926F927F928F92A1
:102F40009F92AF92BF92CF92DF92EF92FF920F9338
:102F50001F93CF93DF9300D000D000D0CDB7DEB762
:102F60003C016A013E832D83FC82EB825801A41A46
:102F7000B50AB7FE03C0B194A194B1088D809E80BC
:102F8000861A970A97FE03C09194819491088A1437
:102F90009B045CF0902F812F0D811E819D838E8379
:102FA0009C2D8D2D6B01692F782F0C151D055CF064
:102FB0009D818E817E836D83692F782F902F812F45
:102FC0008601C92ED82E1601201A310A2B012D8117
:102FD0003E81421A530A57FE03C05194419451084E
:102FE000710137FE03C03FEFE31AF30AF594E7944B
:102FF0008D819E81861797075CF5A1E0B0E0BA83CA
:10300000A983C016D1064CF1D301ED91FC91048443
:10301000F585E02D2B813C81A8016D817E818A148C
:103020009B041CF04D815E81B801C3010995E41831
:10303000F508F7FE0AC02D813E8189819A81280F0B
:10304000391F3E832D83E20CF31C0F5F1F4FD9CF36
:103050002FEF3FEF3A832983D4CF26960FB6F8940B
:10306000DEBF0FBECDBFDF91CF911F910F91FF90BB
:10307000EF90DF90CF90BF90AF909F908F907F9018
:103080006F905F904F903F902F90089508952091FA
:103090009A02260F3327331F21323105ECF4209199
:1030A000BE02FC0190E080E0243069F082E00895E7
:1030B000A0919A022191AC0146585D4FA40FB52F03
:1030C000B11D2C930196861798F380919A02680F90
:1030D00060939A0280E0089581E008951092BE0204
:1030E00081E08093C0021092BF0261E082E10E9401
:1030F0000C0D61E083E10E940C0DE9EBF0E08081B2
:103100008E7F808380818D7F808388E48093B80068
:1031100085E48093BC000895CF93DF9391E0909372
:1031200079028823B9F0C091B800D091BA0080919B
:10313000BC008A7B8093BC0060E082E10E940C0DA1
:1031400060E083E10E940C0D0E946E18D093BA00DB
:10315000C093B800DF91CF910895E091EA02809189
:10316000E902E81730F4F0E0EC5AFD4F808190E07E
:1031700008958FEF9FEF08959091EA028091E90200
:103180002FEF3FEF981748F4E92FF0E0EC5AFD4F8E
:10319000208130E09F5F9093EA02C90108958091F9
:1031A000E9029091EA02891B990B0895CF92DF9270
:1031B000EF92FF920F931F93CF93DF937C01CB018C
:1031C0008A0120916703222389F0EB016B01C40E71
:1031D000D51ECC15DD0569F06991D701ED91FC9103
:1031E0000190F081E02DC7010995F3CF642F0E9473
:1031F0004718C801DF91CF911F910F91FF90EF9079
:10320000DF90CF900895CF93DF931F92CDB7DEB7B5
:103210006983209167032223F9F02091640320320F
:1032200058F021E030E0FC013383228390E080E01D
:103230000F90DF91CF91089580916503E82FF0E022
:10324000EC5CFD4F998190838F5F80936503809341
:10325000640381E090E0ECCF61E0CE0101960E9432
:103260004718F7CFCF92DF92EF92FF920F931F9301
:10327000CF93DF93D091640381E0D13208F09CC0FA
:10328000C09166030E94800D6B017C018091BE029B
:1032900081116CC082E08093BE0281E08093C00205
:1032A0008FEF8093BD021092E202D093E102A4E37B
:1032B000B2E0E1ECF2E080E0D8138DC01092E302BE
:1032C0008091E302CC0FC82BC093E3028091BF0230
:1032D000813009F084C01092BF020E94800D6B0102
:1032E0007C018091E3028093BB00809175029091F4
:1032F0007602A0917702B0917802892B8A2B8B2BD2
:10330000A1F00E94800D009175021091760220912B
:103310007702309178026C197D098E099F09061792
:1033200017072807390708F442C08091BC0083FDC5
:10333000D8CF85EC8093BC000E94800D6B017C018E
:103340008091BE02823009F44CC08091BD028F3F53
:1033500009F469C08091BD02803209F466C0809191
:10336000BD02803309F463C084E026C080917502F9
:1033700090917602A0917702B0917802892B8A2BE6
:103380008B2B09F483CF0E94800D00917502109160
:10339000760220917702309178026C197D098E09AE
:1033A0009F09061717072807390708F06FCF809184
:1033B00074020E948C1885E01092650310926403D9
:1033C00010926703DF91CF911F910F91FF90EF90C3
:1033D000DF90CF9008959D9191938F5F6DCF85EE93
:1033E000A9CF8091750290917602A0917702B09159
:1033F0007802892B8A2B8B2B09F4A2CF0E94800D97
:103400000091750210917602209177023091780236
:103410006C197D098E099F090617170728073907B8
:1034200008F08ECFC4CF80E0C7CF82E0C5CF83E065
:10343000C3CFEF92FF920F931F93CF93DF937C0143
:10344000C62F8091220490912304009709F459C05B
:103450002091260431E03093670320936603109295
:10346000650310926403DC01ED91FC910190F08101
:10347000E02D60E009958701EE24E394F12CD1E082
:10348000C1508091220490912304CF3F91F1B0E28A
:10349000EB16F104D8F00E94321980912204909129
:1034A000230420912604D09367032093660310928F
:1034B000650310926403DC01ED91FC910190F081B1
:1034C000E02D60E00995EE24E394F12C8091220434
:1034D00090912304F8016491DC01ED91FC9101903D
:1034E000F081E02D0995BFEFEB1AFB0A0F5F1F4F2C
:1034F000C7CFDF91CF911F910F91FF90EF900C9468
:103500003219E0913204F0913304908180913804B3
:103510008095892380838701C15008F438C0F80161
:1035200084912091200430912104232B29F00E94C2
:1035300069100F5F1F4FF0CF28E030E040E8E091C6
:103540002E04F0912F0490913604582F5423D9F073
:103550005081952B9083E0913004F091310490815B
:1035600050913704952B9083E0913004F091310411
:1035700050819091370490959523908346952150E2
:103580003109E9F6D6CF508190959523E3CFDF91AD
:10359000CF911F910F91FF90EF9008951F93CF93BC
:1035A000DF93EC018D8D9E8D009721F1162F29A1BF
:1035B00031E0309367032093660310926503109205
:1035C0006403DC01ED91FC910190F081E02D60E05D
:1035D00009958D8D9E8DDC01ED91FC910190F0811E
:1035E000E02D612F09958D8D9E8DDF91CF911F91DB
:1035F0000C943219ADA5BEA59C918BA98095892309
:103600008C938B8D9C8D892B31F0862FDF91CF9100
:103610001F910C94691028E030E080E8A9A5BAA5B4
:1036200099A9462F4823C1F04C91942B9C93ABA5AC
:10363000BCA59C914AA9942B9C93ABA5BCA54C918D
:103640009AA9909594239C9386952150310931F73E
:10365000DF91CF911F9108954C9190959423E6CFDF
:10366000DF92EF92FF920F931F93CF93DF9380919E
:10367000220490912304892B09F498C020913A04E4
:1036800030913B0440913C0450913D0460E074E271
:1036900084EF90E00E9443322051310941095109E1
:1036A00056954795379527952093B80065E085E5B1
:1036B00097E10E94191A60910904615085E094E035
:1036C0000E94CE1A20910B0430910C04C901079678
:1036D00097FD079633E0959587953A95E1F7209108
:1036E000090430910A04829F8001839F100D929FEC
:1036F000100D1124C0912404D0912504809122043E
:10370000909123040C0F1D1F009709F48FC0209186
:10371000260431E03093670320936603109265031B
:1037200010926403DC01ED91FC910190F081E02D99
:1037300060E40995EE24E394F12CDD24D394809188
:103740002204909123040C171D0709F446C0B0E22F
:10375000EB16F104D8F00E94321980912204909166
:10376000230420912604D0926703209366031092CD
:10377000650310926403DC01ED91FC910190F081EE
:10378000E02D60E40995EE24E394F12C809122046D
:10379000909123046991DC01ED91FC910190F081FD
:1037A000E02D0995BFEFEB1AFB0AC9CF80912004E9
:1037B00090912104892B31F080914304909144042D
:1037C0000E947010E0913404F09135049081809152
:1037D000390480958923808369CF0E9432198091B2
:1037E000220490912304892B09F461C020913E04A6
:1037F00030913F04409140045091410460E074E2F4
:1038000084EF90E00E94433220513109410951096F
:1038100056954795379527952093B800DF91CF911E
:103820001F910F91FF90EF90DF900895E091320487
:10383000F0913304808190913804892B80830C1798
:103840001D0769F289912091200430912104232BD6
:1038500019F00E946910F3CF28E030E040E8E091D1
:103860002E04F0912F0490913604582F5423D9F050
:103870005081952B9083E0913004F0913104908138
:1038800050913704952B9083E0913004F0913104EE
:1038900050819091370490959523908346952150BF
:1038A0003109E9F6CCCF508190959523E3CFE09193
:1038B0003404F0913504808190913904892B808300
:1038C000ADCF1F93CF93DF93EC01162F8D8D9E8D7F
:1038D000892BB1F12DA93EA94FA958AD60E074E242
:1038E00084EF90E00E94433220513109410951098F
:1038F00056954795379527952093B80066EA11119C
:1039000067EACE010E94CE1A8D8D9E8D892B41F1E2
:1039100029AD3AAD4BAD5CAD60E074E284EF90E070
:103920000E9443322051310941095109569547956A
:10393000379527952093B800DF91CF911F91089577
:103940008B8D9C8D892B21F08EAD9FAD0E947010C8
:10395000EFA5F8A990818CA9809589238083CECF8B
:10396000EFA5F8A980819CA9892B8083E5CF90E001
:1039700080E00895EF92FF920F931F93CF93DF9310
:103980007B01880F991F880F991FEC01259710E084
:1039900000E061E086E00E940C0DCE010197F1F796
:1039A00060E086E00E940C0DCE010197F1F70F5FF9
:1039B0001F4FE016F10669F7DF91CF911F910F912C
:1039C000FF90EF9008951F93CF93DF93182F0E94DD
:1039D0006B0DEC01812F0E946B0D8C0F9D1F969536
:1039E0008795DF91CF911F9108953F924F925F92FB
:1039F0006F927F928F929F92AF92BF92CF92DF92FF
:103A0000EF92FF920F931F93CF93DF933B014A01F5
:103A10002901E7013C2C0E94E30CF3019183808390
:103A2000F40120813181892B09F059C0C0904C03E9
:103A3000D0904D03E0904E03F0904F0321303105BC
:103A400031F511821082F20180819181A281B381CE
:103A5000B701A601481B590B6A0B7B0BC801110F5C
:103A6000AA0BBB0B481759076A077B0780F03983FD
:103A70002883F501C082D182E282F382F1E03F1215
:103A80001CC06DE470E088EC90E00E94BA1CF50167
:103A900080819181A281B381A7019601281B390BF6
:103AA0004A0B5B0BDA01C9018C329140A105B105CB
:103AB00020F083E090E099838883DF91CF911F917C
:103AC0000F91FF90EF90DF90CF90BF90AF909F90BD
:103AD0008F907F906F905F904F903F900895232B31
:103AE00061F781E090E09183808380914C03909115
:103AF0004D03A0914E03B0914F03F2018083918357
:103B0000A283B38388819981892BB9F282E090E006
:103B1000D2CF20910B0430910C04C901079697FD78
:103B2000079623E0959587952A95E1F7209109045A
:103B300030910A04829FA001839F500D929F500DE7
:103B4000112470E060E080912404909125040C948D
:103B5000E233EF92FF920F931F9360E08FE00E9499
:103B60000C0D0E94891D8FE3E82EF12C0CE710E06C
:103B700025E633E150E040E070E060E085E094E06D
:103B80000E94D0150E94301B64E670E088EC90E043
:103B90000E94BA1C62E370E080E090E00E94A50DF4
:103BA00064E670E088EC90E00E94BA1C62E370E08A
:103BB00080E090E00E94A50D64E670E088EC90E063
:103BC0000E94BA1C6CED75E080E090E00E94A50DAB
:103BD00080915F038630B0F082E00E94E30C892B75
:103BE00031F08091620390916303019759F4109230
:103BF0005F031092610310926003109263031092AE
:103C00006203EACF0E94891D1F910F91FF90EF90F0
:103C10000C94301B0E94DD33FB0101900020E9F77A
:103C20003197AF01461B570BDC01ED91FC910280EF
:103C3000F381E02D09948F929F92AF92BF92EF9201
:103C4000FF920F931F93CF93DF93CDB7DEB7A1976A
:103C50000FB6F894DEBF0FBECDBF7C01FA01CB01D9
:103C600019A2223008F42AE08E010F5D1F4F822E28
:103C7000912CB12CA12CBF01A50194010E944332CB
:103C8000F901CA016A300CF5605DD8016E938D01AF
:103C9000232B242B252B79F790E080E0109721F03F
:103CA000BD01C7010E940C1EA1960FB6F894DEBF9D
:103CB0000FBECDBFDF91CF911F910F91FF90EF907D
:103CC000BF90AF909F908F900895695CDECFCF92A8
:103CD000DF92EF92FF920F931F93CF93DF93EC014C
:103CE0006A017B01E881F9810190F081E02D6DE2AC
:103CF00009958C0144275527BA014C195D096E09B5
:103D00007F092AE0CE010E941B1E800F911FDF91C8
:103D1000CF911F910F91FF90EF90DF90CF9008957A
:103D20000F931F93CF93DF93EC01AB01770F660BDB
:103D3000770B77FF0FC00E94671E8C0163E671E06E
:103D4000CE010E940C1E800F911FDF91CF911F9119
:103D50000F9108952AE00E941B1EEFCF0C940C1EB9
:103D60008F929F92AF92BF92CF92DF92EF92FF928B
:103D70000F931F93CF93DF93CDB7DEB728970FB67E
:103D8000F894DEBF0FBECDBFB82E6B014A010E9472
:103D9000891D81E0B8128CC012E0109319041093B1
:103DA0001A0481E090E09093180480931704909394
:103DB00016048093150463E2A62EB12CB09212046F
:103DC000A092110485E090E0909314048093130472
:103DD00066E671E085E094E00E94AE1EB0921204A7
:103DE000A09211048AE190E090931404809313044C
:103DF0006CE671E085E094E00E94AE1EB092120481
:103E0000A09211048FE290E0909314048093130425
:103E100062E771E085E094E00E94AE1E92E0C91670
:103E2000D10471F1E3E0CE16D104B1F1CA94CD28EA
:103E300091F483E080935A03EE24E394F12C05E19E
:103E400010E026E430E041E050E06DE170E085E014
:103E500094E00E943F130E94301B28960FB6F894FE
:103E6000DEBF0FBECDBFDF91CF911F910F91FF90AD
:103E7000EF90DF90CF90BF90AF909F908F9008957C
:103E800010935A03EE24E394F12C05E110E026E4AC
:103E900030E046E150E0D9CF10925A03EE24E3948B
:103EA000F12C05E110E026E430E04BE250E0CDCF0C
:103EB00082E0B812BBC00E94891D2AE2E22EF12CDA
:103EC00009E610E029E131E144E050E064E070E00F
:103ED00085E094E00E94D015B0921904B0921A04C3
:103EE00087E390E090931204809311048DE290E0B8
:103EF000909314048093130491E0C916D10409F43B
:103F00005BC0E2E0CE16D10409F0A5CFF401B08287
:103F1000EE24E394F12C03E110E02DE030E046E1E3
:103F200050E06AE070E085E094E00E94331401E024
:103F300010E01093180400931704109316040093D4
:103F400015046FE771E085E094E00E94AE1E1093C7
:103F500018040093170410931604009315046BE7DC
:103F600071E085E094E00E94AE1E05E010E027E1DC
:103F700030E048E250E068E270E088E590E00E94BE
:103F8000031710921804109217041092160410923E
:103F900015048BE090E0909312048093110488E163
:103FA00090E0909314048093130463E871E085E03B
:103FB00094E00E94AE1E4FCF81E0F4018083F12C8B
:103FC000E12C03E110E02DE030E044E150E06AE054
:103FD00070E085E094E00E943314D0921804C092FF
:103FE0001704D0921604C092150467E771E085E0CB
:103FF00094E00E94AE1ED0921804C0921704D09292
:104000001604C09215046AE771E085E094E00E940E
:10401000AE1E05E010E027E130E040E250E068E24B
:1040200070E082E390E00E94031715CFF3E0BF1227
:1040300012CF0E94891D8CE3E82EF12C0BE710E0D3
:1040400029E53DE050E040E070E060E085E094E08C
:104050000E94D01582E0C816D10409F460C093E034
:10406000C916D10409F46AC0CA94CD2889F4109203
:10407000590381E08093160105E010E027E130E06C
:1040800048E150E068E270E08BE290E00E940317A4
:1040900086E0EDE1F1E08E010F5F1F4FD801019046
:1040A0000D928A95E1F718861F8280915E038F93A7
:1040B00080915D038F9380915C038F9380915B036C
:1040C0008F9385E891E09F938F931F930F930E94A6
:1040D000E93383E08093190480931A0481E090E02F
:1040E00090931804809317049093160480931504FA
:1040F00085E390E0909312048093110481E190E0B5
:104100009093140480931304B80185E094E00E9416
:10411000AE1E0FB6F894DEBF0FBECDBF9CCE109280
:1041200059031092160105E010E027E130E049E163
:1041300050E068E270E081E490E0A8CF81E08093F5
:1041400059038093160105E010E027E130E045E2D5
:1041500050E068E270E08AE590E098CFCF92DF927D
:10416000EF92FF920F931F93CF93DF93CDB7DEB7FC
:1041700028970FB6F894DEBF0FBECDBF2091220363
:10418000211144C07F936F939F938F938FE891E0A9
:104190009F938F93CE0101966C019F938F930E9402
:1041A000E933F12CE12C07E010E020E230E049E3B4
:1041B00050E06FE570E085E094E00E94331481E008
:1041C0008093190480931A0481E090E0909318047E
:1041D0008093170490931604809315048FE590E064
:1041E000909312048093110489E390E09093140457
:1041F00080931304B60185E094E00E94AE1E0E94F5
:10420000301B0FB6F894DEBF0FBECDBF28960FB699
:10421000F894DEBF0FBECDBFDF91CF911F910F91FC
:10422000FF90EF90DF90CF9008950F931F93962FFC
:1042300081114EC08091220381114AC02330D1F0F8
:1042400081E08093190480931A04243081F0223095
:1042500049F027E330E0309312042093110429E35E
:1042600030E014C02EE330E004361105A4F322E060
:1042700030E0F1CF2093190420931A0422E030E0BB
:1042800030931204209311042AE030E03093140498
:1042900020931304BA01913049F01092180410923F
:1042A000170410921604109215040AC081E090E0E1
:1042B0009093180480931704909316048093150428
:1042C00085E094E00E94AE1E1F910F910C94301B6C
:1042D0001F910F91089585ED8093BC008091750228
:1042E00090917602A0917702B09178020796A11D75
:1042F000B11D23E0B695A795979587952A95D1F797
:104300002091BC0024FD03C01092BE02089540918C
:104310007502509176026091770270917802452B78
:10432000462B472B69F30097A105B10541F02AE21E
:104330002A95F1F700C00197A109B109E1CF809159
:1043400074020C948C181F920F920FB60F921124C6
:104350002F933F938F939F93AF93BF93809151037C
:1043600090915203A0915303B091540330915003A4
:1043700023E0230F2D3758F50196A11DB11D209381
:1043800050038093510390935203A0935303B0932F
:1043900054038091550390915603A0915703B09117
:1043A00058030196A11DB11D8093550390935603A8
:1043B000A0935703B0935803BF91AF919F918F91F2
:1043C0003F912F910F900FBE0F901F90189526E8E8
:1043D000230F0296A11DB11DD2CF1F920F920FB6CF
:1043E0000F9211242F933F934F935F936F937F937B
:1043F0008F939F93AF93BF93EF93FF9388E693E0E0
:104400000E94170CFF91EF91BF91AF919F918F91F7
:104410007F916F915F914F913F912F910F900FBEC0
:104420000F901F9018951F920F920FB60F921124A4
:104430002F938F939F93EF93FF93E0917803F091E5
:1044400079038081E0917E03F0917F0382FD1BC0A0
:104450009081809181038F5F8F73209182038217F7
:1044600041F0E0918103F0E0E859FC4F958F809393
:104470008103FF91EF919F918F912F910F900FBE2C
:104480000F901F9018958081F4CF1F920F920FB656
:104490000F9211242F933F934F935F936F937F93CA
:1044A0008F939F93AF93BF93EF93FF938091B90046
:1044B000887F803609F44AC0F0F5883209F4A7C035
:1044C00018F5803109F49BC0B8F4882309F4F9C0C9
:1044D000883009F494C0FF91EF91BF91AF919F9103
:1044E0008F917F916F915F914F913F912F910F909D
:1044F0000FBE0F901F901895883109F488C0803244
:1045000051F78093BD0214C0803409F49DC040F47B
:104510008033B9F38833F9F68093BD0285ECB0C0DF
:10452000803509F485C0883509F496C0883499F639
:104530000E946B21D0CF883909F48CC038F58837B8
:1045400029F050F4883611F0803729F683E0809303
:10455000BE021092BC0257C0883809F47BC0803973
:1045600019F0803809F0B7CF8091BC02803208F092
:1045700071C0E091BC0281E08E0F8093BC028091FB
:10458000BB00F0E0E456FD4F80833DC0803B39F036
:10459000E0F4803A09F479C0883A09F09CCF84E0CD
:1045A0008093BE0210929B0210929A02E091E70261
:1045B000F091E802099580919A0281110FC081E083
:1045C00080939A0210927A0209C0803C09F4A6CF27
:1045D000883C09F4A3CF883B09F07DCFE0919B0292
:1045E00081E08E0F80939B02F0E0E658FD4F8081C2
:1045F0008093BB0090919B0280919A0229C0809188
:10460000E3028093BB0085EC8093BC0064CF909163
:10461000E2028091E102981758F5E091E20281E010
:104620008E0F8093E202F0E0EF53FD4F8081E9CFDF
:10463000E091E20281E08E0F8093E2028091BB0064
:10464000F0E0EF53FD4F80839091E2028091E10210
:104650009817C8F285E8D8CFE091E20281E08E0F8A
:104660008093E2028091BB00F0E0EF53FD4F808326
:104670008091C00281115CCF81E08093BF0284EA07
:104680008093BC001092BE0226CF85EC8093BC00C4
:104690001092BE028091BC02803230F4E091BC02E4
:1046A000F0E0E456FD4F10826091BC0270E0E091B2
:1046B000E502F091E6028CE992E009951092BC02C5
:1046C0000ACF1092BD0234CF71E03D9A3C980000B1
:1046D000000000000E9412253D980E941225A89417
:1046E000000000000000359B0E94FA24D2F088945C
:1046F00034990894771F48F73D9A803019F03C9818
:104700000C9483233C9A0000000000000E941225B4
:104710003D98A89400000000359B0E94FA240E9456
:104720001225000000003D9A872F9927089580E206
:1047300008950894881F0C949E23880FF1F03D9AE9
:1047400000000000000020F400003C980C94AB2313
:104750003C9A0C94AB230E9412253D98A89400002B
:1047600000000000359B0E94FA241AF488270C945C
:10477000D0230E9412250C949D233D9A0000000036
:104780003C980E941225992788273D98A8940000FC
:10479000359B0E94FA2452F3349B81E00E9412253B
:1047A000000000003D9A089581E008953D9A3C9AEA
:1047B0000E9412253D980E941225359B0E94FA24E2
:1047C0003C980E941225789408958F93F1E0E4EFCD
:1047D0008F918F93F894359B0E94FA243C9A0E9403
:1047E00012250E949923882331F40E94D623319701
:1047F00011F00C94E82399270F9008950895F894E8
:104800003D9A0E9412253C980E9412253D980E94D4
:104810001225359B0E94FA243C9A0E9412250E9480
:104820009923089581E00895F894359B0E94FA2415
:104830003C9A0E9412250E949923089581E00895D0
:10484000DF92EF92FF920F931F93CF93DF93D82EB7
:104850000E94D62361E070E080E090E00E94A50D08
:104860000E94D62361E070E080E090E00E94A50DF8
:104870008AE0E82EF12C01E010E080EC0E94142484
:10488000C1E0D0E0811104C010E000E0D0E0C0E061
:1048900084E40E949923811104C010E000E0D0E07C
:1048A000C0E08D2D0E949923811102C0D0E0C0E0AC
:1048B0000E94D62361E070E080E090E00E94A50DA8
:1048C000CD2B21F481E0E81AF108B9F6012B41F172
:1048D000DF91CF911F910F91FF90EF90DF9008959E
:1048E00001501109A9F380EC0E941424C82F84E41C
:1048F0000E949923811101C0C0E0D0E08D2D0E945B
:104900009923811102C0D0E0C0E00E94D62361E06B
:1049100070E080E090E00E94A50DCD2B09F3D8CF88
:104920000AE010E0E0CFEF92FF920F931F93CF9336
:10493000DF93813009F449C0EB016233710564F4FF
:1049400000913A0310913B0324E04CE651E061E012
:1049500080914B030E9415218CEA0E94202461E083
:104960008FE00E940C0D61E470E080E090E00E9416
:10497000A50D08E610E083E7E82E80E0F82EF801A8
:1049800084910E9420246FE070E080E090E00E941B
:10499000A50D0F5F1F4FE016F10689F7E0913C036C
:1049A000F0913D03EE58F34F84910E942024E2974A
:1049B00064F400913A0310913B0324E04CE651E08B
:1049C00062E080914B030E941521DF91CF911F91EE
:1049D0000F91FF90EF9008953C983D98449845982A
:1049E00088279927349B0895359B089581E0089581
:1049F00081E00895B0E0A4E000240E940A253AF482
:104A00000A94D9F71197C1F728940C941125A8940A
:104A10000C941125A89435990C940F252894000026
:104A2000089508959BE69A95F1F708950895E8E6AC
:104A3000F3E01382128288EE93E0A0E0B0E084837A
:104A40009583A683B78389E291E09183808385EC87
:104A500090E09587848784EC90E09787868780EC48
:104A600090E0918B808B81EC90E0938B828B82EC39
:104A700090E0958B848B86EC90E0978B868B118EE3
:104A8000128E138E148EE5E0F4E01382128220E879
:104A900030E03583248380E490E0978386833187F8
:104AA000208793878287168A15861486178616862E
:104AB00081E0858B848B2FEF3FEF338B228B318B03
:104AC000208B878B108E128E118E8BE391E0918359
:104AD0008083148E138E168E158E10A2178E8BE087
:104AE00084A38DE085A38CE086A38AE087A388E079
:104AF00080A780E586AF17AE0895CF93DF93CDB73B
:104B0000DEB728970FB6F894DEBF0FBECDBF7894FE
:104B100084B5826084BD84B5816084BD85B58260C2
:104B200085BD85B5816085BD80916E008160809373
:104B30006E001092810080918100826080938100DC
:104B400080918100816080938100809180008160EC
:104B5000809380008091B10084608093B100809147
:104B6000B00081608093B00080917A00846080936F
:104B70007A0080917A00826080937A0080917A0036
:104B8000816080937A0080917A00806880937A00B7
:104B90001092C10061E089E00E943A0D80912404E6
:104BA00090912504892B39F10E94891D80910B0475
:104BB00090910C046091090470910A04813291056E
:104BC0000CF013C1AC014052510957FF02C04F5FB6
:104BD0005F4F559547956357710977FF02C06F5F27
:104BE0007F4F75956795F0E2EF2EF12C03E710E00B
:104BF00025E935E012C120910B0430910C04C90164
:104C0000079697FD079623E0959587952A95E1F7F6
:104C10002091090430910A048C01029FC001039F76
:104C2000900D129F900D11240E94B832909325048C
:104C300080932404892B09F0B7CF0E94EC241092B2
:104C40004B0361E089E00E943A0D60E08EE00E9433
:104C50003A0D60E080E10E943A0D60E081E10E943F
:104C60003A0D60E084E00E943A0D60E083E00E942B
:104C70003A0D61E086E00E943A0D60E082E00E9419
:104C80003A0D60E085E10E943A0D60E084E10E9407
:104C90003A0D61E08FE00E943A0D61E087E00E94EA
:104CA0003A0D60E085E00E943A0D60E087E00E94E6
:104CB0000C0D81E08093380360E086E00E940C0DCB
:104CC00061E082E00E940C0D0E94891D90E3E92EB4
:104CD000F12C06E410E025E33AE04AE050E06DE113
:104CE00070E085E094E00E94D0150E94301B60EDDA
:104CF00077E080E090E00E94A50D08E010E0C12C74
:104D0000D12C76018EE00E946B0D092E000CAA0BAF
:104D1000BB0BC80ED91EEA1EFB1E0150110991F7EC
:104D2000A701960183E055954795379527958A9574
:104D3000D1F7A8E8B3E10E9484322FEF33E040E0DE
:104D400050E00E94653205E010E0A5E0B0E00E946E
:104D500084326C357444810591050CF04AC20E947E
:104D6000891D82E08093190480931A0481E090E009
:104D7000909318048093170490931604809315045D
:104D800083E290E090931204809311041093140432
:104D90000093130469E971E085E094E00E94AE1E7F
:104DA0008DE290E090931204809311048AE190E0E8
:104DB00090931404809313046FE971E085E094E00C
:104DC0000E94AE1E10931204009311048FE290E033
:104DD000909314048093130463EA71E085E094E0F7
:104DE0000E94AE1E0E94301BFFCFAC0140545109FF
:104DF00057FF02C04F5F5F4F559547956255710948
:104E000077FF02C06F5F7F4F7595679510E4E12EC5
:104E1000F12C02E510E025E737E085E094E00E9400
:104E2000D01582E08093270480912204909123047E
:104E3000892B09F4E8C080910B0490910C048097B1
:104E400009F0DFC08CE3809326041092EA021092EE
:104E5000E90210926503109264030E946E1883EEBB
:104E60009DE09093E8028093E70284EE9DE09093AA
:104E7000E6028093E50280912D0487FD1EC061E06B
:104E80000E943A0D61E080912D040E940C0D61E0BA
:104E900070E080E090E00E94A50D60E080912D041C
:104EA0000E940C0D6AE070E080E090E00E94A50D89
:104EB00061E080912D040E940C0D8091220490915C
:104EC0002304892B09F45EC120913A0430913B04FC
:104ED00040913C0450913D0460E074E284EF90E026
:104EE0000E94433220513109410951095695479595
:104EF000379527952093B80064E081E995E00E94FA
:104F0000191A60910B04615085E094E00E94CE1A5A
:104F100064E08DE895E00E94191A8091270460E111
:104F2000813009F064E185E094E00E94CE1A64E0EB
:104F300089E895E00E94191A8FE8809342048091D5
:104F4000090490910A048038910509F034C18091D8
:104F50000B0490910C048034910509F03CC18091C0
:104F60002704813009F025C18FE98093420412E1C2
:104F70006AED85E094E00E94CE1A612F85E094E00E
:104F80000E94CE1A61E885E094E00E94CE1A6091FA
:104F9000420485E094E00E94CE1A69ED85E094E039
:104FA0000E94CE1A8091270462E2813009F061EFFD
:104FB00085E094E00E94CE1A66E083E895E00E94C6
:104FC000191A8091220490912304892B09F407C1B6
:104FD00020913E0430913F0440914004509141049F
:104FE00060E074E284EF90E00E9443322051310986
:104FF0004109510956954795379527952093B80053
:105000001CCE8DE320CF61E080912B040E943A0DED
:1050100061E080912C040E943A0D80912B04082EAF
:10502000000C990BFC01E35EF24FE491F0E0EE0F0F
:10503000FF1FE75FF24F25913491309333042093A3
:105040003204FC01EF5CF24FE491E093380480916C
:105050002C04082E000C990BFC01E35EF24FE49146
:10506000F0E0EE0FFF1FE75FF24FA591B491B09310
:105070003504A0933404FC01EF5CF24FE491E0931B
:1050800039048C91E82BEC938091200490912104B9
:10509000892B09F434C01FB7F8948091E402811180
:1050A00027C0E7E2FDE08491EBE3FDE09491E82F77
:1050B000F0E0EE0FFF1FE150F34FA591B491EC919A
:1050C000E92321F461E08AE00E940C0D61E08AE0AE
:1050D0000E943A0D8CB580618CBD8CB580648CBD0E
:1050E00061E08DE00E943A0D61E08BE00E943A0D94
:1050F0008091E4028F5F8093E4021FBFBCCE61E029
:10510000809129040E943A0D61E080912A040E9456
:105110003A0D80912904082E000C990BFC01E35EE6
:10512000F24FE491F0E0EE0FFF1FE75FF24F2591A1
:10513000349130932F0420932E04FC01EF5CF24F46
:10514000E491E093360480912A04082E000C990B18
:10515000FC01E35EF24FE491F0E0EE0FFF1FE75F2A
:10516000F24FA591B491B0933104A0933004FC01A7
:10517000EF5CF24FE491E09337048C91E095E823E3
:10518000EC9379CE8091200490912104892B31F009
:1051900080914304909144040E947010E091340483
:1051A000F091350490818091390480958923808322
:1051B000A3CE8FECDACE8036910569F480910B0492
:1051C00090910C04409739F480912704813029F4A0
:1051D00080E18093420412E0CBCE8FEAFACFE091D7
:1051E0003404F0913504808190913904892B8083B7
:1051F00024CD0E94891D87E08093190480931A04AE
:1052000081E090E090931804809317049093160423
:105210008093150481E290E00E9419328A3D09F4DE
:1052200050C06AE090E080E00E94213264E181E0B9
:1052300090E00E94213268E282E090E00E942132F8
:1052400062E383E090E00E9421326BE084E090E032
:105250000E94213265E185E090E00E94213269E2FE
:1052600086E090E00E94213263E387E090E00E94B4
:1052700021326CE088E090E00E94213266E189E012
:1052800090E00E9421326AE28AE090E00E9421329E
:1052900064E38BE090E00E94213261E080E290E0E4
:1052A0000E94213261E085E290E00E94213260E0BC
:1052B00089E190E00E9421326AED81E290E00E9453
:1052C000213290E080E00E941932182F809323034E
:1052D00081E090E00E9419328093240382E090E004
:1052E0000E9419328093250383E090E00E941932D6
:1052F0008093260384E090E00E9419328093270374
:1053000085E090E00E9419328093280386E090E0C7
:105310000E9419328093290387E090E00E9419329D
:1053200080932A0388E090E00E94193280932B0337
:1053300089E090E00E94193280932C038AE090E08B
:105340000E94193280932D038BE090E00E94193265
:1053500080932E0380E290E00E94193280933903FB
:1053600085E290E00E94193280933703812F90E00C
:1053700090933D0380933C030E94D70D60931103EB
:1053800070931203809313039093140360930903A3
:1053900070930A0380930B0390930C03609347036D
:1053A000709348038093490390934A0360933E03AC
:1053B00070933F0380934003909341038824839428
:1053C000912CDD24D3940E94D70DAB01BC014093F6
:1053D0004C0350934D0360934E0370934F038091A1
:1053E0004B03811173C08091470390914803A091B2
:1053F0004903B0914A038A019B01081B190B2A0B30
:105400003B0BD901C80120911601213009F0FCC2E3
:10541000813117E29107A105B10508F457C0009149
:105420004303109144032091450330914603800FBC
:10543000911FA21FB31F8093430390934403A09333
:105440004503B0934603409347035093480360934A
:10545000490370934A03BC01CD0128EE33E040E0DC
:1054600050E00E94433229013A0121E942162EE719
:1054700052066104710430F010E9412E1EE7512EEE
:10548000612C712CC301B20120E13EE040E050E00C
:105490000E944332790130935C0320935B03C30184
:1054A000B2012CE330E040E050E00E944332CA01F8
:1054B000B9012CE330E040E050E00E9443327093A9
:1054C0005E0360935D03C7010E94AE2080914C0390
:1054D00090914D03A0914E03B0914F0340913E0334
:1054E00050913F036091400370914103841B950BE1
:1054F000A60BB70B81389E4EA643B10508F48CC0AD
:105500000E94891D0E94301B10E000E023E04EEA5B
:1055100051E061E080914B030E94152160ED77E03E
:1055200080E090E00E94A50D0E94891D0E94301B22
:1055300084E00E94E30C8C010E94D70D60934C0321
:1055400070934D0380934E0390934F03112784E093
:105550000E94E30C7C0180E10E94E30CCC24C39404
:10556000892B21F00E151F0509F4C12C82E00E9441
:10557000E30C892B11F4CC24C39481E10E94E30C49
:10558000892B11F0CC2019F30E94891D0E94301B39
:1055900010E000E023E046EB51E061E080914B0336
:1055A0000E94152164E670E088EC90E00E94BA1C2D
:1055B00068EE73E080E090E00E94A50D0E94891DD6
:1055C0000E94301B80E10E94E30C019709F04CC25D
:1055D00082E00E94E30C019709F046C281E10E943B
:1055E000E30C019709F040C20E94891D0E94301B04
:1055F0000E94D70D60934C0370934D0380934E032C
:1056000090934F0360933E0370933F038093400356
:1056100090934103D092150180911501813009F0DA
:105620007CC01092150100913C0310913D03F801DC
:10563000EE58F34F84910E9420240B51144FF8012F
:10564000049110E010933B0300933A0387E08093AA
:10565000190480931A04909218048092170490926F
:105660001604809215040E94891DC8016AE070E04A
:105670000E942F327B0126EF26033001279F700CFA
:105680001124600E711E043611050CF4F8C183E577
:1056900090E00E94121509E510E010921204109299
:1056A00011041092140410921304A701FF0C660B4E
:1056B000770B2AE085E094E00E941B1E10931204F1
:1056C000009311041092140410921304B30185E0A6
:1056D00094E00E94901E0E94301B8091390381301B
:1056E00009F4D4C180913803813009F0CFC1009111
:1056F0003A0310913B0324E04CE651E061E08091D5
:105700004B030E94152160915D0370915E038091AF
:105710005B0390915C030E94AE20809135039091D1
:105720003603019709F048C080914C0390914D03D6
:10573000A0914E03B0914F03409131035091320339
:105740006091330370913403841B950BA60BB70B48
:10575000803D9740A105B10578F180912F0390918C
:10576000300360913C03FC01ED5DFC4F608390E0F1
:105770000E942132109236031092350300913A03B1
:1057800010913B0321E04AED51E061E080914B0331
:105790000E9415216CE271E080E090E00E94A50D6E
:1057A00000913A0310913B0321E04AED51E062E0A1
:1057B00080914B030E94152180912203882309F4D4
:1057C0002FC2109215010E94891DB3E0FB2EF092AA
:1057D0001904F0921A04909218048092170490927F
:1057E0001604809215040AE010E020E430E040E85E
:1057F00050E070E060E090E080E00E94031780914C
:105800002203813009F04DC181E290E090931204AF
:105810008093110488E090E0909314048093130423
:105820006EED71E085E094E00E94AE1E8BE290E0A8
:10583000909312048093110483E290E090931404F7
:105840008093130463EE71E085E094E00E94AE1E45
:105850000E94301B80914C0390914D03A0914E0308
:10586000B0914F0340911E0350911F03609120039C
:1058700070912103841B950BA60BB70B85389340C1
:10588000A105B10520F010922203D092150160917C
:105890001C0370911D036230710509F051C08091A5
:1058A000220381114DC010921D0310921C038091A0
:1058B0001A0390911B03892B09F0D2C11092360371
:1058C0001092350380914C0390914D03A0914E03AB
:1058D000B0914F0380933E0390933F03A093400306
:1058E000B09341038091600390916103892B09F08B
:1058F000B0C18091130190911401019709F0A9C1E1
:1059000080912F039091300301960E942F328C01D9
:105910009093300380932F03892B09F092C160E0AC
:1059200087E00E940C0DD0923803F801ED5DFC4F2A
:10593000808190E090933D0380933C03D0921501C9
:1059400080911C0390911D03039709F09DC19092D3
:105950001B0380921A030091110110911201013072
:10596000110541F5109212011092110167E370E0E8
:1059700088EC90E00E94BA1C6FE070E080E090E05C
:105980000E94A50D67E370E088EC90E00E94BA1CCD
:105990008091620390916303019709F066C11092B0
:1059A000630310926203109261031092600382E01D
:1059B000809322038091160390911703029709F0B8
:1059C00075C1109217031092160380912203811162
:1059D00092C480914C0390914D03A0914E03B091DD
:1059E0004F0380933E0390933F03A0934003B093F3
:1059F000410380914B0381114CC1D0924B03D09253
:105A000015031092150124C4893E9340A105B105E8
:105A100008F45CCD409347035093480360934903D7
:105A200070934A0380914203813059F410924203EB
:105A300060915D0370915E0380915B0390915C03C4
:105A400043CDD0924203F12CE12C07E010E020E29C
:105A500030E049E350E06FE570E085E094E00E94BB
:105A600033140E94301B32CD06E910E021E045ECF2
:105A700051E061E080914B030E941521A3CD89E2A2
:105A800090E00E94121505E310E007CE80913703E5
:105A9000813009F438CE80913803823009F033CE5A
:105AA00026CE823009F581E290E090931204809333
:105AB000110488E090E090931404809313046EED39
:105AC00071E085E094E00E94AE1E84E290E0909345
:105AD00012048093110483E290E090931404809365
