:020000041000EA
:10000000024801688D464168084700000000002052
:10001000FFFFFFFFFFFFFFFFFFFFFFFFFFFFFFFFF0
:10002000FFFFFFFFFFFFFFFFFFFFFFFFFFFFFFFFE0
:10003000FFFFFFFFFFFFFFFFFFFFFFFFFFFFFFFFD0
:10004000FFFFFFFFFFFFFFFFFFFFFFFFFFFFFFFFC0
:10005000FFFFFFFFFFFFFFFFFFFFFFFFFFFFFFFFB0
:10006000FFFFFFFFFFFFFFFFFFFFFFFFFFFFFFFFA0
:10007000FFFFFFFFFFFFFFFFFFFFFFFFFFFFFFFF90
:10008000FFFFFFFFFFFFFFFFFFFFFFFFFFFFFFFF80
:10009000FFFFFFFFFFFFFFFFFFFFFFFFFFFFFFFF70
:1000A000FFFFFFFFFFFFFFFFFFFFFFFFFFFFFFFF60
:1000B000FFFFFFFFFFFFFFFFFFFFFFFFFFFFFFFF50
:1000C000FFFFFFFFFFFFFFFFFFFFFFFFFFFFFFFF40
:1000D000FFFFFFFFFFFFFFFFFFFFFFFFFFFFFFFF30
:1000E000FFFFFFFFFFFFFFFFFFFFFFFFFFFFFFFF20
:0C00F000FFFFFFFFFFFFFFFFFFFFFFFF10
:0400FC00C9E04FD830
:020000042000DA
:1000000000000420870A0020B509002079000020A4
:10001000B7090020B9090020BB090020000000003A
:10002000000000000000000000000000BD090020EA
:10003000BF09002000000000C1090020C309002002
:1000400000B583B00020029001900198632807DC7E
:100050000199084800F07AF90198401C0190F4E7F2
:100060000198401C019001200028F9D1029803B0AA
:0800700000BDC0468B0B00200F
:100078000A490A68002AFED404207146084202D1BF
:10008800EFF3088001E0EFF309800123DB071A434F
:100098000A60816902318161704700002CED00E03F
:1000A800034C206804348047FBE7FFF7C5FFFEE7F1
:0400B800941100207F
:1000BC0030B5514343435C18010C130C0D005D43E8
:1000CC00641992B2514380B242430D0C0904521888
:1000DC0065415843010C00048018694130BDC0468D
:1000EC000A0015D00300400800E052008242FCD9FF
:1000FC00002000E052089B1A06D340418A42F9D1F5
:10010C00704752089B18F8D200188A42F9D17047F0
:08011C0010B500F059F810BD08
:1001240038B504004D42FFF7DFFF4543611938BD80
:10013400002B09D1002907D110B51100FFF7F0FFFA
:100144000A000021002310BD70B400240125ED072E
:10015400002B07D1002905D0834203D213000022CB
:100164002C0000250026A419994200D1904212D9EE
:1001740092185B4103D2EE076D086408F3E7DE07CB
:100184005B08520892190126F6079B1903E0DE0763
:100194005B0852089219801A994103D364416D4156
:1001A400F5D30FE024196D410AD2DE075B0852082B
:1001B400921980185941F5D364416D41E7D301E0A8
:1001C4008018594102000B002000290070BC7047C0
:0801D400002000217047C04625
:1001DC0003490868002800D070470248086070473F
:0801EC006411002074110020D1
:1001F4007F2805D8034A125C0348405C10407047CE
:0C020400002070470A0C0020FD0B0020B9
:100210007F2805D8034A125C0348405C10407047B1
:0C022000002070470A0C0020FD0B00209D
:0C022C004D0B002058020020380200207A
:10023800F5010020FF0A00200B0B0020110200200E
:10024800170B0020230B0020EF0A0020C30A002010
:100258004F0B0020EA0B0020EA0B0020EA0B0020DD
:10026800EA0B0020EA0B0020EA0B0020EA0B002032
:10027800EA0B0020EA0B0020FFFFFFFFFFFFFFFF54
:10028800FFFFFFFFFFFF0000510B00209C0B002029
:1002980045090020B90B0020AD090020EB0B002018
:0802A800F40B00203E0B0020C6
:1002B000002A03D0013A8B5C8354FBD17047C046BF
:1002C00000220B0011001A00002A02D0013A8154CA
:0402D000FCD17047A6
:1002D400F0B503AF93B06E46F51D2135F41D3934E6
:1002E40074613362F261F160306100F03BFAB06036
:1002F400C21D07218A436946B1616946881A706044
:100304008546F41D1D34002124222046FFF7DAFF20
:100314000B487169F2680A6048600A4828603069CD
:100324002862B06868617068E8602046F169326AE2
:1003340000F01EF8B1698D46FC1F053CA546F0BDD2
:080344002F0B0020FFFFFF7FDB
:10034C0083B010B581B0044603A80EC00548006800
:10035C0003AA0092214600F083FB01B010BC02BC42
:08036C0003B0084788110020CE
:10037400F0B593B008920E4605460020049028601C
:10038400012041030191810303910790C00305906B
:1003940002953178252907D0002900D1AEE1761CD9
:1003A400284600F00DFBF4E7B61C049C079A059B55
:1003B400701E00782A2807DC202811D0232811D0A9
:1003C400272819460FD036E05D2805DD67280DDCA7
:1003D4005E2830D1110306E02B282CD1202102E025
:1003E400402100E080210C43761CE1E76B2806DD08
:1003F4006C280DD0742808D07A2806D01BE0682811
:100404000BD06A2817D1022004433078761C12E0FE
:1004140030786C2809D1022003E03078682807D1AD
:10042400082004437078B61C05E0761C144302E0EF
:10043400761C04210C4300210991622817DD014632
:1004440063391529A5D8C0467944097949008F44F0
:100454001D0B0A0A0A0A0B0A0A0A0A25306D0A0A3F
:100464007C0A350A0A1594E703990C4326E02528EB
:100474007CD0582800D030E101990C4321061DD5C9
:10048400A949782800D12031099117E0089C2178E6
:10049400284600F095FA241D08947AE7200700D531
:1004A4001EE1A00700D520E12868089A11680860B9
:1004B40021E12106C91730220A4009920221214074
:1004C400039A1442069605D1002909D108990A1DF8
:1004D40000260CE0002915D1089B02CBCE1717E0AB
:1004E4000899C91D072291434E680A4608320D68CF
:1004F4006107089213D40821214000D0EDB20029ED
:100504000ED14BE0089BDB1D07218B4342CB00330C
:10051400620707D4082222402AD0CDB229E0ADB226
:1005240000263BE00DB20904CE1725E00696079895
:10053400000220432106C91723220A400992089980
:1005440020C908910026044686E0089901C908914B
:100554000178002900D11CE7441C284600F030FA39
:10056400601C217800290446F7D112E7252117E7FA
:100574000D46002A00D000260893002E05D4A106BB
:100584000AD461060AD5202107E000216D42B14159
:100594002D2209920E4601E02B21099100276E2895
:1005A40025DD6F38092800D977E0C0467844007902
:1005B400400087440451727272722272725128464A
:1005C400304366D0E8087107401800270146072029
:1005D400284030300DAAD055C808F6087207801894
:1005E4000A4632437F1C002A0D46EFD155E05828B5
:1005F40032D0642801D069284FD12846304348D0EE
:100604000598044000270A942846002C07D00321AB
:100614003940032903D10DAA2C21D1557F1C0A2569
:1006240000240C9631460B902A462346FFF780FDA2
:100634000E462A4605462346FFF73EFD0B9A101A3E
:10064400302101430DA8C1557F1C0920801A0C9844
:1006540084410A9CD8D320E02846304319D001981D
:100664000442324800D03248290932078918002749
:100674000A460F212940415C0DABD95511093609B1
:100684003307C918134633437F1C002B1546EFD19B
:1006940003E00DA830210170079F099C210A05D0B1
:1006A400029D284600F08CF9069E03E0002C029D72
:1006B400069E03D02846214600F082F9012F00DA75
:1006C40067E67C1C0DA80019801E0178284600F0FE
:1006D40077F9641E012CF5D85BE600281DD058E696
:1006E400089A10682968017005E0089A10680021CA
:1006F400416029680160121D08924AE6E8680028F2
:1007040005D006CD083D914201D2049A42542846B0
:1007140000F09DF9286813B0F0BD284600F097F961
:100724000020C043F7E7C046583000009A0C002070
:040734008A0C00200B
:10073800084B1B6883420AD0074B1B68834206D0CC
:10074800064B1B68181A431E984140427047002008
:10075800FCE7C0468C110020881100209011002071
:040768004020704776
:0C076C0010B5006800F0CAF810BDC046CF
:1007780003231048104A03614361104B8261C3612F
:100788008023DB000362002383624362C362026644
:100798000B4A53214266102282660367094AC366E0
:1007A800436700E0D17BC1540133013A102BF9D1E2
:1007B8007047C046AC1000203C090020AC0C00205B
:0807C800541100209C090020DF
:1007D000F8B54746CE46C568836804004068994628
:1007E0005B1B80B50E00170098464019934207D94D
:1007F000FFF75EFDED19E560C0BCB946B046F8BD37
:100800001A00FFF755FD4B463100ED19ED1A2A008D
:0C08100060684144FFF74CFDEDE7C04676
:10081C00F8B54746CE46002380B58846070016003B
:10082C009946C56884681BE0013B5B1B641BB442A2
:10083C0000D934009C4200D91C0078682200414643
:10084C004019FFF72FFD2D19A144A044361BBC689D
:10085C00631B5A1E93415B421D40FD60002E06D067
:10086C003B699D42E0D3013B1B195B1BDEE748460D
:08087C00C0BCB946B046F8BD4E
:1008840070B50600431C5C00E418E00074001C4BC7
:10089400A419E400C0181B19DC6A1500012C06D049
:1008A400022C1FD0002C10D00024200070BD9A6AA6
:1008B4005C6AA2421FD9013A121B2C00954200D94E
:1008C40014002200FFF782FFEFE79A6A5E6AB242E1
:1008D4000CD9013A961BB542E7D82A00FFF776FFF8
:1008E4002C00E2E7FFF798FF0400DEE71B6AD2184A
:1008F400013A961BEFE71B6AD218013A121BDCE798
:04090400AC10002013
:10090800F8B50B4B04001B780D001600002B0CD01B
:10091800EFF31087012181F31088320029002000AD
:10092800FFF7ACFF87F31088F8BDFFF721FFEFE76B
:04093800AC100020DF
:09093C005465726D696E616C0076
:100945004A616E7561727900466562727561727988
:10095500004D6172636800417072696C004D617988
:10096500004A756E65004A756C7900417567757347
:10097500740053657074656D626572004F63746FC2
:10098500626572004E6F76656D62657200446563DF
:07099500656D626572000050
:10099C000000000000005454522052454747455374
:0109AC00004A
:0709AD00414D00504D000018
:0209B400FEE75C
:0209B600FEE75A
:0209B800FEE758
:0209BA00FEE756
:0209BC00FEE754
:0209BE00FEE752
:0209C000FEE750
:0209C200FEE74E
:1009C40030B581B0044668460170206900280FD014
:1009D4000CCC083C9A4235D26269531C6361815441
:1009E400A069616981422DD1204600F030F829E0E8
:1009F400E06800280BD00CCC551C083C9D4202D169
:100A04006D46002129709A421CD281541AE0A068D4
:100A1400002808D00CCC083C9A4213D2551C9D42A5
:100A24000DD0C9B20CE0236A002B0BD003CC083CD8
:100A3400884207D2694601222046984702E00021F5
:0E0A4400920081502068401C206001B030BD3F
:100A520010B54269002A07D00446036A002B01D070
:0A0A6200216998470020606110BD73
:100A6C0070B514460D460646FFF7B2FB01463046FC
:0A0A7C002A462346FFF728FC70BD50
:080A860000BF00BFFFF70DFBEC
:100A8E00F0B581B01E4615460C4607461846FFF7D0
:100A9E004CFE0146002000290AD46543A54207D327
:100AAE00304639462A46FFF75AFE2146FFF717FB16
:040ABE0001B0F0BDD6
:100AC20010B5002A0DD00446097848B200280AD48D
:100AD200002C00D02160002119605960411E88411C
:0C0AE20010BD002010BD0120C04310BD5D
:100AEE00024601207F2901D9C0437047117070471B
:0C0AFE00014661391A2900D220387047E7
:0C0B0A00014641391A2900D22030704702
:0C0B1600014661391A2900D220387047CE
:0C0B2200014641391A2900D220307047EA
:100B2E0010B50C46436A01212046FFF7A9FF10BD00
:0F0B3E002561202562202565202554202559009A
:020B4D00430063
:020B4F002E0076
:100B510053756E646179004D6F6E646179005475EF
:100B61006573646179005765646E657364617900CA
:100B710054687572736461790046726964617900C1
:0A0B8100536174757264617900001D
:100B8B0048656C6C6F20576F726C64202564210A6A
:010B9B000059
:100B9C0053756E004D6F6E0054756500576564009B
:0D0BAC0054687500467269005361740000C2
:100BB9004A616E00466562004D61720041707200C3
:100BC9004D6179004A756E004A756C004175670080
:100BD900536570004F6374004E6F7600446563007F
:010BE900000B
:010BEA00000A
:090BEB00256D2F25642F257900EA
:090BF40025483A254D3A2553002D
:0D0BFD000007032004170201085710408074
:100C0A002020202020202020206828282828202072
:100C1A0020202020202020202020202020202020CA
:100C2A004810101010101010101010101010101082
:100C3A008484848484848484848410101010101022
:100C4A00108181818181810101010101010101017B
:100C5A00010101010101010101010110101010102F
:100C6A00108282828282820202020202020202024C
:100C7A0002020202020202020202021010101020F4
:100C8A0030313233343536373839414243444546B8
:100C9A0030313233343536373839616263646566E8
:10119400D5110020AC0C0020C8040000E711002089
:1011A40074110020B411002020000000B3000020BE
:1011B4002C0200202C0200202C0200202C020020F3
:1011C4002C020020681100206C11002070110020F6
:1011D400206861680834002200E042540139FCD5DB
:0211E400704752
:1011E60020686168A2680C3401E08B5C8354013A84
:0411F600FBD570476E
:0400000520000A8746
:00000001FF
