:100000000C94B40B0C94DC0B0C94DC0B0C94DC0BFC
:100010000C94DC0B0C94DC0B0C94DC0B0C94DC0BC4
:100020000C94DC0B0C94DC0B0C94DC0B0C94DC0BB4
:100030000C94DC0B0C94DC0B0C94DC0B0C94DC0BA4
:100040000C94941E0C94DC0B0C94DC0B0C94DC0BC9
:100050000C94DC0B0C94DC0B0C94DC0B0C94DC0B84
:100060000C94DE1E0C94DC0B82AAA62E81D129D919
:10007000C595B50000000000000000000000000071
:10008000003E5B4F5B3E3E6B4F6B3E1C3E7C3E1C1E
:10009000183C7E3C181C577D571C1C5E7F5E1C0064
:1000A000183C1800FFE7C3E7FF0018241800FFE71B
:1000B000DBE7FF30483A060E2629792926407F05DE
:1000C0000507407F05253F5A3CE73C5A7F3E1C1CF4
:1000D00008081C1C3E7F14227F22145F5F005F5FB4
:1000E00006097F017F006689956A606060606094A0
:1000F000A2FFA29408047E040810207E20100808A5
:100100002A1C08081C2A08081E101010100C1E0CAF
:100110001E0C30383E3830060E3E0E060000000041
:100120000000005F00000007000700147F147F1428
:10013000242A7F2A1223130864623649562050006D
:1001400008070300001C2241000041221C002A1C59
:100150007F1C2A08083E0808008070300008080844
:100160000808000060600020100804023E51494564
:100170003E00427F400072494949462141494D3382
:100180001814127F1027454545393C4A49493141E9
:10019000211109073649494936464949291E0000B7
:1001A000140000004034000000081422411414140C
:1001B0001414004122140802015909063E415D59F8
:1001C0004E7C1211127C7F494949363E4141412201
:1001D0007F4141413E7F494949417F090909013E2B
:1001E000414151737F0808087F00417F4100204052
:1001F000413F017F081422417F404040407F021C64
:10020000027F7F0408107F3E4141413E7F0909097A
:10021000063E4151215E7F09192946264949493246
:1002200003017F01033F4040403F1F2040201F3F0C
:100230004038403F63140814630304780403615991
:10024000494D43007F4141410204081020004141D3
:10025000417F04020102044040404040000307087F
:100260000020545478407F2844443838444444287B
:10027000384444287F385454541800087E09021822
:10028000A4A49C787F0804047800447D40002040AA
:10029000403D007F1028440000417F40007C0478EE
:1002A00004787C080404783844444438FC18242436
:1002B0001818242418FC7C080404084854545424B6
:1002C00004043F44243C4040207C1C2040201C3C33
:1002D0004030403C44281028444C9090907C44642A
:1002E000544C4400083641000000770000004136BD
:1002F000080002010204023C2623263C1EA1A16143
:10030000123A4040207A3854545559215555794174
:100310002254547842215554784020545579400C49
:100320001E5272123955555559395454545939552C
:100330005454580000457C410002457D420001456F
:100340007C407D1211127DF0282528F07C54554503
:10035000002054547C547C0A097F4932494949326F
:100360003A4444443A324A4848303A4141217A3A80
:1003700042402078009DA0A07D3D4242423D3D404C
:1003800040403D3C24FF2424487E4943662B2FFCFB
:100390002F2BFF0929F620C0887E090320545479A9
:1003A000410000447D413048484A32384040227A7A
:1003B000007A0A0A727D0D19317D2629292F2826F7
:1003C0002929292630484D402038080808080808FF
:1003D0000808382F10C8ACBA2F102834FA00007B58
:1003E000000008142A142222142A1408550055006B
:1003F00055AA55AA55AAFF55FF55FF000000FF005A
:10040000101010FF00141414FF001010FF00FF1054
:1004100010F010F0141414FC001414F700FF000086
:10042000FF00FF1414F404FC141417101F10101F05
:10043000101F1414141F00101010F0000000001FF3
:10044000101010101F10101010F010000000FF10FE
:100450001010101010101010FF10000000FF1400FA
:1004600000FF00FF00001F10170000FC04F414142C
:100470001710171414F404F40000FF00F7141414F8
:1004800014141414F700F7141414171410101F1078
:100490001F141414F4141010F010F000001F101F9B
:1004A0000000001F14000000FC140000F010F01009
:1004B00010FF10FF141414FF141010101F00000080
:1004C00000F010FFFFFFFFFFF0F0F0F0F0FFFFFF84
:1004D0000000000000FFFF0F0F0F0F0F38444438DB
:1004E00044FC4A4A4A347E02020606027E027E022A
:1004F00063554941633844443C04407E201E200635
:10050000027E020299A5E7A5991C2A492A1C4C7271
:1005100001724C304A4D4D303048784830BC625AF8
:10052000463D3E494949007E0101017E2A2A2A2A88
:100530002A44445F444440514A444040444A514064
:100540000000FF0103E080FF000008086B6B083625
:1005500012362436060F090F060000181800000096
:100560001010003040FF0101001F01011E00191D85
:100570001712003C3C3C3C00000000000001030757
:100580000F1F3F7F0080C0E0F0F8FCFE000000007D
:1005900023002600290000000008000201000003DB
:1005A000040700000000000000000000000024001C
:1005B00027002A00DB40A4A62EAF2000A1C8D3004C
:1005C000408DAED580A801020408102040800102B1
:1005D000040810200102040810200000000025007B
:1005E00028002B0004040404040404040202020290
:1005F0000202030303030303000060000000000085
:10060000000000000000000000E00000000000000A
:100610000000000000000001E000000000000000F9
:1006200000000000000001F00000000000000000D9
:10063000000000000003F0000000000000000000C7
:100640000000000007F000000000000000000000B3
:1006500000000007F800000000000000000000009B
:1006600000000FF800000003C0007E000001E00061
:100670007F0FF800000003C000FE000001E000FF53
:10068000EFF800000003C000FE000001E000FFFFE3
:10069000F800000003C000F00000000F007FFE7FA4
:1006A000C0000003C000F00000000F003FFE7FF814
:1006B0003FF1FBCFFCFEF3BC3DEFE01FFE7FFF7F71
:1006C000FBFFDFFEFEFFBC3DEFE01FC6FFFF7FFB31
:1006D000FFDFFEFEFFBC3DEFE00FE3C7FE787BC30C
:1006E000DE1EF0FFBC3DEF0007FF87FC787BC3DE1A
:1006F0001EF0F83C3DEF0001FFFFF0007BC3C01E81
:10070000F0F03C3DEF0001F37FE03FFBC3CFFEF094
:10071000F03C3DEF0003E33F807FFBC3DFFEF0F0E2
:100720003C3DEF0007E73C00787BC3DE1EF0F03C69
:100730003DEF0007FFBE00787BC3DE1EF0F03C3DBE
:10074000EF0007FFFE00787BC3DE1EF0F03C3DEFBC
:10075000000FFFFE007FFBFFDFFEF0F03FFDEFE04C
:100760000FFFFF007FFBFFDFFEF0F03FFDEFE00F2C
:10077000F9FF003E79F9CF9EF0F01F3DE7E01FF151
:10078000FF0000000000000000000000001F80FFCC
:10079000007FFFFFFFFFFFFFFFFFFFE01C007F0068
:1007A0007FFFFFFFFEB46D888D18E000001F007F03
:1007B000FFFFFFFE95AD7DB577E000000F007FFFE6
:1007C000FFFFFEA5AD9D8D19E0000006007FFFFF35
:1007D000FFFEB5ADEDB57EE0000000000001800039
:1007E0000000000000000000038000000000000086
:1007F00000000007C000000000000000000007C06B
:100800000000000000000000000FC0000000000019
:10081000000000001FE00000000000000000001FBA
:10082000E00000000000000000003FE000000000C9
:1008300000000000003FF000000000000000000089
:100840007FF0000000000000001FF87FF0000000B3
:10085000000000003FFE7FF0000000000000003FAD
:10086000FF7FF0000000000000001FFFFBE0000021
:1008700000000000000FFFF9FFC0000000000000B2
:100880000FFFF9FFF800000000000007FFF1FFFF75
:1008900000000000000003FC73FFFF800000000068
:1008A0000001FE3FFFFF80000000000000FF1E0F60
:1008B000FF000000000000007FFE1FFC00000000A1
:1008C0000000003FFFFFF8000000000000000FDF05
:1008D000FFE0000000000000001F19FFC000000042
:1008E000000000003F3CFF00000000000000007E10
:1008F0007CF800000000000000007FFE7C0000008B
:100900000000000000FFFFFC0000000000000000ED
:10091000FFFFFE0000000000000000FFFFFE0000DF
:10092000000000000001FFEFFE00000000000000DA
:1009300001FFCFFE0000000000000003FF07FE00E3
:1009400000000000000003FC07FE000000000000A3
:100950000003F003FE00000000000000018000FE24
:10096000000000000000000000007E000000000009
:1009700000000000003E0000000000000000000039
:100980000C000000000000078000FC000003C00015
:100990000000078001FC000003C000000007800188
:1009A000FC000003C0000000078001E00000001E02
:1009B000000000078001E00000001E007FE3F79FB9
:1009C000F9FDE7787BDFC0FFF7FFBFFDFDFF787B18
:1009D000DFC0FFF7FFBFFDFDFF787BDFC0F0F787CB
:1009E000BC3DE1FF787BDE00F0F787BC3DE1F078AD
:1009F0007BDE0000F787803DE1E0787BDE007FF75B
:100A0000879FFDE1E0787BDE00FFF787BFFDE1E037
:100A1000787BDE00F0F787BC3DE1E0787BDE00F01C
:100A2000F787BC3DE1E0787BDE00F0F787BC3DE175
:100A3000E0787BDE00FFF7FFBFFDE1E07FFBDFC07A
:100A4000FFF7FFBFFDE1E07FFBDFC07CF3F39F3DDD
:100A5000E1E03E7BCFC0000000000000000000008D
:100A600000FFFFFFFFFFFFFFFFFFFFC0FFFFFFFFD4
:100A7000FD68DB111A31C0FFFFFFFFFD2B5AFB6A37
:100A8000EFC0FFFFFFFFFD4B5B3B1A33C0FFFFFFD3
:100A9000FFFD6B5BDB6AFDC003FFFFFFFFFFFFFF96
:100AA000000600000000000001800C0000000000B3
:100AB0000000C018000000000000006030000000CE
:100AC0000000000030600000000000000018C000BE
:100AD0000000000000000C80000000000000000486
:100AE0008000000000000000048000000000000002
:100AF00000048000411083C1E00004800063108482
:100B00002210000480007710881210000480005D1D
:100B10001084021000048000491083C21000048079
:100B2000004110802210000480004110801210004B
:100B300004800041108812100004800041108422BB
:100B40001000048000410F03C1A00004E000000079
:100B5000000000001C200000000000000010200029
:100B60000000000000001020000000000000001045
:100B70002000000000000000102000000000000025
:100B80000010200000000000000010E00000000045
:100B90000000001C80007F0F042210000480000869
:100BA0001084421000048000081084821000048029
:100BB0000008108502100004800008108602100052
:100BC00004800008108602100004800008108502CE
:100BD00010000480000810848210000480000810B7
:100BE00084421000048000080F0421E0000480000B
:100BF000000000000000048000000000000000046D
:100C0000800000000000000004C0000000000000A0
:100C1000000C600000000000000018300000000020
:100C2000000000301800000000000000600C000010
:100C30000000000000C0060000000000000180036A
:100C4000FFFFFFFFFFFFFF0000000001C0000000EA
:100C5000000000000000000000000003E000003F72
:100C6000FCF000000000000000000003F000003F66
:100C7000FCF000000000000000000003F800003F4E
:100C8000FC0000000000000000000001FC00000368
:100C9000C0F3DE700F83DC0000000000FE000003E4
:100CA000C0F3FFF83FE3FC00000000007F000003FA
:100CB000C0F3FFFC3FE3F800000000003F800003AA
:100CC000C0F3CF3C78F3E00000007F801FC000033A
:100CD000C0F3CF3C7FF3C0000003FFF01FE0000330
:100CE000C0F3CF3C7FF3C000000FFFFC3FF00003D8
:100CF000C0F3CF3C7803C000003FFFFF7FF8000344
:100D0000C0F3CF3C7CF3C000007FFFFFFFFC00037B
:100D1000C0F3CF3C3FE3C00000FF847FFCFE000334
:100D2000C0F3CF3C3FE3C00003FE041FF87F000385
:100D3000C0F3CF3C0F83C00003F80407F83F000066
:100D4000000000000000000007F00001F81F000094
:100D500000000000000000000FC00000FC0E0000BA
:100D600000000000000000001FC000007E00000026
:100D700000000000000000001FA00000FE000000B6
:100D800000000000000000003F1000013F000000D4
:100D900000000000000000003E0800001F000000EE
:100DA00000000000000000007E0400001F80000022
:100DB00000000000000000007C0000000F80000028
:100DC00000000000000000007C0000000F80000018
:100DD00000000000000000007C0000000F80000008
:100DE0000000000000000000FC00000007C0000040
:100DF0000000000000000000F800000007C0000034
:100E00000000000000000000F8003C0027C00000C7
:100E10000000000000000000F8003C0037C00000A7
:100E20000000000000000000FF003FFFFFE00000A6
:100E30000000000000000000F8003C0037C0000087
:100E40000000000000000000F8003C0027C0000087
:100E50000000000000000000F800000007C00000D3
:100E60000000000000000000F800000007C00000C3
:100E700000000000000000007C0000000F80000067
:100E800000000000000000007C0000000F80000057
:100E900000000000000000007C0000000F80000047
:100EA00000000000000000007E0000001F80000025
:100EB00000000000000000003E0000021F000000D3
:100EC00000000000000000003F0800013F0000009B
:100ED00000000000000000001F900000FE00000065
:100EE00000000000000000001FA000007E000000C5
:100EF00000000000000000000FC00000FC003000F7
:100F0000000000000000000007F00001F8003800B9
:100F100001FFF0000000000007F80407F8003E00A1
:100F200001FFF0000000000003FE041FF0003F007E
:100F300001FFF000E007038001FF847FE0003FC075
:100F400001FFF001F00F87C0007FFFFFC0003FE00E
:100F500001FFF003B81DCEE0003FFFFF00003FF0AF
:100F600001FFF003BB9DCEE0000FFFFE00003FF845
:100F700001FFF003BB9DCEE00003FFF800003FFC43
:100F800001FFF003BB9DCEE00000FFC000003FFC6E
:100F900001FFF003B81DCEE00000000000003FF8A4
:100FA00001FFF003BB9DCEE00000000000003FF019
:100FB00001FFF001F38F87C00000000000003FE058
:100FC00001FFF001F38F87C00000000000003F80A8
:100FD00001FFF000E00703800000000000003F0078
:100FE00001FFF000000000000000000000003E00D3
:100FF00000000000000000000000000000003800B9
:10100000000000000000000001FFC0000000000020
:1010100000000000000001FFC00000000000000010
:101020000000000001FFC000000000000000000000
:10103000000001FFC00000000000000000000000F0
:1010400001FFC0000000000000000000000001FFE0
:10105000C000000000000000000000007FFFFF0053
:10106000000000000000000000007FFFFF00000003
:1010700000000000000000007FFFFF00000F0000E4
:101080000000000000007FFFFF00001F00000000C4
:10109000000000007FFFFF00003F00000000000094
:1010A00000007C001F00007E000000000000000027
:1010B0007C001F0000FC00000000000000007C001D
:1010C0001F0001F800E038F0C00000007C001F00A5
:1010D00003F000F038F3C00000007C001F0007E0C0
:1010E00000F83803C00000007C001F000FE000F88B
:1010F00038F7F3DC7C007C001F001FC000FC38F7D1
:10110000F3FCFF007C001F003F8000FE38F7F3F97E
:10111000FF007C001F007F0000FF38F3C3E3EF8077
:101120007C001F00FFFF00F738F3C3C3C7807C00BB
:101130001F01FFFF00F3B8F3C3C3C7807C001F018A
:10114000FFFF00F1F8F3C3C3C7807C001F01FFFE5F
:1011500000F0F8F3C3C3EF807C001F00FFFC00F039
:10116000F8F3F3C1FF007C001F0001FC00F078F3EE
:10117000F3C0FE007C001F0003F800F038F1F3C05C
:101180007C007C001F0003F0000000000000000055
:101190007C001F0007E000000000000000007C0051
:1011A0001F000FC000000000000000007C001F00B6
:1011B0001FC000000000000000007C001F023F80F4
:1011C00000000000000000007C001F037F00000002
:1011D0000000000000007C001F03FE000000000073
:1011E000000000007C001F03FC0000000000000065
:1011F00000007C001F03FC00000000000000000055
:101200007C001F03F80000000000000000007FFFCA
:10121000FF03F80000000000000000007FFFFF0354
:10122000FC0000000000000000007FFFFF03FE0044
:1012300000000000000000007FFFFF000000000031
:101240000000000000007FFFFF0000000000000021
:10125000000000001415161718191A1B1C1D1E1F5C
:10126000202122232425262728292A2B2C2D2E2F06
:10127000303132333435363738393A3B3C3D3E3FF6
:10128000404142434445464748494A4B4C4D4E4FE6
:10129000505152535455565758595A5B5C5D5E5FD6
:1012A000606162636465666768696A6B6C6D6E6FC6
:1012B000707172737475767778797A7B7C7D7E7FB6
:1012C000808182838485868788898A8B8C8D8E8FA6
:1012D000909192939495969798999A9B9C9D9E9F96
:1012E000A0C8A8681898D838780484C4A4E4945492
:1012F00034B4F48CCCACEC1C5CDCBC7C0282C2222E
:1013000062E2925232B2F20A4ACAAA6A1A9ADA3AE5
:101310007AFA864626A6E61656D6B6760E8ECE2ED5
:101320006EEE9E5E3EBEFE8141C1A1611191D13142
:1013300071F1894929A9E91959D9B9790585C525CD
:1013400065E5955535B5F50D4DCDAD6D1D9DDD3D75
:101350007DFD834323A3E3139353D333B373F38B01
:101360004BCB2BAB6BEB9B5BDB7BFB0787C700009F
:101370007FFFFFFFC0000000000000000000000031
:10138000FFFFFFFFE0000000000000000000000180
:10139000FFFFFFFFF0000000F8633E7C000000014B
:1013A000FFFFFFFFF0000001FC633E7E0000000332
:1013B000FFFFFFFFF80000038E63306600000003AC
:1013C000E0000000F800000306363E66000000075B
:1013D000E0000000FC00000306363E7E000000072F
:1013E000C00000007E0000030636307C0000000FC5
:1013F000C00000007E0000038E1C306C0000001F47
:10140000800000003F000001FC1C3E660000001F41
:10141000800000003F000000F81C3E660000003F16
:10142000000000001F800000000000000000003FDE
:10143000000000000F800000000000000000007E9F
:10144000000000000FC00000000000000000007C51
:101450000000000007C003C333E3E3E61BF000FC19
:101460000000000007E007F333F3F3E71BF000F898
:101470000000000003E00E233333330798C001F867
:101480000000000003F00C03333333E798C001F091
:101490000000000001F00C0333F3F3E6D8C003F0C2
:1014A0000000000001F80C0333E3E30678C003E01A
:1014B000F0FF8703F0F80E233363630678C007E07C
:1014C000F8FF9F83F8FC07F3F33333E638C007C314
:1014D000FCFFBFC3F87E03C1E33333E618C00FC37C
:1014E0009E1839C39C7E00000000000000001F838E
:1014F0009E1879E39C3F00000000000000001F835D
:101500009E1879E39C3F00000000000000003F03AC
:10151000801879E39C1F80000000000000003F035A
:10152000801879E39C0F80000000000000007E011D
:10153000801879E39C0FC0000007000000007C01C8
:10154000F01879E3FC07C000000F80000000FC00E9
:10155000FC1879E3F807E000000F80000000F800B5
:10156000FC1879E3F003E000000F80000000FC00AD
:101570001E1879E38007E000000F800000007C0067
:101580001E1879E38007C000000F800000007E0075
:101590001E1879E3800FC000000F800000003E039A
:1015A0001E1879E3800F8000000F800000003F03C9
:1015B0001E1839E3801F8000000F800000001F8389
:1015C0009E183DC3801F0000000F800000001F8197
:1015D000FC183FC3803F0000000F800000000FC0D8
:1015E000FC181F83807E0000000F800000000FC0E9
:1015F00000000000007E0000000F8000000007E0F7
:101600000000000000FC0000000F8000000003E06C
:101610000000000000FC0000000F8000000003F04C
:101620000000000001F80000000F8000000001F041
:101630000000000001F00000000F8000000001F831
:101640000000000003F00000000F8000000000F820
:101650000000000003E00000000F8000000000FC1C
:101660000000000007E00000000F80000000007C88
:101670000000000007C00000000F80000000007E96
:10168000000000000FC00000000F80000000003FBD
:10169000000000000F800000000700000000003F75
:1016A000000000001F800000000000000000001F7C
:1016B000800000003F000000000000000000001F4C
:1016C000800000003F000000000000000000000F4C
:1016D000C00000007E0000000007000000000007BE
:1016E000C00000007E000000000F80000000000726
:1016F000E0000000FC000000001FC000000000032C
:10170000E0000000F8000000001FC000000000031F
:10171000FFFFFFFFF8000000000F80000000000145
:10172000FFFFFFFFF00000000007000000000001C5
:10173000FFFFFFFFF00000000000000000000000BD
:10174000FFFFFFFFE00000000000000000000000BD
:101750007FFFFFFFC000000000000000000022002B
:10176000FF210000AA21682F11241FBECFEFD8E06F
:10177000DEBFCDBF11E0A0E0B1E0E8E4FAE602C0D0
:1017800005900D92A03DB107D9F723E0A0EDB1E09F
:1017900001C01D92AC34B207E1F71BE0C3EBDBE004
:1017A00004C02197FE010E940831C23BD107C9F74E
:1017B0000E94E4210C9417350C94000008950895BC
:1017C0000895AF92BF92CF92DF92EF92FF920F9364
:1017D0001F93CF93DF936C017B018B01040F151FC7
:1017E000EB015E01AE18BF08C017D10759F069912F
:1017F000D601ED91FC910190F081E02DC601099593
:10180000892B79F7C501DF91CF911F910F91FF903F
:10181000EF90DF90CF90BF90AF900895833081F02C
:1018200028F4813099F08230A9F008958730A9F02A
:101830008830C9F08430B1F4809180008F7D03C07E
:10184000809180008F7780938000089584B58F7792
:1018500084BD089584B58F7DFBCF8091B0008F77D4
:101860008093B00008958091B0008F7DF9CFCF9321
:10187000DF93282F30E0F901EA56FA4F8491F901FD
:10188000EA53FA4FD491F901EC51FA4FC491CC23A9
:10189000A1F081110E940E0CEC2FF0E0EE0FFF1F63
:1018A000E457FA4FA591B491EC91ED2381E090E0DB
:1018B00009F480E0DF91CF91089580E090E0FACFC5
:1018C0001F93CF93DF93282F30E0F901EA56FA4FA8
:1018D0008491F901EA53FA4FD491F901EC51FA4F8E
:1018E000C491CC23A9F0162F81110E940E0CEC2F6D
:1018F000F0E0EE0FFF1FE652FA4FA591B4918FB7BB
:10190000F894EC91111108C0D095DE23DC938FBFC1
:10191000DF91CF911F910895DE2BF8CFCF93DF9306
:1019200090E0FC01EA53FA4F24918C519A4FFC014C
:1019300084918823D1F090E0880F991FFC01E6552F
:10194000FA4FA591B491FC01E652FA4FC591D4919A
:1019500061110EC09FB7F8948C91E22FE0958E2311
:101960008C932881E223E8839FBFDF91CF91089574
:101970008FB7F894EC91E22BEC938FBFF6CF8E30BB
:1019800008F08E508770806480937C0080917A008C
:10199000806480937A0080917A0086FDFCCF8091EC
:1019A00078009091790008953FB7F894809185026E
:1019B00090918602A0918702B091880226B5A89BDB
:1019C00005C02F3F19F00196A11DB11D3FBFBA2FD1
:1019D000A92F982F8827BC01CD01620F711D811D91
:1019E000911D42E0660F771F881F991F4A95D1F716
:1019F00008958F929F92AF92BF92CF92DF92EF9213
:101A0000FF924B015C010E94D40C6B017C010E948F
:101A1000D40C6C197D098E099F09683E73408105BD
:101A20009105A8F321E0821A9108A108B10888EE77
:101A3000C80E83E0D81EE11CF11C81149104A1049E
:101A4000B10429F7FF90EF90DF90CF90BF90AF9057
:101A50009F908F9008952FB7F894609181027091B4
:101A6000820280918302909184022FBF0895EF92A9
:101A7000FF920F931F93CF93DF93EC01EC80FD80D7
:101A80006E157F050CF070C057FF04C0240F351F82
:101A900050E040E08E819F81FA01E20FF31F8E1724
:101AA0009F071CF49C01241B350B121613060CF027
:101AB0005BC0922F842F8695869586958E9DD0014A
:101AC0008F9DB00D11246A0F7B1FAF8DB8A1A60F9B
:101AD000B71F477049F188E0841B482F682F70E0DA
:101AE000FB01EC57FA4FE491281708F063C0621B22
:101AF00071092FEF30E002C0359527956A95E2F71E
:101B0000E2230130110539F0B0F10230110561F521
:101B10008C91E82702C08C91E82BEC93941720F16C
:101B20002C813D81A20FB31FE92FE41BE83078F030
:101B30000230110521F58E2F9C9190959C932C815C
:101B40003D81A20FB31F88508830B0F7E770EE23B5
:101B500059F0F0E0E458FA4FE49101301105F9F042
:101B600010F10230110519F1DF91CF911F910F9102
:101B7000FF90EF900895E0958C91E823CECF81E01F
:101B80000115110509F480E081959E2F8C932C811D
:101B90003D81A20FB31F98509830C0F7D7CF8C91DA
:101BA000E82BEC93E1CFE0958C91E823FACF8C9170
:101BB000E827F7CF0130110509F4ADCFE0F202308C
:101BC000110509F4A5CFAE0DBF1DAECF0F931F9326
:101BD000CF93DF9377FF04C0260F371F70E060E0DC
:101BE000DC011496CD91DC91FB01E20FF31FCE17BF
:101BF000DF071CF49E01261B370B121613064CF54B
:101C0000FA0157FD3796A3E0F595E795AA95E1F718
:101C1000EC9FD001ED9FB00DFC9FB00D11246A0F19
:101C20007B1FDC015F96ED91FC91E60FF71F47707B
:101C3000552781E090E001C0880F4A95EAF7482FC8
:101C40000130110559F0A8F02E0F3F1F0230110589
:101C5000E1F0DF91CF911F910F9108952E0F3F1F5B
:101C6000E217F307B1F38191DF011197842B8C9375
:101C7000F7CF80952E0F3F1FE217F30751F3919195
:101C8000DF01119798239C93F7CFE217F30709F32D
:101C90008191DF01119784278C93F7CF0F931F93C6
:101CA000FA01DC0156964C9156974230E9F04330E8
:101CB000A1F1413061F514964D915C91DA01AE1BB2
:101CC000BF0BFD01E21BF30B77FD0BC0DC01169689
:101CD0004D915C916417750724F4AB01BF010E941C
:101CE000E60D1F910F91089514964D915C91DA01C4
:101CF000A61BB70BBD0161507109DC0116964D9111
:101D00005C91DA01AE1BBF0BFD01E21BF30B77FD0B
:101D1000E8CFAF010E94370DE4CF16964D915C914C
:101D2000DA01A61BB70BBD0161507109CDCF0F932E
:101D30001F93FA01DC0156964C9156974230A9F058
:101D4000433091F1413019F514964D915C91DA01CF
:101D5000AE1BBF0BFD013197F7FD04C0AB01BF0106
:101D60000E94370D1F910F91089514964D915C912B
:101D7000DA01A61BB70BBD01DC0116964D915C91F3
:101D8000DA01AE1BBF0BFD013197621B730BF7FD30
:101D9000E9CFDC0116964D915C91E417F50714F735
:101DA000AF010E94E60DDECF16964D915C91DA01EF
:101DB000A61BB70BBD01621B730BCECFFC0177FDD9
:101DC00064C080859185681779070CF05EC057FD67
:101DD0005CC082859385481759070CF056C08689E8
:101DE0008230B1F0833029F1813041F484819581D2
:101DF000841B950BAB01BC01615071092130310589
:101E000009F108F443C02230310509F463C0089594
:101E100084819581DC01A61BB70BBD01615071095E
:101E200086819781DC01A41BB50BAD01415051099E
:101E3000E5CF86819781861B970BBA01AC01415093
:101E40005109DCCFCA0157FD0796A3E09595879508
:101E5000AA95E1F7A481B5818A9F90018B9F300DEF
:101E60009A9F300D1124620F731F078CF0A1E02D93
:101E7000E60FF71F4770552721E030E001C0220F21
:101E80004A95EAF78081822B80830895CA0157FD25
:101E9000079633E0959587953A95E1F7A481B5814A
:101EA0008A9F90018B9F300D9A9F300D1124620FF5
:101EB000731F078CF0A1E02DE60FF71F4770552721
:101EC00081E090E001C0880F4A95EAF78095908103
:101ED0008923DACFCA0157FD079623E095958795A8
:101EE0002A95E1F7A481B5818A9F90018B9F300DDF
:101EF0009A9F300D1124620F731F078CF0A1E02D03
:101F0000E60FF71F4770552721E030E001C0220F90
:101F10004A95EAF780818227B7CF08958EBD0000E9
:101F20000DB407FEFDCF8EB508958CBD9DBD0895FF
:101F30000895FC016370668B8481958126813781C9
:101F4000613039F0633029F09187808733872287A9
:101F50000895318720879387828708952F923F9233
:101F60004F925F926F927F928F929F92AF92BF92A9
:101F7000CF92DF92EF92FF920F931F93CF93DF9355
:101F8000CDB7DEB76A970FB6F894DEBF0FBECDBFF0
:101F90009A8F898F7A8369834A01D22E18870F839B
:101FA0003701BC2CDC0159962D913C915A97211593
:101FB000310509F015C118968D919C9119976817F4
:101FC00079070CF0D7C11A968D919C914817590743
:101FD0000CF0D0C14C2C512CB6E0CB9E600D711D85
:101FE00011247C876B87161617060CF0C3C1EA2DE7
:101FF000F0E0FA87E98793E0EE0FFF1F9A95E1F78B
:10200000F88BEF87CF01840F951F181619060CF077
:10201000B1C1A98DBA8D58968C91811104C0BFEAC7
:10202000BD1508F4D394A98DBA8DED91FC9111974B
:102030000284F385E02DCD010995B5E0DB9EC0015A
:102040001124E981FA81FC83EB83312C212C9C0142
:1020500024583F4F388F2F8B4A2D50E05E8B4D8B8D
:10206000EF89F88DE20DF31D44919E828D82D12C73
:10207000C12C69817A81620D731D7A8B698B842FE3
:1020800090E09C8B8B8BE98DFA8DA081B18140FF14
:1020900082C0F1E0BF126FC0AF126DC01C96ED910F
:1020A000FC912F813885A4014C0D5D1D69897A89C9
:1020B000898D9A8D0995EB89FC89F595E7954E2FC9
:1020C0005FEFC51AD50A6D817E818D899E89680F63
:1020D000791F7E836D8398E0C916D10481F6AFEF36
:1020E0002A1A3A0AEB81FC81E40DF51DFC83EB838F
:1020F000F5E02F16310409F0B3CF2F81388526156E
:102100003705B9F0A98DBA8DED91FC91B1E0BB1204
:1021100057C0AB1255C069817A816B5F7F4F0088D1
:10212000F189E02D830128E030E0A401898D9A8DAA
:102130000995A98DBA8DED91FC9111970688F789C3
:10214000E02DCD016A960FB6F894DEBF0FBECDBF6D
:10215000DF91CF911F910F91FF90EF90DF90CF9083
:10216000BF90AF909F908F907F906F905F904F90B7
:102170003F902F9009941E96ED91FC91EF80F8848A
:1021800009851A8592014D815E816B817C81898DE3
:102190009A8D099590CF2F8138852615370509F43A
:1021A0008ACF31E0B31207C0A31205C01C96ED918F
:1021B000FC91930178CF1E96ED91FC917301E0CFD5
:1021C0006B857C85641975090684F785E02D73019C
:1021D0000F8518899201A401898D9A8D0995A9CF3F
:1021E000F90134969491329745915491D91AB7E0F8
:1021F000DB9E400D511D1124F901259134913C8B3A
:102200002B8BFA0125903490FA0132967490319616
:102210003491398B329664903196449041E04C155C
:1022200018F04A1508F07FC0662D062C000C770BBD
:102230007C836B83842D042C000C990B9E838D83EF
:10224000A98DBA8DED91FC9111970284F385E02D53
:10225000CD010995512CD12CC12CEA2DF0E0FA8743
:10226000E9872B2D30E03C872B87A401440D511DBD
:1022700047FC5A95588F4F8B69817A81660D711D85
:1022800067FC7A957E876D877989C71608F051CFEC
:102290002C2D30E04D815E81420F531FA985BA85F8
:1022A0004A9FC0014B9F900D5A9F900D1124FC0135
:1022B000E80DF91DF88BEF87852D612C4F89588D1E
:1022C000420F531F5E8B4D8B671408F050C044249F
:1022D0004394480E877041F4C1010196EB89FC8953
:1022E000E20DF31DD4901C01D7FE19C0A98DBA8D43
:1022F000ED91FC91662D70E0B1E0BB1219C0AB12FC
:1023000017C02D853E85620F731F0484F585E02D6F
:102310002F8138854D895E89898D9A8D0995DD0CCF
:102320006394842DD1CF1E821D821C821B8288CF94
:102330004B815C81640F751FAB85BC856A9FC001B2
:102340006B9F900D7A9F900D112469817A81680F9F
:10235000791F0684F785E02DEF80F88409851A85BA
:102360009D014F855889898D9A8D0995D8CF570C35
:10237000C3948ACF6A960FB6F894DEBF0FBECDBF66
:10238000DF91CF911F910F91FF90EF90DF90CF9051
:10239000BF90AF909F908F907F906F905F904F9085
:1023A0003F902F9008958F929F92AF92CF92EF928D
:1023B000FF920F931F93CF93DF93EC01262F898D0C
:1023C0009A8D0097B1F56A30D1F41D861C868D89EF
:1023D00098E0899F900111248E859F85820F931F1D
:1023E0009F878E8781E090E0DF91CF911F910F91C1
:1023F000FF90EF90CF90AF909F908F9008956D30A9
:1024000089F3EA88FB88088919894E855F856C8580
:102410007D85AD88CC88CE010E94AE0F2C898C853D
:102420009D8536E0239F800D911D11249D878C870B
:10243000D9CF6A3069F41D861C86FC013896E49178
:102440002D898E859F85E29F800D911D1124C8CF17
:102450006D3041F2FC0134963491631708F4C2CF19
:102460003296E491E61708F4BDCFFC0132968590D0
:102470009490862F831B97E0899F800C911C1124D8
:10248000F401329684913196E491882391F0EE2301
:1024900081F0F4013596E491EA88FB88088919896E
:1024A0004E855F856C857D85AD88CC88CE010E9488
:1024B000AE0FF4013496E4912C898C859D85E29FC2
:1024C000800D911D1124B2CF6F927F928F929F92B7
:1024D000AF92BF92CF92DF92EF92FF920F931F9332
:1024E000CF93DF93EC016B015A0139014801E88178
:1024F000F9810284F385E02D0995E881F98102884C
:10250000F389E02D87019301A501B601CE0109955C
:10251000A501480D591D41505109E881F9810288F2
:10252000F389E02D9301B601CE010995E881F98187
:102530000088F189E02D9401A501B601CE0109952D
:10254000C60CD71CB60161507109E881F981008879
:10255000F189E02D9401A501CE010995E881F98169
:102560000688F789E02DCE01DF91CF911F910F9161
:10257000FF90EF90DF90CF90BF90AF909F908F90A3
:102580007F906F9009946F927F928F929F92AF92FB
:10259000BF92CF92DF92EF92FF920F931F93CF9350
:1025A000DF935C01EB016A01490138018701DC011D
:1025B000ED91FC916217730719F5641675062CF0FE
:1025C000962D872D3A01C92ED82E96012619370946
:1025D0002F5F3F4F048CF58DE02DA301BE01C50197
:1025E0000995DF91CF911F910F91FF90EF90DF90B0
:1025F000CF90BF90AF909F908F907F906F900895F5
:102600004615570591F42617370724F0892D4B01FD
:10261000C22FD82F9E01281939092F5F3F4F068CF2
:10262000F78DE02DA601B401DACF0284F385E02D09
:102630000995D501ED91FC910488F589E02D830180
:102640009401A601BE01C5010995D501ED91FC914A
:102650000688F789E02DC501DF91CF911F910F9179
:10266000FF90EF90DF90CF90BF90AF909F908F90B2
:102670007F906F900994EF92FF920F931F93DC016C
:102680001A960D911C911B9718962D913C911997B4
:10269000ED91FC9100A0F1A1E02D7B0150E040E024
:1026A00070E060E009951F910F91FF90EF90089501
:1026B0004F925F926F927F928F929F92AF92BF9252
:1026C000CF92DF92EF92FF920F931F93CF93DF93FE
:1026D0006C012B015A0139014801DC01ED91FC919B
:1026E0000284F385E02D0995E201640C751CD60186
:1026F000ED91FC91C615D7055CF40088F189E02DB9
:1027000087019401A501BE01C60109952196EFCF6D
:102710000688F789E02DC601DF91CF911F910F91B7
:10272000FF90EF90DF90CF90BF90AF909F908F90F1
:102730007F906F905F904F9009948F929F92AF928D
:10274000BF92CF92DF92EF92FF920F931F93CF939E
:10275000DF93EC015B014A016901E881F9810284A0
:10276000F385E02D099595012C0D3D1D2150310972
:10277000E881F9810488F589E02D78018401A401BC
:10278000B501CE010995E881F9810688F789E02D28
:10279000CE01DF91CF911F910F91FF90EF90DF90CD
:1027A000CF90BF90AF909F908F9009948F929F92FF
:1027B000AF92BF92CF92DF92EF92FF920F931F934F
:1027C000CF93DF93EC015B014A0169017801E88155
:1027D000F9810284F385E02D0995C80CD91C860186
:1027E00001501109E881F9810488F589E02D9501EE
:1027F000A401B501CE010995E881F9810688F78920
:10280000E02DCE01DF91CF911F910F91FF90EF90BE
:10281000DF90CF90BF90AF909F908F900994EF92F0
:10282000FF920F931F93DC01ED91FC9100A0F1A1A9
:10283000E02D09951F910F91FF90EF9008950F9350
:102840001F93DC01ED91FC91068CF78DE02D09952D
:102850001F910F9108950F931F93DC01ED91FC914F
:10286000048CF58DE02D09951F910F9108952F92FD
:102870003F924F925F926F927F928F929F92AF9210
:10288000BF92CF92DF92EF92FF920F931F93CF935D
:10289000DF9300D000D0CDB7DEB76C0101E010E0CF
:1028A00029E030E043E350E0BC0188E093E00E947F
:1028B0002B1454E0452E512C22242394312CF12C3E
:1028C000E12C84E090E09C838B8388EF9FEF9A83D8
:1028D00089837DEF672E77247A949FEFE91AF90AAE
:1028E00082E0280E311C620C731C8B819C818E153A
:1028F0009F050CF457C04C01880C991C9FEF891A56
:10290000990A01E010E0940147E3A42EB12C8B81D9
:102910009C81A81AB90AA501B7016C0D7D1D88E03C
:1029200093E00E942B149401A501B6016E197F0952
:1029300088E093E00E942B148B819C81841595057F
:10294000F9F0B601640D751D01E010E0410192E05F
:10295000891A9108940188E3A82EB12CAE18BF08FB
:10296000A50188E093E00E942B14B6016419750953
:102970009401A50188E093E00E942B144B805C80B9
:102980008B819C81E816F90694F477FCA6CF019719
:102990009C838B8389819A8102969A838983680EAE
:1029A000791E9BCF8B819C818415950551F60F90E4
:1029B0000F900F900F90DF91CF911F910F91FF908B
:1029C000EF90DF90CF90BF90AF909F908F907F90CF
:1029D0006F905F904F903F902F900895DC01ED91A4
:1029E000FC910084F185E02D09943F924F925F9213
:1029F0006F927F928F929F92AF92BF92CF92DF920F
:102A0000EF92FF920F931F93CF93DF9300D000D0EC
:102A1000CDB7DEB75C013B016A014901280187E0BF
:102A2000480E511C93E0559447949A95E1F7CA01DA
:102A30008E0D9F1D9A838983F12CE12C312C1C82F1
:102A40001B828B819C8187709927330C892B61F4C1
:102A5000EB81FC8183E0F595E7958A95E1F7EE0D32
:102A6000FF1DE80DF91D349037FE0AC021E030E06B
:102A7000A6016B817C81660D771DC5010E94EE1455
:102A80008B819C8101969C838B8308171907C9F65B
:102A90009FEFC91AD90AE40CF51C89819A81C816DE
:102AA000D90669F60F900F900F900F90DF91CF919C
:102AB0001F910F91FF90EF90DF90CF90BF90AF905C
:102AC0009F908F907F906F905F904F903F90089570
:102AD0002F923F924F925F926F927F928F929F922E
:102AE000AF92BF92CF92DF92EF92FF920F931F931C
:102AF000CF93DF937C016B01EA0181E090E05C0100
:102B0000A41AB50A66247724641A750A660C771C21
:102B100010E000E088248394912C822F8470582E3A
:102B2000822F8270482E822F8870382E2170222E9C
:102B30000C171D070CF079C0B7FC06C0219782E086
:102B4000680E711CA60CB71C0F5F1F4F82E0880E29
:102B5000911CA80CB91C5520C1F021E030E0AE0159
:102B60004C0D5D1DB701600F711F88E093E00E945E
:102B7000EE1421E030E0A601400F511FBE016E0DA2
:102B80007F1D88E093E00E94EE144420C1F021E014
:102B900030E0A6014C1B5D0BB701600F711F88E090
:102BA00093E00E94EE1421E030E0A601401B510B9F
:102BB000BE016E0D7F1D88E093E00E94EE1433206D
:102BC000C1F021E030E0A601400F511FB7016C1B9E
:102BD0007D0B88E093E00E94EE1421E030E0AE012E
:102BE0004C0D5D1DB701601B710B88E093E00E94E6
:102BF000EE14222009F49CCF21E030E0A601401B16
:102C0000510BB7016C1B7D0B88E093E00E94EE1422
:102C100021E030E0A6014C1B5D0BB701601B710B7E
:102C200088E093E00E94EE1483CFDF91CF911F9153
:102C30000F91FF90EF90DF90CF90BF90AF909F905B
:102C40008F907F906F905F904F903F902F9008955E
:102C50002F923F924F925F926F927F928F929F92AC
:102C6000AF92BF92CF92DF92EF92FF920F931F939A
:102C7000CF93DF9300D000D0CDB7DEB72C013B015E
:102C80001A0179011C830B835801AA0CBB1C4A0151
:102C90008A189B086801C40CD51C01E010E094015F
:102CA000AB01B60188E093E00E941F14C701860DB6
:102CB000971D9A838983AC01415051099401B60153
:102CC00088E093E00E941F14EA18FB088B819C8126
:102CD000680E791E9701A301B20188E093E00E947B
:102CE0002B14420C531CB201615071099701A301CE
:102CF00088E093E00E942B1421E04B815C81B301BA
:102D0000C6010E9468158B819C81481A590A91E07E
:102D1000491A510822E04B815C81B301C2010E9433
:102D20006815E980FA808B819C81E81AF90A91E0A4
:102D3000E91AF10824E04B815C81B701C2010E94CD
:102D4000681528E04B815C81B701C6010F900F9098
:102D50000F900F90DF91CF911F910F91FF90EF9007
:102D6000DF90CF90BF90AF909F908F907F906F90AB
:102D70005F904F903F902F900C9468152F923F9248
:102D80004F925F926F927F928F929F92AF92BF927B
:102D9000CF92DF92EF92FF920F931F93CF93DF9327
:102DA00000D000D000D0CDB7DEB73C016A013E8331
:102DB0002D83FC82EB825801A41AB50AB7FE03C02A
:102DC000B194A194B1088D809E80861A970A97FECF
:102DD00003C09194819491088A149B045CF0902F15
:102DE000812F0D811E819D838E839C2D8D2D6B01E6
:102DF000692F782F0C151D055CF09D818E817E83D7
:102E00006D83692F782F902F812F8601C92ED82EA0
:102E10001601201A310A2B012D813E81421A530AD4
:102E200057FE03C0519441945108710137FE03C00D
:102E30003FEFE31AF30AF594E7948D819E8186179C
:102E400097075CF5A1E0B0E0BA83A983C016D1066C
:102E50004CF1D301ED91FC910484F585E02D2B819B
:102E60003C81A8016D817E818A149B041CF04D81F8
:102E70005E81B801C3010995E418F508F7FE0AC0A0
:102E80002D813E8189819A81280F391F3E832D83B0
:102E9000E20CF31C0F5F1F4FD9CF2FEF3FEF3A83A8
:102EA0002983D4CF26960FB6F894DEBF0FBECDBFD0
:102EB000DF91CF911F910F91FF90EF90DF90CF9016
:102EC000BF90AF909F908F907F906F905F904F904A
:102ED0003F902F900895089520913602260F3327B2
:102EE000331F21323105ECF420915A02FC0190E0AD
:102EF00080E0243069F082E00895A09136022191AB
:102F0000AC014A5E5D4FA40FB52FB11D2C93019605
:102F1000861798F380913602680F6093360280E03E
:102F2000089581E0089510925A0281E080935C0236
:102F300010925B0261E082E10E94600C61E083E13B
:102F40000E94600CE9EBF0E080818E7F80838081BD
:102F50008D7F808388E48093B80085E48093BC00F3
:102F60000895CF93DF9391E0909315028823B9F0F1
:102F7000C091B800D091BA008091BC008A7B809348
:102F8000BC0060E082E10E94600C60E083E10E948E
:102F9000600C0E949317D093BA00C093B800DF91E1
:102FA000CF910895E0918F0280918E02E81730F45E
:102FB000F0E0E051FE4F808190E008958FEF9FEFA9
:102FC000089590918F0280918E022FEF3FEF981716
:102FD00048F4E92FF0E0E051FE4F208130E09F5FA0
:102FE00090938F02C901089580918E0290918F0273
:102FF000891B990B0895CF92DF92EF92FF920F9366
:103000001F93CF93DF937C01CB018A0120910703AB
:10301000222389F0EB016B01C40ED51ECC15DD0512
:1030200069F06991D701ED91FC910190F081E02D5B
:10303000C7010995F3CF642F0E946C17C801DF9177
:10304000CF911F910F91FF90EF90DF90CF90089557
:10305000CF93DF931F92CDB7DEB76983209107032B
:103060002223F9F020910403203258F021E030E0CF
:10307000FC013383228390E080E00F90DF91CF91B9
:10308000089580910503E82FF0E0E053FE4F998109
:1030900090838F5F809305038093040381E090E029
:1030A000ECCF61E0CE0101960E946C17F7CFCF9272
:1030B000DF92EF92FF920F931F93CF93DF93D09104
:1030C000040381E0D13208F09CC0C09106030E9445
:1030D000D40C6B017C0180915A0281116CC082E09A
:1030E00080935A0281E080935C028FEF80935902B3
:1030F00010927E02D0937D02A0EDB1E0EDE5F2E00A
:1031000080E0D8138DC010927F0280917F02CC0F97
:10311000C82BC0937F0280915B02813009F084C08C
:1031200010925B020E94D40C6B017C0180917F02A3
:103130008093BB008091110290911202A091130222
:10314000B0911402892B8A2B8B2BA1F00E94D40CF6
:103150000091110210911202209113023091140279
:103160006C197D098E099F0906171707280739076B
:1031700008F442C08091BC0083FDD8CF85EC8093D9
:10318000BC000E94D40C6B017C0180915A028230F9
:1031900009F44CC0809159028F3F09F469C08091B5
:1031A0005902803209F466C080915902803309F4D3
:1031B00063C084E026C08091110290911202A09118
:1031C0001302B0911402892B8A2B8B2B09F483CF25
:1031D0000E94D40C0091110210911202209113024E
:1031E000309114026C197D098E099F090617170783
:1031F0002807390708F06FCF809110020E94B1179D
:1032000085E0109205031092040310920703DF91EA
:10321000CF911F910F91FF90EF90DF90CF90089585
:103220009D9191938F5F6DCF85EEA9CF8091110213
:1032300090911202A0911302B0911402892B8A2B53
:103240008B2B09F4A2CF0E94D40C00911102109193
:10325000120220911302309114026C197D098E091B
:103260009F09061717072807390708F08ECFC4CF24
:1032700080E0C7CF82E0C5CF83E0C3CFEF92FF925B
:103280000F931F93CF93DF937C01C62F809125036B
:1032900090912603009709F459C02091290331E049
:1032A0003093070320930603109205031092040342
:1032B000DC01ED91FC910190F081E02D60E0099539
:1032C0008701EE24E394F12CD1E0C15080912503D5
:1032D00090912603CF3F91F1B0E2EB16F104D8F0C4
:1032E0000E9457188091250390912603209129036D
:1032F000D093070320930603109205031092040352
:10330000DC01ED91FC910190F081E02D60E00995E8
:10331000EE24E394F12C8091250390912603F8018B
:103320006491DC01ED91FC910190F081E02D099513
:10333000BFEFEB1AFB0A0F5F1F4FC7CFDF91CF9193
:103340001F910F91FF90EF900C945718E091350367
:10335000F0913603908180913B038095892380838F
:103360008701C15008F438C0F801849120912303EB
:1033700030912403232B29F00E948E0F0F5F1F4FE3
:10338000F0CF28E030E040E8E0913103F0913203E3
:1033900090913903582F5423D9F05081952B908365
:1033A000E0913303F0913403908150913A03952BCF
:1033B0009083E0913303F0913403508190913A036C
:1033C000909595239083469521503109E9F6D6CF03
:1033D000508190959523E3CFDF91CF911F910F916D
:1033E000FF90EF9008951F93CF93DF93EC018D8DA5
:1033F0009E8D009721F1162F29A131E0309307030C
:10340000209306031092050310920403DC01ED9152
:10341000FC910190F081E02D60E009958D8D9E8DED
:10342000DC01ED91FC910190F081E02D612F099577
:103430008D8D9E8DDF91CF911F910C945718ADA566
:10344000BEA59C918BA9809589238C938B8D9C8D97
:10345000892B31F0862FDF91CF911F910C948E0F25
:1034600028E030E080E8A9A5BAA599A9462F48230D
:10347000C1F04C91942B9C93ABA5BCA59C914AA9FF
:10348000942B9C93ABA5BCA54C919AA990959423A1
:103490009C9386952150310931F7DF91CF911F918F
:1034A00008954C9190959423E6CFDF92EF92FF928E
:1034B0000F931F93CF93DF93809125039091260361
:1034C000892B09F498C020913D0330913E0340912F
:1034D0003F035091400360E074E284EF90E00E946B
:1034E000D2302051310941095109569547953795F8
:1034F00027952093B80065E08EE597E10E943E197C
:1035000060910C03615088E093E00E94F3192091D0
:103510000E0330910F03C901079697FD079633E01C
:10352000959587953A95E1F720910C0330910D031D
:10353000829F8001839F100D929F100D1124C091D6
:103540002703D091280380912503909126030C0F27
:103550001D1F009709F48FC02091290331E030939B
:103560000703209306031092050310920403DC0165
:10357000ED91FC910190F081E02D60E40995EE243D
:10358000E394F12CDD24D3948091250390912603BC
:103590000C171D0709F446C0B0E2EB16F104D8F091
:1035A0000E945718809125039091260320912903AA
:1035B000D092070320930603109205031092040390
:1035C000DC01ED91FC910190F081E02D60E4099522
:1035D000EE24E394F12C80912503909126036991C8
:1035E000DC01ED91FC910190F081E02D0995BFEF98
:1035F000EB1AFB0AC9CF8091230390912403892BF6
:1036000031F080914603909147030E94950FE0911D
:103610003703F0913803908180913C038095892392
:10362000808369CF0E9457188091250390912603CB
:10363000892B09F461C020914103309142034091EC
:1036400043035091440360E074E284EF90E00E94F1
:10365000D230205131094109510956954795379586
:1036600027952093B800DF91CF911F910F91FF9084
:10367000EF90DF900895E0913503F091360380815B
:1036800090913B03892B80830C171D0769F2899168
:103690002091230330912403232B19F00E948E0FD5
:1036A000F3CF28E030E040E8E0913103F0913203BD
:1036B00090913903582F5423D9F05081952B908342
:1036C000E0913303F0913403908150913A03952BAC
:1036D0009083E0913303F0913403508190913A0349
:1036E000909595239083469521503109E9F6CCCFEA
:1036F000508190959523E3CFE0913703F091380303
:10370000808190913C03892B8083ADCF1F93CF9311
:10371000DF93EC01162F8D8D9E8D892BB1F12DA994
:103720003EA94FA958AD60E074E284EF90E00E949A
:10373000D2302051310941095109569547953795A5
:1037400027952093B80066EA111167EACE010E941E
:10375000F3198D8D9E8D892B41F129AD3AAD4BAD7D
:103760005CAD60E074E284EF90E00E94D2302051C2
:103770003109410951095695479537952795209369
:10378000B800DF91CF911F9108958B8D9C8D892B6F
:1037900021F08EAD9FAD0E94950FEFA5F8A9908105
:1037A0008CA9809589238083CECFEFA5F8A980814D
:1037B0009CA9892B8083E5CF90E080E00895EF926B
:1037C000FF920F931F93CF93DF937B01880F991F75
:1037D000880F991FEC01259710E000E061E086E07A
:1037E0000E94600CCE010197F1F760E086E00E9434
:1037F000600CCE010197F1F70F5F1F4FE016F10645
:1038000069F7DF91CF911F910F91FF90EF9008958D
:103810001F93CF93DF93182F0E94BF0CEC01812FD1
:103820000E94BF0C8C0F9D1F96958795DF91CF91BD
:103830001F9108953F924F925F926F927F928F9265
:103840009F92AF92BF92CF92DF92EF92FF920F932F
:103850001F93CF93DF933B014A012901E7013C2CE1
:103860000E94370CF30191838083F4012081318120
:10387000892B09F059C0C090FB02D090FC02E09067
:10388000FD02F090FE022130310531F511821082E7
:10389000F20180819181A281B381B701A601481B09
:1038A000590B6A0B7B0BC801110FAA0BBB0B4817F6
:1038B00059076A077B0780F039832883F501C082A6
:1038C000D182E282F382F1E03F121CC06DE470E02D
:1038D00088EC90E00E94DF1BF50180819181A2813C
:1038E000B381A7019601281B390B4A0B5B0BDA0148
:1038F000C9018C329140A105B10520F083E090E030
:1039000099838883DF91CF911F910F91FF90EF9062
:10391000DF90CF90BF90AF909F908F907F906F90EF
:103920005F904F903F900895232B61F781E090E0E6
:10393000918380838091FB029091FC02A091FD0213
:10394000B091FE02F20180839183A283B3838881C8
:103950009981892BB9F282E090E0D2CFFC010190ED
:103960000020E9F73197AF01481B590BBC0188E0F3
:1039700093E00C94E10B8F929F92AF92BF920F93C2
:103980001F93CF93DF93CDB7DEB7A1970FB6F8940F
:10399000DEBF0FBECDBF19A2423008F44AE08E014F
:1039A0000F5D1F4F842E912CB12CA12CA5019401E9
:1039B0000E94D230E62FB901CA01EA30F4F4E05D8A
:1039C000D801EE938D01232B242B252B79F790E042
:1039D00080E0109719F0CD010E94AE1CA1960FB6A1
:1039E000F894DEBF0FBECDBFDF91CF911F910F9135
:1039F000BF90AF909F908F900895E95CE1CFCF92F8
:103A0000DF92EF92FF92CF93DF936B017C016DE227
:103A100088E093E00E94D311EC0166277727CB0161
:103A20006C197D098E099F094AE00E94BB1C8C0F0E
:103A30009D1FDF91CF91FF90EF90DF90CF90089581
:103A40000C94AE1C0F931F9381114BC08091C9023F
:103A5000811147C02330C9F081E080931C0380931B
:103A60001D03243049F087E390E0223039F48EE3DF
:103A700090E00436110514F082E090E09093150375
:103A80008093140389E390E00CC020931C032093DF
:103A90001D0382E090E090931503809314038AE065
:103AA00090E09093170380931603CA01613049F0A8
:103AB00010921B0310921A0310921903109218030C
:103AC0000AC021E030E030931B0320931A033093A7
:103AD0001903209318030E94201D1F910F910C942D
:103AE000551A1F910F91089520910E0330910F03E5
:103AF000C901079697FD079623E0959587952A9526
:103B0000E1F720910C0330910D03829FA001839F68
:103B1000500D929F500D112470E060E080912703BA
:103B2000909128030C943832EF92FF920F931F93D9
:103B300060E08FE00E94600C0E94741D8FE3E82E0D
:103B4000F12C0CE710E02EE633E150E040E070E0AD
:103B500060E088E093E00E94F5140E94551A64E644
:103B600070E088EC90E00E94DF1B62E370E080E090
:103B700090E00E94F90C64E670E088EC90E00E940E
:103B8000DF1B62E370E080E090E00E94F90C64E6E5
:103B900070E088EC90E00E94DF1B6CED75E080E047
:103BA00090E00E94F90C8091FF028630B0F082E034
:103BB0000E94370C892B31F080910203909103030E
:103BC000019759F41092FF02109201031092000322
:103BD0001092030310920203EACF0E94741D1F91FA
:103BE0000F91FF90EF900C94551ACF92DF92EF92C5
:103BF000FF920F931F93CF93DF93CDB7DEB7289734
:103C00000FB6F894DEBF0FBECDBF2091C9022111BF
:103C100042C07F936F939F938F9382E591E09F9330
:103C20008F93CE0101966C019F938F930E943F3238
:103C3000F12CE12C07E010E020E230E049E350E015
:103C40006FE570E088E093E00E94581381E0809374
:103C50001C0380931D0381E090E090931B038093ED
:103C60001A0390931903809318038FE590E09093C3
:103C700015038093140389E390E0909317038093D6
:103C80001603C6010E94201D0E94551A0FB6F89413
:103C9000DEBF0FBECDBF28960FB6F894DEBF0FBEB5
:103CA000CDBFDF91CF911F910F91FF90EF90DF90EB
:103CB000CF9008950E94333285ED8093BC008091AF
:103CC000110290911202A0911302B0911402079672
:103CD000A11DB11D23E0B695A795979587952A95C7
:103CE000D1F72091BC0024FD03C010925A02089520
:103CF00040911102509112026091130270911402CE
:103D0000452B462B472B69F30097A105B10541F0E0
:103D100025E32A95F1F700000197A109B109E1CF48
:103D2000809110020C94B1171F920F920FB60F9250
:103D300011242F933F938F939F93AF93BF938091C1
:103D4000810290918202A0918302B091840230910D
:103D5000800223E0230F2D3758F50196A11DB11DD8
:103D6000209380028093810290938202A093830229
:103D7000B09384028091850290918602A09187027F
:103D8000B09188020196A11DB11D80938502909388
:103D90008602A0938702B0938802BF91AF919F9152
:103DA0008F913F912F910F900FBE0F901F901895FC
:103DB00026E8230F0296A11DB11DD2CF1F920F92AC
:103DC0000FB60F9211242F933F934F935F936F93EE
:103DD0007F938F939F93AF93BF93EF93FF938091C4
:103DE000B900887F803609F44AC0F0F5883209F4BA
:103DF000A7C018F5803109F49BC0B8F4882309F4F2
:103E0000F9C0883009F494C0FF91EF91BF91AF9150
:103E10009F918F917F916F915F914F913F912F91E2
:103E20000F900FBE0F901F901895883109F488C02D
:103E3000803251F78093590214C0803409F49DC038
:103E400040F48033B9F38833F9F68093590285EC56
:103E5000B0C0803509F485C0883509F496C088342F
:103E600099F60E945C1ED0CF883909F48CC038F5D1
:103E7000883729F050F4883611F0803729F683E02E
:103E800080935A021092580257C0883809F47BC0B8
:103E9000803919F0803809F0B7CF8091580280320C
:103EA00008F071C0E091580281E08E0F80935802B3
:103EB0008091BB00F0E0E85CFD4F80833DC0803B1B
:103EC00039F0E0F4803A09F479C0883A09F09CCFDF
:103ED00084E080935A021092370210923602E091E9
:103EE0008C02F0918D0209958091360281110FC0EC
:103EF00081E0809336021092160209C0803C09F4DA
:103F0000A6CF883C09F4A3CF883B09F07DCFE09190
:103F1000370281E08E0F80933702F0E0EA5EFD4FBA
:103F200080818093BB00909137028091360229C036
:103F300080917F028093BB0085EC8093BC0064CFAE
:103F400090917E0280917D02981758F5E0917E0253
:103F500081E08E0F80937E02F0E0E35AFD4F808176
:103F6000E9CFE0917E0281E08E0F80937E02809106
:103F7000BB00F0E0E35AFD4F808390917E02809178
:103F80007D029817C8F285E8D8CFE0917E0281E0E3
:103F90008E0F80937E028091BB00F0E0E35AFD4FCC
:103FA000808380915C0281115CCF81E080935B0211
:103FB00084EA8093BC0010925A0226CF85EC80934D
:103FC000BC0010925A0280915802803230F4E09185
:103FD0005802F0E0E85CFD4F10826091580270E0FA
:103FE000E0918A02F0918B0288E392E009951092A9
:103FF00058020ACF1092590234CF71E03D9A3C9892
:104000000000000000000E94A5213D980E94A5210B
:10401000A894000000000000359B0E948D21D2F082
:10402000889434990894771F48F73D9A803019F0A6
:104030003C980C941C203C9A0000000000000E9458
:10404000A5213D98A89400000000359B0E948D2179
:104050000E94A521000000003D9A872F992708950E
:1040600080E208950894881F0C943720880FF1F09F
:104070003D9A00000000000020F400003C980C94E1
:1040800044203C9A0C9444200E94A5213D98A89479
:10409000000000000000359B0E948D211AF4882743
:1040A0000C9469200E94A5210C9436203D9A0000B2
:1040B00000003C980E94A521992788273D98A89444
:1040C0000000359B0E948D2152F3349B81E00E94B9
:1040D000A521000000003D9A089581E008953D9AD1
:1040E0003C9A0E94A5213D980E94A521359B0E94E3
:1040F0008D213C980E94A521789408958F93F1E03A
:10410000E4EF8F918F93F894359B0E948D213C9A18
:104110000E94A5210E943220882331F40E946F2042
:10412000319711F00C94812099270F9008950895EC
:10413000F8943D9A0E94A5213C980E94A5213D98A3
:104140000E94A521359B0E948D213C9A0E94A521A9
:104150000E943220089581E00895F894359B0E94D2
:104160008D213C9A0E94A5210E943220089581E071
:104170000895DF92EF92FF920F931F93CF93DF93F7
:10418000D82E0E946F2061E070E080E090E00E94F5
:10419000F90C0E946F2061E070E080E090E00E94E6
:1041A000F90C8AE0E82EF12C01E010E080EC0E948E
:1041B000AD20C1E0D0E0811104C010E000E0D0E00B
:1041C000C0E084E40E943220811104C010E000E0CD
:1041D000D0E0C0E08D2D0E943220811102C0D0E0DD
:1041E000C0E00E946F2061E070E080E090E00E94FB
:1041F000F90CCD2B21F481E0E81AF108B9F6012B76
:1042000041F1DF91CF911F910F91FF90EF90DF90DF
:10421000089501501109A9F380EC0E94AD20C82F28
:1042200084E40E943220811101C0C0E0D0E08D2DD5
:104230000E943220811102C0D0E0C0E00E946F20B5
:1042400061E070E080E090E00E94F90CCD2B09F372
:10425000D8CF0AE010E0E0CFEF92FF920F931F93C8
:10426000CF93DF93813009F443C0EB0162337105D2
:1042700064F40091F7021091F80224E04CE551E05B
:1042800061E08091FA020E94221D8CEA0E94B9200E
:1042900061E08FE00E94600C61E470E080E090E0FB
:1042A0000E94F90C08E610E08CE7E82E80E0F82E7A
:1042B000F80184910E94B9200F5F1F4FE016F106AC
:1042C000B9F7E091E402F091E502EF51FD4E8491DF
:1042D0000E94B920E29764F40091F7021091F8026D
:1042E00024E04CE551E062E08091FA020E94221D38
:1042F000DF91CF911F910F91FF90EF9008953C981F
:104300003D984498459888279927349B0895359B74
:10431000089581E0089581E00895B0E0A4E00024CC
:104320000E949D213AF40A94D9F71197C1F7289475
:104330000C94A421A8940C94A421A89435990C94CD
:10434000A22128940000089508959BE69A95F1F71C
:1043500008950895E8E0F3E01382128220E830E047
:104360003583248380E490E0978386833187208798
:1043700093878287168A158614861786168681E0AB
:10438000858B848B2FEF3FEF338B228B318B208BF0
:10439000878B108E128E118E8AE291E0918380833A
:1043A000148E138E168E158E10A2178E8BE084A39A
:1043B0008DE085A38CE086A38AE087A388E080A7B0
:1043C00080E586AF17AE0895CF93DF93CDB7DEB704
:1043D00028970FB6F894DEBF0FBECDBF789484B592
:1043E000826084BD84B5816084BD85B5826085BDF1
:1043F00085B5816085BD80916E00816080936E007F
:104400001092810080918100826080938100809170
:104410008100816080938100809180008160809321
:1044200080008091B10084608093B1008091B000E1
:1044300081608093B00080917A00846080937A00DC
:1044400080917A00826080937A0080917A00816006
:1044500080937A0080917A00806880937A0010922D
:10446000C10061E089E00E948E0C80912703909149
:104470002803892B39F10E94741D80910E039091BD
:104480000F0360910C0370910D03813291050CF0C4
:10449000EDC4AC014052510957FF02C04F5F5F4F5E
:1044A000559547956357710977FF02C06F5F7F4F3E
:1044B00075956795F0E2EF2EF12C03E710E028EFF9
:1044C00035E0ECC420910E0330910F03C90107962B
:1044D00097FD079623E0959587952A95E1F720911A
:1044E0000C0330910D03AC01429FC001439F900D1E
:1044F000529F900D11240E940E31909328038093B7
:104500002703892B09F0B7CF0E947F211092FA026E
:1045100061E089E00E948E0C60E08EE00E948E0CCB
:1045200060E080E10E948E0C60E081E10E948E0CD0
:1045300060E084E00E948E0C60E083E00E948E0CBC
:1045400061E086E00E948E0C60E082E00E948E0CAA
:1045500060E085E10E948E0C60E084E10E948E0C98
:1045600061E08FE00E948E0C61E087E00E948E0C7B
:1045700060E085E00E948E0C60E087E00E94600CA5
:1045800060E086E00E94600C61E082E00E94600CC6
:104590000E94741D50E3E52EF12C06E410E028E99A
:1045A0003AE04AE050E06DE170E088E093E00E947C
:1045B000F5140E94551A60ED77E080E090E00E94CB
:1045C000F90C0E94741D87E080931C0380931D03E7
:1045D00081E090E090931B0380931A03909319035A
:1045E0008093180381E290E00E94772F8A3D09F4BE
:1045F0004BC06AE090E080E00E947F2F64E181E0A0
:1046000090E00E947F2F68E282E090E00E947F2F7E
:1046100062E383E090E00E947F2F6BE084E090E013
:104620000E947F2F65E185E090E00E947F2F69E284
:1046300086E090E00E947F2F63E387E090E00E9495
:104640007F2F6CE088E090E00E947F2F66E189E098
:1046500090E00E947F2F6AE28AE090E00E947F2F24
:1046600064E38BE090E00E947F2F61E080E290E0C5
:104670000E947F2F60E089E190E00E947F2F6AED29
:1046800081E290E00E947F2F90E080E00E94772FEF
:10469000182F8093CE0281E090E00E94772F8093C4
:1046A000CF0282E090E00E94772F8093D00283E0D7
:1046B00090E00E94772F8093D10284E090E00E94E6
:1046C000772F8093D20285E090E00E94772F80932D
:1046D000D30286E090E00E94772F8093D40287E097
:1046E00090E00E94772F8093D50288E090E00E94AE
:1046F000772F8093D60289E090E00E94772F8093F5
:10470000D7028AE090E00E94772F8093D8028BE056
:1047100090E00E94772F8093D90280E290E00E947F
:10472000772F8093F902812F90E09093E502809398
:10473000E4020E942B0D6093B6027093B70280933F
:10474000B8029093B9026093AE027093AF02809367
:10475000B0029093B1026093F3027093F4028093DD
:10476000F5029093F6026093E6027093E70280935D
:10477000E8029093E90288248394912CDD24D39459
:104780000E942B0D6093FB027093FC028093FD024C
:104790009093FE028091FA0281118AC08091F90201
:1047A000813059F00091F7021091F80224E04CE5B5
:1047B00051E061E080E00E94221D0091FB02109117
:1047C000FC022091FD023091FE028091F302909153
:1047D000F402A091F502B091F602B901A801481BBC
:1047E000590B6A0B7B0BDB01CA0140911701413069
:1047F00009F040C5813157E29507A105B10508F4DC
:1048000057C04090EF025090F0026090F10270901B
:10481000F202BC01CD01640D751D861D971D6093CC
:10482000EF027093F0028093F1029093F2020093F2
:10483000F3021093F4022093F5023093F60228EE6F
:1048400033E040E050E00E94D23029013A0161E9B2
:1048500046166EE756066104710430F030E9432EC7
:104860003EE7532E612C712CC301B20120E13EE0E2
:1048700040E050E00E94D23079013093EE02209364
:10488000ED02C301B2012CE330E040E050E00E94B1
:10489000D230CA01B9012CE330E040E050E00E9480
:1048A000D2307093EC026093EB02C7010E94F51DB9
:1048B0008091FB029091FC02A091FD02B091FE025A
:1048C0004091E6025091E7026091E8027091E9029E
:1048D000841B950BA60BB70B81389E4EA643B105E2
:1048E00008F48CC00E94741D0E94551A10E000E06C
:1048F00023E042E651E061E08091FA020E94221D2D
:1049000060ED77E080E090E00E94F90C0E94741D59
:104910000E94551A84E00E94370C8C010E942B0DD6
:104920006093FB027093FC028093FD029093FE0261
:10493000112784E00E94370C7C0180E10E94370C33
:10494000CC24C394892B21F00E151F0509F4C12C2A
:1049500082E00E94370C892B11F4CC24C39481E1AE
:104960000E94370C892B11F0CC2019F30E94741D82
:104970000E94551A10E000E023E04AE651E061E0B1
:104980008091FA020E94221D64E670E088EC90E0BB
:104990000E94DF1B68EE73E080E090E00E94F90C5B
:1049A0000E94741D0E94551A80E10E94370C0197E5
:1049B00009F090C482E00E94370C019709F08AC484
:1049C00081E10E94370C019709F084C40E94741D94
:1049D0000E94551A0E942B0D6093FB027093FC02FB
:1049E0008093FD029093FE026093E6027093E702CB
:1049F0008093E8029093E902D0921601809116010B
:104A0000813009F087C0109216010091E4021091E4
:104A1000E502F801EF51FD4E84910E94B920F801A2
:104A2000EC5AFD4E6491462E512C5092F802409261
:104A3000F70270E090E080E00E94C32F26E636E6A1
:104A400046EA50E40E9429300E948D2F7093E302C1
:104A50006093E20287E080931C0380931D03909291
:104A60001B0380921A0390921903809218030E94EC
:104A7000741DC2016AE070E00E94BE307B0126EF27
:104A800026038001279F100D1124040D151D34E607
:104A9000431651040CF429C483E590E00E943714B6
:104AA00029E5622E712C10921503109214031092B6
:104AB000170310921603B701FF0C880B990B4AE0FD
:104AC0000E94BB1C7092150360921403109217038E
:104AD00010921603B801012E000C880B990B17FFDA
:104AE0000CC40E94FF1C8EE891E00E94AE1C0E9444
:104AF000551A80911501813019F483E080931501D6
:104B00006091EB027091EC028091ED029091EE02C7
:104B10000E94F51D8091E0029091E102019709F059
:104B200048C08091FB029091FC02A091FD02B091DF
:104B3000FE024091DC025091DD026091DE02709134
:104B4000DF02841B950BA60BB70B803D9740A10598
:104B5000B10578F18091DA029091DB026091E40274
:104B6000FC01E253FD4F608390E00E947F2F109282
:104B7000E1021092E0020091F7021091F80221E0A8
:104B800041E951E061E08091FA020E94221D6CE24D
:104B900071E080E090E00E94F90C0091F702109122
:104BA000F80221E041E951E062E08091FA020E94BE
:104BB000221D80911501833061F58091FB02909157
:104BC000FC02A091FD02B091FE024091CA025091F8
:104BD000CB026091CC027091CD02841B950BA60B89
:104BE000B70B813D9740A105B10598F082E0809315
:104BF0001501F12CE12C0DE010E025E230E043E35B
:104C000050E070E060E088E093E00E9458130E945A
:104C1000551A8091C902882309F429C410921601FB
:104C20000E94741D83E0F82EF0921C03F0921D0385
:104C300090921B0380921A0390921903809218039A
:104C40000AE010E020E430E040E850E070E060E08E
:104C500090E080E00E9428168091C902813009F01E
:104C600050C381E290E0909315038093140388E091
:104C700090E0909317038093160385E991E00E94DA
:104C8000201D8BE290E0909315038093140383E240
:104C900090E090931703809316038AE991E00E94B5
:104CA000201D0E94551A8091FB029091FC02A09158
:104CB000FD02B091FE024091C5025091C602609182
:104CC000C7027091C802841B950BA60BB70B8538E1
:104CD0009340A105B10520F01092C902D0921601AF
:104CE0006091C3027091C4026230710509F059C02D
:104CF0008091C902811155C01092C4021092C30262
:104D00008091C1029091C202892B09F0C8C3109210
:104D1000E1021092E0024090FB025090FC02609091
:104D2000FD027090FE024092E6025092E70260920D
:104D3000E8027092E9028091000390910103892BAF
:104D400009F0A6C38091130190911401019709F015
:104D50009FC38091DA029091DB0201960E94BE30DF
:104D60008C019093DB028093DA0260E0892B09F0DA
:104D700061E087E00E94600CF801E253FD4F808102
:104D800090E09093E5028093E402D0921601D092D5
:104D900015014092CA025092CB026092CC027092EE
:104DA000CD028091C3029091C402039709F08BC396
:104DB0009092C2028092C1020091110110911201E1
:104DC0000130110541F5109212011092110167E3B3
:104DD00070E088EC90E00E94DF1B6FE070E080E004
:104DE00090E00E94F90C67E370E088EC90E00E948C
:104DF000DF1B8091020390910303019709F054C3D4
:104E00001092030310920203109201031092000308
:104E100082E08093C9022091BD023091BE0222300F
:104E2000310509F062C31092BE021092BD0280915A
:104E3000C90281115CC68091FB029091FC02A09195
:104E4000FD02B091FE028093E6029093E702A093E8
:104E5000E802B093E9028091FA02811139C3D0923D
:104E6000FA02D092BC0210921601FCC5AC0140546B
:104E7000510957FF02C04F5F5F4F559547956255E7
:104E8000710977FF02C06F5F7F4F7595679510E4DA
:104E9000E12EF12C02E510E028ED37E088E093E008
:104EA0000E94F51482E080932A038091250390915B
:104EB0002603892B09F4E8C080910E0390910F031B
:104EC000809709F0DFC08CE38093290310928F0252
:104ED00010928E0210920503109204030E94931701
:104EE0008FED9BE090938D0280938C0280EE9BE08F
:104EF00090938B0280938A028091300387FD1EC0BD
:104F000061E00E948E0C61E0809130030E94600C91
:104F100061E070E080E090E00E94F90C60E0809138
:104F200030030E94600C6AE070E080E090E00E9434
:104F3000F90C61E0809130030E94600C80912503A0
:104F400090912603892B09F45EC120913D03309195
:104F50003E0340913F035091400360E074E284EFD0
:104F600090E00E94D23020513109410951095695F3
:104F70004795379527952093B80064E082EC95E03B
:104F80000E943E1960910E03615088E093E00E94F8
:104F9000F31964E08EEB95E00E943E1980912A039C
:104FA00060E1813009F064E188E093E00E94F31948
:104FB00064E08AEB95E00E943E198FE880934503F8
:104FC00080910C0390910D038038910509F034C154
:104FD00080910E0390910F038034910509F03CC13C
:104FE00080912A03813009F025C18FE98093450320
:104FF00012E16AED88E093E00E94F319612F88E0E6
:1050000093E00E94F31961E888E093E00E94F319AD
:105010006091450388E093E00E94F31969ED88E010
:1050200093E00E94F31980912A0362E2813009F033
:1050300061EF88E093E00E94F31966E084EB95E06D
:105040000E943E198091250390912603892B09F433
:1050500007C1209141033091420340914303509195
:10506000440360E074E284EF90E00E94D23020516B
:105070003109410951095695479537952795209350
:10508000B80042CA8DE320CF61E080912E030E94D8
:105090008E0C61E080912F030E948E0C80912E0374
:1050A000082E000C990BFC01EC51FA4FE491F0E052
:1050B000EE0FFF1FE652FA4F2591349130933603DD
:1050C00020933503FC01EA53FA4FE491E0933B034C
:1050D00080912F03082E000C990BFC01EC51FA4F24
:1050E000E491F0E0EE0FFF1FE652FA4FA591B49164
:1050F000B0933803A0933703FC01EA53FA4FE491CD
:10510000E0933C038C91E82BEC93809123039091E6
:105110002403892B09F434C01FB7F89480918902C5
:10512000811127C0EEEEF5E08491E0EDF5E0949179
:10513000E82FF0E0EE0FFF1FE655FA4FA591B4916E
:10514000EC91E92321F461E08AE00E94600C61E0C7
:105150008AE00E948E0C8CB580618CBD8CB5806419
:105160008CBD61E08DE00E948E0C61E08BE00E94BE
:105170008E0C809189028F5F809389021FBFBCCE05
:1051800061E080912C030E948E0C61E080912D03E0
:105190000E948E0C80912C03082E000C990BFC01B0
:1051A000EC51FA4FE491F0E0EE0FFF1FE652FA4F98
:1051B000259134913093320320933103FC01EA535B
:1051C000FA4FE491E093390380912D03082E000CEF
:1051D000990BFC01EC51FA4FE491F0E0EE0FFF1F48
:1051E000E652FA4FA591B491B0933403A0933303E0
:1051F000FC01EA53FA4FE491E0933A038C91E09575
:10520000E823EC9379CE8091230390912403892B9A
:1052100031F080914603909147030E94950FE091F1
:105220003703F0913803908180913C038095892366
:105230008083A3CE8FECDACE8036910569F480911D
:105240000E0390910F03409739F480912A03813027
:1052500029F480E18093450312E0CBCE8FEAFACFA8
:10526000E0913703F0913803808190913C03892BC2
:1052700080834AC9893E9340A105B10508F418CB43
:105280000093F3021093F4022093F5023093F60298
:105290008091EA02813059F41092EA026091EB02A7
:1052A0007091EC028091ED029091EE02FFCAD092D3
:1052B000EA02F12CE12C07E010E020E230E049E3C3
:1052C00050E06FE570E088E093E00E9458130E9480
:1052D000551AEECA06E910E021E049E751E061E025
:1052E0008091FA020E94221D5FCB89E290E00E9429
:1052F000371495E3692E712CD6CB4AE00E94BB1C73
:10530000F2CB8230F9F481E290E090931503809320
:10531000140388E090E0909317038093160385E9C7
:1053200091E00E94201D84E290E090931503809309
:10533000140383E290E090931703809316038DE9A2
:1053400091E0ADCC833009F049C08AE190E09093C0
:1053500015038093140365E070E070931703609366
:10536000160381EA91E00E94201D86E0EEE1F1E063
:10537000DE01119601900D928A95E1F718861F8241
:105380008091EC028F938091EB028F938091EE02DB
:105390008F938091ED028F9387EA91E09F938F9393
:1053A00041E050E04C0F5D1F5F934F930E943F32EE
:1053B0006CE170E0709315036093140383E290E056
:1053C0009093170380931603CE0101960E94201D2F
:1053D0000FB6F894DEBF0FBECDBF63CC843009F0AA
:1053E00060CC2CE130E0309315032093140345E0AA
:1053F00050E0509317034093160381EB91E00E9415
:10540000201D86E0EEE1F1E0DE01119601900D92A3
:105410008A95E1F718861F828091EC028F93809124
:10542000EB028F938091EE028F938091ED028F9328
:1054300067EA71E07F936F9321E030E02C0F3D1F0E
:105440003F932F930E943F32F0921C03F0921D0372
:1054500090921B0380921A03909219038092180372
:1054600089E190E09093150380931403A7CF809176
:10547000FB029091FC02A091FD02B091FE0280938C
:10548000C5029093C602A093C702B093C80228CC6D
:1054900062ED70E084EF91E00E94DF1B82CC1092FD
:1054A000C2021092C1027DCC109303030093020349
:1054B0001093010300930003D092C9021093C0021D
:1054C0000093BF02A8CC9092120180921101A3CC4C
:1054D000813009F0D8C29091BB02923009F4B8C271
:1054E00008F0ACC2992309F4C7C28091BD02909123
:1054F000BE02039709F0FBC280910D0190910E014D
:10550000019731F510920E0110920D011092FA02DE
:105510001092BC02D092160167E370E088EC90E034
:105520000E94DF1B6FE070E080E090E00E94F90CC9
:1055300067E370E088EC90E00E94DF1B8091170128
:10554000813009F0D0C21092170184E08093C90223
:105550007090FA02711016C012EBA12E12E0B12E5B
:10556000CC24C39403ECE02E02E0F02E04E610E01D
:1055700026EB32E049E051E06BE071E080E190E041
:105580000E941A1CE8EAAE2EE2E0BE2EC12CFCEA14
:10559000EF2EF2E0FF2E08EC10E02EEA32E047E0BA
:1055A00051E063E171E082E090E00E941A1CA0EA01
:1055B000AA2EA2E0BA2ECC24C394BDEBEB2EB2E00F
:1055C000FB2E24EA32E043E051E065E071E081E146
:1055D00090E00E941A1C0E942B0D1B012C012092AE
:1055E000FB023092FC024092FD025092FE0284E0E7
:1055F0000E94370C7C0166246394892B09F4612C8A
:1056000060929F0280919E02882309F476C0E11483
:10561000F10409F072C02092E6023092E702409253
:10562000E8025092E90283E00E94370C892B09F0CE
:1056300063C28FEF9FEF90939D0280939C02009135
:105640009C0210919D028091010190910201081726
:105650001907B9F08091980290919902A0919A024D
:10566000B0919B02A2019101281B390B4A0B5B0BE5
:10567000DA01C9014E97A105B10508F442C2D092E2
:105680000001C090000131E0C31237C01093020145
:1056900000930101209298023092990240929A025E
:1056A00050929B021092C90271102EC262E070E00B
:1056B00084EF91E00E94DF1BC09216019092E102FC
:1056C0008092E0022092DC023092DD024092DE0203
:1056D0005092DF028091E4029091E502080F191FB9
:1056E00017FD07C078010D38110518F07CE8E72E8A
:1056F000F12CF092E502E092E40260929E0270903A
:10570000FA02772009F46BC03090BC0291E03912A4
:1057100066C01092BC0240900F01509010010E9490
:10572000741D21E0721251C262E0F62EF0921C0349
:10573000F0921D0390921B0380921A03909219031A
:105740008092180303E210E01093150300931403F2
:1057500045E050E0509317034093160386EB91E029
:105760000E94201D10931503009314038AE190E01A
:1057700090931703809316038CE591E00E94201DFF
:1057800010931503009314038FE290E09093170396
:10579000809316038CEB91E00E94201D52E0451689
:1057A000510409F4FAC163E04616510409F401C238
:1057B0004A94452891F483E08093BB02EE24E3945D
:1057C000F12C05E110E026E430E041E050E06DE12D
:1057D00070E088E093E00E9464120E94551A809164
:1057E000AC029091AD0281309105B9F41092AD02F6
:1057F0001092AC022091020330910303232B09F095
:105800002AC36091E4027091E5028091F9020E943E
:105810002C2161E08FE00E94600C8091BF0290918A
:10582000C0020197C1F48091000390910103019798
:1058300091F41092C0021092BF026091E402709144
:10584000E5028091F9020E942C2161E08FE00E9424
:10585000600CD09216018091130190911401892B54
:1058600039F0809100039091010360E0019789F481
:105870008091FB029091FC02A091FD02B091FE028A
:105880008093E6029093E702A093E802B093E902C6
:1058900061E08FE00E94600C8091130190911401EF
:1058A000892B31F080910003909101030197D1F48D
:1058B0000E942B0D6093FB027093FC028093FD020B
:1058C0009093FE0285E190E00E94081C909397025D
:1058D0008093960284E190E00E94081C90939502C8
:1058E000809394028091130190911401892B39F0D7
:1058F0008091000390910103019709F04FC000913E
:10590000E2021091E3028091940290919502980135
:10591000281B390B29373105DCF14090FB025090F0
:10592000FC026090FD027090FE0240929002509244
:10593000910260929202709293028091FB02909188
:10594000FC02A091FD02B091FE0284199509A609FE
:10595000B709883E9340A105B10508F091C284E1E2
:1059600090E00E94081C9093950280939402780125
:10597000E81AF90A0E942B0D6093FB027093FC0257
:105980008093FD029093FE0244E6E416F104ACF627
:105990008091130190911401892B39F080910003BB
:1059A00090910103019709F03FC080919602909178
:1059B000970281329340C0F14090FB025090FC026C
:1059C0006090FD027090FE0240929002509291020F
:1059D00060929202709293028091FB029091FC027D
:1059E000A091FD02B091FE0284199509A609B7099C
:1059F000803D9740A105B10508F05CC285E190E0CB
:105A00000E94081C8C0190939702809396020E943A
:105A10002B0D6093FB027093FC028093FD02909328
:105A2000FE02083F1240C0F680E090E0892B11F49E
:105A30000C94C0230E9400000C94BE23933019F0F4
:105A4000943009F052CD9093FA028093BC020BCAB5
:105A50009093FA028093BC02109216018091F90291
:105A6000813029F49092100180920F013ECD309345
:105A7000100120930F0139CD1092FA021092BC024E
:105A80008093160132CD823069F41092FA02D092DE
:105A900016011092BC026091F90280E290E00E942F
:105AA0007F2F23CD833019F51092FA028091BA022C
:105AB000813069F71092BA021092EF021092F00250
:105AC0001092F1021092F2021092EE021092ED0288
:105AD0001092EC021092EB0270E060E090E080E047
