:100000000C94A60B0C94CE0B0C94CE0B0C94CE0B34
:100010000C94CE0B0C94CE0B0C94CE0B0C94CE0BFC
:100020000C94CE0B0C94CE0B0C94CE0B0C94CE0BEC
:100030000C94CE0B0C94CE0B0C94CE0B0C94CE0BDC
:100040000C94961E0C94CE0B0C94CE0B0C94CE0BF1
:100050000C94CE0B0C94CE0B0C94CE0B0C94CE0BBC
:100060000C94E01E0C94CE0B82AAA62E81D129D925
:10007000C595B50DAD0000000000000000000000B7
:100080000000000000003E5B4F5B3E3E6B4F6B3E4E
:100090001C3E7C3E1C183C7E3C181C577D571C1C8B
:1000A0005E7F5E1C00183C1800FFE7C3E7FF0018E6
:1000B000241800FFE7DBE7FF30483A060E262979CF
:1000C0002926407F050507407F05253F5A3CE73C30
:1000D0005A7F3E1C1C08081C1C3E7F14227F2214E1
:1000E0005F5F005F5F06097F017F006689956A6038
:1000F0006060606094A2FFA29408047E040810204F
:100100007E201008082A1C08081C2A08081E101047
:1001100010100C1E0C1E0C30383E3830060E3E0EF1
:1001200006000000000000005F000000070007005C
:10013000147F147F14242A7F2A1223130864623642
:10014000495620500008070300001C2241000041CE
:10015000221C002A1C7F1C2A08083E080800807008
:10016000300008080808080000606000201008043B
:10017000023E5149453E00427F400072494949468E
:100180002141494D331814127F1027454545393C0C
:100190004A494931412111090736494949364649F9
:1001A00049291E000014000000403400000008141B
:1001B0002241141414141400412214080201590994
:1001C000063E415D594E7C1211127C7F49494936E9
:1001D0003E414141227F4141413E7F494949417F62
:1001E000090909013E414151737F0808087F004118
:1001F0007F41002040413F017F081422417F404061
:1002000040407F021C027F7F0408107F3E41414135
:100210003E7F090909063E4151215E7F09192946A1
:10022000264949493203017F01033F4040403F1FB7
:100230002040201F3F4038403F63140814630304EC
:100240007804036159494D43007F4141410204084C
:100250001020004141417F0402010204404040401F
:1002600040000307080020545478407F2844443855
:100270003844444428384444287F3854545418009F
:10028000087E090218A4A49C787F0804047800441E
:100290007D40002040403D007F1028440000417F09
:1002A00040007C047804787C080404783844444492
:1002B00038FC1824241818242418FC7C080404088A
:1002C000485454542404043F44243C4040207C1CA3
:1002D0002040201C3C4030403C44281028444C9096
:1002E00090907C4464544C440008364100000077F0
:1002F0000000004136080002010204023C262326C9
:100300003C1EA1A161123A4040207A3854545559FC
:100310002155557941225454784221555478402032
:10032000545579400C1E527212395555555939544D
:1003300054545939555454580000457C41000245E5
:100340007D420001457C407D1211127DF028252858
:10035000F07C545545002054547C547C0A097F4954
:1003600032494949323A4444443A324A4848303A98
:100370004141217A3A42402078009DA0A07D3D4233
:1003800042423D3D4040403D3C24FF2424487E49BC
:1003900043662B2FFC2F2BFF0929F620C0887E09EE
:1003A0000320545479410000447D413048484A328A
:1003B000384040227A007A0A0A727D0D19317D2672
:1003C00029292F28262929292630484D4020380858
:1003D00008080808080808382F10C8ACBA2F1028D9
:1003E00034FA00007B000008142A142222142A1474
:1003F000085500550055AA55AA55AAFF55FF55FFA7
:10040000000000FF00101010FF00141414FF001073
:1004100010FF00FF1010F010F0141414FC0014145E
:10042000F700FF0000FF00FF1414F404FC1414177D
:10043000101F10101F101F1414141F00101010F0A4
:10044000000000001F101010101F10101010F010EE
:10045000000000FF101010101010101010FF1000FE
:100460000000FF140000FF00FF00001F1017000035
:10047000FC04F414141710171414F404F40000FF0F
:1004800000F714141414141414F700F714141417A8
:100490001410101F101F141414F4141010F010F086
:1004A00000001F101F0000001F14000000FC1400BB
:1004B00000F010F01010FF10FF141414FF141010AF
:1004C000101F00000000F010FFFFFFFFFFF0F0F032
:1004D000F0F0FFFFFF0000000000FFFF0F0F0F0F05
:1004E0000F3844443844FC4A4A4A347E0202060625
:1004F000027E027E0263554941633844443C044015
:100500007E201E2006027E020299A5E7A5991C2ADC
:10051000492A1C4C7201724C304A4D4D303048789B
:100520004830BC625A463D3E494949007E010101BE
:100530007E2A2A2A2A2A44445F444440514A44409D
:1005400040444A51400000FF0103E080FF000008E2
:10055000086B6B083612362436060F090F060000AA
:1005600018180000001010003040FF0101001F01AA
:10057000011E00191D1712003C3C3C3C000000000D
:1005800000000103070F1F3F7F0080C0E0F0F8FC70
:10059000FE000000002300260029000000000800E3
:1005A000020100000304070000000000000000003A
:1005B000000000240027002A00DB40A4A62EAF2064
:1005C00000A1C8D300408DAED580A8010204081058
:1005D00020408001020408102001020408102000BD
:1005E000000000250028002B000404040404040477
:1005F0000402020202020203030303030300006079
:100600000000000000000000000000000000E0000A
:1006100000000000000000000000000001E00000F9
:10062000000000000000000000000001F0000000D9
:100630000000000000000000000003F000000000C7
:1006400000000000000000000007F00000000000B3
:10065000000000000000000007F80000000000009B
:10066000000000000000000FF800000003C0007E42
:10067000000001E0007F0FF800000003C000FE0052
:100680000001E000FFEFF800000003C000FE0000E2
:1006900001E000FFFFF800000003C000F0000000D0
:1006A0000F007FFE7FC0000003C000F00000000FBD
:1006B000003FFE7FF83FF1FBCFFCFEF3BC3DEFE0D7
:1006C0001FFE7FFF7FFBFFDFFEFEFFBC3DEFE01F55
:1006D000C6FFFF7FFBFFDFFEFEFFBC3DEFE00FE349
:1006E000C7FE787BC3DE1EF0FFBC3DEF0007FF872F
:1006F000FC787BC3DE1EF0F83C3DEF0001FFFFF00D
:10070000007BC3C01EF0F03C3DEF0001F37FE03FF3
:10071000FBC3CFFEF0F03C3DEF0003E33F807FFBE7
:10072000C3DFFEF0F03C3DEF0007E73C00787BC301
:10073000DE1EF0F03C3DEF0007FFBE00787BC3DE1D
:100740001EF0F03C3DEF0007FFFE00787BC3DE1E8D
:10075000F0F03C3DEF000FFFFE007FFBFFDFFEF0FF
:10076000F03FFDEFE00FFFFF007FFBFFDFFEF0F04B
:100770003FFDEFE00FF9FF003E79F9CF9EF0F01F4B
:100780003DE7E01FF1FF0000000000000000000056
:1007900000001F80FF007FFFFFFFFFFFFFFFFFFF45
:1007A000E01C007F007FFFFFFFFEB46D888D18E026
:1007B00000001F007FFFFFFFFE95AD7DB577E000D5
:1007C000000F007FFFFFFFFEA5AD9D8D19E000002B
:1007D00006007FFFFFFFFEB5ADEDB57EE000000037
:1007E0000000018000000000000000000003800005
:1007F000000000000000000007C000000000000032
:1008000000000007C00000000000000000000FC052
:100810000000000000000000001FE00000000000D9
:10082000000000001FE00000000000000000003F8A
:10083000E00000000000000000003FF000000000A9
:1008400000000000007FF0000000000000001FF822
:100850007FF0000000000000003FFE7FF00000007D
:10086000000000003FFF7FF0000000000000001FBC
:10087000FFFBE0000000000000000FFFF9FFC000D8
:1008800000000000000FFFF9FFF80000000000006A
:1008900007FFF1FFFF00000000000003FC73FFFFF3
:1008A00080000000000001FE3FFFFF80000000000C
:1008B0000000FF1E0FFF000000000000007FFE1F71
:1008C000FC000000000000003FFFFFF800000000F7
:1008D0000000000FDFFFE0000000000000001F1913
:1008E000FFC0000000000000003F3CFF00000000CF
:1008F000000000007E7CF800000000000000007F87
:10090000FE7C0000000000000000FFFFFC00000073
:100910000000000000FFFFFE0000000000000000DB
:10092000FFFFFE0000000000000001FFEFFE0000DE
:10093000000000000001FFCFFE00000000000000EA
:1009400003FF07FE0000000000000003FC07FE009C
:1009500000000000000003F003FE000000000000A3
:1009600000018000FE000000000000000000007E8A
:10097000000000000000000000003E000000000039
:1009800000000000000C000000000000078000FCD8
:10099000000003C0000000078001FC000003C0004D
:1009A0000000078001FC000003C000000007800178
:1009B000E00000001E000000078001E00000001EB3
:1009C000007FE3F79FF9FDE7787BDFC0FFF7FFBF0C
:1009D000FDFDFF787BDFC0FFF7FFBFFDFDFF787BEC
:1009E000DFC0F0F787BC3DE1FF787BDE00F0F787E2
:1009F000BC3DE1F0787BDE0000F787803DE1E078E8
:100A00007BDE007FF7879FFDE1E0787BDE00FFF76C
:100A100087BFFDE1E0787BDE00F0F787BC3DE1E0D9
:100A2000787BDE00F0F787BC3DE1E0787BDE00F00C
:100A3000F787BC3DE1E0787BDE00FFF7FFBFFDE11B
:100A4000E07FFBDFC0FFF7FFBFFDE1E07FFBDFC022
:100A50007CF3F39F3DE1E03E7BCFC000000000004F
:100A6000000000000000FFFFFFFFFFFFFFFFFFFF90
:100A7000C0FFFFFFFFFD68DB111A31C0FFFFFFFF62
:100A8000FD2B5AFB6AEFC0FFFFFFFFFD4B5B3B1ADC
:100A900033C0FFFFFFFFFD6B5BDB6AFDC0E006308C
:100AA0000C3F00FC00E006300C7181FE00E00E30CF
:100AB0000C60C30300E00E300CC0620300A00A30DB
:100AC0000CC0620100B00A300CC0660180B00A3070
:100AD0000CC0660180901A300CC006018090123064
:100AE0000CC00601809812300C60060180983230EC
:100AF0000C700601809832300C1806018088323064
:100B00000C0E0601808C22300C070601808C6230AE
:100B10000C038601808C62300C00C6018084623038
:100B20000C00C601808442300C0066018086423091
:100B30000CC066018086C2300CC066018082C23063
:100B40001CC06601008282301CC0620100838218D2
:100B500018C0C3030083821C3061C1FE0083820F72
:100B6000E03F80FC000000000000000000000000EA
:100B70000000000000000000000000000007FE0F61
:100B80008402201000002010840220100000202089
:100B900044042010000020204408201000002040C1
:100BA00024002010000020402410201000002040CD
:100BB000242020100000204024202010000020408D
:100BC00024402010000020402480201000002040FD
:100BD00024802010000020402580201000002040AC
:100BE00026C0201000002040264020100000204099
:100BF000242020100000204024102010000020405D
:100C00002410201000002040240820100000202084
:100C10004408303000002020440410200000202030
:100C2000440210200000201F84020FC000000000BA
:100C300001C00000000000000000000000000000F3
:100C400003E000003FFCF000000000000000000096
:100C500003F000003FFCF000000000000000000076
:100C600003F800003FFC000000000000000000004E
:100C700001FC000003C0F3DE700F83DC0000000005
:100C800000FE000003C0F3FFF83FE3FC000000009B
:100C9000007F000003C0F3FFFC3FE3F8000000000A
:100CA000003F800003C0F3CF3C78F3E00000007FFA
:100CB000801FC00003C0F3CF3C7FF3C0000003FFE0
:100CC000F01FE00003C0F3CF3C7FF3C000000FFF34
:100CD000FC3FF00003C0F3CF3C7803C000003FFFAF
:100CE000FF7FF80003C0F3CF3C7CF3C000007FFF20
:100CF000FFFFFC0003C0F3CF3C3FE3C00000FF84D4
:100D00007FFCFE0003C0F3CF3C3FE3C00003FE04C2
:100D10001FF87F0003C0F3CF3C0F83C00003F8042B
:100D200007F83F0000000000000000000007F0008E
:100D300001F81F000000000000000000000FC000CC
:100D400000FC0E000000000000000000001FC000BA
:100D5000007E00000000000000000000001FA00056
:100D600000FE00000000000000000000003F100036
:100D7000013F00000000000000000000003E0800ED
:100D8000001F00000000000000000000007E0400C2
:100D9000001F80000000000000000000007C000038
:100DA000000F80000000000000000000007C000038
:100DB000000F80000000000000000000007C000028
:100DC000000F8000000000000000000000FC000098
:100DD0000007C000000000000000000000F8000054
:100DE0000007C000000000000000000000F8003C08
:100DF0000027C000000000000000000000F8003CD8
:100E00000037C000000000000000000000FF003FAD
:100E1000FFFFE000000000000000000000F8003CC0
:100E20000037C000000000000000000000F8003C97
:100E30000027C000000000000000000000F80000D3
:100E40000007C000000000000000000000F80000E3
:100E50000007C0000000000000000000007C00004F
:100E6000000F80000000000000000000007C000077
:100E7000000F80000000000000000000007C000067
:100E8000000F80000000000000000000007E000055
:100E9000001F80000000000000000000003E000075
:100EA000021F00000000000000000000003F0800DA
:100EB000013F00000000000000000000001F900043
:100EC00000FE00000000000000000000001FA00065
:100ED000007E00000000000000000000000FC000C5
:100EE00000FC003000000000000000000007F000DF
:100EF00001F800380001FFF0000000000007F804CE
:100F000007F8003E0001FFF0000000000003FE04AF
:100F10001FF0003F0001FFF000E007038001FF84A5
:100F20007FE0003FC001FFF001F00F87C0007FFFAE
:100F3000FFC0003FE001FFF003B81DCEE0003FFF1F
:100F4000FF00003FF001FFF003BB9DCEE0000FFF6C
:100F5000FE00003FF801FFF003BB9DCEE00003FF61
:100F6000F800003FFC01FFF003BB9DCEE00000FF56
:100F7000C000003FFC01FFF003B81DCEE000000000
:100F80000000003FF801FFF003BB9DCEE000000031
:100F90000000003FF001FFF001F38F87C000000068
:100FA0000000003FE001FFF001F38F87C000000068
:100FB0000000003F8001FFF000E007038000000018
:100FC0000000003F0001FFF00000000000000000F2
:100FD0000000003E000000000000000000000000D3
:100FE0000000003800000000000000000001FFC009
:100FF000000000000000000000000001FFC0000031
:1010000000000000000000000001FFC00000000020
:101010000000000000000001FFC000000000000010
:10102000000000000001FFC0000000000000000000
:1010300000000001FFC000000000000000000000F0
:10104000007FFFFF00000000000000000000007FA4
:10105000FFFF00000000000000000000007FFFFF15
:1010600000000F00000000000000007FFFFF0000F4
:101070001F00000000000000007FFFFF00003F0095
:10108000000000000000007C001F00007E00000047
:1010900000000000007C001F0000FC0000000000B9
:1010A0000000007C001F0001F800E038F0C00000E4
:1010B000007C001F0003F000F038F3C00000007C4B
:1010C000001F0007E000F83803C00000007C001F8C
:1010D000000FE000F838F7F3DC7C007C001F001FF5
:1010E000C000FC38F7F3FCFF007C001F003F8000CD
:1010F000FE38F7F3F9FF007C001F007F0000FF3887
:10110000F3C3E3EF807C001F00FFFF00F738F3C359
:10111000C3C7807C001F01FFFF00F3B8F3C3C3C740
:10112000807C001F01FFFF00F1F8F3C3C3C7807C80
:10113000001F01FFFE00F0F8F3C3C3EF807C001F27
:1011400000FFFC00F0F8F3F3C1FF007C001F00017A
:10115000FC00F078F3F3C0FE007C001F0003F800F1
:10116000F038F1F3C07C007C001F0003F0000000A9
:1011700000000000007C001F0007E00000000000ED
:101180000000007C001F000FC000000000000000F5
:10119000007C001F001FC000000000000000007C59
:1011A000001F023F8000000000000000007C001FC4
:1011B000037F0000000000000000007C001F03FE11
:1011C0000000000000000000007C001F03FC000085
:1011D000000000000000007C001F03FC0000000075
:1011E00000000000007C001F03F800000000000069
:1011F0000000007FFFFF03F8000000000000000077
:10120000007FFFFF03FC0000000000000000007FE3
:10121000FFFF03FE0000000000000000007FFFFF52
:1012200000000000000000000000007FFFFF000041
:101230000000000000000000001415161718191A0D
:101240001B1C1D1E1F202122232425262728292A76
:101250002B2C2D2E2F303132333435363738393A66
:101260003B3C3D3E3F404142434445464748494A56
:101270004B4C4D4E4F505152535455565758595A46
:101280005B5C5D5E5F606162636465666768696A36
:101290006B6C6D6E6F707172737475767778797A26
:1012A0007B7C7D7E7F808182838485868788898A16
:1012B0008B8C8D8E8F909192939495969798999A06
:1012C0009B9C9D9E9FA0C8A8681898D838780484D5
:1012D000C4A4E4945434B4F48CCCACEC1C5CDCBCFE
:1012E0007C0282C22262E2925232B2F20A4ACAAA54
:1012F0006A1A9ADA3A7AFA864626A6E61656D6B6D2
:10130000760E8ECE2E6EEE9E5E3EBEFE8141C1A159
:10131000611191D13171F1894929A9E91959D9B9D5
:10132000790585C52565E5955535B5F50D4DCDADE9
:101330006D1D9DDD3D7DFD834323A3E3139353D3B7
:1013400033B373F38B4BCB2BAB6BEB9B5BDB7BFB3D
:101350000787C700007FFFFFFFC0000000000000FC
:101360000000000000FFFFFFFFE0000000000000A1
:101370000000000001FFFFFFFFF0000000F8633EE7
:101380007C00000001FFFFFFFFF0000001FC633E56
:101390007E00000003FFFFFFFFF80000038E6330B4
:1013A0006600000003E0000000F800000306363E7F
:1013B0006600000007E0000000FC00000306363E67
:1013C0007E00000007C00000007E000003063630EB
:1013D0007C0000000FC00000007E0000038E1C3067
:1013E0006C0000001F800000003F000001FC1C3E5C
:1013F000660000001F800000003F000000F81C3E57
:10140000660000003F000000001F80000000000098
:10141000000000003F000000000F800000000000FE
:10142000000000007E000000000FC000000000006F
:10143000000000007C0000000007C003C333E3E3AA
:10144000E61BF000FC0000000007E007F333F3F3B5
:10145000E71BF000F80000000003E00E23333333F5
:101460000798C001F80000000003F00C0333333389
:10147000E798C001F00000000001F00C0333F3F323
:10148000E6D8C003F00000000001F80C0333E3E3EA
:101490000678C003E0F0FF8703F0F80E23336363A0
:1014A0000678C007E0F8FF9F83F8FC07F3F33333B7
:1014B000E638C007C3FCFFBFC3F87E03C1E3333384
:1014C000E618C00FC39E1839C39C7E0000000000C0
:1014D0000000001F839E1879E39C3F00000000007D
:1014E0000000001F839E1879E39C3F00000000006D
:1014F0000000003F03801879E39C1F80000000007B
:101500000000003F03801879E39C0F80000000007A
:101510000000007E01801879E39C0FC000000700E6
:101520000000007C01F01879E3FC07C000000F8088
:10153000000000FC00FC1879E3F807E000000F80D1
:10154000000000F800FC1879E3F003E000000F80D1
:10155000000000FC001E1879E38007E000000F8007
:101560000000007C001E1879E38007C000000F8097
:101570000000007E001E1879E3800FC000000F807D
:101580000000003E031E1879E3800F8000000F80EA
:101590000000003F031E1839E3801F8000000F8009
:1015A0000000001F839E183DC3801F0000000F80B5
:1015B0000000001F81FC183FC3803F0000000F8027
:1015C0000000000FC0FC181F83807E0000000F8009
:1015D0000000000FC000000000007E0000000F802F
:1015E00000000007E00000000000FC0000000F8089
:1015F00000000003E00000000000FC0000000F807D
:1016000000000003F00000000001F80000000F805F
:1016100000000001F00000000001F00000000F8059
:1016200000000001F80000000003F00000000F803F
:1016300000000000F80000000003E00000000F8040
:1016400000000000FC0000000007E00000000F8028
:10165000000000007C0000000007C00000000F80B8
:10166000000000007E000000000FC00000000F809E
:10167000000000003F000000000F80000000070095
:10168000000000003F000000001F8000000000007C
:10169000000000001F800000003F0000000000006C
:1016A000000000001F800000003F0000000000005C
:1016B000000000000FC00000007E000000000700D6
:1016C0000000000007C00000007E000000000F8046
:1016D0000000000007E0000000FC000000001FC048
:1016E0000000000003E0000000F8000000001FC040
:1016F0000000000003FFFFFFFFF8000000000F8064
:101700000000000001FFFFFFFFF0000000000700E5
:101710000000000001FFFFFFFFF0000000000000DC
:101720000000000000FFFFFFFFE0000000000000DD
:1017300000000000007FFFFFFFC00000000000006D
:101740000000002200FF2100B821D53011241FBE67
:10175000CFEFD8E0DEBFCDBF11E0A0E0B1E0E2E224
:10176000FDE602C005900D92A03DB107D9F723E038
:10177000A0EDB1E001C01D92A035B207E1F71BE07A
:10178000C5EADBE004C02197FE010E947532C43A2D
:10179000D107C9F70E94F2210C9484360C94000002
:1017A000089508950895AF92BF92CF92DF92EF927D
:1017B000FF920F931F93CF93DF936C017B018B01FB
:1017C000040F151FEB015E01AE18BF08C017D1074B
:1017D00059F06991D601ED91FC910190F081E02DD5
:1017E000C6010995892B79F7C501DF91CF911F912A
:1017F0000F91FF90EF90DF90CF90BF90AF90089542
:10180000833081F028F4813099F08230A9F0089576
:101810008730A9F08830C9F08430B1F4809180001D
:101820008F7D03C0809180008F7780938000089522
:1018300084B58F7784BD089584B58F7DFBCF80916B
:10184000B0008F778093B00008958091B0008F7DB5
:10185000F9CFCF93DF93282F30E0F901E556FA4F07
:101860008491F901E553FA4FD491F901E751FA4F08
:10187000C491CC23A1F081110E94000CEC2FF0E068
:10188000EE0FFF1FEF56FA4FA591B491EC91ED23A7
:1018900081E090E009F480E0DF91CF91089580E04D
:1018A00090E0FACF1F93CF93DF93282F30E0F90118
:1018B000E556FA4F8491F901E553FA4FD491F901B5
:1018C000E751FA4FC491CC23A9F0162F81110E9441
:1018D000000CEC2FF0E0EE0FFF1FE152FA4FA59144
:1018E000B4918FB7F894EC91111108C0D095DE2314
:1018F000DC938FBFDF91CF911F910895DE2BF8CF3E
:10190000CF93DF9390E0FC01E553FA4F2491875188
:101910009A4FFC0184918823D1F090E0880F991FA1
:10192000FC01E155FA4FA591B491FC01E152FA4F47
:10193000C591D49161110EC09FB7F8948C91E22F9C
:10194000E0958E238C932881E223E8839FBFDF916B
:10195000CF9108958FB7F894EC91E22BEC938FBF61
:10196000F6CF8E3008F08E508770806480937C00B4
:1019700080917A00806480937A0080917A0086FD5D
:10198000FCCF809178009091790008953FB7F8944A
:101990008091850290918602A0918702B091880281
:1019A00026B5A89B05C02F3F19F00196A11DB11DBA
:1019B0003FBFBA2FA92F982F8827BC01CD01620FF6
:1019C000711D811D911D42E0660F771F881F991FB1
:1019D0004A95D1F708958F929F92AF92BF92CF927E
:1019E000DF92EF92FF926B017C010E94C60C4B01CB
:1019F0005C01C114D104E104F104B9F00E94C60CE9
:101A0000681979098A099B09683E73408105910527
:101A100080F321E0C21AD108E108F10888EE880EAF
:101A200083E0981EA11CB11CE4CFFF90EF90DF90E3
:101A3000CF90BF90AF909F908F9008952FB7F8945C
:101A40006091810270918202809183029091840260
:101A50002FBF0895EF92FF920F931F93CF93DF93C1
:101A6000EC01EC80FD806E157F050CF070C057FF17
:101A700004C0240F351F50E040E08E819F81FA01A1
:101A8000E20FF31F8E179F071CF49C01241B350BDC
:101A9000121613060CF05BC0922F842F8695869544
:101AA00086958E9DD0018F9DB00D11246A0F7B1FEE
:101AB000AF8DB8A1A60FB71F477049F188E0841B0E
:101AC000482F682F70E0FB01E757FA4FE491281781
:101AD00008F063C0621B71092FEF30E002C035953A
:101AE00027956A95E2F7E2230130110539F0B0F14C
:101AF0000230110561F58C91E82702C08C91E82B2A
:101B0000EC93941720F12C813D81A20FB31FE92F94
:101B1000E41BE83078F00230110521F58E2F9C91FE
:101B200090959C932C813D81A20FB31F88508830E3
:101B3000B0F7E770EE2359F0F0E0EF57FA4FE49179
:101B400001301105F9F010F10230110519F1DF91A2
:101B5000CF911F910F91FF90EF900895E0958C9198
:101B6000E823CECF81E00115110509F480E08195CD
:101B70009E2F8C932C813D81A20FB31F98509830DB
:101B8000C0F7D7CF8C91E82BEC93E1CFE0958C9107
:101B9000E823FACF8C91E827F7CF0130110509F43B
:101BA000ADCFE0F20230110509F4A5CFAE0DBF1D97
:101BB000AECF0F931F93CF93DF9377FF04C0260F11
:101BC000371F70E060E0DC011496CD91DC91FB01E1
:101BD000E20FF31FCE17DF071CF49E01261B370B05
:101BE000121613064CF5FA0157FD3796A3E0F5954A
:101BF000E795AA95E1F7EC9FD001ED9FB00DFC9F12
:101C0000B00D11246A0F7B1FDC015F96ED91FC91F2
:101C1000E60FF71F4770552781E090E001C0880F5D
:101C20004A95EAF7482F0130110559F0A8F02E0F18
:101C30003F1F02301105E1F0DF91CF911F910F910D
:101C400008952E0F3F1FE217F307B1F38191DF01D3
:101C50001197842B8C93F7CF80952E0F3F1FE2179F
:101C6000F30751F39191DF01119798239C93F7CFDC
:101C7000E217F30709F38191DF01119784278C9311
:101C8000F7CF0F931F93FA01DC0156964C915697AC
:101C90004230E9F04330A1F1413061F514964D91A5
:101CA0005C91DA01AE1BBF0BFD01E21BF30B77FD6C
:101CB0000BC0DC0116964D915C916417750724F4F6
:101CC000AB01BF010E94D90D1F910F910895149689
:101CD0004D915C91DA01A61BB70BBD0161507109F2
:101CE000DC0116964D915C91DA01AE1BBF0BFD0134
:101CF000E21BF30B77FDE8CFAF010E942A0DE4CF82
:101D000016964D915C91DA01A61BB70BBD0161508F
:101D10007109CDCF0F931F93FA01DC0156964C91B8
:101D200056974230A9F0433091F1413019F514969D
:101D30004D915C91DA01AE1BBF0BFD013197F7FDB0
:101D400004C0AB01BF010E942A0D1F910F9108959D
:101D500014964D915C91DA01A61BB70BBD01DC0115
:101D600016964D915C91DA01AE1BBF0BFD013197C8
:101D7000621B730BF7FDE9CFDC0116964D915C9168
:101D8000E417F50714F7AF010E94D90DDECF1696C0
:101D90004D915C91DA01A61BB70BBD01621B730B61
:101DA000CECFFC0177FD64C08085918568177907E7
:101DB0000CF05EC057FD5CC08285938548175907BB
:101DC0000CF056C086898230B1F0833029F1813021
:101DD00041F484819581841B950BAB01BC0161505A
:101DE00071092130310509F108F443C02230310571
:101DF00009F463C0089584819581DC01A61BB70BAB
:101E0000BD016150710986819781DC01A41BB50B6E
:101E1000AD0141505109E5CF86819781861B970B13
:101E2000BA01AC0141505109DCCFCA0157FD0796F8
:101E3000A3E095958795AA95E1F7A481B5818A9F3E
:101E400090018B9F300D9A9F300D1124620F731FEC
:101E5000078CF0A1E02DE60FF71F4770552721E012
:101E600030E001C0220F4A95EAF78081822B8083FF
:101E70000895CA0157FD079633E0959587953A95E1
:101E8000E1F7A481B5818A9F90018B9F300D9A9FC5
:101E9000300D1124620F731F078CF0A1E02DE60FA7
:101EA000F71F4770552781E090E001C0880F4A95E1
:101EB000EAF7809590818923DACFCA0157FD07960A
:101EC00023E0959587952A95E1F7A481B5818A9FAE
:101ED00090018B9F300D9A9F300D1124620F731F5C
:101EE000078CF0A1E02DE60FF71F4770552721E082
:101EF00030E001C0220F4A95EAF780818227B7CFF0
:101F000008958EBD00000DB407FEFDCF8EB5089577
:101F10008CBD9DBD08950895FC016370668B84811E
:101F2000958126813781613039F0633029F09187BE
:101F30008087338722870895318720879387828718
:101F400008952F923F924F925F926F927F928F925D
:101F50009F92AF92BF92CF92DF92EF92FF920F9338
:101F60001F93CF93DF93CDB7DEB76A970FB6F89480
:101F7000DEBF0FBECDBF9A8F898F7A8369834A01F6
:101F8000D22E18870F833701BC2CDC0159962D9176
:101F90003C915A972115310509F015C118968D917C
:101FA0009C911997681779070CF0D7C11A968D91F3
:101FB0009C91481759070CF0D0C14C2C512CB6E01D
:101FC000CB9E600D711D11247C876B87161617063A
:101FD0000CF0C3C1EA2DF0E0FA87E98793E0EE0F39
:101FE000FF1F9A95E1F7F88BEF87CF01840F951FBC
:101FF000181619060CF0B1C1A98DBA8D58968C919E
:10200000811104C0BFEABD1508F4D394A98DBA8D1F
:10201000ED91FC9111970284F385E02DCD01099596
:10202000B5E0DB9EC0011124E981FA81FC83EB83DA
:10203000312C212C9C012F573F4F388F2F8B4A2D4D
:1020400050E05E8B4D8BEF89F88DE20DF31D4491CE
:102050009E828D82D12CC12C69817A81620D731D83
:102060007A8B698B842F90E09C8B8B8BE98DFA8D1A
:10207000A081B18140FF82C0F1E0BF126FC0AF12FA
:102080006DC01C96ED91FC912F813885A4014C0DFB
:102090005D1D69897A89898D9A8D0995EB89FC89FD
:1020A000F595E7954E2F5FEFC51AD50A6D817E81B4
:1020B0008D899E89680F791F7E836D8398E0C9168C
:1020C000D10481F6AFEF2A1A3A0AEB81FC81E40DC4
:1020D000F51DFC83EB83F5E02F16310409F0B3CF37
:1020E0002F81388526153705B9F0A98DBA8DED9168
:1020F000FC91B1E0BB1257C0AB1255C069817A8127
:102100006B5F7F4F0088F189E02D830128E030E08C
:10211000A401898D9A8D0995A98DBA8DED91FC91B7
:1021200011970688F789E02DCD016A960FB6F894CD
:10213000DEBF0FBECDBFDF91CF911F910F91FF90FA
:10214000EF90DF90CF90BF90AF909F908F907F9057
:102150006F905F904F903F902F9009941E96ED9155
:10216000FC91EF80F88409851A8592014D815E818A
:102170006B817C81898D9A8D099590CF2F813885CF
:102180002615370509F48ACF31E0B31207C0A31230
:1021900005C01C96ED91FC91930178CF1E96ED91B0
:1021A000FC917301E0CF6B857C8564197509068409
:1021B000F785E02D73010F8518899201A401898D9F
:1021C0009A8D0995A9CFF90134969491329745914A
:1021D0005491D91AB7E0DB9E400D511D1124F9012D
:1021E000259134913C8B2B8BFA0125903490FA0188
:1021F0003296749031963491398B32966490319640
:10220000449041E04C1518F04A1508F07FC0662D47
:10221000062C000C770B7C836B83842D042C000C24
:10222000990B9E838D83A98DBA8DED91FC911197A9
:102230000284F385E02DCD010995512CD12CC12CC0
:10224000EA2DF0E0FA87E9872B2D30E03C872B87D9
:10225000A401440D511D47FC5A95588F4F8B69813D
:102260007A81660D711D67FC7A957E876D87798905
:10227000C71608F051CF2C2D30E04D815E81420F02
:10228000531FA985BA854A9FC0014B9F900D5A9F45
:10229000900D1124FC01E80DF91DF88BEF87852DB9
:1022A000612C4F89588D420F531F5E8B4D8B6714E5
:1022B00008F050C044244394480E877041F4C10193
:1022C0000196EB89FC89E20DF31DD4901C01D7FE29
:1022D00019C0A98DBA8DED91FC91662D70E0B1E029
:1022E000BB1219C0AB1217C02D853E85620F731F3C
:1022F0000484F585E02D2F8138854D895E89898D8F
:102300009A8D0995DD0C6394842DD1CF1E821D8298
:102310001C821B8288CF4B815C81640F751FAB854B
:10232000BC856A9FC0016B9F900D7A9F900D112410
:1023300069817A81680F791F0684F785E02DEF8027
:10234000F88409851A859D014F855889898D9A8D54
:102350000995D8CF570CC3948ACF6A960FB6F894D4
:10236000DEBF0FBECDBFDF91CF911F910F91FF90C8
:10237000EF90DF90CF90BF90AF909F908F907F9025
:102380006F905F904F903F902F9008958F929F9203
:10239000AF92CF92EF92FF920F931F93CF93DF9361
:1023A000EC01262F898D9A8D0097B1F56A30D1F412
:1023B0001D861C868D8998E0899F900111248E8549
:1023C0009F85820F931F9F878E8781E090E0DF912A
:1023D000CF911F910F91FF90EF90CF90AF909F9072
:1023E0008F9008956D3089F3EA88FB8808891989F0
:1023F0004E855F856C857D85AD88CC88CE010E9439
:10240000A10F2C898C859D8536E0239F800D911D21
:1024100011249D878C87D9CF6A3069F41D861C866C
:10242000FC013896E4912D898E859F85E29F800D71
:10243000911D1124C8CF6D3041F2FC0134963491C6
:10244000631708F4C2CF3296E491E61708F4BDCFC3
:10245000FC01329685909490862F831B97E0899F8C
:10246000800C911C1124F401329684913196E491F0
:10247000882391F0EE2381F0F4013596E491EA8807
:10248000FB88088919894E855F856C857D85AD88B7
:10249000CC88CE010E94A10FF4013496E4912C89DE
:1024A0008C859D85E29F800D911D1124B2CF6F9286
:1024B0007F928F929F92AF92BF92CF92DF92EF92D4
:1024C000FF920F931F93CF93DF93EC016B015A019F
:1024D00039014801E881F9810284F385E02D0995ED
:1024E000E881F9810288F389E02D87019301A50134
:1024F000B601CE010995A501480D591D415051095C
:10250000E881F9810288F389E02D9301B601CE01BB
:102510000995E881F9810088F189E02D9401A501F0
:10252000B601CE010995C60CD71CB60161507109E0
:10253000E881F9810088F189E02D9401A501CE019F
:102540000995E881F9810688F789E02DCE01DF91B0
:10255000CF911F910F91FF90EF90DF90CF90BF90A0
:10256000AF909F908F907F906F9009946F927F9221
:102570008F929F92AF92BF92CF92DF92EF92FF9293
:102580000F931F93CF93DF935C01EB016A01490125
:1025900038018701DC01ED91FC916217730719F591
:1025A000641675062CF0962D872D3A01C92ED82E6B
:1025B0009601261937092F5F3F4F048CF58DE02DCA
:1025C000A301BE01C5010995DF91CF911F910F9124
:1025D000FF90EF90DF90CF90BF90AF909F908F9043
:1025E0007F906F9008954615570591F42617370789
:1025F00024F0892D4B01C22FD82F9E0128193909AB
:102600002F5F3F4F068CF78DE02DA601B401DACF86
:102610000284F385E02D0995D501ED91FC910488A4
:10262000F589E02D83019401A601BE01C50109953C
:10263000D501ED91FC910688F789E02DC501DF9168
:10264000CF911F910F91FF90EF90DF90CF90BF90AF
:10265000AF909F908F907F906F900994EF92FF9230
:102660000F931F93DC011A960D911C911B971896DE
:102670002D913C911997ED91FC9100A0F1A1E02DD5
:102680007B0150E040E070E060E009951F910F9100
:10269000FF90EF9008954F925F926F927F928F928A
:1026A0009F92AF92BF92CF92DF92EF92FF920F93E1
:1026B0001F93CF93DF936C012B015A01390148011D
:1026C000DC01ED91FC910284F385E02D0995E20196
:1026D000640C751CD601ED91FC91C615D7055CF410
:1026E0000088F189E02D87019401A501BE01C60192
:1026F00009952196EFCF0688F789E02DC601DF9175
:10270000CF911F910F91FF90EF90DF90CF90BF90EE
:10271000AF909F908F907F906F905F904F900994B3
:102720008F929F92AF92BF92CF92DF92EF92FF92E1
:102730000F931F93CF93DF93EC015B014A01690173
:10274000E881F9810284F385E02D099595012C0D2E
:102750003D1D21503109E881F9810488F589E02D7A
:1027600078018401A401B501CE010995E881F981C0
:102770000688F789E02DCE01DF91CF911F910F914F
:10278000FF90EF90DF90CF90BF90AF909F908F9091
:1027900009948F929F92AF92BF92CF92DF92EF9265
:1027A000FF920F931F93CF93DF93EC015B014A01DC
:1027B00069017801E881F9810284F385E02D0995AA
:1027C000C80CD91C860101501109E881F9810488DF
:1027D000F589E02D9501A401B501CE010995E881A7
:1027E000F9810688F789E02DCE01DF91CF911F9105
:1027F0000F91FF90EF90DF90CF90BF90AF909F90A0
:102800008F900994EF92FF920F931F93DC01ED914B
:10281000FC9100A0F1A1E02D09951F910F91FF906F
:10282000EF9008950F931F93DC01ED91FC91068CBE
:10283000F78DE02D09951F910F9108950F931F9328
:10284000DC01ED91FC91048CF58DE02D09951F9133
:102850000F9108952F923F924F925F926F927F92C5
:102860008F929F92AF92BF92CF92DF92EF92FF92A0
:102870000F931F93CF93DF9300D000D0CDB7DEB777
:102880006C0101E010E029E030E043E350E0BC01DE
:102890008CE093E00E941E1454E0452E512C22241B
:1028A0002394312CF12CE12C84E090E09C838B83E9
:1028B00088EF9FEF9A8389837DEF672E77247A9440
:1028C0009FEFE91AF90A82E0280E311C620C731C92
:1028D0008B819C818E159F050CF457C04C01880C90
:1028E000991C9FEF891A990A01E010E0940147E3CF
:1028F000A42EB12C8B819C81A81AB90AA501B7011D
:102900006C0D7D1D8CE093E00E941E149401A501C6
:10291000B6016E197F098CE093E00E941E148B8132
:102920009C8184159505F9F0B601640D751D01E0D3
:1029300010E0410192E0891A9108940188E3A82EE1
:10294000B12CAE18BF08A5018CE093E00E941E14C4
:10295000B601641975099401A5018CE093E00E9409
:102960001E144B805C808B819C81E816F90694F4E0
:1029700077FCA6CF01979C838B8389819A810296ED
:102980009A838983680E791E9BCF8B819C818415E5
:10299000950551F60F900F900F900F90DF91CF910A
:1029A0001F910F91FF90EF90DF90CF90BF90AF906D
:1029B0009F908F907F906F905F904F903F902F905F
:1029C0000895DC01ED91FC910084F185E02D0994DE
:1029D0003F924F925F926F927F928F929F92AF92AF
:1029E000BF92CF92DF92EF92FF920F931F93CF93FC
:1029F000DF9300D000D0CDB7DEB75C013B016A01A8
:102A00004901280187E0480E511C93E055944794F2
:102A10009A95E1F7CA018E0D9F1D9A838983F12C47
:102A2000E12C312C1C821B828B819C818770992721
:102A3000330C892B61F4EB81FC8183E0F595E795FC
:102A40008A95E1F7EE0DFF1DE80DF91D349037FE74
:102A50000AC021E030E0A6016B817C81660D771D04
:102A6000C5010E94E1148B819C8101969C838B831C
:102A700008171907C9F69FEFC91AD90AE40CF51C03
:102A800089819A81C816D90669F60F900F900F9028
:102A90000F90DF91CF911F910F91FF90EF90DF90FA
:102AA000CF90BF90AF909F908F907F906F905F90EE
:102AB0004F903F9008952F923F924F925F926F9266
:102AC0007F928F929F92AF92BF92CF92DF92EF92BE
:102AD000FF920F931F93CF93DF937C016B01EA0169
:102AE00081E090E05C01A41AB50A66247724641A98
:102AF000750A660C771C10E000E088248394912C02
:102B0000822F8470582E822F8270482E822F8870D8
:102B1000382E2170222E0C171D070CF079C0B7FC3F
:102B200006C0219782E0680E711CA60CB71C0F5FCF
:102B30001F4F82E0880E911CA80CB91C5520C1F0D3
:102B400021E030E0AE014C0D5D1DB701600F711F3B
:102B50008CE093E00E94E11421E030E0A601400FF8
:102B6000511FBE016E0D7F1D8CE093E00E94E114A9
:102B70004420C1F021E030E0A6014C1B5D0BB70101
:102B8000600F711F8CE093E00E94E11421E030E0BF
:102B9000A601401B510BBE016E0D7F1D8CE093E022
:102BA0000E94E1143320C1F021E030E0A601400F83
:102BB000511FB7016C1B7D0B8CE093E00E94E11468
:102BC00021E030E0AE014C0D5D1DB701601B710BC3
:102BD0008CE093E00E94E114222009F49CCF21E0D4
:102BE00030E0A601401B510BB7016C1B7D0B8CE044
:102BF00093E00E94E11421E030E0A6014C1B5D0B44
:102C0000B701601B710B8CE093E00E94E11483CF4D
:102C1000DF91CF911F910F91FF90EF90DF90CF90B8
:102C2000BF90AF909F908F907F906F905F904F90EC
:102C30003F902F9008952F923F924F925F926F9204
:102C40007F928F929F92AF92BF92CF92DF92EF923C
:102C5000FF920F931F93CF93DF9300D000D0CDB797
:102C6000DEB72C013B011A0179011C830B8358014B
:102C7000AA0CBB1C4A018A189B086801C40CD51C0D
:102C800001E010E09401AB01B6018CE093E00E94FA
:102C90001214C701860D971D9A838983AC01415098
:102CA00051099401B6018CE093E00E941214EA18D5
:102CB000FB088B819C81680E791E9701A301B201EC
:102CC0008CE093E00E941E14420C531CB201615030
:102CD00071099701A3018CE093E00E941E1421E08A
:102CE0004B815C81B301C6010E945B158B819C8185
:102CF000481A590A91E0491A510822E04B815C8137
:102D0000B301C2010E945B15E980FA808B819C812E
:102D1000E81AF90A91E0E91AF10824E04B815C8194
:102D2000B701C2010E945B1528E04B815C81B701AD
:102D3000C6010F900F900F900F90DF91CF911F91D0
:102D40000F91FF90EF90DF90CF90BF90AF909F904A
:102D50008F907F906F905F904F903F902F900C944A
:102D60005B152F923F924F925F926F927F928F925C
:102D70009F92AF92BF92CF92DF92EF92FF920F930A
:102D80001F93CF93DF9300D000D000D0CDB7DEB734
:102D90003C016A013E832D83FC82EB825801A41A18
:102DA000B50AB7FE03C0B194A194B1088D809E808E
:102DB000861A970A97FE03C09194819491088A1409
:102DC0009B045CF0902F812F0D811E819D838E834B
:102DD0009C2D8D2D6B01692F782F0C151D055CF036
:102DE0009D818E817E836D83692F782F902F812F17
:102DF0008601C92ED82E1601201A310A2B012D81E9
:102E00003E81421A530A57FE03C05194419451081F
:102E1000710137FE03C03FEFE31AF30AF594E7941C
:102E20008D819E81861797075CF5A1E0B0E0BA839B
:102E3000A983C016D1064CF1D301ED91FC91048415
:102E4000F585E02D2B813C81A8016D817E818A145E
:102E50009B041CF04D815E81B801C3010995E41803
:102E6000F508F7FE0AC02D813E8189819A81280FDD
:102E7000391F3E832D83E20CF31C0F5F1F4FD9CF08
:102E80002FEF3FEF3A832983D4CF26960FB6F894DD
:102E9000DEBF0FBECDBFDF91CF911F910F91FF908D
:102EA000EF90DF90CF90BF90AF909F908F907F90EA
:102EB0006F905F904F903F902F90089508952091CC
:102EC0003602260F3327331F21323105ECF42091CF
:102ED0005A02FC0190E080E0243069F082E008951D
:102EE000A09136022191AC014A5E5D4FA40FB52F2F
:102EF000B11D2C930196861798F380913602680FC6
:102F00006093360280E0089581E0089510925A029D
:102F100081E080935C0210925B0261E082E10E949A
:102F2000520C61E083E10E94520CE9EBF0E08081F9
:102F30008E7F808380818D7F808388E48093B8003A
:102F400085E48093BC000895CF93DF9391E0909344
:102F500015028823B9F0C091B800D091BA008091D1
:102F6000BC008A7B8093BC0060E082E10E94520C2E
:102F700060E083E10E94520C0E948617D093BA0051
:102F8000C093B800DF91CF910895E0918F028091B6
:102F90008E02E81730F4F0E0E051FE4F808190E0BF
:102FA00008958FEF9FEF089590918F0280918E0288
:102FB0002FEF3FEF981748F4E92FF0E0E051FE4F74
:102FC000208130E09F5F90938F02C9010895809126
:102FD0008E0290918F02891B990B0895CF92DF92F8
:102FE000EF92FF920F931F93CF93DF937C01CB015E
:102FF0008A0120910B03222389F0EB016B01C40E9F
:10300000D51ECC15DD0569F06991D701ED91FC91D4
:103010000190F081E02DC7010995F3CF642F0E9444
:103020005F17C801DF91CF911F910F91FF90EF9033
:10303000DF90CF900895CF93DF931F92CDB7DEB787
:10304000698320910B032223F9F020910803203299
:1030500058F021E030E0FC013383228390E080E0EF
:103060000F90DF91CF91089580910903E82FF0E050
:10307000E053FE4F998190838F5F80930903809383
:10308000080381E090E0ECCF61E0CE0101960E9460
:103090005F17F7CFCF92DF92EF92FF920F931F93BC
:1030A000CF93DF93D091080381E0D13208F09CC028
:1030B000C0910A030E94C60C6B017C0180915A02E8
:1030C00081116CC082E080935A0281E080935C029F
:1030D0008FEF8093590210927E02D0937D02A0ED73
:1030E000B1E0EDE5F2E080E0D8138DC010927F02F0
:1030F00080917F02CC0FC82BC0937F0280915B022E
:10310000813009F084C010925B020E94C60C6B01F2
:103110007C0180917F028093BB008091110290918D
:103120001202A0911302B0911402892B8A2B8B2BCF
:10313000A1F00E94C60C0091110210911202209180
:103140001302309114026C197D098E099F0906172C
:1031500017072807390708F442C08091BC0083FD97
:10316000D8CF85EC8093BC000E94C60C6B017C011B
:1031700080915A02823009F44CC0809159028F3FED
:1031800009F469C080915902803209F466C08091C7
:103190005902803309F463C084E026C08091110293
:1031A00090911202A0911302B0911402892B8A2BE4
:1031B0008B2B09F483CF0E94C60C00911102109151
:1031C000120220911302309114026C197D098E09AC
:1031D0009F09061717072807390708F06FCF809156
:1031E00010020E94A41785E01092090310920803B0
:1031F00010920B03DF91CF911F910F91FF90EF90F1
:10320000DF90CF9008959D9191938F5F6DCF85EE64
:10321000A9CF8091110290911202A0911302B09156
:103220001402892B8A2B8B2B09F4A2CF0E94C60C87
:103230000091110210911202209113023091140298
:103240006C197D098E099F0906171707280739078A
:1032500008F08ECFC4CF80E0C7CF82E0C5CF83E037
:10326000C3CFEF92FF920F931F93CF93DF937C0115
:10327000C62F8091290390912A03009709F459C021
:1032800020912D0331E030930B0320930A03109219
:10329000090310920803DC01ED91FC910190F0818B
:1032A000E02D60E009958701EE24E394F12CD1E054
:1032B000C1508091290390912A03CF3F91F1B0E250
:1032C000EB16F104D8F00E944A18809129039091DE
:1032D0002A0320912D03D0930B0320930A0310920D
:1032E000090310920803DC01ED91FC910190F0813B
:1032F000E02D60E00995EE24E394F12C8091290300
:1033000090912A03F8016491DC01ED91FC91019008
:10331000F081E02D0995BFEFEB1AFB0A0F5F1F4FFD
:10332000C7CFDF91CF911F910F91FF90EF900C9439
:103330004A18E0913903F0913A03908180913F035C
:103340008095892380838701C15008F438C0F80133
:1033500084912091270330912803232B29F00E9488
:10336000810F0F5F1F4FF0CF28E030E040E8E09181
:103370003503F091360390913D03582F5423D9F033
:103380005081952B9083E0913703F0913803908121
:1033900050913E03952B9083E0913703F0913803D1
:1033A000508190913E0390959523908346952150AE
:1033B0003109E9F6D6CF508190959523E3CFDF917F
:1033C000CF911F910F91FF90EF9008951F93CF938E
:1033D000DF93EC018D8D9E8D009721F1162F29A191
:1033E00031E030930B0320930A03109209031092EB
:1033F0000803DC01ED91FC910190F081E02D60E08B
:1034000009958D8D9E8DDC01ED91FC910190F081EF
:10341000E02D612F09958D8D9E8DDF91CF911F91AC
:103420000C944A18ADA5BEA59C918BA980958923C3
:103430008C938B8D9C8D892B31F0862FDF91CF91D2
:103440001F910C94810F28E030E080E8A9A5BAA56F
:1034500099A9462F4823C1F04C91942B9C93ABA57E
:10346000BCA59C914AA9942B9C93ABA5BCA54C915F
:103470009AA9909594239C9386952150310931F710
:10348000DF91CF911F9108954C9190959423E6CFB1
:10349000DF92EF92FF920F931F93CF93DF93809170
:1034A000290390912A03892B09F498C020914103A4
:1034B00030914203409143035091440360E074E231
:1034C00084EF90E00E943F322051310941095109B7
:1034D00056954795379527952093B80065E083E486
:1034E00097E10E9431196091100361508CE093E0E4
:1034F0000E94E6192091120330911303C901079627
:1035000097FD079633E0959587953A95E1F72091D9
:10351000100330911103829F8001839F100D929FB1
:10352000100D1124C0912B03D0912C0380912903FD
:1035300090912A030C0F1D1F009709F48FC0209152
:103540002D0331E030930B0320930A0310920903FB
:1035500010920803DC01ED91FC910190F081E02DC7
:1035600060E40995EE24E394F12CDD24D39480915A
:10357000290390912A030C171D0709F446C0B0E2F5
:10358000EB16F104D8F00E944A188091290390911B
:103590002A0320912D03D0920B0320930A0310924B
:1035A000090310920803DC01ED91FC910190F08178
:1035B000E02D60E40995EE24E394F12C8091290339
:1035C00090912A036991DC01ED91FC910190F081C9
:1035D000E02D0995BFEFEB1AFB0AC9CF80912703B5
:1035E00090912803892B31F080914A0390914B03ED
:1035F0000E94880FE0913B03F0913C039081809101
:10360000400380958923808369CF0E944A18809166
:10361000290390912A03892B09F461C02091450365
:1036200030914603409147035091480360E074E2B3
:1036300084EF90E00E943F32205131094109510945
:1036400056954795379527952093B800DF91CF91F0
:103650001F910F91FF90EF90DF900895E091390353
:10366000F0913A03808190913F03892B80830C175E
:103670001D0769F289912091270330912803232B9C
:1036800019F00E94810FF3CF28E030E040E8E0918C
:103690003503F091360390913D03582F5423D9F010
:1036A0005081952B9083E0913703F09138039081FE
:1036B00050913E03952B9083E0913703F0913803AE
:1036C000508190913E03909595239083469521508B
:1036D0003109E9F6CCCF508190959523E3CFE09165
:1036E0003B03F0913C03808190914003892B8083C0
:1036F000ADCF1F93CF93DF93EC01162F8D8D9E8D51
:10370000892BB1F12DA93EA94FA958AD60E074E213
:1037100084EF90E00E943F32205131094109510964
:1037200056954795379527952093B80066EA11116D
:1037300067EACE010E94E6198D8D9E8D892B41F19D
:1037400029AD3AAD4BAD5CAD60E074E284EF90E042
:103750000E943F3220513109410951095695479540
:10376000379527952093B800DF91CF911F91089549
:103770008B8D9C8D892B21F08EAD9FAD0E94880F83
:10378000EFA5F8A990818CA9809589238083CECF5D
:10379000EFA5F8A980819CA9892B8083E5CF90E0D3
:1037A00080E00895EF92FF920F931F93CF93DF93E2
:1037B0007B01880F991F880F991FEC01259710E056
:1037C00000E061E086E00E94520CCE010197F1F723
:1037D00060E086E00E94520CCE010197F1F70F5F86
:1037E0001F4FE016F10669F7DF91CF911F910F91FE
:1037F000FF90EF9008951F93CF93DF93182F0E94AF
:10380000B10CEC01812F0E94B10C8C0F9D1F96957D
:103810008795DF91CF911F9108953F924F925F92CC
:103820006F927F928F929F92AF92BF92CF92DF92D0
:10383000EF92FF920F931F93CF93DF933B014A01C7
:103840002901E7013C2C0E94290CF301918380831C
:10385000F40120813181892B09F059C0C090FF0209
:10386000D0900003E0900103F09002032130310575
:1038700031F511821082F20180819181A281B381A0
:10388000B701A601481B590B6A0B7B0BC801110F2E
:10389000AA0BBB0B481759076A077B0780F03983CF
:1038A0002883F501C082D182E282F382F1E03F12E7
:1038B0001CC06DE470E088EC90E00E94D21BF50122
:1038C00080819181A281B381A7019601281B390BC8
:1038D0004A0B5B0BDA01C9018C329140A105B1059D
:1038E00020F083E090E099838883DF91CF911F914E
:1038F0000F91FF90EF90DF90CF90BF90AF909F908F
:103900008F907F906F905F904F903F900895232B02
:1039100061F781E090E0918380838091FF02909134
:103920000003A0910103B0910203F201808391830F
:10393000A283B38388819981892BB9F282E090E0D8
:10394000D2CFFC0101900020E9F73197AF01481B6D
:10395000590BBC018CE093E00C94D30B8F929F9297
:10396000AF92BF920F931F93CF93DF93CDB7DEB784
:10397000A1970FB6F894DEBF0FBECDBF19A242309B
:1039800008F44AE08E010F5D1F4F842E912CB12C5C
:10399000A12CA50194010E943F32E62FB901CA0172
:1039A000EA30F4F4E05DD801EE938D01232B242B53
:1039B000252B79F790E080E0109719F0CD010E9457
:1039C000A11CA1960FB6F894DEBF0FBECDBFDF914C
:1039D000CF911F910F91BF90AF909F908F900895BE
:1039E000E95CE1CFCF92DF92EF92FF92CF93DF932A
:1039F0006B017C016DE28CE093E00E94C611EC014A
:103A000066277727CB016C197D098E099F094AE04B
:103A10000E94AE1C8C0F9D1FDF91CF91FF90EF9005
:103A2000DF90CF900895BC01990F880B990B97FDFB
:103A30000C94F21C4AE00C94AE1C0C94A11C0F9345
:103A40001F93811150C08091CE0281114CC0233050
:103A500021F181E08093200380932103243051F1F0
:103A60008EE390E00436110514F082E090E090932C
:103A700019038093180389E390E090931B038093CC
:103A80001A03CA016130F9F010921F0310921E034D
:103A900010921D0310921C0320C02093200320933A
:103AA000210382E090E090931903809318038AE049
:103AB00090E0E3CF8FE590E0909319038093180393
:103AC00082E090E0DACF21E030E030931F032093D2
:103AD0001E0330931D0320931C030E941D1D1F9184
:103AE0000F910C94481A1F910F9108952091120381
:103AF00030911303C901079697FD079623E095952A
:103B000087952A95E1F72091100330911103829F48
:103B1000A001839F500D929F500D112470E060E032
:103B200080912B0390912C030C94A533EF92FF927C
:103B30000F931F9360E08FE00E94520C0E94761D4D
:103B40008FE3E82EF12C0CE710E023E533E150E0A1
:103B500040E070E060E08CE093E00E94E8140E9496
:103B6000481A64E670E088EC90E00E94D21B62E3A1
:103B700070E080E090E00E94EB0C64E670E088EC7E
:103B800090E00E94D21B62E370E080E090E00E942F
:103B9000EB0C64E670E088EC90E00E94D21B6CEDC8
:103BA00075E080E090E00E94EB0C8091030386308A
:103BB000B0F082E00E94290C892B31F0809106033D
:103BC00090910703019759F4109203031092050393
:103BD000109204031092070310920603EACF0E948A
:103BE000761D1F910F91FF90EF900C94481ACF9281
:103BF000DF92EF92FF920F931F93CF93DF93CDB796
:103C0000DEB728970FB6F894DEBF0FBECDBF209168
:103C1000CE02211142C07F936F939F938F9382E5D1
:103C200091E09F938F93CE0101966C019F938F93A8
:103C30000E94AC33F12CE12C07E010E020E230E0F0
:103C400049E350E06FE570E08CE093E00E944B1395
:103C500081E0809320038093210381E090E09093A2
:103C60001F0380931E0390931D0380931C038FE515
:103C700090E0909319038093180389E390E0909368
:103C80001B0380931A03C6010E941D1D0E94481A3F
:103C90000FB6F894DEBF0FBECDBF28960FB6F894CE
:103CA000DEBF0FBECDBFDF91CF911F910F91FF906F
:103CB000EF90DF90CF9008950E94A03385ED809320
:103CC000BC008091110290911202A0911302B09158
:103CD00014020796A11DB11D23E0B695A7959795EF
:103CE00087952A95D1F72091BC0024FD03C010923E
:103CF0005A020895409111025091120260911302EC
:103D000070911402452B462B472B69F30097A105B0
:103D1000B10541F025E32A95F1F700000197A109CB
:103D2000B109E1CF809110020C94A4171F920F9259
:103D30000FB60F9211242F933F938F939F93AF93BE
:103D4000BF938091810290918202A0918302B091F1
:103D500084023091800223E0230F2D3758F501961D
:103D6000A11DB11D20938002809381029093820255
:103D7000A0938302B0938402809185029091860281
:103D8000A0918702B09188020196A11DB11D809378
:103D9000850290938602A0938702B0938802BF9118
:103DA000AF919F918F913F912F910F900FBE0F90E8
:103DB0001F90189526E8230F0296A11DB11DD2CFA2
:103DC0001F920F920FB60F9211242F933F934F9390
:103DD0005F936F937F938F939F93AF93BF93EF9373
:103DE000FF938091B900887F803609F44AC0F0F5CE
:103DF000883209F4A7C018F5803109F49BC0B8F4E3
:103E0000882309F4F9C0883009F494C0FF91EF9138
:103E1000BF91AF919F918F917F916F915F914F91E2
:103E20003F912F910F900FBE0F901F9018958831E2
:103E300009F488C0803251F78093590214C080344D
:103E400009F49DC040F48033B9F38833F9F68093C8
:103E5000590285ECB0C0803509F485C0883509F475
:103E600096C0883499F60E945E1ED0CF883909F436
:103E70008CC038F5883729F050F4883611F0803737
:103E800029F683E080935A021092580257C088386E
:103E900009F47BC0803919F0803809F0B7CF8091E0
:103EA0005802803208F071C0E091580281E08E0F14
:103EB000809358028091BB00F0E0E85CFD4F808366
:103EC0003DC0803B39F0E0F4803A09F479C0883A8B
:103ED00009F09CCF84E080935A021092370210922E
:103EE0003602E0918C02F0918D02099580913602A4
:103EF00081110FC081E0809336021092160209C032
:103F0000803C09F4A6CF883C09F4A3CF883B09F094
:103F10007DCFE091370281E08E0F80933702F0E091
:103F2000EA5EFD4F80818093BB00909137028091C3
:103F3000360229C080917F028093BB0085EC80937C
:103F4000BC0064CF90917E0280917D02981758F555
:103F5000E0917E0281E08E0F80937E02F0E0E35AD2
:103F6000FD4F8081E9CFE0917E0281E08E0F80934A
:103F70007E028091BB00F0E0E35AFD4F8083909178
:103F80007E0280917D029817C8F285E8D8CFE09133
:103F90007E0281E08E0F80937E028091BB00F0E074
:103FA000E35AFD4F808380915C0281115CCF81E0F8
:103FB00080935B0284EA8093BC0010925A0226CF61
:103FC00085EC8093BC0010925A0280915802803296
:103FD00030F4E0915802F0E0E85CFD4F108260910F
:103FE000580270E0E0918A02F0918B0288E392E03F
:103FF0000995109258020ACF1092590234CF71E0FD
:104000003D9A3C980000000000000E94B3213D98BA
:104010000E94B321A894000000000000359B0E947C
:104020009B21D2F0889434990894771F48F73D9AE1
:10403000803019F03C980C941E203C9A000000003F
:1040400000000E94B3213D98A89400000000359B19
:104050000E949B210E94B321000000003D9A872FFF
:104060009927089580E208950894881F0C943920B8
:10407000880FF1F03D9A00000000000020F40000DD
:104080003C980C9446203C9A0C9446200E94B32104
:104090003D98A894000000000000359B0E949B21E1
:1040A0001AF488270C946B200E94B3210C943820BA
:1040B0003D9A000000003C980E94B3219927882770
:1040C0003D98A8940000359B0E949B2152F3349B9D
:1040D00081E00E94B321000000003D9A089581E034
:1040E00008953D9A3C9A0E94B3213D980E94B321C5
:1040F000359B0E949B213C980E94B321789408959F
:104100008F93F1E0E4EF8F918F93F894359B0E94A9
:104110009B213C9A0E94B3210E943420882331F4D1
:104120000E947120319711F00C94832099270F90F1
:1041300008950895F8943D9A0E94B3213C980E94F6
:10414000B3213D980E94B321359B0E949B213C9A4C
:104150000E94B3210E943420089581E00895F894CC
:10416000359B0E949B213C9A0E94B3210E943420DF
:10417000089581E00895DF92EF92FF920F931F93CD
:10418000CF93DF93D82E0E94712061E070E080E031
:1041900090E00E94EB0C0E94712061E070E080E0F2
:1041A00090E00E94EB0C8AE0E82EF12C01E010E098
:1041B00080EC0E94AF20C1E0D0E0811104C010E08B
:1041C00000E0D0E0C0E084E40E943420811104C00B
:1041D00010E000E0D0E0C0E08D2D0E94342081117D
:1041E00002C0D0E0C0E00E94712061E070E080E099
:1041F00090E00E94EB0CCD2B21F481E0E81AF1084D
:10420000B9F6012B41F1DF91CF911F910F91FF90F2
:10421000EF90DF90089501501109A9F380EC0E94FE
:10422000AF20C82F84E40E943420811101C0C0E077
:10423000D0E08D2D0E943420811102C0D0E0C0E07A
:104240000E94712061E070E080E090E00E94EB0C41
:10425000CD2B09F3D8CF0AE010E0E0CFEF92FF9228
:104260000F931F93CF93DF93813009F44AC0EB0182
:104270006233710564F40091E9021091EA0224E0CE
:104280004CE551E061E08091FE020E941F1D8CEA26
:104290000E94BB2061E08FE00E94520C61E470E05C
:1042A00080E090E00E94EB0C08E610E085E7E82E45
:1042B00080E0F82EF80184910E94BB200F5F1F4F11
:1042C000E016F106B9F7E091EB02F091EC02EA5347
:1042D000FD4E84910E94BB20E29764F40091E902B4
:1042E0001091EA0224E04CE551E062E08091FE0288
:1042F0000E941F1DDF91CF911F910F91FF90EF90B2
:10430000089561E070E080E090E0DF91CF911F912F
:104310000F91FF90EF900C94EB0C3C983D984498D3
:10432000459888279927349B0895359B089581E007
:10433000089581E00895B0E0A4E000240E94AB213C
:104340003AF40A94D9F71197C1F728940C94B22142
:10435000A8940C94B221A89435990C94B021289477
:104360000000089508959BE69A95F1F70895089541
:10437000ECE0F3E01382128220E830E035832483FE
:1043800080E490E0978386833187208793878287B4
:10439000168A158614861786168681E0858B848B8F
:1043A0002FEF3FEF338B228B318B208B878B108E3F
:1043B000128E118E8AE291E091838083148E138E87
:1043C000168E158E10A2178E8BE084A38DE085A328
:1043D0008CE086A38AE087A388E080A780E586AF8B
:1043E00017AE0895CF93DF93CDB7DEB728970FB6FA
:1043F000F894DEBF0FBECDBF789484B5826084BDD3
:1044000084B5816084BD85B5826085BD85B58160D8
:1044100085BD80916E00816080936E001092810056
:104420008091810082608093810080918100816011
:1044300080938100809180008160809380008091D2
:10444000B10084608093B1008091B000816080935E
:10445000B00080917A00846080937A0080917A0025
:10446000826080937A0080917A00816080937A00E4
:1044700080917A00806880937A001092C10060E099
:1044800089E00E94520C61E089E00E94800C8091DA
:104490002B0390912C03892B39F10E94761D80917A
:1044A00012039091130360911003709111038132F4
:1044B00091050CF081C5AC014052510957FF02C073
:1044C0004F5F5F4F559547956357710977FF02C05E
:1044D0006F5F7F4F75956795F0E2EF2EF12C03E744
:1044E00010E02DEF35E080C52091120330911303C9
:1044F000C901079697FD079623E0959587952A951C
:10450000E1F720911003309111038C01029FC0014B
:10451000039F900D129F900D11240E947B32909367
:104520002C0380932B03892B09F0B7CF0E948D2198
:104530001092FE0260E089E00E94520C61E089E086
:104540000E94800C60E08EE00E94800C60E080E1C0
:104550000E94800C60E081E10E94800C60E084E0B9
:104560000E94800C60E083E00E94800C61E086E0A5
:104570000E94800C60E082E00E94800C60E085E197
:104580000E94800C60E084E10E94800C61E08FE07A
:104590000E94800C61E087E00E94800C60E085E072
:1045A0000E94800C60E089E00E94520C60E087E08D
:1045B0000E94520C60E086E00E94520C61E082E0B2
:1045C0000E94520C0E94761DEE24E394F12C00E42C
:1045D00010E027E430E050E040E06DE170E08CE076
:1045E00093E00E94571272E3E72EF12C09E310E0EA
:1045F0002DE93AE047E050E064E270E08CE093E0BF
:104600000E94E8140E94481AC12CD12C7601C39450
:104610001AE0F5E14F2E512C612C712C00E0530172
:1046200042018C189D08AE08BF0861E089E00E9435
:10463000520CC701B6010E94EB0C60E089E00E94B9
:10464000520CC501B4010E94EB0C0F5F0113EDCFBA
:104650001150153008F415E02FEFC21AD20AE20A01
:10466000F20A34E1C316D104E104F104B9F661E0C1
:1046700089E00E94520C68EE73E080E090E00E94B6
:10468000EB0C0E94761D87E080932003809321032A
:1046900081E090E090931F0380931E0390931D038D
:1046A00080931C0381E290E00E94E4308A3D09F48B
:1046B0004BC06AE090E080E00E94EC3064E181E071
:1046C00090E00E94EC3068E282E090E00E94EC30E2
:1046D00062E383E090E00E94EC306BE084E090E0E5
:1046E0000E94EC3065E185E090E00E94EC3069E2E8
:1046F00086E090E00E94EC3063E387E090E00E9467
:10470000EC306CE088E090E00E94EC3066E189E0FB
:1047100090E00E94EC306AE28AE090E00E94EC3087
:1047200064E38BE090E00E94EC3061E080E290E096
:104730000E94EC3060E089E190E00E94EC306AED8C
:1047400081E290E00E94EC3090E080E00E94E43052
:10475000182F8093D30281E090E00E94E430809390
:10476000D40282E090E00E94E4308093D50283E09E
:1047700090E00E94E4308093D60284E090E00E94B2
:10478000E4308093D70285E090E00E94E43080938B
:10479000D80286E090E00E94E4308093D90287E05E
:1047A00090E00E94E4308093DA0288E090E00E947A
:1047B000E4308093DB0289E090E00E94E430809353
:1047C000DC028AE090E00E94E4308093DD028BE01E
:1047D00090E00E94E4308093DE0280E290E00E944C
:1047E000E4308093BF0289E190E00E94E43090E0E1
:1047F0009093BB028093BA0260E0892B09F061E0DC
:1048000087E00E94520C812F90E09093EC028093FD
:10481000EB020E941E0D6093B6027093B702809364
:10482000B8029093B9026093AE027093AF02809386
:10483000B0029093B1026093FA027093FB028093EE
:10484000FC029093FD026093ED027093EE02809360
:10485000EF029093F00288248394912CDD24D3946A
:104860000E941E0DAB01BC014093FF025093000358
:1048700060930103709302038091FE02811173C063
:104880008091FA029091FB02A091FC02B091FD028E
:104890008A019B01081B190B2A0B3B0BD901C8018C
:1048A00020911701213009F08BC5813117E2910762
:1048B000A105B10508F457C00091F6021091F70266
:1048C0002091F8023091F902800F911FA21FB31FAF
:1048D0008093F6029093F702A093F802B093F90246
:1048E0004093FA025093FB026093FC027093FD0226
:1048F000BC01CD0128EE33E040E050E00E943F32A1
:1049000029013A0121E942162EE752066104710499
:1049100030F040E9442E4EE7542E612C712CC30137
:10492000B20120E13EE040E050E00E943F327901D8
:104930003093F5022093F402C301B2012CE330E07E
:1049400040E050E00E943F32CA01B9012CE330E060
:1049500040E050E00E943F327093F3026093F20215
:10496000C7010E94F71D8091FF0290910003A09162
:104970000103B09102034091ED025091EE0260916B
:10498000EF027091F002841B950BA60BB70B8138D8
:104990009E4EA643B10508F48CC00E94761D0E946D
:1049A000481A10E000E023E042E651E061E0809127
:1049B000FE020E941F1D60ED77E080E090E00E9403
:1049C000EB0C0E94761D0E94481A84E00E94290C7C
:1049D0008C010E941E0D6093FF0270930003809370
:1049E000010390930203112784E00E94290C7C01AB
:1049F00080E10E94290CCC24C394892B21F00E1550
:104A00001F0509F4C12C82E00E94290C892B11F4A6
:104A1000CC24C39481E10E94290C892B11F0CC2075
:104A200019F30E94761D0E94481A10E000E023E06E
:104A30004AE651E061E08091FE020E941F1D64E69B
:104A400070E088EC90E00E94D21B68EE73E080E09A
:104A500090E00E94EB0C0E94761D0E94481A80E1B3
:104A60000E94290C019709F0DBC482E00E94290C06
:104A7000019709F0D5C481E10E94290C019709F042
:104A8000CFC40E94761D0E94481A0E941E0D60939A
:104A9000FF027093000380930103909302036093DD
:104AA000ED027093EE028093EF029093F002D092A9
:104AB000160180911601813009F0E7C010921601AD
:104AC0000091EB021091EC02F801EA53FD4E849143
:104AD0000E94BB20F801E75CFD4E6491462E512CEC
:104AE0005092EA024092E90270E090E080E00E9479
:104AF000303126E636E646EA50E40E9496310E94BE
:104B0000FA307093E8026093E70287E08093200315
:104B10008093210390921F0380921E0390921D03A5
:104B200080921C030E94761DC2016AE070E00E9420
:104B30002B327B0126EF26038001279F100D1124C5
:104B4000040D151D54E6451651040CF474C483E598
:104B500090E00E942A1439E5632E712C10921903FB
:104B60001092180310921B0310921A03C7010E949F
:104B7000131D709219036092180310921B03109278
:104B80001A03B801012E000C880B990B17FF5BC4A8
:104B90000E94F21C8EE891E00E94A11C0E94481A1B
:104BA00080911501813009F066C093E09093150162
:104BB0009091CE0291115FC06090E5027090E60284
:104BC000809320038093210390921F0380921E0301
:104BD00090921D0380921C03F12CE12C0DE010E05B
:104BE00025E230E043E350E070E060E08CE093E0E9
:104BF0000E944B13EE24E394F12C22E230E043E3D5
:104C000050E070E060E08CE093E00E945712611485
:104C1000710409F01CC483E090E090931903809321
:104C20001803E6E3F0E0F0931B03E0931A0321E09E
:104C300030E049E350E06CE070E08CE093E00E94EB
:104C4000D10E21E030E049E350E063E170E08CE018
:104C500093E00E94D10E21E030E049E350E06AE1A8
:104C600070E08CE093E00E94D10EC30101960E9497
:104C7000131D0E94481A6091F2027091F302809114
:104C8000F4029091F5020E94F71D8091E302909149
:104C9000E402019709F048C08091FF02909100035F
:104CA000A0910103B09102034091DF025091E00214
:104CB0006091E1027091E202841B950BA60BB70B89
:104CC000803D9740A105B10578F18091E502909172
:104CD000E6026091EB02FC01ED52FD4F608390E033
:104CE0000E94EC301092E4021092E3020091E9027B
:104CF0001091EA0221E041E951E061E08091FE0279
:104D00000E941F1D6CE271E080E090E00E94EB0CBD
:104D10000091E9021091EA0221E041E951E062E0EC
:104D20008091FE020E941F1D80911501833061F564
:104D30008091FF0290910003A0910103B0910203C2
:104D40004091CF025091D0026091D1027091D20275
:104D5000841B950BA60BB70B813D9740A105B105B0
:104D600098F082E080931501F12CE12C0DE010E029
:104D700025E230E043E350E070E060E08CE093E057
:104D80000E944B130E94481A8091CE02882309F496
:104D900073C4109216010E94761D83E0F82EF092E3
:104DA0002003F092210390921F0380921E039092A1
:104DB0001D0380921C030AE010E020E430E040E88C
:104DC00050E070E060E090E080E00E941B1680916F
:104DD000CE02813009F09AC381E290E090931903EA
:104DE0008093180388E090E090931B0380931A034C
:104DF00085E991E00E941D1D8BE290E090931903DC
:104E00008093180383E290E090931B0380931A032E
:104E10008AE991E00E941D1D0E94481A8091FF02BC
:104E200090910003A0910103B09102034091CA0246
:104E30005091CB026091CC027091CD02841B950BF6
:104E4000A60BB70B89309740A105B10520F0109251
:104E5000CE02D09216018091C8029091C9020297A9
:104E600009F045C08091CE02811141C01092C90263
:104E70001092C8028091C6029091C702892B09F056
:104E80000CC41092E4021092E3020091FF02109110
:104E9000000320910103309102030093ED0210936F
:104EA000EE022093EF023093F0028091E5029091A0
:104EB000E602019664E070E00E942B329093E602D5
:104EC0008093E5028D529D4FFC01808190E090938C
:104ED000EC028093EB02D0921601D0921501009360
:104EE000CF021093D0022093D1023093D20280914E
:104EF000C8029091C902039709F0E3C39092C702D8
:104F00008092C60200911301109114010130110525
:104F100041F5109214011092130167E370E088ECE0
:104F200090E00E94D21B6FE070E080E090E00E9471
:104F3000EB0C67E370E088EC90E00E94D21B80915C
:104F4000060390910703019709F0ACC31092070381
:104F500010920603109205031092040382E08093DE
:104F6000CE022091C2023091C3022230310509F0F5
:104F7000BAC31092C3021092C2028091CE02811174
:104F80001EC78091FF0290910003A0910103B09190
:104F900002038093ED029093EE02A093EF02B09390
:104FA000F0028091FE02811191C3D092FE02D09254
:104FB000C1021092160188C6AC014054510957FF36
:104FC00002C04F5F5F4F559547956255710977FF56
:104FD00002C06F5F7F4F7595679510E4E12EF12C4D
:104FE00002E510E02DED37E08CE093E00E94E8143C
:104FF00082E080932E038091290390912A03892BCC
:1050000009F4E8C08091120390911303809709F08E
:10501000DFC08CE380932D0310928F0210928E02DA
:1050200010920903109208030E94861781ED9BE0FD
:1050300090938D0280938C0282ED9BE090938B0283
:1050400080938A028091340387FD1EC061E00E9434
:10505000800C61E0809134030E94520C61E070E0AA
:1050600080E090E00E94EB0C60E0809134030E94AD
:10507000520C6AE070E080E090E00E94EB0C61E08E
:10508000809134030E94520C8091290390912A034D
:10509000892B09F45EC12091410330914203409174
:1050A00043035091440360E074E284EF90E00E9477
:1050B0003F3220513109410951095695479537959D
:1050C00027952093B80064E087EC95E00E943119A1
:1050D0006091120361508CE093E00E94E61964E055
:1050E00083EC95E00E94311980912E0360E18130BC
:1050F00009F064E18CE093E00E94E61964E08FEB34
:1051000095E00E9431198FE8809349038091100344
:10511000909111038038910509F034C180911203F8
:10512000909113038034910509F03CC180912E03C6
:10513000813009F025C18FE98093490312E16AEDBE
:105140008CE093E00E94E619612F8CE093E00E94CE
:10515000E61961E88CE093E00E94E619609149034A
:105160008CE093E00E94E61969ED8CE093E00E94E8
:10517000E61980912E0362E2813009F061EF8CE044
:1051800093E00E94E61966E089EB95E00E943119F0
:105190008091290390912A03892B09F407C120915A
:1051A000450330914603409147035091480360E026
:1051B00074E284EF90E00E943F32205131094109AE
:1051C000510956954795379527952093B800AEC954
:1051D0008DE320CF61E0809132030E94800C61E07A
:1051E000809133030E94800C80913203082E000CC2
:1051F000990BFC01E751FA4FE491F0E0EE0FFF1F2D
:10520000E152FA4F2591349130933A0320933903B8
:10521000FC01E553FA4FE491E0933F03809133039F
:10522000082E000C990BFC01E751FA4FE491F0E0D5
:10523000EE0FFF1FE152FA4FA591B491B0933C03DA
:10524000A0933B03FC01E553FA4FE491E093400344
:105250008C91E82BEC938091270390912803892B64
:1052600009F434C01FB7F89480918902811127C0D6
:10527000E3EFF5E08491E5EDF5E09491E82FF0E0BF
:10528000EE0FFF1FE155FA4FA591B491EC91E92380
:1052900021F461E08AE00E94520C61E08AE00E9401
:1052A000800C8CB580618CBD8CB580648CBD61E058
:1052B0008DE00E94800C61E08BE00E94800C809168
:1052C00089028F5F809389021FBFBCCE61E080910D
:1052D00030030E94800C61E0809131030E94800CB9
:1052E00080913003082E000C990BFC01E751FA4F16
:1052F000E491F0E0EE0FFF1FE152FA4F2591349157
:105300003093360320933503FC01E553FA4FE491C3
:10531000E0933D0380913103082E000C990BFC01B2
:10532000E751FA4FE491F0E0EE0FFF1FE152FA4F20
:10533000A591B491B0933803A0933703FC01E553D2
:10534000FA4FE491E0933E038C91E095E823EC93CF
:1053500079CE8091270390912803892B31F0809199
:105360004A0390914B030E94880FE0913B03F09118
:105370003C03908180914003809589238083A3CE54
:105380008FECDACE8036910569F48091120390910A
:105390001303409739F480912E03813029F480E182
:1053A0008093490312E0CBCE8FEAFACFE0913B0322
:1053B000F0913C03808190914003892B8083B6C893
:1053C000893E9340A105B10508F4CDCA4093FA0285
:1053D0005093FB026093FC027093FD028091F102F6
:1053E000813059F41092F1026091F2027091F3024F
:1053F0008091F4029091F502B4CAD092F102F12C9E
:10540000E12C07E010E020E230E049E350E06FE5F6
:1054100070E08CE093E00E944B130E94481AA3CAEC
:1054200006E910E021E049E751E061E08091FE02E9
:105430000E941F1D14CB89E290E00E942A1425E3EC
:10544000622E712C8BCB4AE00E94AE1CA3CBF1E004
:105450006F16710499F40BE010E010931903009398
:10546000180326E330E030931B0320931A0321E056
:1054700030E049E350E065E070E0DFCB32E06316F6
:105480007104E9F441E150E050931903409318038B
:1054900086E390E090931B0380931A0321E030E0B1
:1054A00049E350E065E070E08CE093E00E94D10EAB
:1054B00021E030E049E350E06CE070E0C8CBE9E186
:1054C000F0E0F0931903E093180306E310E0109363
:1054D0001B0300931A0321E030E049E350E065E04C
:1054E00070E08CE093E00E94D10E21E030E049E3CF
:1054F00050E06CE070E08CE093E00E94D10E21E07F
:1055000030E049E350E063E170E0ABCB8230F9F486
:1055100081E290E0909319038093180388E090E073
:1055200090931B0380931A0385E991E00E941D1D4F
:1055300084E290E0909319038093180383E290E053
:1055400090931B0380931A038DE991E063CC833021
:1055500009F049C08AE190E0909319038093180301
:1055600085E090E090931B0380931A0381EA91E019
:105570000E941D1D86E0EEE1F1E0DE011196019032
:105580000D928A95E1F718861F828091F3028F931E
:105590008091F2028F938091F5028F938091F402B3
:1055A0008F9387EA91E09F938F9341E050E04C0FF7
:1055B0005D1F5F934F930E94AC338CE190E090931A
:1055C00019038093180383E290E090931B03809368
:1055D0001A03CE0101960E941D1D0FB6F894DEBF7E
:1055E0000FBECDBF19CC843009F016CC8CE190E011
:1055F000909319038093180385E090E090931B0328
:1056000080931A0381EB91E00E941D1D86E0EEE17C
:10561000F1E0DE01119601900D928A95E1F718866E
:105620001F828091F3028F938091F2028F93809179
:10563000F5028F938091F4028F9387EA91E09F9314
:105640008F93E1E0F0E0EC0FFD1FFF93EF930E94DA
:10565000AC33F0922003F092210390921F038092CA
:105660001E0390921D0380921C0309E110E0109329
:10567000190300931803A7CF8091FF0290910003B4
:10568000A0910103B09102038093CA029093CB02D0
:10569000A093CC02B093CD02DECB1092C702109241
:1056A000C60225CC1093070300930603109305034D
:1056B00000930403D092CE021093C5020093C4025B
:1056C00050CC90921401809213014BCC813009F0A0
:1056D0000CC39091C002923009F4ECC208F0E0C211
:1056E000992309F4FBC28091C2029091C3020397EF
:1056F00009F065C380910F0190911001019731F578
:105700001092100110920F011092FE021092C1022D
:10571000D092160167E370E088EC90E00E94D21B03
:105720006FE070E080E090E00E94EB0C67E370E0D7
:1057300088EC90E00E94D21B80911701813009F023
:105740003AC31092170184E08093CE027090FE025B
:10575000711016C012EBA12E12E0B12ECC24C3940E
:1057600008ECE02E02E0F02E04E610E026EB32E03A
:105770004BE051E06DE071E080E190E00E940D1C93
:10578000E8EAAE2EE2E0BE2EC12CFCEAEF2EF2E0FB
:10579000FF2E08EC10E02EEA32E047E051E069E02D
:1057A00071E082E090E00E940D1CA0EAAA2EA2E027
:1057B000BA2ECC24C394B2ECEB2EB2E0FB2E24EA3A
:1057C00032E043E051E065E071E081E190E00E9469
:1057D0000D1C0E941E0D1B012C012092FF02309215
:1057E0000003409201035092020384E00E94290CBE
:1057F0007C0166246394892B09F4612C60929F02DA
:1058000080919E02882309F476C0E114F10409F026
:1058100072C02092ED023092EE024092EF0250925E
:10582000F00283E00E94290C892B09F0CDC28FEF92
:105830009FEF90939D0280939C0200919C02109197
:105840009D02809101019091020108171907B9F09A
:105850008091980290919902A0919A02B0919B0236
:10586000A2019101281B390B4A0B5B0BDA01C9011C
:105870004E97A105B10508F4ACC2D0920001C090CA
:10588000000131E0C31237C01093020100930101FF
:10589000209298023092990240929A0250929B0272
:1058A0001092CE02711098C262E070E084EF91E035
:1058B0000E94D21BC09216019092E4028092E302F1
:1058C0002092DF023092E0024092E1025092E20226
:1058D0008091EB029091EC02080F191F17FD07C091
:1058E00078010D38110518F07CE8E72EF12CF092C4
:1058F000EC02E092EB0260929E027090FE02772032
:1059000009F46BC03090C102F1E03F1266C0109202
:10591000C10240901101509012010E94761D01E0D9
:105920007012BBC262E0F62EF0922003F0922103C7
:1059300090921F0380921E0390921D0380921C037D
:1059400003E210E0109319030093180385E090E040
:1059500090931B0380931A0386EB91E00E941D1D18
:1059600010931903009318038AE190E090931B03AE
:1059700080931A038CE591E00E941D1D109319037A
:10598000009318038FE290E090931B0380931A0317
:105990008CEB91E00E941D1D12E04116510409F4A8
:1059A00064C223E04216510409F46BC24A944528AC
:1059B00091F483E08093C002EE24E394F12C05E19E
:1059C00010E026E430E041E050E06DE170E08CE072
:1059D00093E00E9457120E94481A8091AC02909165
:1059E000AD0281309105B9F41092AD021092AC0273
:1059F0002091060330910703232B09F094C3609193
:105A0000EB027091EC028091BF020E942E2161E0B6
:105A10008FE00E94520C8091C4029091C5020197C0
:105A2000C1F48091040390910503019791F41092C1
:105A3000C5021092C4026091EB027091EC02809159
:105A4000BF020E942E2161E08FE00E94520CD09292
:105A500016018091090190910A01892B39F08091FA
:105A600004039091050360E0019789F48091FF029F
:105A700090910003A0910103B09102038093ED0285
:105A80009093EE02A093EF02B093F00261E08FE0FA
:105A90000E94520C8091090190910A01892B31F0EA
:105AA00080910403909105030197D1F40E941E0D8B
:105AB0006093FF02709300038093010390930203AD
:105AC00085E190E00E94FB1B9093970280939602E1
:105AD00084E190E00E94FB1B9093950280939402D6
