:100000000C94AE0B0C94D60B0C94D60B0C94D60B14
:100010000C94D60B0C94D60B0C94D60B0C94D60BDC
:100020000C94D60B0C94D60B0C94D60B0C94D60BCC
:100030000C94D60B0C94D60B0C94D60B0C94D60BBC
:100040000C94981E0C94D60B0C94D60B0C94D60BD7
:100050000C94D60B0C94D60B0C94D60B0C94D60B9C
:100060000C94E21E0C94D60B01020B152433445061
:100070005D6062636363605E5A5A5A5A01030B15EE
:1000800024333F474A4B4C4C4C4B4A49494847471D
:1000900000000000003E5B4F5B3E3E6B4F6B3E1C22
:1000A0003E7C3E1C183C7E3C181C577D571C1C5E39
:1000B0007F5E1C00183C1800FFE7C3E7FF00182410
:1000C0001800FFE7DBE7FF30483A060E26297929BA
:1000D00026407F050507407F05253F5A3CE73C5AEF
:1000E0007F3E1C1C08081C1C3E7F14227F22145FCC
:1000F0005F005F5F06097F017F006689956A606027
:1001000060606094A2FFA29408047E040810207E20
:10011000201008082A1C08081C2A08081E101010A5
:10012000100C1E0C1E0C30383E3830060E3E0E06EB
:10013000000000000000005F00000007000700143E
:100140007F147F14242A7F2A1223130864623649FD
:100150005620500008070300001C224100004122E5
:100160001C002A1C7F1C2A08083E080800807030EA
:100170000008080808080000606000201008040259
:100180003E5149453E00427F40007249494946215F
:1001900041494D331814127F1027454545393C4AD3
:1001A00049493141211109073649494936464949EA
:1001B000291E000014000000403400000008142232
:1001C00041141414141400412214080201590906A0
:1001D0003E415D594E7C1211127C7F494949363EA1
:1001E000414141227F4141413E7F494949417F0987
:1001F0000909013E414151737F0808087F00417F92
:1002000041002040413F017F081422417F4040408F
:10021000407F021C027F7F0408107F3E4141413E27
:100220007F090909063E4151215E7F0919294626A9
:100230004949493203017F01033F4040403F1F20AD
:1002400040201F3F4038403F631408146303047884
:1002500004036159494D43007F41414102040810A4
:1002600020004141417F04020102044040404040DF
:10027000000307080020545478407F28444438384D
:1002800044444428384444287F38545454180008BF
:100290007E090218A4A49C787F0804047800447D99
:1002A00040002040403D007F1028440000417F4036
:1002B000007C047804787C0804047838444444388A
:1002C000FC1824241818242418FC7C08040408486A
:1002D0005454542404043F44243C4040207C1C20BB
:1002E00040201C3C4030403C44281028444C909016
:1002F000907C4464544C4400083641000000770070
:1003000000004136080002010204023C2623263C7C
:100310001EA1A161123A4040207A38545455592107
:1003200055557941225454784221555478402054EF
:100330005579400C1E52721239555555593954543D
:10034000545939555454580000457C410002457DAC
:10035000420001457C407D1211127DF0282528F0D5
:100360007C545545002054547C547C0A097F493202
:10037000494949323A4444443A324A4848303A4179
:1003800041217A3A42402078009DA0A07D3D424222
:10039000423D3D4040403D3C24FF2424487E4943AB
:1003A000662B2FFC2F2BFF0929F620C0887E09031E
:1003B00020545479410000447D413048484A323845
:1003C0004040227A007A0A0A727D0D19317D262971
:1003D000292F28262929292630484D402038080869
:1003E000080808080808382F10C8ACBA2F1028349D
:1003F000FA00007B000008142A142222142A140890
:100400005500550055AA55AA55AAFF55FF55FF009E
:100410000000FF00101010FF00141414FF00101053
:10042000FF00FF1010F010F0141414FC001414F767
:1004300000FF0000FF00FF1414F404FC1414171054
:100440001F10101F101F1414141F00101010F000A4
:100450000000001F101010101F10101010F01000DE
:100460000000FF101010101010101010FF100000EE
:1004700000FF140000FF00FF00001F10170000FC29
:1004800004F414141710171414F404F40000FF00FB
:10049000F714141414141414F700F7141414171484
:1004A00010101F101F141414F4141010F010F0008A
:1004B000001F101F0000001F14000000FC140000AB
:1004C000F010F01010FF10FF141414FF141010108F
:1004D0001F00000000F010FFFFFFFFFFF0F0F0F042
:1004E000F0FFFFFF0000000000FFFF0F0F0F0F0FD6
:1004F0003844443844FC4A4A4A347E020206060222
:100500007E027E0263554941633844443C04407E88
:10051000201E2006027E020299A5E7A5991C2A4901
:100520002A1C4C7201724C304A4D4D30304878488C
:1005300030BC625A463D3E494949007E0101017E78
:100540002A2A2A2A2A44445F444440514A444040CB
:10055000444A51400000FF0103E080FF000008080A
:100560006B6B083612362436060F090F060000188A
:10057000180000001010003040FF0101001F0101B1
:100580001E00191D1712003C3C3C3C0000000000FE
:10059000000103070F1F3F7F0080C0E0F0F8FCFE62
:1005A00000000000230026002900000000080002CF
:1005B000010000030407000000000000000000002C
:1005C0000000240027002A00DB40A4A62EAF200054
:1005D000A1C8D300408DAED580A801020408102028
:1005E00040800102040810200102040810200000CD
:1005F0000000250028002B00040404040404040463
:10060000020202020202030303030303000060006C
:1006100000000000000000000000000000E00000FA
:10062000000000000000000000000001E0000000E9
:100630000000000000000000000001F000000000C9
:1006400000000000000000000003F00000000000B7
:10065000000000000000000007F0000000000000A3
:100660000000000000000007F8000000000000008B
:100670000000000000000FF800000003C0007E0032
:100680000001E0007F0FF800000003C000FE000042
:1006900001E000FFEFF800000003C000FE000001D1
:1006A000E000FFFFF800000003C000F00000000FB2
:1006B000007FFE7FC0000003C000F00000000F00BC
:1006C0003FFE7FF83FF1FBCFFCFEF3BC3DEFE01FA8
:1006D000FE7FFF7FFBFFDFFEFEFFBC3DEFE01FC69E
:1006E000FFFF7FFBFFDFFEFEFFBC3DEFE00FE3C738
:1006F000FE787BC3DE1EF0FFBC3DEF0007FF87FCEA
:10070000787BC3DE1EF0F83C3DEF0001FFFFF000F8
:100710007BC3C01EF0F03C3DEF0001F37FE03FFBE8
:10072000C3CFFEF0F03C3DEF0003E33F807FFBC30F
:10073000DFFEF0F03C3DEF0007E73C00787BC3DED6
:100740001EF0F03C3DEF0007FFBE00787BC3DE1ECD
:10075000F0F03C3DEF0007FFFE00787BC3DE1EF0AB
:10076000F03C3DEF000FFFFE007FFBFFDFFEF0F0EF
:100770003FFDEFE00FFFFF007FFBFFDFFEF0F03FEC
:10078000FDEFE00FF9FF003E79F9CF9EF0F01F3D3D
:10079000E7E01FF1FF000000000000000000000083
:1007A000001F80FF007FFFFFFFFFFFFFFFFFFFE055
:1007B0001C007F007FFFFFFFFEB46D888D18E000F6
:1007C000001F007FFFFFFFFE95AD7DB577E00000C5
:1007D0000F007FFFFFFFFEA5AD9D8D19E000000615
:1007E000007FFFFFFFFEB5ADEDB57EE0000000002D
:1007F00000018000000000000000000003800000F5
:100800000000000000000007C00000000000000021
:10081000000007C00000000000000000000FC00042
:1008200000000000000000001FE0000000000000C9
:100830000000001FE00000000000000000003FE09A
:100840000000000000000000003FF0000000000079
:10085000000000007FF0000000000000001FF87F93
:10086000F0000000000000003FFE7FF000000000EC
:100870000000003FFF7FF0000000000000001FFFAD
:10088000FBE0000000000000000FFFF9FFC00000C7
:10089000000000000FFFF9FFF80000000000000753
:1008A000FFF1FFFF00000000000003FC73FFFF806A
:1008B000000000000001FE3FFFFF8000000000007C
:1008C00000FF1E0FFF000000000000007FFE1FFC65
:1008D000000000000000003FFFFFF80000000000E3
:1008E00000000FDFFFE0000000000000001F19FF04
:1008F000C0000000000000003F3CFF0000000000BE
:100900000000007E7CF800000000000000007FFE78
:100910007C0000000000000000FFFFFC0000000061
:1009200000000000FFFFFE0000000000000000FFCC
:10093000FFFE0000000000000001FFEFFE000000CD
:100940000000000001FFCFFE0000000000000003D7
:10095000FF07FE0000000000000003FC07FE00008F
:10096000000000000003F003FE0000000000000093
:10097000018000FE000000000000000000007E007A
:100980000000000000000000003E00000000000029
:10099000000000000C000000000000078000FC00C8
:1009A0000003C0000000078001FC000003C000003D
:1009B00000078001FC000003C0000000078001E088
:1009C0000000001E000000078001E00000001E0083
:1009D0007FE3F79FF9FDE7787BDFC0FFF7FFBFFDFF
:1009E000FDFF787BDFC0FFF7FFBFFDFDFF787BDFFA
:1009F000C0F0F787BC3DE1FF787BDE00F0F787BCF5
:100A00003DE1F0787BDE0000F787803DE1E0787B18
:100A1000DE007FF7879FFDE1E0787BDE00FFF78750
:100A2000BFFDE1E0787BDE00F0F787BC3DE1E078D8
:100A30007BDE00F0F787BC3DE1E0787BDE00F0F77D
:100A400087BC3DE1E0787BDE00FFF7FFBFFDE1E022
:100A50007FFBDFC0FFF7FFBFFDE1E07FFBDFC07C76
:100A6000F3F39F3DE1E03E7BCFC0000000000000BB
:100A70000000000000FFFFFFFFFFFFFFFFFFFFC0C0
:100A8000FFFFFFFFFD68DB111A31C0FFFFFFFFFD15
:100A90002B5AFB6AEFC0FFFFFFFFFD4B5B3B1A3396
:100AA000C0FFFFFFFFFD6B5BDB6AFDC0E006300CA3
:100AB0003F00FC00E006300C7181FE00E00E300CBF
:100AC00060C30300E00E300CC0620300A00A300CCB
:100AD000C0620100B00A300CC0660180B00A300C60
:100AE000C0660180901A300CC00601809012300C54
:100AF000C00601809812300C600601809832300CDC
:100B0000700601809832300C180601808832300C53
:100B10000E0601808C22300C070601808C62300C9E
:100B2000038601808C62300C00C601808462300C28
:100B300000C601808442300C006601808642300C81
:100B4000C066018086C2300CC066018082C2301C43
:100B5000C06601008282301CC062010083821818C6
:100B6000C0C3030083821C3061C1FE0083820FE09A
:100B70003F80FC00000000000000000000000000BA
:100B800000000000000000000000000007FE0F84CD
:100B900002201000002010840220100000202044B9
:100BA00004201000002020440820100000204024D1
:100BB00000201000002040241020100000204024BD
:100BC000202010000020402420201000002040247D
:100BD00040201000002040248020100000204024ED
:100BE000802010000020402580201000002040269A
:100BF000C02010000020402640201000002040248B
:100C0000202010000020402410201000002040244C
:100C10001020100000204024082010000020204454
:100C20000830300000202044041020000020204420
:100C30000210200000201F84020FC00000000001ED
:100C4000C0000000000000000000000000000003E1
:100C5000E000003FFCF00000000000000000000386
:100C6000F000003FFCF00000000000000000000366
:100C7000F800003FFC000000000000000000000140
:100C8000FC000003C0F3DE700F83DC0000000000F6
:100C9000FE000003C0F3FFF83FE3FC00000000008B
:100CA0007F000003C0F3FFFC3FE3F80000000000FA
:100CB0003F800003C0F3CF3C78F3E00000007F806A
:100CC0001FC00003C0F3CF3C7FF3C0000003FFF060
:100CD0001FE00003C0F3CF3C7FF3C000000FFFFC18
:100CE0003FF00003C0F3CF3C7803C000003FFFFF9C
:100CF0007FF80003C0F3CF3C7CF3C000007FFFFF10
:100D0000FFFC0003C0F3CF3C3FE3C00000FF847F43
:100D1000FCFE0003C0F3CF3C3FE3C00003FE041F12
:100D2000F87F0003C0F3CF3C0F83C00003F8040733
:100D3000F83F0000000000000000000007F0000184
:100D4000F81F000000000000000000000FC00000BD
:100D5000FC0E000000000000000000001FC00000AA
:100D60007E00000000000000000000001FA0000046
:100D7000FE00000000000000000000003F10000125
:100D80003F00000000000000000000003E080000DE
:100D90001F00000000000000000000007E040000B2
:100DA0001F80000000000000000000007C00000028
:100DB0000F80000000000000000000007C00000028
:100DC0000F80000000000000000000007C00000018
:100DD0000F8000000000000000000000FC00000088
:100DE00007C000000000000000000000F800000044
:100DF00007C000000000000000000000F8003C00F8
:100E000027C000000000000000000000F8003C00C7
:100E100037C000000000000000000000FF003FFF9E
:100E2000FFE000000000000000000000F8003C00AF
:100E300037C000000000000000000000F8003C0087
:100E400027C000000000000000000000F8000000C3
:100E500007C000000000000000000000F8000000D3
:100E600007C0000000000000000000007C0000003F
:100E70000F80000000000000000000007C00000067
:100E80000F80000000000000000000007C00000057
:100E90000F80000000000000000000007E00000045
:100EA0001F80000000000000000000003E00000263
:100EB0001F00000000000000000000003F080001CB
:100EC0003F00000000000000000000001F90000034
:100ED000FE00000000000000000000001FA0000055
:100EE0007E00000000000000000000000FC00000B5
:100EF000FC003000000000000000000007F00001CE
:100F0000F800380001FFF0000000000007F80407B7
:100F1000F8003E0001FFF0000000000003FE041F87
:100F2000F0003F0001FFF000E007038001FF847F35
:100F3000E0003FC001FFF001F00F87C0007FFFFF1E
:100F4000C0003FE001FFF003B81DCEE0003FFFFF0F
:100F500000003FF001FFF003BB9DCEE0000FFFFE5D
:100F600000003FF801FFF003BB9DCEE00003FFF857
:100F700000003FFC01FFF003BB9DCEE00000FFC07E
:100F800000003FFC01FFF003B81DCEE000000000B0
:100F900000003FF801FFF003BB9DCEE00000000021
:100FA00000003FF001FFF001F38F87C00000000058
:100FB00000003FE001FFF001F38F87C00000000058
:100FC00000003F8001FFF000E00703800000000008
:100FD00000003F0001FFF0000000000000000000E2
:100FE00000003E00000000000000000000000000C3
:100FF00000003800000000000000000001FFC000F9
:101000000000000000000000000001FFC000000020
:10101000000000000000000001FFC0000000000010
:1010200000000000000001FFC00000000000000000
:101030000000000001FFC0000000000000000000F0
:10104000000001FFC00000000000000000000000E0
:101050007FFFFF00000000000000000000007FFF95
:10106000FF00000000000000000000007FFFFF0004
:10107000000F00000000000000007FFFFF00001FC5
:1010800000000000000000007FFFFF00003F0000A4
:101090000000000000007C001F00007E0000000037
:1010A000000000007C001F0000FC000000000000A9
:1010B00000007C001F0001F800E038F0C0000000D4
:1010C0007C001F0003F000F038F3C00000007C003B
:1010D0001F0007E000F83803C00000007C001F007C
:1010E0000FE000F838F7F3DC7C007C001F001FC025
:1010F00000FC38F7F3FCFF007C001F003F8000FE7F
:1011000038F7F3F9FF007C001F007F0000FF38F381
:10111000C3E3EF807C001F00FFFF00F738F3C3C379
:10112000C7807C001F01FFFF00F3B8F3C3C3C78073
:101130007C001F01FFFF00F1F8F3C3C3C7807C00F0
:101140001F01FFFE00F0F8F3C3C3EF807C001F0017
:10115000FFFC00F0F8F3F3C1FF007C001F0001FC6E
:1011600000F078F3F3C0FE007C001F0003F800F0ED
:1011700038F1F3C07C007C001F0003F00000000089
:10118000000000007C001F0007E0000000000000DD
:1011900000007C001F000FC00000000000000000E5
:1011A0007C001F001FC000000000000000007C0049
:1011B0001F023F8000000000000000007C001F03B1
:1011C0007F0000000000000000007C001F03FE0004
:1011D00000000000000000007C001F03FC00000075
:1011E0000000000000007C001F03FC000000000065
:1011F000000000007C001F03F80000000000000059
:1012000000007FFFFF03F800000000000000000066
:101210007FFFFF03FC0000000000000000007FFFD4
:10122000FF03FE0000000000000000007FFFFF0041
:10123000000000000000000000007FFFFF00000031
:1012400000000000000000001415161718191A1BE2
:101250001C1D1E1F202122232425262728292A2B56
:101260002C2D2E2F303132333435363738393A3B46
:101270003C3D3E3F404142434445464748494A4B36
:101280004C4D4E4F505152535455565758595A5B26
:101290005C5D5E5F606162636465666768696A6B16
:1012A0006C6D6E6F707172737475767778797A7B06
:1012B0007C7D7E7F808182838485868788898A8BF6
:1012C0008C8D8E8F909192939495969798999A9BE6
:1012D0009C9D9E9FA0C8A8681898D838780484C49C
:1012E000A4E4945434B4F48CCCACEC1C5CDCBC7C36
:1012F0000282C22262E2925232B2F20A4ACAAA6A56
:101300001A9ADA3A7AFA864626A6E61656D6B676B5
:101310000E8ECE2E6EEE9E5E3EBEFE8141C1A1615E
:101320001191D13171F1894929A9E91959D9B979AD
:101330000585C52565E5955535B5F50D4DCDAD6DE5
:101340001D9DDD3D7DFD834323A3E3139353D333E1
:10135000B373F38B4BCB2BAB6BEB9B5BDB7BFB0759
:1013600087C700007FFFFFFFC000000000000000F3
:1013700000000000FFFFFFFFE00000000000000091
:1013800000000001FFFFFFFFF0000000F8633E7C5B
:1013900000000001FFFFFFFFF0000001FC633E7E44
:1013A00000000003FFFFFFFFF80000038E633066BC
:1013B00000000003E0000000F800000306363E666F
:1013C00000000007E0000000FC00000306363E7E3F
:1013D00000000007C00000007E0000030636307CDD
:1013E0000000000FC00000007E0000038E1C306C67
:1013F0000000001F800000003F000001FC1C3E6652
:101400000000001F800000003F000000F81C3E6646
:101410000000003F000000001F80000000000000EE
:101420000000003F000000000F80000000000000EE
:101430000000007E000000000FC00000000000005F
:101440000000007C0000000007C003C333E3E3E6B4
:101450001BF000FC0000000007E007F333F3F3E7A4
:101460001BF000F80000000003E00E2333333307C5
:1014700098C001F80000000003F00C03333333E799
:1014800098C001F00000000001F00C0333F3F3E614
:10149000D8C003F00000000001F80C0333E3E306BA
:1014A00078C003E0F0FF8703F0F80E233363630690
:1014B00078C007E0F8FF9F83F8FC07F3F33333E6C7
:1014C00038C007C3FCFFBFC3F87E03C1E33333E674
:1014D00018C00FC39E1839C39C7E00000000000096
:1014E00000001F839E1879E39C3F0000000000006D
:1014F00000001F839E1879E39C3F0000000000005D
:1015000000003F03801879E39C1F8000000000006A
:1015100000003F03801879E39C0F8000000000006A
:1015200000007E01801879E39C0FC00000070000D6
:1015300000007C01F01879E3FC07C000000F800078
:101540000000FC00FC1879E3F807E000000F8000C1
:101550000000F800FC1879E3F003E000000F8000C1
:101560000000FC001E1879E38007E000000F8000F7
:1015700000007C001E1879E38007C000000F800087
:1015800000007E001E1879E3800FC000000F80006D
:1015900000003E031E1879E3800F8000000F8000DA
:1015A00000003F031E1839E3801F8000000F8000F9
:1015B00000001F839E183DC3801F0000000F8000A5
:1015C00000001F81FC183FC3803F0000000F800017
:1015D00000000FC0FC181F83807E0000000F8000F9
:1015E00000000FC000000000007E0000000F80001F
:1015F000000007E00000000000FC0000000F800079
:10160000000003E00000000000FC0000000F80006C
:10161000000003F00000000001F80000000F80004F
:10162000000001F00000000001F00000000F800049
:10163000000001F80000000003F00000000F80002F
:10164000000000F80000000003E00000000F800030
:10165000000000FC0000000007E00000000F800018
:101660000000007C0000000007C00000000F8000A8
:101670000000007E000000000FC00000000F80008E
:101680000000003F000000000F8000000007000085
:101690000000003F000000001F800000000000006C
:1016A0000000001F800000003F000000000000005C
:1016B0000000001F800000003F000000000000004C
:1016C0000000000FC00000007E00000000070000C6
:1016D00000000007C00000007E000000000F800036
:1016E00000000007E0000000FC000000001FC00038
:1016F00000000003E0000000F8000000001FC00030
:1017000000000003FFFFFFFFF8000000000F800053
:1017100000000001FFFFFFFFF000000000070000D5
:1017200000000001FFFFFFFFF000000000000000CC
:1017300000000000FFFFFFFFE000000000000000CD
:10174000000000007FFFFFFFC0000000000000005D
:1017500000002200FF210000E321633011241FBE9E
:10176000CFEFD8E0DEBFCDBF11E0A0E0B1E0EEE307
:10177000FCE602C005900D92A23DB107D9F723E027
:10178000A2EDB1E001C01D92A235B207E1F71BE066
:10179000CDEADBE004C02197FE010E940332CC3A7F
:1017A000D107C9F70E941D220C9412360C94000038
:1017B000089508950895AF92BF92CF92DF92EF926D
:1017C000FF920F931F93CF93DF936C017B018B01EB
:1017D000040F151FEB015E01AE18BF08C017D1073B
:1017E00059F06991D601ED91FC910190F081E02DC5
:1017F000C6010995892B79F7C501DF91CF911F911A
:101800000F91FF90EF90DF90CF90BF90AF90089531
:10181000833081F028F4813099F08230A9F0089566
:101820008730A9F08830C9F08430B1F4809180000D
:101830008F7D03C0809180008F7780938000089512
:1018400084B58F7784BD089584B58F7DFBCF80915B
:10185000B0008F778093B00008958091B0008F7DA5
:10186000F9CFCF93DF93282F30E0F901E655FA4FF7
:101870008491F901E652FA4FD491F901E850FA4FF8
:10188000C491CC23A1F081110E94080CEC2FF0E050
:10189000EE0FFF1FE056FA4FA591B491EC91ED23A6
:1018A00081E090E009F480E0DF91CF91089580E03D
:1018B00090E0FACF1F93CF93DF93282F30E0F90108
:1018C000E655FA4F8491F901E652FA4FD491F901A5
:1018D000E850FA4FC491CC23A9F0162F81110E9431
:1018E000080CEC2FF0E0EE0FFF1FE251FA4FA5912C
:1018F000B4918FB7F894EC91111108C0D095DE2304
:10190000DC938FBFDF91CF911F910895DE2BF8CF2D
:10191000CF93DF9390E0FC01E652FA4F2491885078
:101920009A4FFC0184918823D1F090E0880F991F91
:10193000FC01E254FA4FA591B491FC01E251FA4F37
:10194000C591D49161110EC09FB7F8948C91E22F8C
:10195000E0958E238C932881E223E8839FBFDF915B
:10196000CF9108958FB7F894EC91E22BEC938FBF51
:10197000F6CF8E3008F08E508770806480937C00A4
:1019800080917A00806480937A0080917A0086FD4D
:10199000FCCF809178009091790008953FB7F8943A
:1019A0008091870290918802A0918902B0918A0269
:1019B00026B5A89B05C02F3F19F00196A11DB11DAA
:1019C0003FBFBA2FA92F982F8827BC01CD01620FE6
:1019D000711D811D911D42E0660F771F881F991FA1
:1019E0004A95D1F708958F929F92AF92BF92CF926E
:1019F000DF92EF92FF926B017C010E94CE0C4B01B3
:101A00005C01C114D104E104F104B9F00E94CE0CD0
:101A1000681979098A099B09683E73408105910517
:101A200080F321E0C21AD108E108F10888EE880E9F
:101A300083E0981EA11CB11CE4CFFF90EF90DF90D3
:101A4000CF90BF90AF909F908F9008952FB7F8944C
:101A50006091830270918402809185029091860248
:101A60002FBF0895EF92FF920F931F93CF93DF93B1
:101A7000EC01EC80FD806E157F050CF070C057FF07
:101A800004C0240F351F50E040E08E819F81FA0191
:101A9000E20FF31F8E179F071CF49C01241B350BCC
:101AA000121613060CF05BC0922F842F8695869534
:101AB00086958E9DD0018F9DB00D11246A0F7B1FDE
:101AC000AF8DB8A1A60FB71F477049F188E0841BFE
:101AD000482F682F70E0FB01E856FA4FE491281771
:101AE00008F063C0621B71092FEF30E002C035952A
:101AF00027956A95E2F7E2230130110539F0B0F13C
:101B00000230110561F58C91E82702C08C91E82B19
:101B1000EC93941720F12C813D81A20FB31FE92F84
:101B2000E41BE83078F00230110521F58E2F9C91EE
:101B300090959C932C813D81A20FB31F88508830D3
:101B4000B0F7E770EE2359F0F0E0E057FA4FE49178
:101B500001301105F9F010F10230110519F1DF9192
:101B6000CF911F910F91FF90EF900895E0958C9188
:101B7000E823CECF81E00115110509F480E08195BD
:101B80009E2F8C932C813D81A20FB31F98509830CB
:101B9000C0F7D7CF8C91E82BEC93E1CFE0958C91F7
:101BA000E823FACF8C91E827F7CF0130110509F42B
:101BB000ADCFE0F20230110509F4A5CFAE0DBF1D87
:101BC000AECF0F931F93CF93DF9377FF04C0260F01
:101BD000371F70E060E0DC011496CD91DC91FB01D1
:101BE000E20FF31FCE17DF071CF49E01261B370BF5
:101BF000121613064CF5FA0157FD3796A3E0F5953A
:101C0000E795AA95E1F7EC9FD001ED9FB00DFC9F01
:101C1000B00D11246A0F7B1FDC015F96ED91FC91E2
:101C2000E60FF71F4770552781E090E001C0880F4D
:101C30004A95EAF7482F0130110559F0A8F02E0F08
:101C40003F1F02301105E1F0DF91CF911F910F91FD
:101C500008952E0F3F1FE217F307B1F38191DF01C3
:101C60001197842B8C93F7CF80952E0F3F1FE2178F
:101C7000F30751F39191DF01119798239C93F7CFCC
:101C8000E217F30709F38191DF01119784278C9301
:101C9000F7CF0F931F93FA01DC0156964C9156979C
:101CA0004230E9F04330A1F1413061F514964D9195
:101CB0005C91DA01AE1BBF0BFD01E21BF30B77FD5C
:101CC0000BC0DC0116964D915C916417750724F4E6
:101CD000AB01BF010E94E10D1F910F910895149671
:101CE0004D915C91DA01A61BB70BBD0161507109E2
:101CF000DC0116964D915C91DA01AE1BBF0BFD0124
:101D0000E21BF30B77FDE8CFAF010E94320DE4CF69
:101D100016964D915C91DA01A61BB70BBD0161507F
:101D20007109CDCF0F931F93FA01DC0156964C91A8
:101D300056974230A9F0433091F1413019F514968D
:101D40004D915C91DA01AE1BBF0BFD013197F7FDA0
:101D500004C0AB01BF010E94320D1F910F91089585
:101D600014964D915C91DA01A61BB70BBD01DC0105
:101D700016964D915C91DA01AE1BBF0BFD013197B8
:101D8000621B730BF7FDE9CFDC0116964D915C9158
:101D9000E417F50714F7AF010E94E10DDECF1696A8
:101DA0004D915C91DA01A61BB70BBD01621B730B51
:101DB000CECFFC0177FD64C08085918568177907D7
:101DC0000CF05EC057FD5CC08285938548175907AB
:101DD0000CF056C086898230B1F0833029F1813011
:101DE00041F484819581841B950BAB01BC0161504A
:101DF00071092130310509F108F443C02230310561
:101E000009F463C0089584819581DC01A61BB70B9A
:101E1000BD016150710986819781DC01A41BB50B5E
:101E2000AD0141505109E5CF86819781861B970B03
:101E3000BA01AC0141505109DCCFCA0157FD0796E8
:101E4000A3E095958795AA95E1F7A481B5818A9F2E
:101E500090018B9F300D9A9F300D1124620F731FDC
:101E6000078CF0A1E02DE60FF71F4770552721E002
:101E700030E001C0220F4A95EAF78081822B8083EF
:101E80000895CA0157FD079633E0959587953A95D1
:101E9000E1F7A481B5818A9F90018B9F300D9A9FB5
:101EA000300D1124620F731F078CF0A1E02DE60F97
:101EB000F71F4770552781E090E001C0880F4A95D1
:101EC000EAF7809590818923DACFCA0157FD0796FA
:101ED00023E0959587952A95E1F7A481B5818A9F9E
:101EE00090018B9F300D9A9F300D1124620F731F4C
:101EF000078CF0A1E02DE60FF71F4770552721E072
:101F000030E001C0220F4A95EAF780818227B7CFDF
:101F100008958EBD00000DB407FEFDCF8EB5089567
:101F20008CBD9DBD08950895FC016370668B84810E
:101F3000958126813781613039F0633029F09187AE
:101F40008087338722870895318720879387828708
:101F500008952F923F924F925F926F927F928F924D
:101F60009F92AF92BF92CF92DF92EF92FF920F9328
:101F70001F93CF93DF93CDB7DEB76A970FB6F89470
:101F8000DEBF0FBECDBF9A8F898F7A8369834A01E6
:101F9000D22E18870F833701BC2CDC0159962D9166
:101FA0003C915A972115310509F015C118968D916C
:101FB0009C911997681779070CF0D7C11A968D91E3
:101FC0009C91481759070CF0D0C14C2C512CB6E00D
:101FD000CB9E600D711D11247C876B87161617062A
:101FE0000CF0C3C1EA2DF0E0FA87E98793E0EE0F29
:101FF000FF1F9A95E1F7F88BEF87CF01840F951FAC
:10200000181619060CF0B1C1A98DBA8D58968C918D
:10201000811104C0BFEABD1508F4D394A98DBA8D0F
:10202000ED91FC9111970284F385E02DCD01099586
:10203000B5E0DB9EC0011124E981FA81FC83EB83CA
:10204000312C212C9C0120573F4F388F2F8B4A2D4C
:1020500050E05E8B4D8BEF89F88DE20DF31D4491BE
:102060009E828D82D12CC12C69817A81620D731D73
:102070007A8B698B842F90E09C8B8B8BE98DFA8D0A
:10208000A081B18140FF82C0F1E0BF126FC0AF12EA
:102090006DC01C96ED91FC912F813885A4014C0DEB
:1020A0005D1D69897A89898D9A8D0995EB89FC89ED
:1020B000F595E7954E2F5FEFC51AD50A6D817E81A4
:1020C0008D899E89680F791F7E836D8398E0C9167C
:1020D000D10481F6AFEF2A1A3A0AEB81FC81E40DB4
:1020E000F51DFC83EB83F5E02F16310409F0B3CF27
:1020F0002F81388526153705B9F0A98DBA8DED9158
:10210000FC91B1E0BB1257C0AB1255C069817A8116
:102110006B5F7F4F0088F189E02D830128E030E07C
:10212000A401898D9A8D0995A98DBA8DED91FC91A7
:1021300011970688F789E02DCD016A960FB6F894BD
:10214000DEBF0FBECDBFDF91CF911F910F91FF90EA
:10215000EF90DF90CF90BF90AF909F908F907F9047
:102160006F905F904F903F902F9009941E96ED9145
:10217000FC91EF80F88409851A8592014D815E817A
:102180006B817C81898D9A8D099590CF2F813885BF
:102190002615370509F48ACF31E0B31207C0A31220
:1021A00005C01C96ED91FC91930178CF1E96ED91A0
:1021B000FC917301E0CF6B857C85641975090684F9
:1021C000F785E02D73010F8518899201A401898D8F
:1021D0009A8D0995A9CFF90134969491329745913A
:1021E0005491D91AB7E0DB9E400D511D1124F9011D
:1021F000259134913C8B2B8BFA0125903490FA0178
:102200003296749031963491398B3296649031962F
:10221000449041E04C1518F04A1508F07FC0662D37
:10222000062C000C770B7C836B83842D042C000C14
:10223000990B9E838D83A98DBA8DED91FC91119799
:102240000284F385E02DCD010995512CD12CC12CB0
:10225000EA2DF0E0FA87E9872B2D30E03C872B87C9
:10226000A401440D511D47FC5A95588F4F8B69812D
:102270007A81660D711D67FC7A957E876D877989F5
:10228000C71608F051CF2C2D30E04D815E81420FF2
:10229000531FA985BA854A9FC0014B9F900D5A9F35
:1022A000900D1124FC01E80DF91DF88BEF87852DA9
:1022B000612C4F89588D420F531F5E8B4D8B6714D5
:1022C00008F050C044244394480E877041F4C10183
:1022D0000196EB89FC89E20DF31DD4901C01D7FE19
:1022E00019C0A98DBA8DED91FC91662D70E0B1E019
:1022F000BB1219C0AB1217C02D853E85620F731F2C
:102300000484F585E02D2F8138854D895E89898D7E
:102310009A8D0995DD0C6394842DD1CF1E821D8288
:102320001C821B8288CF4B815C81640F751FAB853B
:10233000BC856A9FC0016B9F900D7A9F900D112400
:1023400069817A81680F791F0684F785E02DEF8017
:10235000F88409851A859D014F855889898D9A8D44
:102360000995D8CF570CC3948ACF6A960FB6F894C4
:10237000DEBF0FBECDBFDF91CF911F910F91FF90B8
:10238000EF90DF90CF90BF90AF909F908F907F9015
:102390006F905F904F903F902F9008958F929F92F3
:1023A000AF92CF92EF92FF920F931F93CF93DF9351
:1023B000EC01262F898D9A8D0097B1F56A30D1F402
:1023C0001D861C868D8998E0899F900111248E8539
:1023D0009F85820F931F9F878E8781E090E0DF911A
:1023E000CF911F910F91FF90EF90CF90AF909F9062
:1023F0008F9008956D3089F3EA88FB8808891989E0
:102400004E855F856C857D85AD88CC88CE010E9428
:10241000A90F2C898C859D8536E0239F800D911D09
:1024200011249D878C87D9CF6A3069F41D861C865C
:10243000FC013896E4912D898E859F85E29F800D61
:10244000911D1124C8CF6D3041F2FC0134963491B6
:10245000631708F4C2CF3296E491E61708F4BDCFB3
:10246000FC01329685909490862F831B97E0899F7C
:10247000800C911C1124F401329684913196E491E0
:10248000882391F0EE2381F0F4013596E491EA88F7
:10249000FB88088919894E855F856C857D85AD88A7
:1024A000CC88CE010E94A90FF4013496E4912C89C6
:1024B0008C859D85E29F800D911D1124B2CF6F9276
:1024C0007F928F929F92AF92BF92CF92DF92EF92C4
:1024D000FF920F931F93CF93DF93EC016B015A018F
:1024E00039014801E881F9810284F385E02D0995DD
:1024F000E881F9810288F389E02D87019301A50124
:10250000B601CE010995A501480D591D415051094B
:10251000E881F9810288F389E02D9301B601CE01AB
:102520000995E881F9810088F189E02D9401A501E0
:10253000B601CE010995C60CD71CB60161507109D0
:10254000E881F9810088F189E02D9401A501CE018F
:102550000995E881F9810688F789E02DCE01DF91A0
:10256000CF911F910F91FF90EF90DF90CF90BF9090
:10257000AF909F908F907F906F9009946F927F9211
:102580008F929F92AF92BF92CF92DF92EF92FF9283
:102590000F931F93CF93DF935C01EB016A01490115
:1025A00038018701DC01ED91FC916217730719F581
:1025B000641675062CF0962D872D3A01C92ED82E5B
:1025C0009601261937092F5F3F4F048CF58DE02DBA
:1025D000A301BE01C5010995DF91CF911F910F9114
:1025E000FF90EF90DF90CF90BF90AF909F908F9033
:1025F0007F906F9008954615570591F42617370779
:1026000024F0892D4B01C22FD82F9E01281939099A
:102610002F5F3F4F068CF78DE02DA601B401DACF76
:102620000284F385E02D0995D501ED91FC91048894
:10263000F589E02D83019401A601BE01C50109952C
:10264000D501ED91FC910688F789E02DC501DF9158
:10265000CF911F910F91FF90EF90DF90CF90BF909F
:10266000AF909F908F907F906F900994EF92FF9220
:102670000F931F93DC011A960D911C911B971896CE
:102680002D913C911997ED91FC9100A0F1A1E02DC5
:102690007B0150E040E070E060E009951F910F91F0
:1026A000FF90EF9008954F925F926F927F928F927A
:1026B0009F92AF92BF92CF92DF92EF92FF920F93D1
:1026C0001F93CF93DF936C012B015A01390148010D
:1026D000DC01ED91FC910284F385E02D0995E20186
:1026E000640C751CD601ED91FC91C615D7055CF400
:1026F0000088F189E02D87019401A501BE01C60182
:1027000009952196EFCF0688F789E02DC601DF9164
:10271000CF911F910F91FF90EF90DF90CF90BF90DE
:10272000AF909F908F907F906F905F904F900994A3
:102730008F929F92AF92BF92CF92DF92EF92FF92D1
:102740000F931F93CF93DF93EC015B014A01690163
:10275000E881F9810284F385E02D099595012C0D1E
:102760003D1D21503109E881F9810488F589E02D6A
:1027700078018401A401B501CE010995E881F981B0
:102780000688F789E02DCE01DF91CF911F910F913F
:10279000FF90EF90DF90CF90BF90AF909F908F9081
:1027A00009948F929F92AF92BF92CF92DF92EF9255
:1027B000FF920F931F93CF93DF93EC015B014A01CC
:1027C00069017801E881F9810284F385E02D09959A
:1027D000C80CD91C860101501109E881F9810488CF
:1027E000F589E02D9501A401B501CE010995E88197
:1027F000F9810688F789E02DCE01DF91CF911F91F5
:102800000F91FF90EF90DF90CF90BF90AF909F908F
:102810008F900994EF92FF920F931F93DC01ED913B
:10282000FC9100A0F1A1E02D09951F910F91FF905F
:10283000EF9008950F931F93DC01ED91FC91068CAE
:10284000F78DE02D09951F910F9108950F931F9318
:10285000DC01ED91FC91048CF58DE02D09951F9123
:102860000F9108952F923F924F925F926F927F92B5
:102870008F929F92AF92BF92CF92DF92EF92FF9290
:102880000F931F93CF93DF9300D000D0CDB7DEB767
:102890006C0101E010E029E030E043E350E0BC01CE
:1028A0008EE093E00E94261454E0452E512C222401
:1028B0002394312CF12CE12C84E090E09C838B83D9
:1028C00088EF9FEF9A8389837DEF672E77247A9430
:1028D0009FEFE91AF90A82E0280E311C620C731C82
:1028E0008B819C818E159F050CF457C04C01880C80
:1028F000991C9FEF891A990A01E010E0940147E3BF
:10290000A42EB12C8B819C81A81AB90AA501B7010C
:102910006C0D7D1D8EE093E00E9426149401A501AC
:10292000B6016E197F098EE093E00E9426148B8118
:102930009C8184159505F9F0B601640D751D01E0C3
:1029400010E0410192E0891A9108940188E3A82ED1
:10295000B12CAE18BF08A5018EE093E00E942614AA
:10296000B601641975099401A5018EE093E00E94F7
:1029700026144B805C808B819C81E816F90694F4C8
:1029800077FCA6CF01979C838B8389819A810296DD
:102990009A838983680E791E9BCF8B819C818415D5
:1029A000950551F60F900F900F900F90DF91CF91FA
:1029B0001F910F91FF90EF90DF90CF90BF90AF905D
:1029C0009F908F907F906F905F904F903F902F904F
:1029D0000895DC01ED91FC910084F185E02D0994CE
:1029E0003F924F925F926F927F928F929F92AF929F
:1029F000BF92CF92DF92EF92FF920F931F93CF93EC
:102A0000DF9300D000D0CDB7DEB75C013B016A0197
:102A10004901280187E0480E511C93E055944794E2
:102A20009A95E1F7CA018E0D9F1D9A838983F12C37
:102A3000E12C312C1C821B828B819C818770992711
:102A4000330C892B61F4EB81FC8183E0F595E795EC
:102A50008A95E1F7EE0DFF1DE80DF91D349037FE64
:102A60000AC021E030E0A6016B817C81660D771DF4
:102A7000C5010E94E9148B819C8101969C838B8304
:102A800008171907C9F69FEFC91AD90AE40CF51CF3
:102A900089819A81C816D90669F60F900F900F9018
:102AA0000F90DF91CF911F910F91FF90EF90DF90EA
:102AB000CF90BF90AF909F908F907F906F905F90DE
:102AC0004F903F9008952F923F924F925F926F9256
:102AD0007F928F929F92AF92BF92CF92DF92EF92AE
:102AE000FF920F931F93CF93DF937C016B01EA0159
:102AF00081E090E05C01A41AB50A66247724641A88
:102B0000750A660C771C10E000E088248394912CF1
:102B1000822F8470582E822F8270482E822F8870C8
:102B2000382E2170222E0C171D070CF079C0B7FC2F
:102B300006C0219782E0680E711CA60CB71C0F5FBF
:102B40001F4F82E0880E911CA80CB91C5520C1F0C3
:102B500021E030E0AE014C0D5D1DB701600F711F2B
:102B60008EE093E00E94E91421E030E0A601400FDE
:102B7000511FBE016E0D7F1D8EE093E00E94E9148F
:102B80004420C1F021E030E0A6014C1B5D0BB701F1
:102B9000600F711F8EE093E00E94E91421E030E0A5
:102BA000A601401B510BBE016E0D7F1D8EE093E010
:102BB0000E94E9143320C1F021E030E0A601400F6B
:102BC000511FB7016C1B7D0B8EE093E00E94E9144E
:102BD00021E030E0AE014C0D5D1DB701601B710BB3
:102BE0008EE093E00E94E914222009F49CCF21E0BA
:102BF00030E0A601401B510BB7016C1B7D0B8EE032
:102C000093E00E94E91421E030E0A6014C1B5D0B2B
:102C1000B701601B710B8EE093E00E94E91483CF33
:102C2000DF91CF911F910F91FF90EF90DF90CF90A8
:102C3000BF90AF909F908F907F906F905F904F90DC
:102C40003F902F9008952F923F924F925F926F92F4
:102C50007F928F929F92AF92BF92CF92DF92EF922C
:102C6000FF920F931F93CF93DF9300D000D0CDB787
:102C7000DEB72C013B011A0179011C830B8358013B
:102C8000AA0CBB1C4A018A189B086801C40CD51CFD
:102C900001E010E09401AB01B6018EE093E00E94E8
:102CA0001A14C701860D971D9A838983AC01415080
:102CB00051099401B6018EE093E00E941A14EA18BB
:102CC000FB088B819C81680E791E9701A301B201DC
:102CD0008EE093E00E942614420C531CB201615016
:102CE00071099701A3018EE093E00E94261421E070
:102CF0004B815C81B301C6010E9463158B819C816D
:102D0000481A590A91E0491A510822E04B815C8126
:102D1000B301C2010E946315E980FA808B819C8116
:102D2000E81AF90A91E0E91AF10824E04B815C8184
:102D3000B701C2010E94631528E04B815C81B70195
:102D4000C6010F900F900F900F90DF91CF911F91C0
:102D50000F91FF90EF90DF90CF90BF90AF909F903A
:102D60008F907F906F905F904F903F902F900C943A
:102D700063152F923F924F925F926F927F928F9244
:102D80009F92AF92BF92CF92DF92EF92FF920F93FA
:102D90001F93CF93DF9300D000D000D0CDB7DEB724
:102DA0003C016A013E832D83FC82EB825801A41A08
:102DB000B50AB7FE03C0B194A194B1088D809E807E
:102DC000861A970A97FE03C09194819491088A14F9
:102DD0009B045CF0902F812F0D811E819D838E833B
:102DE0009C2D8D2D6B01692F782F0C151D055CF026
:102DF0009D818E817E836D83692F782F902F812F07
:102E00008601C92ED82E1601201A310A2B012D81D8
:102E10003E81421A530A57FE03C05194419451080F
:102E2000710137FE03C03FEFE31AF30AF594E7940C
:102E30008D819E81861797075CF5A1E0B0E0BA838B
:102E4000A983C016D1064CF1D301ED91FC91048405
:102E5000F585E02D2B813C81A8016D817E818A144E
:102E60009B041CF04D815E81B801C3010995E418F3
:102E7000F508F7FE0AC02D813E8189819A81280FCD
:102E8000391F3E832D83E20CF31C0F5F1F4FD9CFF8
:102E90002FEF3FEF3A832983D4CF26960FB6F894CD
:102EA000DEBF0FBECDBFDF91CF911F910F91FF907D
:102EB000EF90DF90CF90BF90AF909F908F907F90DA
:102EC0006F905F904F903F902F90089508952091BC
:102ED0003802260F3327331F21323105ECF42091BD
:102EE0005C02FC0190E080E0243069F082E008950B
:102EF000A09138022191AC01485E5D4FA40FB52F1F
:102F0000B11D2C930196861798F380913802680FB3
:102F10006093380280E0089581E0089510925C0289
:102F200081E080935E0210925D0261E082E10E9486
:102F30005A0C61E083E10E945A0CE9EBF0E08081D9
:102F40008E7F808380818D7F808388E48093B8002A
:102F500085E48093BC000895CF93DF9391E0909334
:102F600017028823B9F0C091B800D091BA008091BF
:102F7000BC008A7B8093BC0060E082E10E945A0C16
:102F800060E083E10E945A0C0E948E17D093BA0031
:102F9000C093B800DF91CF910895E09191028091A4
:102FA0009002E81730F4F0E0EE50FE4F808190E0A0
:102FB00008958FEF9FEF0895909191028091900274
:102FC0002FEF3FEF981748F4E92FF0E0EE50FE4F57
:102FD000208130E09F5F90939102C9010895809114
:102FE000900290919102891B990B0895CF92DF92E4
:102FF000EF92FF920F931F93CF93DF937C01CB014E
:103000008A0120910D03222389F0EB016B01C40E8C
:10301000D51ECC15DD0569F06991D701ED91FC91C4
:103020000190F081E02DC7010995F3CF642F0E9434
:103030006717C801DF91CF911F910F91FF90EF901B
:10304000DF90CF900895CF93DF931F92CDB7DEB777
:10305000698320910D032223F9F020910A03203285
:1030600058F021E030E0FC013383228390E080E0DF
:103070000F90DF91CF91089580910B03E82FF0E03E
:10308000EE52FE4F998190838F5F80930B03809364
:103090000A0381E090E0ECCF61E0CE0101960E944E
:1030A0006717F7CFCF92DF92EF92FF920F931F93A4
:1030B000CF93DF93D0910A0381E0D13208F09CC016
:1030C000C0910C030E94CE0C6B017C0180915C02CC
:1030D00081116CC082E080935C0281E080935E028B
:1030E0008FEF80935B0210928002D0937F02A2ED5B
:1030F000B1E0EFE5F2E080E0D8138DC010928102DC
:1031000080918102CC0FC82BC093810280915D0217
:10311000813009F084C010925D020E94CE0C6B01D8
:103120007C01809181028093BB0080911302909179
:103130001402A0911502B0911602892B8A2B8B2BB9
:10314000A1F00E94CE0C0091130210911402209164
:103150001502309116026C197D098E099F09061718
:1031600017072807390708F442C08091BC0083FD87
:10317000D8CF85EC8093BC000E94CE0C6B017C0103
:1031800080915C02823009F44CC080915B028F3FD9
:1031900009F469C080915B02803209F466C08091B5
:1031A0005B02803309F463C084E026C0809113027F
:1031B00090911402A0911502B0911602892B8A2BCE
:1031C0008B2B09F483CF0E94CE0C00911302109137
:1031D000140220911502309116026C197D098E0996
:1031E0009F09061717072807390708F06FCF809146
:1031F00012020E94AC1785E010920B0310920A0392
:1032000010920D03DF91CF911F910F91FF90EF90DE
:10321000DF90CF9008959D9191938F5F6DCF85EE54
:10322000A9CF8091130290911402A0911502B09140
:103230001602892B8A2B8B2B09F4A2CF0E94CE0C6D
:103240000091130210911402209115023091160280
:103250006C197D098E099F0906171707280739077A
:1032600008F08ECFC4CF80E0C7CF82E0C5CF83E027
:10327000C3CFEF92FF920F931F93CF93DF937C0105
:10328000C62F80912B0390912C03009709F459C00D
:1032900020912F0331E030930D0320930C03109203
:1032A0000B0310920A03DC01ED91FC910190F08177
:1032B000E02D60E009958701EE24E394F12CD1E044
:1032C000C15080912B0390912C03CF3F91F1B0E23C
:1032D000EB16F104D8F00E94521880912B039091C4
:1032E0002C0320912F03D0930D0320930C031092F5
:1032F0000B0310920A03DC01ED91FC910190F08127
:10330000E02D60E00995EE24E394F12C80912B03ED
:1033100090912C03F8016491DC01ED91FC910190F6
:10332000F081E02D0995BFEFEB1AFB0A0F5F1F4FED
:10333000C7CFDF91CF911F910F91FF90EF900C9429
:103340005218E0913B03F0913C039081809141033E
:103350008095892380838701C15008F438C0F80123
:1033600084912091290330912A03232B29F00E9474
:10337000890F0F5F1F4FF0CF28E030E040E8E09169
:103380003703F091380390913F03582F5423D9F01D
:103390005081952B9083E0913903F0913A0390810D
:1033A00050914003952B9083E0913903F0913A03BB
:1033B000508190914003909595239083469521509C
:1033C0003109E9F6D6CF508190959523E3CFDF916F
:1033D000CF911F910F91FF90EF9008951F93CF937E
:1033E000DF93EC018D8D9E8D009721F1162F29A181
:1033F00031E030930D0320930C0310920B031092D5
:103400000A03DC01ED91FC910190F081E02D60E078
:1034100009958D8D9E8DDC01ED91FC910190F081DF
:10342000E02D612F09958D8D9E8DDF91CF911F919C
:103430000C945218ADA5BEA59C918BA980958923AB
:103440008C938B8D9C8D892B31F0862FDF91CF91C2
:103450001F910C94890F28E030E080E8A9A5BAA557
:1034600099A9462F4823C1F04C91942B9C93ABA56E
:10347000BCA59C914AA9942B9C93ABA5BCA54C914F
:103480009AA9909594239C9386952150310931F700
:10349000DF91CF911F9108954C9190959423E6CFA1
:1034A000DF92EF92FF920F931F93CF93DF93809160
:1034B0002B0390912C03892B09F498C0209143038E
:1034C00030914403409145035091460360E074E21B
:1034D00084EF90E00E94CD3120513109410951091A
:1034E00056954795379527952093B80065E082E576
:1034F00097E10E9439196091120361508EE093E0C8
:103500000E94EE192091140330911503C90107960A
:1035100097FD079633E0959587953A95E1F72091C9
:10352000120330911303829F8001839F100D929F9D
:10353000100D1124C0912D03D0912E0380912B03E7
:1035400090912C030C0F1D1F009709F48FC0209140
:103550002F0331E030930D0320930C0310920B03E3
:1035600010920A03DC01ED91FC910190F081E02DB5
:1035700060E40995EE24E394F12CDD24D39480914A
:103580002B0390912C030C171D0709F446C0B0E2E1
:10359000EB16F104D8F00E94521880912B03909101
:1035A0002C0320912F03D0920D0320930C03109233
:1035B0000B0310920A03DC01ED91FC910190F08164
:1035C000E02D60E40995EE24E394F12C80912B0327
:1035D00090912C036991DC01ED91FC910190F081B7
:1035E000E02D0995BFEFEB1AFB0AC9CF80912903A3
:1035F00090912A03892B31F080914C0390914D03D7
:103600000E94900FE0913D03F0913E0390818091E4
:10361000420380958923808369CF0E94521880914C
:103620002B0390912C03892B09F461C0209147034F
:10363000309148034091490350914A0360E074E29D
:1036400084EF90E00E94CD312051310941095109A8
:1036500056954795379527952093B800DF91CF91E0
:103660001F910F91FF90EF90DF900895E0913B0341
:10367000F0913C03808190914103892B80830C174A
:103680001D0769F289912091290330912A03232B88
:1036900019F00E94890FF3CF28E030E040E8E09174
:1036A0003703F091380390913F03582F5423D9F0FA
:1036B0005081952B9083E0913903F0913A039081EA
:1036C00050914003952B9083E0913903F0913A0398
:1036D0005081909140039095952390834695215079
:1036E0003109E9F6CCCF508190959523E3CFE09155
:1036F0003D03F0913E03808190914203892B8083AA
:10370000ADCF1F93CF93DF93EC01162F8D8D9E8D40
:10371000892BB1F12DA93EA94FA958AD60E074E203
:1037200084EF90E00E94CD312051310941095109C7
:1037300056954795379527952093B80066EA11115D
:1037400067EACE010E94EE198D8D9E8D892B41F185
:1037500029AD3AAD4BAD5CAD60E074E284EF90E032
:103760000E94CD31205131094109510956954795A3
:10377000379527952093B800DF91CF911F91089539
:103780008B8D9C8D892B21F08EAD9FAD0E94900F6B
:10379000EFA5F8A990818CA9809589238083CECF4D
:1037A000EFA5F8A980819CA9892B8083E5CF90E0C3
:1037B00080E00895EF92FF920F931F93CF93DF93D2
:1037C0007B01880F991F880F991FEC01259710E046
:1037D00000E061E086E00E945A0CCE010197F1F70B
:1037E00060E086E00E945A0CCE010197F1F70F5F6E
:1037F0001F4FE016F10669F7DF91CF911F910F91EE
:10380000FF90EF9008951F93CF93DF93182F0E949E
:10381000B90CEC01812F0E94B90C8C0F9D1F96955D
:103820008795DF91CF911F9108953F924F925F92BC
:103830006F927F928F929F92AF92BF92CF92DF92C0
:10384000EF92FF920F931F93CF93DF933B014A01B7
:103850002901E7013C2C0E94310CF3019183808304
:10386000F40120813181892B09F059C0C0900103F6
:10387000D0900203E0900303F0900403213031055F
:1038800031F511821082F20180819181A281B38190
:10389000B701A601481B590B6A0B7B0BC801110F1E
:1038A000AA0BBB0B481759076A077B0780F03983BF
:1038B0002883F501C082D182E282F382F1E03F12D7
:1038C0001CC06DE470E088EC90E00E94DA1BF5010A
:1038D00080819181A281B381A7019601281B390BB8
:1038E0004A0B5B0BDA01C9018C329140A105B1058D
:1038F00020F083E090E099838883DF91CF911F913E
:103900000F91FF90EF90DF90CF90BF90AF909F907E
:103910008F907F906F905F904F903F900895232BF2
:1039200061F781E090E09183808380910103909121
:103930000203A0910303B0910403F20180839183F9
:10394000A283B38388819981892BB9F282E090E0C8
:10395000D2CFFC0101900020E9F73197AF01481B5D
:10396000590BBC018EE093E00C94DB0B8F929F927D
:10397000AF92BF920F931F93CF93DF93CDB7DEB774
:10398000A1970FB6F894DEBF0FBECDBF19A242308B
:1039900008F44AE08E010F5D1F4F842E912CB12C4C
:1039A000A12CA50194010E94CD31E62FB901CA01D5
:1039B000EA30F4F4E05DD801EE938D01232B242B43
:1039C000252B79F790E080E0109719F0CD010E9447
:1039D000A91CA1960FB6F894DEBF0FBECDBFDF9134
:1039E000CF911F910F91BF90AF909F908F900895AE
:1039F000E95CE1CFCF92DF92EF92FF92CF93DF931A
:103A00006B017C016DE28EE093E00E94CE11EC012F
:103A100066277727CB016C197D098E099F094AE03B
:103A20000E94B61C8C0F9D1FDF91CF91FF90EF90ED
:103A3000DF90CF9008950C94A91C0F931F938111D0
:103A400050C08091D00281114CC0233021F181E01F
:103A50008093220380932303243051F18EE390E07E
:103A60000436110514F082E090E090931B038093DC
:103A70001A0389E390E090931D0380931C03CA010D
:103A80006130F9F0109221031092200310921F036D
:103A900010921E0320C0209322032093230382E070
:103AA00090E090931B0380931A038AE090E0E3CFA9
:103AB0008FE590E090931B0380931A0382E090E0DF
:103AC000DACF21E030E030932103209320033093BC
:103AD0001F0320931E030E941B1D1F910F910C9426
:103AE000501A1F910F9108952091140330911503DE
:103AF000C901079697FD079623E0959587952A9526
:103B0000E1F72091120330911303829FA001839F5C
:103B1000500D929F500D112470E060E080912D03B4
:103B200090912E030C943333EF92FF920F931F93D7
:103B300060E08FE00E945A0C0E94741D8FE3E82E13
:103B4000F12C0CE710E022E633E150E040E070E0B9
:103B500060E08EE093E00E94F0140E94501A64E648
:103B600070E088EC90E00E94DA1B62E370E080E095
:103B700090E00E94F30C64E670E088EC90E00E9414
:103B8000DA1B62E370E080E090E00E94F30C64E6F0
:103B900070E088EC90E00E94DA1B6CED75E080E04C
:103BA00090E00E94F30C809105038630D0F082E013
:103BB0000E94310C892B31F0809108039091090308
:103BC000019779F4109205031092070310920603EF
:103BD000109209031092080360E081E00E945A0CE1
:103BE000E6CF0E94741D1F910F91FF90EF900C94EF
:103BF000501ACF92DF92EF92FF920F931F93CF93C1
:103C0000DF93CDB7DEB728970FB6F894DEBF0FBEAF
:103C1000CDBF2091D002211142C07F936F939F931B
:103C20008F9382E591E09F938F93CE0101966C0173
:103C30009F938F930E943A33F12CE12C07E010E020
:103C400020E230E049E350E06FE570E08EE093E081
:103C50000E94531381E0809322038093230381E029
:103C600090E0909321038093200390931F0380930F
:103C70001E038FE590E090931B0380931A0389E362
:103C800090E090931D0380931C03C6010E941B1DAE
:103C90000E94501A0FB6F894DEBF0FBECDBF289613
:103CA0000FB6F894DEBF0FBECDBFDF91CF911F914D
:103CB0000F91FF90EF90DF90CF9008950E942E33E8
:103CC00085ED8093BC008091130290911402A09125
:103CD0001502B09116020796A11DB11D23E0B695FD
:103CE000A795979587952A95D1F72091BC0024FD3B
:103CF00003C010925C020895409113025091140287
:103D00006091150270911602452B462B472B69F3E3
:103D10000097A105B10541F025E32A95F1F70000D0
:103D20000197A109B109E1CF809112020C94AC175F
:103D30001F920F920FB60F9211242F933F938F93E0
:103D40009F93AF93BF938091830290918402A0913F
:103D50008502B09186023091820223E0230F2D3735
:103D600058F50196A11DB11D209382028093830214
:103D700090938402A0938502B0938602809187027B
:103D800090918802A0918902B0918A020196A11DAA
:103D9000B11D8093870290938802A0938902B0930B
:103DA0008A02BF91AF919F918F913F912F910F9078
:103DB0000FBE0F901F90189526E8230F0296A11DA5
:103DC000B11DD2CF1F920F920FB60F9211242F93D5
:103DD0003F934F935F936F937F938F939F93AF9393
:103DE000BF93EF93FF938091B900887F803609F4E9
:103DF0004AC0F0F5883209F4A7C018F5803109F4FB
:103E00009BC0B8F4882309F4F9C0883009F494C041
:103E1000FF91EF91BF91AF919F918F917F916F91A2
:103E20005F914F913F912F910F900FBE0F901F9078
:103E30001895883109F488C0803251F780935B026D
:103E400014C0803409F49DC040F48033B9F3883342
:103E5000F9F680935B0285ECB0C0803509F485C02B
:103E6000883509F496C0883499F60E94601ED0CF38
:103E7000883909F48CC038F5883729F050F4883631
:103E800011F0803729F683E080935C0210925A0289
:103E900057C0883809F47BC0803919F0803809F0A0
:103EA000B7CF80915A02803208F071C0E0915A0277
:103EB00081E08E0F80935A028091BB00F0E0E65CB7
:103EC000FD4F80833DC0803B39F0E0F4803A09F437
:103ED00079C0883A09F09CCF84E080935C0210920C
:103EE000390210923802E0918E02F0918F0209950A
:103EF0008091380281110FC081E0809338021092C6
:103F0000180209C0803C09F4A6CF883C09F4A3CF6D
:103F1000883B09F07DCFE091390281E08E0F8093DC
:103F20003902F0E0E85EFD4F80818093BB00909104
:103F300039028091380229C0809181028093BB00B0
:103F400085EC8093BC0064CF9091800280917F02C9
:103F5000981758F5E091800281E08E0F80938002DF
:103F6000F0E0E15AFD4F8081E9CFE091800281E0ED
:103F70008E0F809380028091BB00F0E0E15AFD4FEC
:103F800080839091800280917F029817C8F285E823
:103F9000D8CFE091800281E08E0F809380028091E3
:103FA000BB00F0E0E15AFD4F808380915E028111F9
:103FB0005CCF81E080935D0284EA8093BC00109224
:103FC0005C0226CF85EC8093BC0010925C0280914D
:103FD0005A02803230F4E0915A02F0E0E65CFD4F84
:103FE000108260915A0270E0E0918C02F0918D0293
:103FF0008AE392E0099510925A020ACF10925B026E
:1040000034CF71E03D9A3C980000000000000E940F
:10401000DE213D980E94DE21A894000000000000EF
:10402000359B0E94C621D2F0889434990894771F5A
:1040300048F73D9A803019F03C980C9420203C9A27
:104040000000000000000E94DE213D98A8940000BE
:104050000000359B0E94C6210E94DE210000000066
:104060003D9A872F9927089580E208950894881F24
:104070000C943B20880FF1F03D9A000000000000F6
:1040800020F400003C980C9448203C9A0C94482062
:104090000E94DE213D98A894000000000000359B9E
:1040A0000E94C6211AF488270C946D200E94DE21FC
:1040B0000C943A203D9A000000003C980E94DE21BA
:1040C000992788273D98A8940000359B0E94C62117
:1040D00052F3349B81E00E94DE21000000003D9AF3
:1040E000089581E008953D9A3C9A0E94DE213D9812
:1040F0000E94DE21359B0E94C6213C980E94DE2151
:10410000789408958F93F1E0E4EF8F918F93F89472
:10411000359B0E94C6213C9A0E94DE210E943620D7
:10412000882331F40E947320319711F00C9485207C
:1041300099270F9008950895F8943D9A0E94DE21E2
:104140003C980E94DE213D980E94DE21359B0E9412
:10415000C6213C9A0E94DE210E943620089581E00B
:104160000895F894359B0E94C6213C9A0E94DE2156
:104170000E943620089581E00895DF92EF92FF9229
:104180000F931F93CF93DF93D82E0E94732061E08B
:1041900070E080E090E00E94F30C0E94732061E0E8
:1041A00070E080E090E00E94F30C8AE0E82EF12CB1
:1041B00001E010E080EC0E94B120C1E0D0E081116C
:1041C00004C010E000E0D0E0C0E084E40E943620AB
:1041D000811104C010E000E0D0E0C0E08D2D0E940D
:1041E0003620811102C0D0E0C0E00E94732061E05F
:1041F00070E080E090E00E94F30CCD2B21F481E090
:10420000E81AF108B9F6012B41F1DF91CF911F9126
:104210000F91FF90EF90DF90089501501109A9F3DD
:1042200080EC0E94B120C82F84E40E9436208111C6
:1042300001C0C0E0D0E08D2D0E943620811102C067
:10424000D0E0C0E00E94732061E070E080E090E088
:104250000E94F30CCD2B09F3D8CF0AE010E0E0CF99
:10426000EF92FF920F931F93CF93DF936F357105FA
:104270000CF077C0813009F474C0EB01E5EDF2E198
:1042800084910E94BD2061E08FE00E945A0C88E674
:10429000E82E80E0F82EC233D1050CF03CC000912E
:1042A000EB021091EC0224E04CE551E061E08091DA
:1042B00000030E941D1D9CE7E92E90E0F92EF701F6
:1042C0001491E12FF0E0EB52FD4E84910E94BD204D
:1042D0006AE070E080E090E00E94F30CFFEFEF1ADC
:1042E000FF0A80E9E81680E0F80649F7E12FF0E0E0
:1042F000CF018C1B9D0B181619062CF5EB52FD4EA9
:1043000084910E94BD2062E070E080E090E00E9415
:10431000F30C1150EBCFF7011491E12FF0E0EB52C9
:10432000FD4E84910E94BD206AE070E080E090E044
:104330000E94F30CFFEFEF1AFF0A8CE7E81680E00B
:10434000F80649F7D3CFE29764F40091EB0210919D
:10435000EC0224E04CE551E062E0809100030E9411
:104360001D1DDF91CF911F910F91FF90EF90089548
:104370003C983D984498459888279927349B089500
:10438000359B089581E0089581E00895B0E0A4E0B0
:1043900000240E94D6213AF40A94D9F71197C1F764
:1043A00028940C94DD21A8940C94DD21A8943599CF
:1043B0000C94DB2128940000089508959BE69A95BB
:1043C000F1F708950895EEE0F3E01382128220E8F9
:1043D00030E03583248380E490E0978386833187BF
:1043E000208793878287168A1586148617861686F5
:1043F00081E0858B848B2FEF3FEF338B228B318BCA
:10440000208B878B108E128E118E8AE291E0918321
:104410008083148E138E168E158E10A2178E8BE04D
:1044200084A38DE085A38CE086A38AE087A388E03F
:1044300080A780E586AF17AE0895CF93DF93CDB701
:10444000DEB728970FB6F894DEBF0FBECDBF7894C5
:1044500084B5826084BD84B5816084BD85B5826089
:1044600085BD85B5816085BD80916E00816080933A
:104470006E001092810080918100826080938100A3
:1044800080918100816080938100809180008160B3
:10449000809380008091B10084608093B10080910E
:1044A000B00081608093B00080917A008460809336
:1044B0007A0080917A00826080937A0080917A00FD
:1044C000816080937A0080917A00806880937A007E
:1044D0001092C10060E089E00E945A0C61E089E01E
:1044E0000E94880C80912D0390912E03892B39F125
:1044F0000E94741D80911403909115036091120322
:1045000070911303813291050CF04AC5AC01405201
:10451000510957FF02C04F5F5F4F5595479563574D
:10452000710977FF02C06F5F7F4F75956795F0E265
:10453000EF2EF12C03E710E02CE036E049C5209186
:10454000140330911503C901079697FD079623E0E0
:10455000959587952A95E1F72091120330911303E1
:104560008C01029FC001039F900D129F900D11249A
:104570000E94093290932E0380932D03892B09F01A
:10458000B7CF0E94B8211092000360E089E00E943A
:104590005A0C61E089E00E94880C60E08EE00E9485
:1045A000880C60E080E10E94880C60E081E10E945C
:1045B000880C60E084E00E94880C60E083E00E9448
:1045C000880C61E086E00E94880C60E082E00E9436
:1045D000880C60E085E10E94880C60E084E10E9424
:1045E000880C61E08FE00E94880C61E087E00E9407
:1045F000880C61E081E00E94880C61E080E00E940C
:10460000880C60E085E00E94880C60E081E00E94F8
:104610005A0C60E080E00E945A0C60E089E00E9441
:104620005A0C60E087E00E945A0C60E086E00E942D
:104630005A0C61E082E00E945A0C0E94741DEE2424
:10464000E394F12C00E410E027E430E050E040E097
:104650006DE170E08EE093E00E945F1262E3E62E6F
:10466000F12C09E310E02CEA3AE047E050E064E284
:1046700070E08EE093E00E94F0140E94501AC12C6A
:10468000D12C7601C3941AE0E5E14E2E512C612C19
:10469000712C00E0530142018C189D08AE08BF0840
:1046A00061E089E00E945A0CC701B6010E94F30C38
:1046B00060E089E00E945A0CC501B4010E94F30C2D
:1046C0000F5F0113EDCF1150153008F415E02FEFF7
:1046D000C21AD20AE20AF20A34E1C316D104E10492
:1046E000F104B9F661E089E00E945A0C68EE73E0CB
:1046F00080E090E00E94F30C0E94741D87E080939C
:1047000022038093230381E090E090932103809320
:10471000200390931F0380931E0381E290E00E9488
:1047200072308A3D09F44BC06AE090E080E00E945C
:104730007A3064E181E090E00E947A3068E282E0C1
:1047400090E00E947A3062E383E090E00E947A3049
:104750006BE084E090E00E947A3065E185E090E0D3
:104760000E947A3069E286E090E00E947A3063E34A
:1047700087E090E00E947A306CE088E090E00E9450
:104780007A3066E189E090E00E947A306AE28AE05D
:1047900090E00E947A3064E38BE090E00E947A30EF
:1047A00061E080E290E00E947A3060E089E190E090
:1047B0000E947A306AED81E290E00E947A3090E0C7
:1047C00080E00E947230182F8093D50281E090E043
:1047D0000E9472308093D60282E090E00E94723094
:1047E0008093D70283E090E00E9472308093D802D9
:1047F00084E090E00E9472308093D90285E090E0DE
:104800000E9472308093DA0286E090E00E9472305B
:104810008093DB0287E090E00E9472308093DC029C
:1048200088E090E00E9472308093DD0289E090E0A1
:104830000E9472308093DE028AE090E00E94723023
:104840008093DF028BE090E00E9472308093E00260
:1048500080E290E00E9472308093C10289E190E092
:104860000E94723090E09093BD028093BC0260E0A1
:10487000892B09F061E087E00E945A0C812F90E0BB
:104880009093EE028093ED020E94260D6093B80291
:104890007093B9028093BA029093BB026093B00206
:1048A0007093B1028093B2029093B3026093FC02C2
:1048B0007093FD028093FE029093FF026093EF02DB
:1048C0007093F0028093F1029093F2028824839413
:1048D000912CDD24D3940E94260DAB01BC014093A2
:1048E00001035093020360930303709304038091C8
:1048F0000003811173C08091FC029091FD02A09190
:10490000FE02B091FF028A019B01081B190B2A0BC2
:104910003B0BD901C80120911701213009F044C592
:10492000813117E29107A105B10508F457C0009144
:10493000F8021091F9022091FA023091FB02800FE7
:10494000911FA21FB31F8093F8029093F902A093C6
:10495000FA02B093FB024093FC025093FD02609375
:10496000FE027093FF02BC01CD0128EE33E040E06F
:1049700050E00E94CD3129013A0121E942162EE78B
:1049800052066104710430F030E9432E3EE7532EA5
:10499000612C712CC301B20120E13EE040E050E007
:1049A0000E94CD3179013093F7022093F602C301C2
:1049B000B2012CE330E040E050E00E94CD31CA016A
:1049C000B9012CE330E040E050E00E94CD3170931B
:1049D000F5026093F402C7010E94F91D8091010362
:1049E00090910203A0910303B09104034091EF0260
:1049F0005091F0026091F1027091F202841B950BCC
:104A0000A60BB70B81389E4EA643B10508F48CC0A7
:104A10000E94741D0E94501A10E000E023E042E65C
:104A200051E061E0809100030E941D1D60ED77E080
:104A300080E090E00E94F30C0E94741D0E94501AC6
:104A400084E00E94310C8C010E94260D60930103CA
:104A5000709302038093030390930403112784E06F
:104A60000E94310C7C0180E10E94310CCC24C39463
:104A7000892B21F00E151F0509F4C12C82E00E943C
:104A8000310C892B11F4CC24C39481E10E94310CA8
:104A9000892B11F0CC2019F30E94741D0E94501A2A
:104AA00010E000E023E04AE651E061E0809100037D
:104AB0000E941D1D64E670E088EC90E00E94DA1B05
:104AC00068EE73E080E090E00E94F30C0E94741D99
:104AD0000E94501A80E10E94310C019709F094C4A1
:104AE00082E00E94310C019709F08EC481E10E949E
:104AF000310C019709F088C40E94741D0E94501A5D
:104B00000E94260D609301037093020380930303B8
:104B1000909304036093EF027093F0028093F1028C
:104B20009093F202D092160180911601813009F023
:104B300087C0109216010091ED021091EE02F8016B
:104B4000EB52FD4E84910E94BD20F801E85BFD4EC2
:104B50006491462E512C5092EC024092EB0270E090
:104B600090E080E00E94BE3026E636E646EA50E459
:104B70000E9424310E9488307093EA026093E90217
:104B800087E08093220380932303909221038092F5
:104B9000200390921F0380921E030E94741DC20185
:104BA0006AE070E00E94B9317B0126EF26038001A4
:104BB000279F100D1124040D151D54E645165104B0
:104BC0000CF42DC483E590E00E94321429E5622E96
:104BD000712C10921B0310921A0310921D03109255
:104BE0001C03B701FF0C880B990B4AE00E94B61C0E
:104BF00070921B0360921A0310921D0310921C0303
:104C0000B801012E000C880B990B17FF10C40E94ED
:104C1000FA1C8EE891E00E94A91C0E94501A809113
:104C20001501813019F483E0809315016091F4023D
:104C30007091F5028091F6029091F7020E94F91DA1
:104C40008091E7029091E802019709F048C08091B5
:104C5000010390910203A0910303B09104034091DA
:104C6000E3025091E4026091E5027091E602841B38
:104C7000950BA60BB70B803D9740A105B10578F1C8
:104C80008091E1029091E2026091ED02FC01EB5211
:104C9000FD4F608390E00E947A301092E8021092FB
:104CA000E7020091EB021091EC0221E041E951E0B2
:104CB00061E0809100030E941D1D6CE271E080E0C4
:104CC00090E00E94F30C0091EB021091EC0221E0C5
:104CD00041E951E062E0809100030E941D1D809136
:104CE0001501833061F58091010390910203A09139
:104CF0000303B09104034091D1025091D20260911C
:104D0000D3027091D402841B950BA60BB70B813D87
:104D10009740A105B10598F082E080931501F12C30
:104D2000E12C0DE010E025E230E043E350E070E0DC
:104D300060E08EE093E00E9453130E94501A80912D
:104D4000D002882309F452C4109216010E94741DE7
:104D500083E0F82EF0922203F09223039092210335
:104D60008092200390921F0380921E030AE010E0BD
:104D700020E430E040E850E070E060E090E080E067
:104D80000E9423168091D002813009F05DC388E033
:104D900090E090931D0380931C038091E102909119
:104DA000E202892B09F047C388E290E090931B034D
:104DB00080931A0385E991E00E941B1D80E390E037
:104DC00090931B0380931A0383E290E090931D035A
:104DD00080931C038DE991E00E941B1D0E94501AD4
:104DE0008091010390910203A0910303B091040309
:104DF0004091CC025091CD026091CE027091CF02D1
:104E0000841B950BA60BB70B81329340A105B1050E
:104E100020F01092D002D09216016091CA027091D7
:104E2000CB026230710509F052C08091D00281112D
:104E300006C41092CB021092CA028091C8029091CF
:104E4000C902892B09F0E3C31092E8021092E7022D
:104E5000409001035090020360900303709004039C
:104E60004092EF025092F0026092F1027092F202D0
:104E70008091060390910703892B09F0E0C380918C
:104E8000E1029091E20201960E94B9318C01909367
:104E9000E2028093E10260E0892B09F061E080E0AA
:104EA0000E945A0CF801EB52FD4F808190E09093E4
:104EB000EE028093ED02D0921601D092150140923D
:104EC000D1025092D2026092D3027092D4028091A9
:104ED000CA029091CB02039709F0B1C39092C90224
:104EE0008092C80200911301109114010130110544
:104EF00061F5109214011092130167E370E088ECE1
:104F000090E00E94DA1B6FE070E080E090E00E9489
:104F1000F30C67E370E088EC90E00E94DA1B80916C
:104F2000080390910903019709F076C360E081E0DE
:104F30000E945A0C10920903109208031092070362
:104F40001092060382E08093D0022091C402309137
:104F5000C5022230310509F084C31092C5021092B7
:104F6000C4028091D0028111B4C680910103909156
:104F70000203A0910303B09104038093EF02909386
:104F8000F002A093F102B093F2028091000381112C
:104F90005BC3D0920003D092C302109216011EC6CA
:104FA000AC014054510957FF02C04F5F5F4F559508
:104FB00047956255710977FF02C06F5F7F4F759506
:104FC000679510E4E12EF12C02E510E02CEE37E0BD
:104FD0008EE093E00E94F01482E080933003809191
:104FE0002B0390912C03892B09F4E8C080911403C2
:104FF00090911503809709F0DFC08CE380932F0315
:10500000109291021092900210920B0310920A03D8
:105010000E948E1789ED9BE090938F0280938E0201
:105020008AED9BE090938D0280938C0280913603F1
:1050300087FD1EC061E00E94880C61E0809136030C
:105040000E945A0C61E070E080E090E00E94F30C56
:1050500060E0809136030E945A0C6AE070E080E0C4
:1050600090E00E94F30C61E0809136030E945A0C9C
:1050700080912B0390912C03892B09F45EC1209120
:10508000430330914403409145035091460360E04F
:1050900074E284EF90E00E94CD3120513109410942
:1050A000510956954795379527952093B80064E0A8
:1050B00086ED95E00E9439196091140361508EE0ED
:1050C00093E00E94EE1964E082ED95E00E943919A8
:1050D0008091300360E1813009F064E18EE093E07B
:1050E0000E94EE1964E08EEC95E00E9439198FE879
:1050F00080934B03809112039091130380389105A4
:1051000009F034C180911403909115038034910506
:1051100009F03CC180913003813009F025C18FE94D
:1051200080934B0312E16AED8EE093E00E94EE194A
:10513000612F8EE093E00E94EE1961E88EE093E02B
:105140000E94EE1960914B038EE093E00E94EE19ED
:1051500069ED8EE093E00E94EE198091300362E2E7
:10516000813009F061EF8EE093E00E94EE1966E075
:1051700088EC95E00E94391980912B0390912C03C3
:10518000892B09F407C120914703309148034091CE
:10519000490350914A0360E074E284EF90E00E947A
:1051A000CD3120513109410951095695479537951F
:1051B00027952093B800E5C98DE320CF61E0809169
:1051C00034030E94880C61E0809135030E94880CB2
:1051D00080913403082E000C990BFC01E850FA4F23
:1051E000E491F0E0EE0FFF1FE251FA4F2591349168
:1051F00030933C0320933B03FC01E652FA4FE491C9
:10520000E093410380913503082E000C990BFC01BB
:10521000E850FA4FE491F0E0EE0FFF1FE251FA4F31
:10522000A591B491B0933E03A0933D03FC01E652D7
:10523000FA4FE491E09342038C91E82BEC93809138
:10524000290390912A03892B09F434C01FB7F894DD
:1052500080918B02811127C0E2E0F6E08491E4EEB8
:10526000F5E09491E82FF0E0EE0FFF1FE254FA4FC3
:10527000A591B491EC91E92321F461E08AE00E94C8
:105280005A0C61E08AE00E94880C8CB580618CBD6C
:105290008CB580648CBD61E08DE00E94880C61E07B
:1052A0008BE00E94880C80918B028F5F80938B0231
:1052B0001FBFBCCE61E0809132030E94880C61E088
:1052C000809133030E94880C80913203082E000CD9
:1052D000990BFC01E850FA4FE491F0E0EE0FFF1F4C
:1052E000E251FA4F259134913093380320933703DC
:1052F000FC01E652FA4FE491E0933F0380913303BF
:10530000082E000C990BFC01E850FA4FE491F0E0F4
:10531000EE0FFF1FE251FA4FA591B491B0933A03FB
:10532000A0933903FC01E652FA4FE491E093400365
:105330008C91E095E823EC9379CE809129039091AC
:105340002A03892B31F080914C0390914D030E94E8
:10535000900FE0913D03F0913E03908180914203D4
:10536000809589238083A3CE8FECDACE8036910599
:1053700069F48091140390911503409739F480915A
:105380003003813029F480E180934B0312E0CBCECF
:105390008FEAFACFE0913D03F0913E038081909136
:1053A0004203892B8083EDC8893E9340A105B10556
:1053B00008F414CB4093FC025093FD026093FE026C
:1053C0007093FF028091F302813059F41092F3023E
:1053D0006091F4027091F5028091F6029091F702CB
:1053E000FBCAD092F302F12CE12C07E010E020E29E
:1053F00030E049E350E06FE570E08EE093E00E941A
:1054000053130E94501AEACA06E910E021E049E766
:1054100051E061E0809100030E941D1D5BCB89E299
:1054200090E00E94321495E3692E712CD2CB4AE0B1
:105430000E94B61CEECB88E290E090931B03809311
:105440001A0389E991E0B8CC8230A1F58091E1029C
:105450009091E202892BF9F488E290E090931B038B
:1054600080931A0388E090E090931D0380931C03BF
:1054700085E991E00E941B1D89E290E090931B0357
:1054800080931A0383E290E090931D0380931C03A2
:1054900080EA91E0A1CC88E290E090931B03809396
:1054A0001A0388E090E090931D0380931C0389E920
:1054B00091E0E0CF833009F048C08AE190E090931A
:1054C0001B0380931A0325E030E030931D032093E3
:1054D0001C0384EA91E00E941B1D86E0EEE1F1E0EE
:1054E000DE01119601900D928A95E1F718861F82D0
:1054F0008091F5028F938091F4028F938091F7024F
:105500008F938091F6028F934AEA51E05F934F9315
:1055100001E010E00C0F1D1F1F930F930E943A3300
:105520002CE130E030931B0320931A0383E290E0D8
:1055300090931D0380931C03C8010E941B1D0FB68E
:10554000F894DEBF0FBECDBF49CC843009F046CC05
:105550008CE190E090931B0380931A0305E010E028
:1055600010931D0300931C0384EB91E00E941B1D0C
:1055700086E0EEE1F1E0DE01119601900D928A9550
:10558000E1F718861F828091F5028F938091F402D3
:105590008F938091F7028F938091F6028F932AEA7E
:1055A00031E03F932F9381E090E08C0F9D1F9F93FC
:1055B0008F930E943A33F0922203F0922303909249
:1055C00021038092200390921F0380921E0389E1A1
:1055D00090E090931B0380931A0383E290E09093F2
:1055E0001D0380931C03CE010196A7CF8091010378
:1055F00090910203A0910303B09104038093CC0225
:105600009093CD02A093CE02B093CF0206CC10921D
:10561000C9021092C8025BCC61E081E00E945A0C82
:1056200010930903009308031093070300930603E4
:10563000D092D0021093C7020093C60286CC9092FB
:1056400014018092130181CC813009F0D8C290916D
:10565000C202923009F4B8C208F0ACC2992309F42E
:10566000C7C28091C4029091C502039709F031C36B
:1056700080910F0190911001019731F51092100166
:1056800010920F01109200031092C302D0921601E3
:1056900067E370E088EC90E00E94DA1B6FE070E056
:1056A00080E090E00E94F30C67E370E088EC90E00B
:1056B0000E94DA1B80911701813009F006C3109215
:1056C000170184E08093D00270900003711016C01F
:1056D00014EBA12E12E0B12ECC24C3940AECE02EE0
:1056E00002E0F02E04E610E028EB32E04BE051E05F
:1056F0006DE071E080E190E00E94151CEAEAAE2EB8
:10570000E2E0BE2EC12CFEEAEF2EF2E0FF2E08EC06
:1057100010E020EB32E047E051E069E071E082E028
:1057200090E00E94151CA2EAAA2EA2E0BA2ECC2478
:10573000C394B4ECEB2EB2E0FB2E26EA32E043E059
:1057400051E065E071E081E190E00E94151C0E944B
:10575000260D1B012C01209201033092020340927E
:1057600003035092040384E00E94310C7C01662400
:105770006394892B09F4612C6092A1028091A002AC
:10578000882309F476C0E114F10409F072C0209274
:10579000EF023092F0024092F1025092F20283E066
:1057A0000E94310C892B09F099C28FEF9FEF9093E3
:1057B0009F0280939E0200919E0210919F02809111
:1057C00001019091020108171907B9F080919A021E
:1057D00090919B02A0919C02B0919D02A201910127
:1057E000281B390B4A0B5B0BDA01C9014E97A10547
:1057F000B10508F478C2D0920001C090000131E0F8
:10580000C31237C0109302010093010120929A0243
:1058100030929B0240929C0250929D021092D002C4
:10582000711064C262E070E084EF91E00E94DA1BC4
:10583000C09216019092E8028092E7022092E30261
:105840003092E4024092E5025092E6028091ED022D
:105850009091EE02080F191F17FD07C078010D384F
:10586000110518F07CE8E72EF12CF092EE02E092A0
:10587000ED026092A00270900003772009F46BC0E3
:105880003090C30231E0331266C01092C3024090E0
:105890001101509012010E94741D41E0741287C2E0
:1058A00062E0F62EF0922203F092230390922103FD
:1058B0008092200390921F0380921E0303E210E067
:1058C00010931B0300931A0385E090E090931D034F
:1058D00080931C0389EB91E00E941B1D10931B0316
:1058E00000931A038AE190E090931D0380931C03B8
:1058F0008CE591E00E941B1D10931B0300931A037B
:105900008FE290E090931D0380931C038FEB91E056
:105910000E941B1D92E04916510409F430C203E0B5
:105920004016510409F437C24A94452891F483E0A3
:105930008093C202EE24E394F12C05E110E026E40A
:1059400030E041E050E06DE170E08EE093E00E94D5
:105950005F120E94501A0091AE021091AF02013006
:105960001105B9F41092AF021092AE0280910803B3
:1059700090910903892B09F060C36091ED02709149
:10598000EE028091C1020E94302161E08FE00E940E
:105990005A0C8091C6029091C7020197C1F4809180
:1059A000060390910703019791F41092C702109299
:1059B000C6026091ED027091EE028091C1020E94D8
:1059C000302161E08FE00E945A0CD0921601809144
:1059D000090190910A01892B39F080910603909179
:1059E000070360E0019789F480910103909102031D
:1059F000A0910303B09104038093EF029093F0020F
:105A0000A093F102B093F20261E08FE00E945A0C81
:105A10008091090190910A01892B31F08091060350
:105A2000909107030197D1F40E94260D6093010322
:105A300070930203809303039093040385E190E045
:105A40000E94031C909399028093980284E190E055
:105A50000E94031C90939702809396028091090103
:105A600090910A01892B39F08091060390910703E8
:105A7000019709F04FC00091E9021091EA0280916C
:105A8000960290919702A801481B590B493751057E
:105A9000DCF140900103509002036090030370908A
:105AA0000403409292025092930260929402709288
:105AB00095028091010390910203A0910303B0919C
:105AC000040384199509A609B709883E9340A105E6
:105AD000B10508F0CCC284E190E00E94031C9093D1
